{
	"contracts/SupplyChain.sol": {
		"SupplyChain": {
			"abi": [
				{
					"inputs": [],
					"stateMutability": "nonpayable",
					"type": "constructor"
				},
				{
					"anonymous": false,
					"inputs": [
						{
							"indexed": false,
							"internalType": "uint256",
							"name": "upc",
							"type": "uint256"
						}
					],
					"name": "Approved",
					"type": "event"
				},
				{
					"anonymous": false,
					"inputs": [
						{
							"indexed": false,
							"internalType": "uint256",
							"name": "upc",
							"type": "uint256"
						}
					],
					"name": "Available",
					"type": "event"
				},
				{
					"anonymous": false,
					"inputs": [
						{
							"indexed": false,
							"internalType": "uint256",
							"name": "upc",
							"type": "uint256"
						}
					],
					"name": "Bought",
					"type": "event"
				},
				{
					"anonymous": false,
					"inputs": [
						{
							"indexed": true,
							"internalType": "address",
							"name": "account",
							"type": "address"
						}
					],
					"name": "BuyerAdded",
					"type": "event"
				},
				{
					"anonymous": false,
					"inputs": [
						{
							"indexed": true,
							"internalType": "address",
							"name": "account",
							"type": "address"
						}
					],
					"name": "BuyerRemoved",
					"type": "event"
				},
				{
					"anonymous": false,
					"inputs": [
						{
							"indexed": true,
							"internalType": "address",
							"name": "account",
							"type": "address"
						}
					],
					"name": "PharmaAdded",
					"type": "event"
				},
				{
					"anonymous": false,
					"inputs": [
						{
							"indexed": true,
							"internalType": "address",
							"name": "account",
							"type": "address"
						}
					],
					"name": "PharmaRemoved",
					"type": "event"
				},
				{
					"anonymous": false,
					"inputs": [
						{
							"indexed": false,
							"internalType": "uint256",
							"name": "upc",
							"type": "uint256"
						}
					],
					"name": "Produced",
					"type": "event"
				},
				{
					"anonymous": false,
					"inputs": [
						{
							"indexed": true,
							"internalType": "address",
							"name": "account",
							"type": "address"
						}
					],
					"name": "RegulatorAdded",
					"type": "event"
				},
				{
					"anonymous": false,
					"inputs": [
						{
							"indexed": true,
							"internalType": "address",
							"name": "account",
							"type": "address"
						}
					],
					"name": "RegulatorRemoved",
					"type": "event"
				},
				{
					"anonymous": false,
					"inputs": [
						{
							"indexed": false,
							"internalType": "uint256",
							"name": "upc",
							"type": "uint256"
						}
					],
					"name": "SentToMarket",
					"type": "event"
				},
				{
					"anonymous": false,
					"inputs": [
						{
							"indexed": false,
							"internalType": "uint256",
							"name": "upc",
							"type": "uint256"
						}
					],
					"name": "SentToVerification",
					"type": "event"
				},
				{
					"anonymous": false,
					"inputs": [
						{
							"indexed": false,
							"internalType": "uint256",
							"name": "upc",
							"type": "uint256"
						}
					],
					"name": "Tested",
					"type": "event"
				},
				{
					"inputs": [
						{
							"internalType": "address",
							"name": "account",
							"type": "address"
						}
					],
					"name": "addBuyer",
					"outputs": [],
					"stateMutability": "nonpayable",
					"type": "function"
				},
				{
					"inputs": [
						{
							"internalType": "address",
							"name": "account",
							"type": "address"
						}
					],
					"name": "addPharma",
					"outputs": [],
					"stateMutability": "nonpayable",
					"type": "function"
				},
				{
					"inputs": [
						{
							"internalType": "address",
							"name": "account",
							"type": "address"
						}
					],
					"name": "addRegulator",
					"outputs": [],
					"stateMutability": "nonpayable",
					"type": "function"
				},
				{
					"inputs": [
						{
							"internalType": "address",
							"name": "account",
							"type": "address"
						}
					],
					"name": "isBuyer",
					"outputs": [
						{
							"internalType": "bool",
							"name": "",
							"type": "bool"
						}
					],
					"stateMutability": "view",
					"type": "function"
				},
				{
					"inputs": [
						{
							"internalType": "address",
							"name": "account",
							"type": "address"
						}
					],
					"name": "isPharma",
					"outputs": [
						{
							"internalType": "bool",
							"name": "",
							"type": "bool"
						}
					],
					"stateMutability": "view",
					"type": "function"
				},
				{
					"inputs": [
						{
							"internalType": "address",
							"name": "account",
							"type": "address"
						}
					],
					"name": "isRegulator",
					"outputs": [
						{
							"internalType": "bool",
							"name": "",
							"type": "bool"
						}
					],
					"stateMutability": "view",
					"type": "function"
				},
				{
					"inputs": [],
					"name": "kill",
					"outputs": [],
					"stateMutability": "nonpayable",
					"type": "function"
				},
				{
					"inputs": [
						{
							"internalType": "uint256",
							"name": "_upc",
							"type": "uint256"
						},
						{
							"internalType": "address",
							"name": "_originPharmaID",
							"type": "address"
						},
						{
							"internalType": "string",
							"name": "_originPharmaName",
							"type": "string"
						},
						{
							"internalType": "string",
							"name": "_originPharmaInformation",
							"type": "string"
						},
						{
							"internalType": "string",
							"name": "_originPharmaCountry",
							"type": "string"
						},
						{
							"internalType": "string",
							"name": "_productName",
							"type": "string"
						}
					],
					"name": "produceMedicine",
					"outputs": [],
					"stateMutability": "nonpayable",
					"type": "function"
				},
				{
					"inputs": [],
					"name": "renounceBuyer",
					"outputs": [],
					"stateMutability": "nonpayable",
					"type": "function"
				},
				{
					"inputs": [],
					"name": "renouncePharma",
					"outputs": [],
					"stateMutability": "nonpayable",
					"type": "function"
				},
				{
					"inputs": [],
					"name": "renounceRegulator",
					"outputs": [],
					"stateMutability": "nonpayable",
					"type": "function"
				},
				{
					"inputs": [
						{
							"internalType": "uint256",
							"name": "_upc",
							"type": "uint256"
						},
						{
							"internalType": "address",
							"name": "_regulatorId",
							"type": "address"
						}
					],
					"name": "sendToRegulation",
					"outputs": [],
					"stateMutability": "nonpayable",
					"type": "function"
				},
				{
					"inputs": [
						{
							"internalType": "uint256",
							"name": "_upc",
							"type": "uint256"
						}
					],
					"name": "testMedicine",
					"outputs": [],
					"stateMutability": "nonpayable",
					"type": "function"
				}
			],
			"devdoc": {
				"kind": "dev",
				"methods": {},
				"version": 1
			},
			"evm": {
				"assembly": "    /* \"contracts/SupplyChain.sol\":110:5284  contract SupplyChain is BuyerRole, RegulatorRole, PharmaRole {... */\n  mstore(0x40, 0x80)\n    /* \"contracts/SupplyChain.sol\":3257:3323  constructor() {... */\n  callvalue\n  dup1\n  iszero\n  tag_1\n  jumpi\n  0x00\n  dup1\n  revert\ntag_1:\n  pop\n    /* \"contracts/BuyerRole.sol\":267:288  _addBuyer(msg.sender) */\n  tag_7\n    /* \"contracts/BuyerRole.sol\":277:287  msg.sender */\n  caller\n    /* \"contracts/BuyerRole.sol\":267:276  _addBuyer */\n  shl(0x20, tag_8)\n    /* \"contracts/BuyerRole.sol\":267:288  _addBuyer(msg.sender) */\n  0x20\n  shr\n  jump\t// in\ntag_7:\n    /* \"contracts/RegulatorRole.sol\":283:308  _addRegulator(msg.sender) */\n  tag_10\n    /* \"contracts/RegulatorRole.sol\":297:307  msg.sender */\n  caller\n    /* \"contracts/RegulatorRole.sol\":283:296  _addRegulator */\n  shl(0x20, tag_11)\n    /* \"contracts/RegulatorRole.sol\":283:308  _addRegulator(msg.sender) */\n  0x20\n  shr\n  jump\t// in\ntag_10:\n    /* \"contracts/PharmaRole.sol\":271:293  _addPharma(msg.sender) */\n  tag_13\n    /* \"contracts/PharmaRole.sol\":282:292  msg.sender */\n  caller\n    /* \"contracts/PharmaRole.sol\":271:281  _addPharma */\n  shl(0x20, tag_14)\n    /* \"contracts/PharmaRole.sol\":271:293  _addPharma(msg.sender) */\n  0x20\n  shr\n  jump\t// in\ntag_13:\n    /* \"contracts/SupplyChain.sol\":3289:3299  msg.sender */\n  caller\n    /* \"contracts/SupplyChain.sol\":3281:3286  owner */\n  0x03\n  0x00\n    /* \"contracts/SupplyChain.sol\":3281:3299  owner = msg.sender */\n  0x0100\n  exp\n  dup2\n  sload\n  dup2\n  0xffffffffffffffffffffffffffffffffffffffff\n  mul\n  not\n  and\n  swap1\n  dup4\n  0xffffffffffffffffffffffffffffffffffffffff\n  and\n  mul\n  or\n  swap1\n  sstore\n  pop\n    /* \"contracts/SupplyChain.sol\":3315:3316  1 */\n  0x01\n    /* \"contracts/SupplyChain.sol\":3309:3312  sku */\n  0x04\n    /* \"contracts/SupplyChain.sol\":3309:3316  sku = 1 */\n  dup2\n  swap1\n  sstore\n  pop\n    /* \"contracts/SupplyChain.sol\":110:5284  contract SupplyChain is BuyerRole, RegulatorRole, PharmaRole {... */\n  jump(tag_16)\n    /* \"contracts/BuyerRole.sol\":1008:1123  function _addBuyer(address account) internal {... */\ntag_8:\n    /* \"contracts/BuyerRole.sol\":1063:1082  buyers.add(account) */\n  tag_18\n    /* \"contracts/BuyerRole.sol\":1074:1081  account */\n  dup2\n    /* \"contracts/BuyerRole.sol\":1063:1069  buyers */\n  0x00\n    /* \"contracts/BuyerRole.sol\":1063:1073  buyers.add */\n  or(tag_0_61, shl(0x20, tag_19))\n  swap1\n    /* \"contracts/BuyerRole.sol\":1063:1082  buyers.add(account) */\n  swap2\n  swap1\n  0x20\n  shr\n  jump\t// in\ntag_18:\n    /* \"contracts/BuyerRole.sol\":1108:1115  account */\n  dup1\n    /* \"contracts/BuyerRole.sol\":1097:1116  BuyerAdded(account) */\n  0xffffffffffffffffffffffffffffffffffffffff\n  and\n  0x6599d9dd7f97ccdc3d99ab507544f9f6ebfca20c63a7e3c018da49eeaefb164a\n  mload(0x40)\n  mload(0x40)\n  dup1\n  swap2\n  sub\n  swap1\n  log2\n    /* \"contracts/BuyerRole.sol\":1008:1123  function _addBuyer(address account) internal {... */\n  pop\n  jump\t// out\n    /* \"contracts/RegulatorRole.sol\":1084:1211  function _addRegulator(address account) internal {... */\ntag_11:\n    /* \"contracts/RegulatorRole.sol\":1143:1166  regulators.add(account) */\n  tag_21\n    /* \"contracts/RegulatorRole.sol\":1158:1165  account */\n  dup2\n    /* \"contracts/RegulatorRole.sol\":1143:1153  regulators */\n  0x01\n    /* \"contracts/RegulatorRole.sol\":1143:1157  regulators.add */\n  or(tag_0_61, shl(0x20, tag_19))\n  swap1\n    /* \"contracts/RegulatorRole.sol\":1143:1166  regulators.add(account) */\n  swap2\n  swap1\n  0x20\n  shr\n  jump\t// in\ntag_21:\n    /* \"contracts/RegulatorRole.sol\":1196:1203  account */\n  dup1\n    /* \"contracts/RegulatorRole.sol\":1181:1204  RegulatorAdded(account) */\n  0xffffffffffffffffffffffffffffffffffffffff\n  and\n  0x2860b5ba44f983f8f363ee6eeb3c24cbca3096803fbdd5129b9e253f01cac076\n  mload(0x40)\n  mload(0x40)\n  dup1\n  swap2\n  sub\n  swap1\n  log2\n    /* \"contracts/RegulatorRole.sol\":1084:1211  function _addRegulator(address account) internal {... */\n  pop\n  jump\t// out\n    /* \"contracts/PharmaRole.sol\":1027:1145  function _addPharma(address account) internal {... */\ntag_14:\n    /* \"contracts/PharmaRole.sol\":1083:1103  pharmas.add(account) */\n  tag_23\n    /* \"contracts/PharmaRole.sol\":1095:1102  account */\n  dup2\n    /* \"contracts/PharmaRole.sol\":1083:1090  pharmas */\n  0x02\n    /* \"contracts/PharmaRole.sol\":1083:1094  pharmas.add */\n  or(tag_0_61, shl(0x20, tag_19))\n  swap1\n    /* \"contracts/PharmaRole.sol\":1083:1103  pharmas.add(account) */\n  swap2\n  swap1\n  0x20\n  shr\n  jump\t// in\ntag_23:\n    /* \"contracts/PharmaRole.sol\":1130:1137  account */\n  dup1\n    /* \"contracts/PharmaRole.sol\":1118:1138  PharmaAdded(account) */\n  0xffffffffffffffffffffffffffffffffffffffff\n  and\n  0x36179de14e9e7cbce2e0a64264f3eb82e80b70aac44ff098d9c6f70b1d7d6595\n  mload(0x40)\n  mload(0x40)\n  dup1\n  swap2\n  sub\n  swap1\n  log2\n    /* \"contracts/PharmaRole.sol\":1027:1145  function _addPharma(address account) internal {... */\n  pop\n  jump\t// out\n    /* \"contracts/Roles.sol\":259:440  function add(Role storage role, address account) internal {... */\ntag_19:\n    /* \"contracts/Roles.sol\":354:355  0 */\n  0x00\n    /* \"contracts/Roles.sol\":335:356  account != address(0) */\n  0xffffffffffffffffffffffffffffffffffffffff\n  and\n    /* \"contracts/Roles.sol\":335:342  account */\n  dup2\n    /* \"contracts/Roles.sol\":335:356  account != address(0) */\n  0xffffffffffffffffffffffffffffffffffffffff\n  and\n  eq\n  iszero\n    /* \"contracts/Roles.sol\":327:357  require(account != address(0)) */\n  tag_25\n  jumpi\n  0x00\n  dup1\n  revert\ntag_25:\n    /* \"contracts/Roles.sol\":376:394  has(role, account) */\n  tag_26\n    /* \"contracts/Roles.sol\":380:384  role */\n  dup3\n    /* \"contracts/Roles.sol\":386:393  account */\n  dup3\n    /* \"contracts/Roles.sol\":376:379  has */\n  shl(0x20, tag_27)\n    /* \"contracts/Roles.sol\":376:394  has(role, account) */\n  0x20\n  shr\n  jump\t// in\ntag_26:\n    /* \"contracts/Roles.sol\":375:394  !has(role, account) */\n  iszero\n    /* \"contracts/Roles.sol\":367:395  require(!has(role, account)) */\n  tag_28\n  jumpi\n  0x00\n  dup1\n  revert\ntag_28:\n    /* \"contracts/Roles.sol\":429:433  true */\n  0x01\n    /* \"contracts/Roles.sol\":406:410  role */\n  dup3\n    /* \"contracts/Roles.sol\":406:417  role.bearer */\n  0x00\n  add\n    /* \"contracts/Roles.sol\":406:426  role.bearer[account] */\n  0x00\n    /* \"contracts/Roles.sol\":418:425  account */\n  dup4\n    /* \"contracts/Roles.sol\":406:426  role.bearer[account] */\n  0xffffffffffffffffffffffffffffffffffffffff\n  and\n  0xffffffffffffffffffffffffffffffffffffffff\n  and\n  dup2\n  mstore\n  0x20\n  add\n  swap1\n  dup2\n  mstore\n  0x20\n  add\n  0x00\n  keccak256\n  0x00\n    /* \"contracts/Roles.sol\":406:433  role.bearer[account] = true */\n  0x0100\n  exp\n  dup2\n  sload\n  dup2\n  0xff\n  mul\n  not\n  and\n  swap1\n  dup4\n  iszero\n  iszero\n  mul\n  or\n  swap1\n  sstore\n  pop\n    /* \"contracts/Roles.sol\":259:440  function add(Role storage role, address account) internal {... */\n  pop\n  pop\n  jump\t// out\n    /* \"contracts/Roles.sol\":786:976  function has(Role storage role, address account)... */\ntag_27:\n    /* \"contracts/Roles.sol\":882:886  bool */\n  0x00\n    /* \"contracts/Roles.sol\":929:930  0 */\n  dup1\n    /* \"contracts/Roles.sol\":910:931  account != address(0) */\n  0xffffffffffffffffffffffffffffffffffffffff\n  and\n    /* \"contracts/Roles.sol\":910:917  account */\n  dup3\n    /* \"contracts/Roles.sol\":910:931  account != address(0) */\n  0xffffffffffffffffffffffffffffffffffffffff\n  and\n  eq\n  iszero\n    /* \"contracts/Roles.sol\":902:932  require(account != address(0)) */\n  tag_30\n  jumpi\n  0x00\n  dup1\n  revert\ntag_30:\n    /* \"contracts/Roles.sol\":949:953  role */\n  dup3\n    /* \"contracts/Roles.sol\":949:960  role.bearer */\n  0x00\n  add\n    /* \"contracts/Roles.sol\":949:969  role.bearer[account] */\n  0x00\n    /* \"contracts/Roles.sol\":961:968  account */\n  dup4\n    /* \"contracts/Roles.sol\":949:969  role.bearer[account] */\n  0xffffffffffffffffffffffffffffffffffffffff\n  and\n  0xffffffffffffffffffffffffffffffffffffffff\n  and\n  dup2\n  mstore\n  0x20\n  add\n  swap1\n  dup2\n  mstore\n  0x20\n  add\n  0x00\n  keccak256\n  0x00\n  swap1\n  sload\n  swap1\n  0x0100\n  exp\n  swap1\n  div\n  0xff\n  and\n    /* \"contracts/Roles.sol\":942:969  return role.bearer[account] */\n  swap1\n  pop\n    /* \"contracts/Roles.sol\":786:976  function has(Role storage role, address account)... */\n  swap3\n  swap2\n  pop\n  pop\n  jump\t// out\n    /* \"contracts/SupplyChain.sol\":110:5284  contract SupplyChain is BuyerRole, RegulatorRole, PharmaRole {... */\ntag_16:\n  dataSize(sub_0)\n  dup1\n  dataOffset(sub_0)\n  0x00\n  codecopy\n  0x00\n  return\nstop\n\nsub_0: assembly {\n        /* \"contracts/SupplyChain.sol\":110:5284  contract SupplyChain is BuyerRole, RegulatorRole, PharmaRole {... */\n      mstore(0x40, 0x80)\n      callvalue\n      dup1\n      iszero\n      tag_1\n      jumpi\n      0x00\n      dup1\n      revert\n    tag_1:\n      pop\n      jumpi(tag_2, lt(calldatasize, 0x04))\n      shr(0xe0, calldataload(0x00))\n      dup1\n      0x64c0daea\n      gt\n      tag_16\n      jumpi\n      dup1\n      0xac63f3c7\n      gt\n      tag_17\n      jumpi\n      dup1\n      0xac63f3c7\n      eq\n      tag_12\n      jumpi\n      dup1\n      0xbbf89803\n      eq\n      tag_13\n      jumpi\n      dup1\n      0xc204a0cf\n      eq\n      tag_14\n      jumpi\n      dup1\n      0xd1e4fd0f\n      eq\n      tag_15\n      jumpi\n      jump(tag_2)\n    tag_17:\n      dup1\n      0x64c0daea\n      eq\n      tag_9\n      jumpi\n      dup1\n      0x81612e4f\n      eq\n      tag_10\n      jumpi\n      dup1\n      0x8e2b65d7\n      eq\n      tag_11\n      jumpi\n      jump(tag_2)\n    tag_16:\n      dup1\n      0x0c5484d7\n      eq\n      tag_3\n      jumpi\n      dup1\n      0x1b90c4be\n      eq\n      tag_4\n      jumpi\n      dup1\n      0x1beadbe2\n      eq\n      tag_5\n      jumpi\n      dup1\n      0x2a55feec\n      eq\n      tag_6\n      jumpi\n      dup1\n      0x41c0e1b5\n      eq\n      tag_7\n      jumpi\n      dup1\n      0x54fc9169\n      eq\n      tag_8\n      jumpi\n    tag_2:\n      0x00\n      dup1\n      revert\n        /* \"contracts/SupplyChain.sol\":4520:4709  function testMedicine(uint _upc)... */\n    tag_3:\n      tag_18\n      0x04\n      dup1\n      calldatasize\n      sub\n      dup2\n      add\n      swap1\n      tag_19\n      swap2\n      swap1\n      tag_20\n      jump\t// in\n    tag_19:\n      tag_21\n      jump\t// in\n    tag_18:\n      stop\n        /* \"contracts/PharmaRole.sol\":698:788  function addPharma(address account) public onlyPharma {... */\n    tag_4:\n      tag_22\n      0x04\n      dup1\n      calldatasize\n      sub\n      dup2\n      add\n      swap1\n      tag_23\n      swap2\n      swap1\n      tag_24\n      jump\t// in\n    tag_23:\n      tag_25\n      jump\t// in\n    tag_22:\n      stop\n        /* \"contracts/RegulatorRole.sol\":903:984  function renounceRegulator() public {... */\n    tag_5:\n      tag_26\n      tag_27\n      jump\t// in\n    tag_26:\n      stop\n        /* \"contracts/BuyerRole.sol\":521:625  function isBuyer(address account) public view returns (bool) {... */\n    tag_6:\n      tag_28\n      0x04\n      dup1\n      calldatasize\n      sub\n      dup2\n      add\n      swap1\n      tag_29\n      swap2\n      swap1\n      tag_24\n      jump\t// in\n    tag_29:\n      tag_30\n      jump\t// in\n    tag_28:\n      mload(0x40)\n      tag_31\n      swap2\n      swap1\n      tag_32\n      jump\t// in\n    tag_31:\n      mload(0x40)\n      dup1\n      swap2\n      sub\n      swap1\n      return\n        /* \"contracts/SupplyChain.sol\":3373:3490  function kill() public {... */\n    tag_7:\n      tag_33\n      tag_34\n      jump\t// in\n    tag_33:\n      stop\n        /* \"contracts/RegulatorRole.sol\":553:665  function isRegulator(address account) public view returns (bool) {... */\n    tag_8:\n      tag_35\n      0x04\n      dup1\n      calldatasize\n      sub\n      dup2\n      add\n      swap1\n      tag_36\n      swap2\n      swap1\n      tag_24\n      jump\t// in\n    tag_36:\n      tag_37\n      jump\t// in\n    tag_35:\n      mload(0x40)\n      tag_38\n      swap2\n      swap1\n      tag_32\n      jump\t// in\n    tag_38:\n      mload(0x40)\n      dup1\n      swap2\n      sub\n      swap1\n      return\n        /* \"contracts/SupplyChain.sol\":3592:4428  function produceMedicine(... */\n    tag_9:\n      tag_39\n      0x04\n      dup1\n      calldatasize\n      sub\n      dup2\n      add\n      swap1\n      tag_40\n      swap2\n      swap1\n      tag_41\n      jump\t// in\n    tag_40:\n      tag_42\n      jump\t// in\n    tag_39:\n      stop\n        /* \"contracts/PharmaRole.sol\":858:933  function renouncePharma() public {... */\n    tag_10:\n      tag_43\n      tag_44\n      jump\t// in\n    tag_43:\n      stop\n        /* \"contracts/SupplyChain.sol\":4855:5282  function sendToRegulation(uint _upc, address _regulatorId)... */\n    tag_11:\n      tag_45\n      0x04\n      dup1\n      calldatasize\n      sub\n      dup2\n      add\n      swap1\n      tag_46\n      swap2\n      swap1\n      tag_47\n      jump\t// in\n    tag_46:\n      tag_48\n      jump\t// in\n    tag_45:\n      stop\n        /* \"contracts/RegulatorRole.sol\":731:830  function addRegulator(address account) public onlyRegulator {... */\n    tag_12:\n      tag_49\n      0x04\n      dup1\n      calldatasize\n      sub\n      dup2\n      add\n      swap1\n      tag_50\n      swap2\n      swap1\n      tag_24\n      jump\t// in\n    tag_50:\n      tag_51\n      jump\t// in\n    tag_49:\n      stop\n        /* \"contracts/BuyerRole.sol\":687:774  function addBuyer(address account) public onlyBuyer {... */\n    tag_13:\n      tag_52\n      0x04\n      dup1\n      calldatasize\n      sub\n      dup2\n      add\n      swap1\n      tag_53\n      swap2\n      swap1\n      tag_24\n      jump\t// in\n    tag_53:\n      tag_54\n      jump\t// in\n    tag_52:\n      stop\n        /* \"contracts/BuyerRole.sol\":843:916  function renounceBuyer() public {... */\n    tag_14:\n      tag_55\n      tag_56\n      jump\t// in\n    tag_55:\n      stop\n        /* \"contracts/PharmaRole.sol\":529:635  function isPharma(address account) public view returns (bool) {... */\n    tag_15:\n      tag_57\n      0x04\n      dup1\n      calldatasize\n      sub\n      dup2\n      add\n      swap1\n      tag_58\n      swap2\n      swap1\n      tag_24\n      jump\t// in\n    tag_58:\n      tag_59\n      jump\t// in\n    tag_57:\n      mload(0x40)\n      tag_60\n      swap2\n      swap1\n      tag_32\n      jump\t// in\n    tag_60:\n      mload(0x40)\n      dup1\n      swap2\n      sub\n      swap1\n      return\n        /* \"contracts/SupplyChain.sol\":4520:4709  function testMedicine(uint _upc)... */\n    tag_21:\n        /* \"contracts/SupplyChain.sol\":4585:4589  _upc */\n      dup1\n        /* \"contracts/SupplyChain.sol\":2530:2544  State.Produced */\n      0x00\n        /* \"contracts/SupplyChain.sol\":2505:2544  items[_upc].itemState == State.Produced */\n      0x06\n      dup2\n      gt\n      iszero\n      tag_63\n      jumpi\n      tag_64\n      tag_65\n      jump\t// in\n    tag_64:\n    tag_63:\n        /* \"contracts/SupplyChain.sol\":2505:2510  items */\n      0x05\n        /* \"contracts/SupplyChain.sol\":2505:2516  items[_upc] */\n      0x00\n        /* \"contracts/SupplyChain.sol\":2511:2515  _upc */\n      dup4\n        /* \"contracts/SupplyChain.sol\":2505:2516  items[_upc] */\n      dup2\n      mstore\n      0x20\n      add\n      swap1\n      dup2\n      mstore\n      0x20\n      add\n      0x00\n      keccak256\n        /* \"contracts/SupplyChain.sol\":2505:2526  items[_upc].itemState */\n      0x09\n      add\n      0x00\n      swap1\n      sload\n      swap1\n      0x0100\n      exp\n      swap1\n      div\n      0xff\n      and\n        /* \"contracts/SupplyChain.sol\":2505:2544  items[_upc].itemState == State.Produced */\n      0x06\n      dup2\n      gt\n      iszero\n      tag_66\n      jumpi\n      tag_67\n      tag_65\n      jump\t// in\n    tag_67:\n    tag_66:\n      eq\n        /* \"contracts/SupplyChain.sol\":2497:2545  require(items[_upc].itemState == State.Produced) */\n      tag_68\n      jumpi\n      0x00\n      dup1\n      revert\n    tag_68:\n        /* \"contracts/SupplyChain.sol\":4619:4623  _upc */\n      dup2\n        /* \"contracts/SupplyChain.sol\":1924:1929  items */\n      0x05\n        /* \"contracts/SupplyChain.sol\":1924:1935  items[_upc] */\n      0x00\n        /* \"contracts/SupplyChain.sol\":1930:1934  _upc */\n      dup3\n        /* \"contracts/SupplyChain.sol\":1924:1935  items[_upc] */\n      dup2\n      mstore\n      0x20\n      add\n      swap1\n      dup2\n      mstore\n      0x20\n      add\n      0x00\n      keccak256\n        /* \"contracts/SupplyChain.sol\":1924:1943  items[_upc].ownerID */\n      0x02\n      add\n      0x00\n      swap1\n      sload\n      swap1\n      0x0100\n      exp\n      swap1\n      div\n      0xffffffffffffffffffffffffffffffffffffffff\n      and\n        /* \"contracts/SupplyChain.sol\":1910:1943  msg.sender == items[_upc].ownerID */\n      0xffffffffffffffffffffffffffffffffffffffff\n      and\n        /* \"contracts/SupplyChain.sol\":1910:1920  msg.sender */\n      caller\n        /* \"contracts/SupplyChain.sol\":1910:1943  msg.sender == items[_upc].ownerID */\n      0xffffffffffffffffffffffffffffffffffffffff\n      and\n      eq\n        /* \"contracts/SupplyChain.sol\":1902:1944  require(msg.sender == items[_upc].ownerID) */\n      tag_70\n      jumpi\n      0x00\n      dup1\n      revert\n    tag_70:\n        /* \"contracts/SupplyChain.sol\":4663:4675  State.Tested */\n      0x01\n        /* \"contracts/SupplyChain.sol\":4639:4644  items */\n      0x05\n        /* \"contracts/SupplyChain.sol\":4639:4650  items[_upc] */\n      0x00\n        /* \"contracts/SupplyChain.sol\":4645:4649  _upc */\n      dup6\n        /* \"contracts/SupplyChain.sol\":4639:4650  items[_upc] */\n      dup2\n      mstore\n      0x20\n      add\n      swap1\n      dup2\n      mstore\n      0x20\n      add\n      0x00\n      keccak256\n        /* \"contracts/SupplyChain.sol\":4639:4660  items[_upc].itemState */\n      0x09\n      add\n      0x00\n        /* \"contracts/SupplyChain.sol\":4639:4675  items[_upc].itemState = State.Tested */\n      0x0100\n      exp\n      dup2\n      sload\n      dup2\n      0xff\n      mul\n      not\n      and\n      swap1\n      dup4\n      0x06\n      dup2\n      gt\n      iszero\n      tag_72\n      jumpi\n      tag_73\n      tag_65\n      jump\t// in\n    tag_73:\n    tag_72:\n      mul\n      or\n      swap1\n      sstore\n      pop\n        /* \"contracts/SupplyChain.sol\":4690:4702  Tested(_upc) */\n      0x06974b56d21c283fee3ed0905f648b2e17cb684cc8dc972ea99704bea957814e\n        /* \"contracts/SupplyChain.sol\":4697:4701  _upc */\n      dup4\n        /* \"contracts/SupplyChain.sol\":4690:4702  Tested(_upc) */\n      mload(0x40)\n      tag_74\n      swap2\n      swap1\n      tag_75\n      jump\t// in\n    tag_74:\n      mload(0x40)\n      dup1\n      swap2\n      sub\n      swap1\n      log1\n        /* \"contracts/SupplyChain.sol\":2555:2556  _ */\n      pop\n        /* \"contracts/SupplyChain.sol\":4520:4709  function testMedicine(uint _upc)... */\n      pop\n      pop\n      jump\t// out\n        /* \"contracts/PharmaRole.sol\":698:788  function addPharma(address account) public onlyPharma {... */\n    tag_25:\n        /* \"contracts/PharmaRole.sol\":429:449  isPharma(msg.sender) */\n      tag_77\n        /* \"contracts/PharmaRole.sol\":438:448  msg.sender */\n      caller\n        /* \"contracts/PharmaRole.sol\":429:437  isPharma */\n      tag_59\n        /* \"contracts/PharmaRole.sol\":429:449  isPharma(msg.sender) */\n      jump\t// in\n    tag_77:\n        /* \"contracts/PharmaRole.sol\":421:450  require(isPharma(msg.sender)) */\n      tag_78\n      jumpi\n      0x00\n      dup1\n      revert\n    tag_78:\n        /* \"contracts/PharmaRole.sol\":762:781  _addPharma(account) */\n      tag_80\n        /* \"contracts/PharmaRole.sol\":773:780  account */\n      dup2\n        /* \"contracts/PharmaRole.sol\":762:772  _addPharma */\n      tag_81\n        /* \"contracts/PharmaRole.sol\":762:781  _addPharma(account) */\n      jump\t// in\n    tag_80:\n        /* \"contracts/PharmaRole.sol\":698:788  function addPharma(address account) public onlyPharma {... */\n      pop\n      jump\t// out\n        /* \"contracts/RegulatorRole.sol\":903:984  function renounceRegulator() public {... */\n    tag_27:\n        /* \"contracts/RegulatorRole.sol\":949:977  _removeRegulator(msg.sender) */\n      tag_83\n        /* \"contracts/RegulatorRole.sol\":966:976  msg.sender */\n      caller\n        /* \"contracts/RegulatorRole.sol\":949:965  _removeRegulator */\n      tag_84\n        /* \"contracts/RegulatorRole.sol\":949:977  _removeRegulator(msg.sender) */\n      jump\t// in\n    tag_83:\n        /* \"contracts/RegulatorRole.sol\":903:984  function renounceRegulator() public {... */\n      jump\t// out\n        /* \"contracts/BuyerRole.sol\":521:625  function isBuyer(address account) public view returns (bool) {... */\n    tag_30:\n        /* \"contracts/BuyerRole.sol\":576:580  bool */\n      0x00\n        /* \"contracts/BuyerRole.sol\":599:618  buyers.has(account) */\n      tag_86\n        /* \"contracts/BuyerRole.sol\":610:617  account */\n      dup3\n        /* \"contracts/BuyerRole.sol\":599:605  buyers */\n      0x00\n        /* \"contracts/BuyerRole.sol\":599:609  buyers.has */\n      tag_87\n      swap1\n        /* \"contracts/BuyerRole.sol\":599:618  buyers.has(account) */\n      swap2\n      swap1\n      0xffffffff\n      and\n      jump\t// in\n    tag_86:\n        /* \"contracts/BuyerRole.sol\":592:618  return buyers.has(account) */\n      swap1\n      pop\n        /* \"contracts/BuyerRole.sol\":521:625  function isBuyer(address account) public view returns (bool) {... */\n      swap2\n      swap1\n      pop\n      jump\t// out\n        /* \"contracts/SupplyChain.sol\":3373:3490  function kill() public {... */\n    tag_34:\n        /* \"contracts/SupplyChain.sol\":3424:3429  owner */\n      0x03\n      0x00\n      swap1\n      sload\n      swap1\n      0x0100\n      exp\n      swap1\n      div\n      0xffffffffffffffffffffffffffffffffffffffff\n      and\n        /* \"contracts/SupplyChain.sol\":3410:3429  msg.sender == owner */\n      0xffffffffffffffffffffffffffffffffffffffff\n      and\n        /* \"contracts/SupplyChain.sol\":3410:3420  msg.sender */\n      caller\n        /* \"contracts/SupplyChain.sol\":3410:3429  msg.sender == owner */\n      0xffffffffffffffffffffffffffffffffffffffff\n      and\n      eq\n        /* \"contracts/SupplyChain.sol\":3406:3484  if (msg.sender == owner) {... */\n      iszero\n      tag_89\n      jumpi\n        /* \"contracts/SupplyChain.sol\":3466:3471  owner */\n      0x03\n      0x00\n      swap1\n      sload\n      swap1\n      0x0100\n      exp\n      swap1\n      div\n      0xffffffffffffffffffffffffffffffffffffffff\n      and\n        /* \"contracts/SupplyChain.sol\":3445:3473  selfdestruct(payable(owner)) */\n      0xffffffffffffffffffffffffffffffffffffffff\n      and\n      selfdestruct\n        /* \"contracts/SupplyChain.sol\":3406:3484  if (msg.sender == owner) {... */\n    tag_89:\n        /* \"contracts/SupplyChain.sol\":3373:3490  function kill() public {... */\n      jump\t// out\n        /* \"contracts/RegulatorRole.sol\":553:665  function isRegulator(address account) public view returns (bool) {... */\n    tag_37:\n        /* \"contracts/RegulatorRole.sol\":612:616  bool */\n      0x00\n        /* \"contracts/RegulatorRole.sol\":635:658  regulators.has(account) */\n      tag_91\n        /* \"contracts/RegulatorRole.sol\":650:657  account */\n      dup3\n        /* \"contracts/RegulatorRole.sol\":635:645  regulators */\n      0x01\n        /* \"contracts/RegulatorRole.sol\":635:649  regulators.has */\n      tag_87\n      swap1\n        /* \"contracts/RegulatorRole.sol\":635:658  regulators.has(account) */\n      swap2\n      swap1\n      0xffffffff\n      and\n      jump\t// in\n    tag_91:\n        /* \"contracts/RegulatorRole.sol\":628:658  return regulators.has(account) */\n      swap1\n      pop\n        /* \"contracts/RegulatorRole.sol\":553:665  function isRegulator(address account) public view returns (bool) {... */\n      swap2\n      swap1\n      pop\n      jump\t// out\n        /* \"contracts/SupplyChain.sol\":3592:4428  function produceMedicine(... */\n    tag_42:\n        /* \"contracts/PharmaRole.sol\":429:449  isPharma(msg.sender) */\n      tag_93\n        /* \"contracts/PharmaRole.sol\":438:448  msg.sender */\n      caller\n        /* \"contracts/PharmaRole.sol\":429:437  isPharma */\n      tag_59\n        /* \"contracts/PharmaRole.sol\":429:449  isPharma(msg.sender) */\n      jump\t// in\n    tag_93:\n        /* \"contracts/PharmaRole.sol\":421:450  require(isPharma(msg.sender)) */\n      tag_94\n      jumpi\n      0x00\n      dup1\n      revert\n    tag_94:\n        /* \"contracts/SupplyChain.sol\":3886:4369  Item({... */\n      mload(0x40)\n      dup1\n      0x0180\n      add\n      0x40\n      mstore\n      dup1\n        /* \"contracts/SupplyChain.sol\":3910:3913  sku */\n      sload(0x04)\n        /* \"contracts/SupplyChain.sol\":3886:4369  Item({... */\n      dup2\n      mstore\n      0x20\n      add\n        /* \"contracts/SupplyChain.sol\":3932:3936  _upc */\n      dup8\n        /* \"contracts/SupplyChain.sol\":3886:4369  Item({... */\n      dup2\n      mstore\n      0x20\n      add\n        /* \"contracts/SupplyChain.sol\":3959:3969  msg.sender */\n      caller\n        /* \"contracts/SupplyChain.sol\":3886:4369  Item({... */\n      0xffffffffffffffffffffffffffffffffffffffff\n      and\n      dup2\n      mstore\n      0x20\n      add\n        /* \"contracts/SupplyChain.sol\":3999:4014  _originPharmaID */\n      dup7\n        /* \"contracts/SupplyChain.sol\":3886:4369  Item({... */\n      0xffffffffffffffffffffffffffffffffffffffff\n      and\n      dup2\n      mstore\n      0x20\n      add\n        /* \"contracts/SupplyChain.sol\":4046:4063  _originPharmaName */\n      dup6\n        /* \"contracts/SupplyChain.sol\":3886:4369  Item({... */\n      dup2\n      mstore\n      0x20\n      add\n        /* \"contracts/SupplyChain.sol\":4102:4126  _originPharmaInformation */\n      dup5\n        /* \"contracts/SupplyChain.sol\":3886:4369  Item({... */\n      dup2\n      mstore\n      0x20\n      add\n        /* \"contracts/SupplyChain.sol\":4161:4181  _originPharmaCountry */\n      dup4\n        /* \"contracts/SupplyChain.sol\":3886:4369  Item({... */\n      dup2\n      mstore\n      0x20\n      add\n        /* \"contracts/SupplyChain.sol\":4208:4220  _productName */\n      dup3\n        /* \"contracts/SupplyChain.sol\":3886:4369  Item({... */\n      dup2\n      mstore\n      0x20\n      add\n        /* \"contracts/SupplyChain.sol\":4248:4249  0 */\n      0x00\n        /* \"contracts/SupplyChain.sol\":3886:4369  Item({... */\n      dup2\n      mstore\n      0x20\n      add\n        /* \"contracts/SupplyChain.sol\":4274:4288  State.Produced */\n      0x00\n        /* \"contracts/SupplyChain.sol\":3886:4369  Item({... */\n      0x06\n      dup2\n      gt\n      iszero\n      tag_96\n      jumpi\n      tag_97\n      tag_65\n      jump\t// in\n    tag_97:\n    tag_96:\n      dup2\n      mstore\n      0x20\n      add\n        /* \"contracts/SupplyChain.sol\":4323:4324  0 */\n      0x00\n        /* \"contracts/SupplyChain.sol\":3886:4369  Item({... */\n      0xffffffffffffffffffffffffffffffffffffffff\n      and\n      dup2\n      mstore\n      0x20\n      add\n        /* \"contracts/SupplyChain.sol\":4356:4357  0 */\n      0x00\n        /* \"contracts/SupplyChain.sol\":3886:4369  Item({... */\n      0xffffffffffffffffffffffffffffffffffffffff\n      and\n      dup2\n      mstore\n      pop\n        /* \"contracts/SupplyChain.sol\":3872:3877  items */\n      0x05\n        /* \"contracts/SupplyChain.sol\":3872:3883  items[_upc] */\n      0x00\n        /* \"contracts/SupplyChain.sol\":3878:3882  _upc */\n      dup9\n        /* \"contracts/SupplyChain.sol\":3872:3883  items[_upc] */\n      dup2\n      mstore\n      0x20\n      add\n      swap1\n      dup2\n      mstore\n      0x20\n      add\n      0x00\n      keccak256\n        /* \"contracts/SupplyChain.sol\":3872:4369  items[_upc] = Item({... */\n      0x00\n      dup3\n      add\n      mload\n      dup2\n      0x00\n      add\n      sstore\n      0x20\n      dup3\n      add\n      mload\n      dup2\n      0x01\n      add\n      sstore\n      0x40\n      dup3\n      add\n      mload\n      dup2\n      0x02\n      add\n      exp(0x0100, 0x00)\n      dup2\n      sload\n      dup2\n      0xffffffffffffffffffffffffffffffffffffffff\n      mul\n      not\n      and\n      swap1\n      dup4\n      0xffffffffffffffffffffffffffffffffffffffff\n      and\n      mul\n      or\n      swap1\n      sstore\n      pop\n      0x60\n      dup3\n      add\n      mload\n      dup2\n      0x03\n      add\n      exp(0x0100, 0x00)\n      dup2\n      sload\n      dup2\n      0xffffffffffffffffffffffffffffffffffffffff\n      mul\n      not\n      and\n      swap1\n      dup4\n      0xffffffffffffffffffffffffffffffffffffffff\n      and\n      mul\n      or\n      swap1\n      sstore\n      pop\n      0x80\n      dup3\n      add\n      mload\n      dup2\n      0x04\n      add\n      swap1\n      dup1\n      mload\n      swap1\n      0x20\n      add\n      swap1\n      tag_98\n      swap3\n      swap2\n      swap1\n      tag_99\n      jump\t// in\n    tag_98:\n      pop\n      0xa0\n      dup3\n      add\n      mload\n      dup2\n      0x05\n      add\n      swap1\n      dup1\n      mload\n      swap1\n      0x20\n      add\n      swap1\n      tag_100\n      swap3\n      swap2\n      swap1\n      tag_99\n      jump\t// in\n    tag_100:\n      pop\n      0xc0\n      dup3\n      add\n      mload\n      dup2\n      0x06\n      add\n      swap1\n      dup1\n      mload\n      swap1\n      0x20\n      add\n      swap1\n      tag_101\n      swap3\n      swap2\n      swap1\n      tag_99\n      jump\t// in\n    tag_101:\n      pop\n      0xe0\n      dup3\n      add\n      mload\n      dup2\n      0x07\n      add\n      swap1\n      dup1\n      mload\n      swap1\n      0x20\n      add\n      swap1\n      tag_102\n      swap3\n      swap2\n      swap1\n      tag_99\n      jump\t// in\n    tag_102:\n      pop\n      0x0100\n      dup3\n      add\n      mload\n      dup2\n      0x08\n      add\n      sstore\n      0x0120\n      dup3\n      add\n      mload\n      dup2\n      0x09\n      add\n      exp(0x0100, 0x00)\n      dup2\n      sload\n      dup2\n      0xff\n      mul\n      not\n      and\n      swap1\n      dup4\n      0x06\n      dup2\n      gt\n      iszero\n      tag_103\n      jumpi\n      tag_104\n      tag_65\n      jump\t// in\n    tag_104:\n    tag_103:\n      mul\n      or\n      swap1\n      sstore\n      pop\n      0x0140\n      dup3\n      add\n      mload\n      dup2\n      0x09\n      add\n      exp(0x0100, 0x01)\n      dup2\n      sload\n      dup2\n      0xffffffffffffffffffffffffffffffffffffffff\n      mul\n      not\n      and\n      swap1\n      dup4\n      0xffffffffffffffffffffffffffffffffffffffff\n      and\n      mul\n      or\n      swap1\n      sstore\n      pop\n      0x0160\n      dup3\n      add\n      mload\n      dup2\n      0x0a\n      add\n      exp(0x0100, 0x00)\n      dup2\n      sload\n      dup2\n      0xffffffffffffffffffffffffffffffffffffffff\n      mul\n      not\n      and\n      swap1\n      dup4\n      0xffffffffffffffffffffffffffffffffffffffff\n      and\n      mul\n      or\n      swap1\n      sstore\n      pop\n      swap1\n      pop\n      pop\n        /* \"contracts/SupplyChain.sol\":4391:4392  1 */\n      0x01\n        /* \"contracts/SupplyChain.sol\":4385:4388  sku */\n      sload(0x04)\n        /* \"contracts/SupplyChain.sol\":4385:4392  sku + 1 */\n      tag_105\n      swap2\n      swap1\n      tag_106\n      jump\t// in\n    tag_105:\n        /* \"contracts/SupplyChain.sol\":4379:4382  sku */\n      0x04\n        /* \"contracts/SupplyChain.sol\":4379:4392  sku = sku + 1 */\n      dup2\n      swap1\n      sstore\n      pop\n        /* \"contracts/SupplyChain.sol\":4407:4421  Produced(_upc) */\n      0x9d1715437821cd9a90cba5d1a68995c308d9ad9afc754ed9a1cff429760796e6\n        /* \"contracts/SupplyChain.sol\":4416:4420  _upc */\n      dup7\n        /* \"contracts/SupplyChain.sol\":4407:4421  Produced(_upc) */\n      mload(0x40)\n      tag_107\n      swap2\n      swap1\n      tag_75\n      jump\t// in\n    tag_107:\n      mload(0x40)\n      dup1\n      swap2\n      sub\n      swap1\n      log1\n        /* \"contracts/SupplyChain.sol\":3592:4428  function produceMedicine(... */\n      pop\n      pop\n      pop\n      pop\n      pop\n      pop\n      jump\t// out\n        /* \"contracts/PharmaRole.sol\":858:933  function renouncePharma() public {... */\n    tag_44:\n        /* \"contracts/PharmaRole.sol\":901:926  _removePharma(msg.sender) */\n      tag_109\n        /* \"contracts/PharmaRole.sol\":915:925  msg.sender */\n      caller\n        /* \"contracts/PharmaRole.sol\":901:914  _removePharma */\n      tag_110\n        /* \"contracts/PharmaRole.sol\":901:926  _removePharma(msg.sender) */\n      jump\t// in\n    tag_109:\n        /* \"contracts/PharmaRole.sol\":858:933  function renouncePharma() public {... */\n      jump\t// out\n        /* \"contracts/SupplyChain.sol\":4855:5282  function sendToRegulation(uint _upc, address _regulatorId)... */\n    tag_48:\n        /* \"contracts/SupplyChain.sol\":4944:4948  _upc */\n      dup2\n        /* \"contracts/SupplyChain.sol\":2639:2651  State.Tested */\n      0x01\n        /* \"contracts/SupplyChain.sol\":2614:2651  items[_upc].itemState == State.Tested */\n      0x06\n      dup2\n      gt\n      iszero\n      tag_112\n      jumpi\n      tag_113\n      tag_65\n      jump\t// in\n    tag_113:\n    tag_112:\n        /* \"contracts/SupplyChain.sol\":2614:2619  items */\n      0x05\n        /* \"contracts/SupplyChain.sol\":2614:2625  items[_upc] */\n      0x00\n        /* \"contracts/SupplyChain.sol\":2620:2624  _upc */\n      dup4\n        /* \"contracts/SupplyChain.sol\":2614:2625  items[_upc] */\n      dup2\n      mstore\n      0x20\n      add\n      swap1\n      dup2\n      mstore\n      0x20\n      add\n      0x00\n      keccak256\n        /* \"contracts/SupplyChain.sol\":2614:2635  items[_upc].itemState */\n      0x09\n      add\n      0x00\n      swap1\n      sload\n      swap1\n      0x0100\n      exp\n      swap1\n      div\n      0xff\n      and\n        /* \"contracts/SupplyChain.sol\":2614:2651  items[_upc].itemState == State.Tested */\n      0x06\n      dup2\n      gt\n      iszero\n      tag_114\n      jumpi\n      tag_115\n      tag_65\n      jump\t// in\n    tag_115:\n    tag_114:\n      eq\n        /* \"contracts/SupplyChain.sol\":2606:2652  require(items[_upc].itemState == State.Tested) */\n      tag_116\n      jumpi\n      0x00\n      dup1\n      revert\n    tag_116:\n        /* \"contracts/PharmaRole.sol\":429:449  isPharma(msg.sender) */\n      tag_118\n        /* \"contracts/PharmaRole.sol\":438:448  msg.sender */\n      caller\n        /* \"contracts/PharmaRole.sol\":429:437  isPharma */\n      tag_59\n        /* \"contracts/PharmaRole.sol\":429:449  isPharma(msg.sender) */\n      jump\t// in\n    tag_118:\n        /* \"contracts/PharmaRole.sol\":421:450  require(isPharma(msg.sender)) */\n      tag_119\n      jumpi\n      0x00\n      dup1\n      revert\n    tag_119:\n        /* \"contracts/SupplyChain.sol\":4997:5001  _upc */\n      dup3\n        /* \"contracts/SupplyChain.sol\":1924:1929  items */\n      0x05\n        /* \"contracts/SupplyChain.sol\":1924:1935  items[_upc] */\n      0x00\n        /* \"contracts/SupplyChain.sol\":1930:1934  _upc */\n      dup3\n        /* \"contracts/SupplyChain.sol\":1924:1935  items[_upc] */\n      dup2\n      mstore\n      0x20\n      add\n      swap1\n      dup2\n      mstore\n      0x20\n      add\n      0x00\n      keccak256\n        /* \"contracts/SupplyChain.sol\":1924:1943  items[_upc].ownerID */\n      0x02\n      add\n      0x00\n      swap1\n      sload\n      swap1\n      0x0100\n      exp\n      swap1\n      div\n      0xffffffffffffffffffffffffffffffffffffffff\n      and\n        /* \"contracts/SupplyChain.sol\":1910:1943  msg.sender == items[_upc].ownerID */\n      0xffffffffffffffffffffffffffffffffffffffff\n      and\n        /* \"contracts/SupplyChain.sol\":1910:1920  msg.sender */\n      caller\n        /* \"contracts/SupplyChain.sol\":1910:1943  msg.sender == items[_upc].ownerID */\n      0xffffffffffffffffffffffffffffffffffffffff\n      and\n      eq\n        /* \"contracts/SupplyChain.sol\":1902:1944  require(msg.sender == items[_upc].ownerID) */\n      tag_121\n      jumpi\n      0x00\n      dup1\n      revert\n    tag_121:\n        /* \"contracts/SupplyChain.sol\":5025:5050  isRegulator(_regulatorId) */\n      tag_123\n        /* \"contracts/SupplyChain.sol\":5037:5049  _regulatorId */\n      dup4\n        /* \"contracts/SupplyChain.sol\":5025:5036  isRegulator */\n      tag_37\n        /* \"contracts/SupplyChain.sol\":5025:5050  isRegulator(_regulatorId) */\n      jump\t// in\n    tag_123:\n        /* \"contracts/SupplyChain.sol\":5017:5086  require(isRegulator(_regulatorId), \"This address is not a Regulator\") */\n      tag_124\n      jumpi\n      mload(0x40)\n      0x08c379a000000000000000000000000000000000000000000000000000000000\n      dup2\n      mstore\n      0x04\n      add\n      tag_125\n      swap1\n      tag_126\n      jump\t// in\n    tag_125:\n      mload(0x40)\n      dup1\n      swap2\n      sub\n      swap1\n      revert\n    tag_124:\n        /* \"contracts/SupplyChain.sol\":5122:5134  _regulatorId */\n      dup3\n        /* \"contracts/SupplyChain.sol\":5096:5101  items */\n      0x05\n        /* \"contracts/SupplyChain.sol\":5096:5107  items[_upc] */\n      0x00\n        /* \"contracts/SupplyChain.sol\":5102:5106  _upc */\n      dup7\n        /* \"contracts/SupplyChain.sol\":5096:5107  items[_upc] */\n      dup2\n      mstore\n      0x20\n      add\n      swap1\n      dup2\n      mstore\n      0x20\n      add\n      0x00\n      keccak256\n        /* \"contracts/SupplyChain.sol\":5096:5119  items[_upc].regulatorId */\n      0x09\n      add\n      0x01\n        /* \"contracts/SupplyChain.sol\":5096:5134  items[_upc].regulatorId = _regulatorId */\n      0x0100\n      exp\n      dup2\n      sload\n      dup2\n      0xffffffffffffffffffffffffffffffffffffffff\n      mul\n      not\n      and\n      swap1\n      dup4\n      0xffffffffffffffffffffffffffffffffffffffff\n      and\n      mul\n      or\n      swap1\n      sstore\n      pop\n        /* \"contracts/SupplyChain.sol\":5168:5192  State.SentToVerification */\n      0x02\n        /* \"contracts/SupplyChain.sol\":5144:5149  items */\n      0x05\n        /* \"contracts/SupplyChain.sol\":5144:5155  items[_upc] */\n      0x00\n        /* \"contracts/SupplyChain.sol\":5150:5154  _upc */\n      dup7\n        /* \"contracts/SupplyChain.sol\":5144:5155  items[_upc] */\n      dup2\n      mstore\n      0x20\n      add\n      swap1\n      dup2\n      mstore\n      0x20\n      add\n      0x00\n      keccak256\n        /* \"contracts/SupplyChain.sol\":5144:5165  items[_upc].itemState */\n      0x09\n      add\n      0x00\n        /* \"contracts/SupplyChain.sol\":5144:5192  items[_upc].itemState = State.SentToVerification */\n      0x0100\n      exp\n      dup2\n      sload\n      dup2\n      0xff\n      mul\n      not\n      and\n      swap1\n      dup4\n      0x06\n      dup2\n      gt\n      iszero\n      tag_127\n      jumpi\n      tag_128\n      tag_65\n      jump\t// in\n    tag_128:\n    tag_127:\n      mul\n      or\n      swap1\n      sstore\n      pop\n        /* \"contracts/SupplyChain.sol\":5224:5236  _regulatorId */\n      dup3\n        /* \"contracts/SupplyChain.sol\":5202:5207  items */\n      0x05\n        /* \"contracts/SupplyChain.sol\":5202:5213  items[_upc] */\n      0x00\n        /* \"contracts/SupplyChain.sol\":5208:5212  _upc */\n      dup7\n        /* \"contracts/SupplyChain.sol\":5202:5213  items[_upc] */\n      dup2\n      mstore\n      0x20\n      add\n      swap1\n      dup2\n      mstore\n      0x20\n      add\n      0x00\n      keccak256\n        /* \"contracts/SupplyChain.sol\":5202:5221  items[_upc].ownerID */\n      0x02\n      add\n      0x00\n        /* \"contracts/SupplyChain.sol\":5202:5236  items[_upc].ownerID = _regulatorId */\n      0x0100\n      exp\n      dup2\n      sload\n      dup2\n      0xffffffffffffffffffffffffffffffffffffffff\n      mul\n      not\n      and\n      swap1\n      dup4\n      0xffffffffffffffffffffffffffffffffffffffff\n      and\n      mul\n      or\n      swap1\n      sstore\n      pop\n        /* \"contracts/SupplyChain.sol\":5251:5275  SentToVerification(_upc) */\n      0xf12328dacf931f6c8c8c904ea8b9791d681613ed5ec258dce2866c311795c9ea\n        /* \"contracts/SupplyChain.sol\":5270:5274  _upc */\n      dup5\n        /* \"contracts/SupplyChain.sol\":5251:5275  SentToVerification(_upc) */\n      mload(0x40)\n      tag_129\n      swap2\n      swap1\n      tag_75\n      jump\t// in\n    tag_129:\n      mload(0x40)\n      dup1\n      swap2\n      sub\n      swap1\n      log1\n        /* \"contracts/PharmaRole.sol\":460:461  _ */\n      pop\n        /* \"contracts/SupplyChain.sol\":4855:5282  function sendToRegulation(uint _upc, address _regulatorId)... */\n      pop\n      pop\n      pop\n      jump\t// out\n        /* \"contracts/RegulatorRole.sol\":731:830  function addRegulator(address account) public onlyRegulator {... */\n    tag_51:\n        /* \"contracts/RegulatorRole.sol\":447:470  isRegulator(msg.sender) */\n      tag_131\n        /* \"contracts/RegulatorRole.sol\":459:469  msg.sender */\n      caller\n        /* \"contracts/RegulatorRole.sol\":447:458  isRegulator */\n      tag_37\n        /* \"contracts/RegulatorRole.sol\":447:470  isRegulator(msg.sender) */\n      jump\t// in\n    tag_131:\n        /* \"contracts/RegulatorRole.sol\":439:471  require(isRegulator(msg.sender)) */\n      tag_132\n      jumpi\n      0x00\n      dup1\n      revert\n    tag_132:\n        /* \"contracts/RegulatorRole.sol\":801:823  _addRegulator(account) */\n      tag_134\n        /* \"contracts/RegulatorRole.sol\":815:822  account */\n      dup2\n        /* \"contracts/RegulatorRole.sol\":801:814  _addRegulator */\n      tag_135\n        /* \"contracts/RegulatorRole.sol\":801:823  _addRegulator(account) */\n      jump\t// in\n    tag_134:\n        /* \"contracts/RegulatorRole.sol\":731:830  function addRegulator(address account) public onlyRegulator {... */\n      pop\n      jump\t// out\n        /* \"contracts/BuyerRole.sol\":687:774  function addBuyer(address account) public onlyBuyer {... */\n    tag_54:\n        /* \"contracts/BuyerRole.sol\":423:442  isBuyer(msg.sender) */\n      tag_137\n        /* \"contracts/BuyerRole.sol\":431:441  msg.sender */\n      caller\n        /* \"contracts/BuyerRole.sol\":423:430  isBuyer */\n      tag_30\n        /* \"contracts/BuyerRole.sol\":423:442  isBuyer(msg.sender) */\n      jump\t// in\n    tag_137:\n        /* \"contracts/BuyerRole.sol\":415:443  require(isBuyer(msg.sender)) */\n      tag_138\n      jumpi\n      0x00\n      dup1\n      revert\n    tag_138:\n        /* \"contracts/BuyerRole.sol\":749:767  _addBuyer(account) */\n      tag_140\n        /* \"contracts/BuyerRole.sol\":759:766  account */\n      dup2\n        /* \"contracts/BuyerRole.sol\":749:758  _addBuyer */\n      tag_141\n        /* \"contracts/BuyerRole.sol\":749:767  _addBuyer(account) */\n      jump\t// in\n    tag_140:\n        /* \"contracts/BuyerRole.sol\":687:774  function addBuyer(address account) public onlyBuyer {... */\n      pop\n      jump\t// out\n        /* \"contracts/BuyerRole.sol\":843:916  function renounceBuyer() public {... */\n    tag_56:\n        /* \"contracts/BuyerRole.sol\":885:909  _removeBuyer(msg.sender) */\n      tag_143\n        /* \"contracts/BuyerRole.sol\":898:908  msg.sender */\n      caller\n        /* \"contracts/BuyerRole.sol\":885:897  _removeBuyer */\n      tag_144\n        /* \"contracts/BuyerRole.sol\":885:909  _removeBuyer(msg.sender) */\n      jump\t// in\n    tag_143:\n        /* \"contracts/BuyerRole.sol\":843:916  function renounceBuyer() public {... */\n      jump\t// out\n        /* \"contracts/PharmaRole.sol\":529:635  function isPharma(address account) public view returns (bool) {... */\n    tag_59:\n        /* \"contracts/PharmaRole.sol\":585:589  bool */\n      0x00\n        /* \"contracts/PharmaRole.sol\":608:628  pharmas.has(account) */\n      tag_146\n        /* \"contracts/PharmaRole.sol\":620:627  account */\n      dup3\n        /* \"contracts/PharmaRole.sol\":608:615  pharmas */\n      0x02\n        /* \"contracts/PharmaRole.sol\":608:619  pharmas.has */\n      tag_87\n      swap1\n        /* \"contracts/PharmaRole.sol\":608:628  pharmas.has(account) */\n      swap2\n      swap1\n      0xffffffff\n      and\n      jump\t// in\n    tag_146:\n        /* \"contracts/PharmaRole.sol\":601:628  return pharmas.has(account) */\n      swap1\n      pop\n        /* \"contracts/PharmaRole.sol\":529:635  function isPharma(address account) public view returns (bool) {... */\n      swap2\n      swap1\n      pop\n      jump\t// out\n        /* \"contracts/Roles.sol\":259:440  function add(Role storage role, address account) internal {... */\n    tag_61:\n        /* \"contracts/Roles.sol\":354:355  0 */\n      0x00\n        /* \"contracts/Roles.sol\":335:356  account != address(0) */\n      0xffffffffffffffffffffffffffffffffffffffff\n      and\n        /* \"contracts/Roles.sol\":335:342  account */\n      dup2\n        /* \"contracts/Roles.sol\":335:356  account != address(0) */\n      0xffffffffffffffffffffffffffffffffffffffff\n      and\n      eq\n      iszero\n        /* \"contracts/Roles.sol\":327:357  require(account != address(0)) */\n      tag_148\n      jumpi\n      0x00\n      dup1\n      revert\n    tag_148:\n        /* \"contracts/Roles.sol\":376:394  has(role, account) */\n      tag_149\n        /* \"contracts/Roles.sol\":380:384  role */\n      dup3\n        /* \"contracts/Roles.sol\":386:393  account */\n      dup3\n        /* \"contracts/Roles.sol\":376:379  has */\n      tag_87\n        /* \"contracts/Roles.sol\":376:394  has(role, account) */\n      jump\t// in\n    tag_149:\n        /* \"contracts/Roles.sol\":375:394  !has(role, account) */\n      iszero\n        /* \"contracts/Roles.sol\":367:395  require(!has(role, account)) */\n      tag_150\n      jumpi\n      0x00\n      dup1\n      revert\n    tag_150:\n        /* \"contracts/Roles.sol\":429:433  true */\n      0x01\n        /* \"contracts/Roles.sol\":406:410  role */\n      dup3\n        /* \"contracts/Roles.sol\":406:417  role.bearer */\n      0x00\n      add\n        /* \"contracts/Roles.sol\":406:426  role.bearer[account] */\n      0x00\n        /* \"contracts/Roles.sol\":418:425  account */\n      dup4\n        /* \"contracts/Roles.sol\":406:426  role.bearer[account] */\n      0xffffffffffffffffffffffffffffffffffffffff\n      and\n      0xffffffffffffffffffffffffffffffffffffffff\n      and\n      dup2\n      mstore\n      0x20\n      add\n      swap1\n      dup2\n      mstore\n      0x20\n      add\n      0x00\n      keccak256\n      0x00\n        /* \"contracts/Roles.sol\":406:433  role.bearer[account] = true */\n      0x0100\n      exp\n      dup2\n      sload\n      dup2\n      0xff\n      mul\n      not\n      and\n      swap1\n      dup4\n      iszero\n      iszero\n      mul\n      or\n      swap1\n      sstore\n      pop\n        /* \"contracts/Roles.sol\":259:440  function add(Role storage role, address account) internal {... */\n      pop\n      pop\n      jump\t// out\n        /* \"contracts/PharmaRole.sol\":1027:1145  function _addPharma(address account) internal {... */\n    tag_81:\n        /* \"contracts/PharmaRole.sol\":1083:1103  pharmas.add(account) */\n      tag_152\n        /* \"contracts/PharmaRole.sol\":1095:1102  account */\n      dup2\n        /* \"contracts/PharmaRole.sol\":1083:1090  pharmas */\n      0x02\n        /* \"contracts/PharmaRole.sol\":1083:1094  pharmas.add */\n      tag_61\n      swap1\n        /* \"contracts/PharmaRole.sol\":1083:1103  pharmas.add(account) */\n      swap2\n      swap1\n      0xffffffff\n      and\n      jump\t// in\n    tag_152:\n        /* \"contracts/PharmaRole.sol\":1130:1137  account */\n      dup1\n        /* \"contracts/PharmaRole.sol\":1118:1138  PharmaAdded(account) */\n      0xffffffffffffffffffffffffffffffffffffffff\n      and\n      0x36179de14e9e7cbce2e0a64264f3eb82e80b70aac44ff098d9c6f70b1d7d6595\n      mload(0x40)\n      mload(0x40)\n      dup1\n      swap2\n      sub\n      swap1\n      log2\n        /* \"contracts/PharmaRole.sol\":1027:1145  function _addPharma(address account) internal {... */\n      pop\n      jump\t// out\n        /* \"contracts/RegulatorRole.sol\":1320:1455  function _removeRegulator(address account) internal {... */\n    tag_84:\n        /* \"contracts/RegulatorRole.sol\":1382:1408  regulators.remove(account) */\n      tag_154\n        /* \"contracts/RegulatorRole.sol\":1400:1407  account */\n      dup2\n        /* \"contracts/RegulatorRole.sol\":1382:1392  regulators */\n      0x01\n        /* \"contracts/RegulatorRole.sol\":1382:1399  regulators.remove */\n      tag_155\n      swap1\n        /* \"contracts/RegulatorRole.sol\":1382:1408  regulators.remove(account) */\n      swap2\n      swap1\n      0xffffffff\n      and\n      jump\t// in\n    tag_154:\n        /* \"contracts/RegulatorRole.sol\":1440:1447  account */\n      dup1\n        /* \"contracts/RegulatorRole.sol\":1423:1448  RegulatorRemoved(account) */\n      0xffffffffffffffffffffffffffffffffffffffff\n      and\n      0xc8ecc453f78c13ccc7596603b61935f29b99dc15bb91b91647e1ccf2469ad00a\n      mload(0x40)\n      mload(0x40)\n      dup1\n      swap2\n      sub\n      swap1\n      log2\n        /* \"contracts/RegulatorRole.sol\":1320:1455  function _removeRegulator(address account) internal {... */\n      pop\n      jump\t// out\n        /* \"contracts/Roles.sol\":786:976  function has(Role storage role, address account)... */\n    tag_87:\n        /* \"contracts/Roles.sol\":882:886  bool */\n      0x00\n        /* \"contracts/Roles.sol\":929:930  0 */\n      dup1\n        /* \"contracts/Roles.sol\":910:931  account != address(0) */\n      0xffffffffffffffffffffffffffffffffffffffff\n      and\n        /* \"contracts/Roles.sol\":910:917  account */\n      dup3\n        /* \"contracts/Roles.sol\":910:931  account != address(0) */\n      0xffffffffffffffffffffffffffffffffffffffff\n      and\n      eq\n      iszero\n        /* \"contracts/Roles.sol\":902:932  require(account != address(0)) */\n      tag_157\n      jumpi\n      0x00\n      dup1\n      revert\n    tag_157:\n        /* \"contracts/Roles.sol\":949:953  role */\n      dup3\n        /* \"contracts/Roles.sol\":949:960  role.bearer */\n      0x00\n      add\n        /* \"contracts/Roles.sol\":949:969  role.bearer[account] */\n      0x00\n        /* \"contracts/Roles.sol\":961:968  account */\n      dup4\n        /* \"contracts/Roles.sol\":949:969  role.bearer[account] */\n      0xffffffffffffffffffffffffffffffffffffffff\n      and\n      0xffffffffffffffffffffffffffffffffffffffff\n      and\n      dup2\n      mstore\n      0x20\n      add\n      swap1\n      dup2\n      mstore\n      0x20\n      add\n      0x00\n      keccak256\n      0x00\n      swap1\n      sload\n      swap1\n      0x0100\n      exp\n      swap1\n      div\n      0xff\n      and\n        /* \"contracts/Roles.sol\":942:969  return role.bearer[account] */\n      swap1\n      pop\n        /* \"contracts/Roles.sol\":786:976  function has(Role storage role, address account)... */\n      swap3\n      swap2\n      pop\n      pop\n      jump\t// out\n        /* \"contracts/PharmaRole.sol\":1248:1374  function _removePharma(address account) internal {... */\n    tag_110:\n        /* \"contracts/PharmaRole.sol\":1307:1330  pharmas.remove(account) */\n      tag_159\n        /* \"contracts/PharmaRole.sol\":1322:1329  account */\n      dup2\n        /* \"contracts/PharmaRole.sol\":1307:1314  pharmas */\n      0x02\n        /* \"contracts/PharmaRole.sol\":1307:1321  pharmas.remove */\n      tag_155\n      swap1\n        /* \"contracts/PharmaRole.sol\":1307:1330  pharmas.remove(account) */\n      swap2\n      swap1\n      0xffffffff\n      and\n      jump\t// in\n    tag_159:\n        /* \"contracts/PharmaRole.sol\":1359:1366  account */\n      dup1\n        /* \"contracts/PharmaRole.sol\":1345:1367  PharmaRemoved(account) */\n      0xffffffffffffffffffffffffffffffffffffffff\n      and\n      0xa9a482e6375ef89327f2177c114191d0b88502ca4a7b961d211cc45786ee5107\n      mload(0x40)\n      mload(0x40)\n      dup1\n      swap2\n      sub\n      swap1\n      log2\n        /* \"contracts/PharmaRole.sol\":1248:1374  function _removePharma(address account) internal {... */\n      pop\n      jump\t// out\n        /* \"contracts/RegulatorRole.sol\":1084:1211  function _addRegulator(address account) internal {... */\n    tag_135:\n        /* \"contracts/RegulatorRole.sol\":1143:1166  regulators.add(account) */\n      tag_161\n        /* \"contracts/RegulatorRole.sol\":1158:1165  account */\n      dup2\n        /* \"contracts/RegulatorRole.sol\":1143:1153  regulators */\n      0x01\n        /* \"contracts/RegulatorRole.sol\":1143:1157  regulators.add */\n      tag_61\n      swap1\n        /* \"contracts/RegulatorRole.sol\":1143:1166  regulators.add(account) */\n      swap2\n      swap1\n      0xffffffff\n      and\n      jump\t// in\n    tag_161:\n        /* \"contracts/RegulatorRole.sol\":1196:1203  account */\n      dup1\n        /* \"contracts/RegulatorRole.sol\":1181:1204  RegulatorAdded(account) */\n      0xffffffffffffffffffffffffffffffffffffffff\n      and\n      0x2860b5ba44f983f8f363ee6eeb3c24cbca3096803fbdd5129b9e253f01cac076\n      mload(0x40)\n      mload(0x40)\n      dup1\n      swap2\n      sub\n      swap1\n      log2\n        /* \"contracts/RegulatorRole.sol\":1084:1211  function _addRegulator(address account) internal {... */\n      pop\n      jump\t// out\n        /* \"contracts/BuyerRole.sol\":1008:1123  function _addBuyer(address account) internal {... */\n    tag_141:\n        /* \"contracts/BuyerRole.sol\":1063:1082  buyers.add(account) */\n      tag_163\n        /* \"contracts/BuyerRole.sol\":1074:1081  account */\n      dup2\n        /* \"contracts/BuyerRole.sol\":1063:1069  buyers */\n      0x00\n        /* \"contracts/BuyerRole.sol\":1063:1073  buyers.add */\n      tag_61\n      swap1\n        /* \"contracts/BuyerRole.sol\":1063:1082  buyers.add(account) */\n      swap2\n      swap1\n      0xffffffff\n      and\n      jump\t// in\n    tag_163:\n        /* \"contracts/BuyerRole.sol\":1108:1115  account */\n      dup1\n        /* \"contracts/BuyerRole.sol\":1097:1116  BuyerAdded(account) */\n      0xffffffffffffffffffffffffffffffffffffffff\n      and\n      0x6599d9dd7f97ccdc3d99ab507544f9f6ebfca20c63a7e3c018da49eeaefb164a\n      mload(0x40)\n      mload(0x40)\n      dup1\n      swap2\n      sub\n      swap1\n      log2\n        /* \"contracts/BuyerRole.sol\":1008:1123  function _addBuyer(address account) internal {... */\n      pop\n      jump\t// out\n        /* \"contracts/BuyerRole.sol\":1224:1347  function _removeBuyer(address account) internal {... */\n    tag_144:\n        /* \"contracts/BuyerRole.sol\":1282:1304  buyers.remove(account) */\n      tag_165\n        /* \"contracts/BuyerRole.sol\":1296:1303  account */\n      dup2\n        /* \"contracts/BuyerRole.sol\":1282:1288  buyers */\n      0x00\n        /* \"contracts/BuyerRole.sol\":1282:1295  buyers.remove */\n      tag_155\n      swap1\n        /* \"contracts/BuyerRole.sol\":1282:1304  buyers.remove(account) */\n      swap2\n      swap1\n      0xffffffff\n      and\n      jump\t// in\n    tag_165:\n        /* \"contracts/BuyerRole.sol\":1332:1339  account */\n      dup1\n        /* \"contracts/BuyerRole.sol\":1319:1340  BuyerRemoved(account) */\n      0xffffffffffffffffffffffffffffffffffffffff\n      and\n      0x83fd4cbc7bc934bdfbae994ac6e72fcc0e50abd6995c1949520e761ba650d582\n      mload(0x40)\n      mload(0x40)\n      dup1\n      swap2\n      sub\n      swap1\n      log2\n        /* \"contracts/BuyerRole.sol\":1224:1347  function _removeBuyer(address account) internal {... */\n      pop\n      jump\t// out\n        /* \"contracts/Roles.sol\":514:698  function remove(Role storage role, address account) internal {... */\n    tag_155:\n        /* \"contracts/Roles.sol\":612:613  0 */\n      0x00\n        /* \"contracts/Roles.sol\":593:614  account != address(0) */\n      0xffffffffffffffffffffffffffffffffffffffff\n      and\n        /* \"contracts/Roles.sol\":593:600  account */\n      dup2\n        /* \"contracts/Roles.sol\":593:614  account != address(0) */\n      0xffffffffffffffffffffffffffffffffffffffff\n      and\n      eq\n      iszero\n        /* \"contracts/Roles.sol\":585:615  require(account != address(0)) */\n      tag_167\n      jumpi\n      0x00\n      dup1\n      revert\n    tag_167:\n        /* \"contracts/Roles.sol\":633:651  has(role, account) */\n      tag_168\n        /* \"contracts/Roles.sol\":637:641  role */\n      dup3\n        /* \"contracts/Roles.sol\":643:650  account */\n      dup3\n        /* \"contracts/Roles.sol\":633:636  has */\n      tag_87\n        /* \"contracts/Roles.sol\":633:651  has(role, account) */\n      jump\t// in\n    tag_168:\n        /* \"contracts/Roles.sol\":625:652  require(has(role, account)) */\n      tag_169\n      jumpi\n      0x00\n      dup1\n      revert\n    tag_169:\n        /* \"contracts/Roles.sol\":686:691  false */\n      0x00\n        /* \"contracts/Roles.sol\":663:667  role */\n      dup3\n        /* \"contracts/Roles.sol\":663:674  role.bearer */\n      0x00\n      add\n        /* \"contracts/Roles.sol\":663:683  role.bearer[account] */\n      0x00\n        /* \"contracts/Roles.sol\":675:682  account */\n      dup4\n        /* \"contracts/Roles.sol\":663:683  role.bearer[account] */\n      0xffffffffffffffffffffffffffffffffffffffff\n      and\n      0xffffffffffffffffffffffffffffffffffffffff\n      and\n      dup2\n      mstore\n      0x20\n      add\n      swap1\n      dup2\n      mstore\n      0x20\n      add\n      0x00\n      keccak256\n      0x00\n        /* \"contracts/Roles.sol\":663:691  role.bearer[account] = false */\n      0x0100\n      exp\n      dup2\n      sload\n      dup2\n      0xff\n      mul\n      not\n      and\n      swap1\n      dup4\n      iszero\n      iszero\n      mul\n      or\n      swap1\n      sstore\n      pop\n        /* \"contracts/Roles.sol\":514:698  function remove(Role storage role, address account) internal {... */\n      pop\n      pop\n      jump\t// out\n    tag_99:\n      dup3\n      dup1\n      sload\n      tag_170\n      swap1\n      tag_171\n      jump\t// in\n    tag_170:\n      swap1\n      0x00\n      mstore\n      keccak256(0x00, 0x20)\n      swap1\n      0x1f\n      add\n      0x20\n      swap1\n      div\n      dup2\n      add\n      swap3\n      dup3\n      tag_173\n      jumpi\n      0x00\n      dup6\n      sstore\n      jump(tag_172)\n    tag_173:\n      dup3\n      0x1f\n      lt\n      tag_174\n      jumpi\n      dup1\n      mload\n      not(0xff)\n      and\n      dup4\n      dup1\n      add\n      or\n      dup6\n      sstore\n      jump(tag_172)\n    tag_174:\n      dup3\n      dup1\n      add\n      0x01\n      add\n      dup6\n      sstore\n      dup3\n      iszero\n      tag_172\n      jumpi\n      swap2\n      dup3\n      add\n    tag_175:\n      dup3\n      dup2\n      gt\n      iszero\n      tag_176\n      jumpi\n      dup3\n      mload\n      dup3\n      sstore\n      swap2\n      0x20\n      add\n      swap2\n      swap1\n      0x01\n      add\n      swap1\n      jump(tag_175)\n    tag_176:\n    tag_172:\n      pop\n      swap1\n      pop\n      tag_177\n      swap2\n      swap1\n      tag_178\n      jump\t// in\n    tag_177:\n      pop\n      swap1\n      jump\t// out\n    tag_178:\n    tag_179:\n      dup1\n      dup3\n      gt\n      iszero\n      tag_180\n      jumpi\n      0x00\n      dup2\n      0x00\n      swap1\n      sstore\n      pop\n      0x01\n      add\n      jump(tag_179)\n    tag_180:\n      pop\n      swap1\n      jump\t// out\n        /* \"#utility.yul\":7:419   */\n    tag_182:\n        /* \"#utility.yul\":85:90   */\n      0x00\n        /* \"#utility.yul\":110:176   */\n      tag_184\n        /* \"#utility.yul\":126:175   */\n      tag_185\n        /* \"#utility.yul\":168:174   */\n      dup5\n        /* \"#utility.yul\":126:175   */\n      tag_186\n      jump\t// in\n    tag_185:\n        /* \"#utility.yul\":110:176   */\n      tag_187\n      jump\t// in\n    tag_184:\n        /* \"#utility.yul\":101:176   */\n      swap1\n      pop\n        /* \"#utility.yul\":199:205   */\n      dup3\n        /* \"#utility.yul\":192:197   */\n      dup2\n        /* \"#utility.yul\":185:206   */\n      mstore\n        /* \"#utility.yul\":237:241   */\n      0x20\n        /* \"#utility.yul\":230:235   */\n      dup2\n        /* \"#utility.yul\":226:242   */\n      add\n        /* \"#utility.yul\":275:278   */\n      dup5\n        /* \"#utility.yul\":266:272   */\n      dup5\n        /* \"#utility.yul\":261:264   */\n      dup5\n        /* \"#utility.yul\":257:273   */\n      add\n        /* \"#utility.yul\":254:279   */\n      gt\n        /* \"#utility.yul\":251:363   */\n      iszero\n      tag_188\n      jumpi\n        /* \"#utility.yul\":282:361   */\n      tag_189\n      tag_190\n      jump\t// in\n    tag_189:\n        /* \"#utility.yul\":251:363   */\n    tag_188:\n        /* \"#utility.yul\":372:413   */\n      tag_191\n        /* \"#utility.yul\":406:412   */\n      dup5\n        /* \"#utility.yul\":401:404   */\n      dup3\n        /* \"#utility.yul\":396:399   */\n      dup6\n        /* \"#utility.yul\":372:413   */\n      tag_192\n      jump\t// in\n    tag_191:\n        /* \"#utility.yul\":91:419   */\n      pop\n        /* \"#utility.yul\":7:419   */\n      swap4\n      swap3\n      pop\n      pop\n      pop\n      jump\t// out\n        /* \"#utility.yul\":425:564   */\n    tag_193:\n        /* \"#utility.yul\":471:476   */\n      0x00\n        /* \"#utility.yul\":509:515   */\n      dup2\n        /* \"#utility.yul\":496:516   */\n      calldataload\n        /* \"#utility.yul\":487:516   */\n      swap1\n      pop\n        /* \"#utility.yul\":525:558   */\n      tag_195\n        /* \"#utility.yul\":552:557   */\n      dup2\n        /* \"#utility.yul\":525:558   */\n      tag_196\n      jump\t// in\n    tag_195:\n        /* \"#utility.yul\":425:564   */\n      swap3\n      swap2\n      pop\n      pop\n      jump\t// out\n        /* \"#utility.yul\":584:924   */\n    tag_197:\n        /* \"#utility.yul\":640:645   */\n      0x00\n        /* \"#utility.yul\":689:692   */\n      dup3\n        /* \"#utility.yul\":682:686   */\n      0x1f\n        /* \"#utility.yul\":674:680   */\n      dup4\n        /* \"#utility.yul\":670:687   */\n      add\n        /* \"#utility.yul\":666:693   */\n      slt\n        /* \"#utility.yul\":656:778   */\n      tag_199\n      jumpi\n        /* \"#utility.yul\":697:776   */\n      tag_200\n      tag_201\n      jump\t// in\n    tag_200:\n        /* \"#utility.yul\":656:778   */\n    tag_199:\n        /* \"#utility.yul\":814:820   */\n      dup2\n        /* \"#utility.yul\":801:821   */\n      calldataload\n        /* \"#utility.yul\":839:918   */\n      tag_202\n        /* \"#utility.yul\":914:917   */\n      dup5\n        /* \"#utility.yul\":906:912   */\n      dup3\n        /* \"#utility.yul\":899:903   */\n      0x20\n        /* \"#utility.yul\":891:897   */\n      dup7\n        /* \"#utility.yul\":887:904   */\n      add\n        /* \"#utility.yul\":839:918   */\n      tag_182\n      jump\t// in\n    tag_202:\n        /* \"#utility.yul\":830:918   */\n      swap2\n      pop\n        /* \"#utility.yul\":646:924   */\n      pop\n        /* \"#utility.yul\":584:924   */\n      swap3\n      swap2\n      pop\n      pop\n      jump\t// out\n        /* \"#utility.yul\":930:1069   */\n    tag_203:\n        /* \"#utility.yul\":976:981   */\n      0x00\n        /* \"#utility.yul\":1014:1020   */\n      dup2\n        /* \"#utility.yul\":1001:1021   */\n      calldataload\n        /* \"#utility.yul\":992:1021   */\n      swap1\n      pop\n        /* \"#utility.yul\":1030:1063   */\n      tag_205\n        /* \"#utility.yul\":1057:1062   */\n      dup2\n        /* \"#utility.yul\":1030:1063   */\n      tag_206\n      jump\t// in\n    tag_205:\n        /* \"#utility.yul\":930:1069   */\n      swap3\n      swap2\n      pop\n      pop\n      jump\t// out\n        /* \"#utility.yul\":1075:1404   */\n    tag_24:\n        /* \"#utility.yul\":1134:1140   */\n      0x00\n        /* \"#utility.yul\":1183:1185   */\n      0x20\n        /* \"#utility.yul\":1171:1180   */\n      dup3\n        /* \"#utility.yul\":1162:1169   */\n      dup5\n        /* \"#utility.yul\":1158:1181   */\n      sub\n        /* \"#utility.yul\":1154:1186   */\n      slt\n        /* \"#utility.yul\":1151:1270   */\n      iszero\n      tag_208\n      jumpi\n        /* \"#utility.yul\":1189:1268   */\n      tag_209\n      tag_210\n      jump\t// in\n    tag_209:\n        /* \"#utility.yul\":1151:1270   */\n    tag_208:\n        /* \"#utility.yul\":1309:1310   */\n      0x00\n        /* \"#utility.yul\":1334:1387   */\n      tag_211\n        /* \"#utility.yul\":1379:1386   */\n      dup5\n        /* \"#utility.yul\":1370:1376   */\n      dup3\n        /* \"#utility.yul\":1359:1368   */\n      dup6\n        /* \"#utility.yul\":1355:1377   */\n      add\n        /* \"#utility.yul\":1334:1387   */\n      tag_193\n      jump\t// in\n    tag_211:\n        /* \"#utility.yul\":1324:1387   */\n      swap2\n      pop\n        /* \"#utility.yul\":1280:1397   */\n      pop\n        /* \"#utility.yul\":1075:1404   */\n      swap3\n      swap2\n      pop\n      pop\n      jump\t// out\n        /* \"#utility.yul\":1410:1739   */\n    tag_20:\n        /* \"#utility.yul\":1469:1475   */\n      0x00\n        /* \"#utility.yul\":1518:1520   */\n      0x20\n        /* \"#utility.yul\":1506:1515   */\n      dup3\n        /* \"#utility.yul\":1497:1504   */\n      dup5\n        /* \"#utility.yul\":1493:1516   */\n      sub\n        /* \"#utility.yul\":1489:1521   */\n      slt\n        /* \"#utility.yul\":1486:1605   */\n      iszero\n      tag_213\n      jumpi\n        /* \"#utility.yul\":1524:1603   */\n      tag_214\n      tag_210\n      jump\t// in\n    tag_214:\n        /* \"#utility.yul\":1486:1605   */\n    tag_213:\n        /* \"#utility.yul\":1644:1645   */\n      0x00\n        /* \"#utility.yul\":1669:1722   */\n      tag_215\n        /* \"#utility.yul\":1714:1721   */\n      dup5\n        /* \"#utility.yul\":1705:1711   */\n      dup3\n        /* \"#utility.yul\":1694:1703   */\n      dup6\n        /* \"#utility.yul\":1690:1712   */\n      add\n        /* \"#utility.yul\":1669:1722   */\n      tag_203\n      jump\t// in\n    tag_215:\n        /* \"#utility.yul\":1659:1722   */\n      swap2\n      pop\n        /* \"#utility.yul\":1615:1732   */\n      pop\n        /* \"#utility.yul\":1410:1739   */\n      swap3\n      swap2\n      pop\n      pop\n      jump\t// out\n        /* \"#utility.yul\":1745:2219   */\n    tag_47:\n        /* \"#utility.yul\":1813:1819   */\n      0x00\n        /* \"#utility.yul\":1821:1827   */\n      dup1\n        /* \"#utility.yul\":1870:1872   */\n      0x40\n        /* \"#utility.yul\":1858:1867   */\n      dup4\n        /* \"#utility.yul\":1849:1856   */\n      dup6\n        /* \"#utility.yul\":1845:1868   */\n      sub\n        /* \"#utility.yul\":1841:1873   */\n      slt\n        /* \"#utility.yul\":1838:1957   */\n      iszero\n      tag_217\n      jumpi\n        /* \"#utility.yul\":1876:1955   */\n      tag_218\n      tag_210\n      jump\t// in\n    tag_218:\n        /* \"#utility.yul\":1838:1957   */\n    tag_217:\n        /* \"#utility.yul\":1996:1997   */\n      0x00\n        /* \"#utility.yul\":2021:2074   */\n      tag_219\n        /* \"#utility.yul\":2066:2073   */\n      dup6\n        /* \"#utility.yul\":2057:2063   */\n      dup3\n        /* \"#utility.yul\":2046:2055   */\n      dup7\n        /* \"#utility.yul\":2042:2064   */\n      add\n        /* \"#utility.yul\":2021:2074   */\n      tag_203\n      jump\t// in\n    tag_219:\n        /* \"#utility.yul\":2011:2074   */\n      swap3\n      pop\n        /* \"#utility.yul\":1967:2084   */\n      pop\n        /* \"#utility.yul\":2123:2125   */\n      0x20\n        /* \"#utility.yul\":2149:2202   */\n      tag_220\n        /* \"#utility.yul\":2194:2201   */\n      dup6\n        /* \"#utility.yul\":2185:2191   */\n      dup3\n        /* \"#utility.yul\":2174:2183   */\n      dup7\n        /* \"#utility.yul\":2170:2192   */\n      add\n        /* \"#utility.yul\":2149:2202   */\n      tag_193\n      jump\t// in\n    tag_220:\n        /* \"#utility.yul\":2139:2202   */\n      swap2\n      pop\n        /* \"#utility.yul\":2094:2212   */\n      pop\n        /* \"#utility.yul\":1745:2219   */\n      swap3\n      pop\n      swap3\n      swap1\n      pop\n      jump\t// out\n        /* \"#utility.yul\":2225:4002   */\n    tag_41:\n        /* \"#utility.yul\":2369:2375   */\n      0x00\n        /* \"#utility.yul\":2377:2383   */\n      dup1\n        /* \"#utility.yul\":2385:2391   */\n      0x00\n        /* \"#utility.yul\":2393:2399   */\n      dup1\n        /* \"#utility.yul\":2401:2407   */\n      0x00\n        /* \"#utility.yul\":2409:2415   */\n      dup1\n        /* \"#utility.yul\":2458:2461   */\n      0xc0\n        /* \"#utility.yul\":2446:2455   */\n      dup8\n        /* \"#utility.yul\":2437:2444   */\n      dup10\n        /* \"#utility.yul\":2433:2456   */\n      sub\n        /* \"#utility.yul\":2429:2462   */\n      slt\n        /* \"#utility.yul\":2426:2546   */\n      iszero\n      tag_222\n      jumpi\n        /* \"#utility.yul\":2465:2544   */\n      tag_223\n      tag_210\n      jump\t// in\n    tag_223:\n        /* \"#utility.yul\":2426:2546   */\n    tag_222:\n        /* \"#utility.yul\":2585:2586   */\n      0x00\n        /* \"#utility.yul\":2610:2663   */\n      tag_224\n        /* \"#utility.yul\":2655:2662   */\n      dup10\n        /* \"#utility.yul\":2646:2652   */\n      dup3\n        /* \"#utility.yul\":2635:2644   */\n      dup11\n        /* \"#utility.yul\":2631:2653   */\n      add\n        /* \"#utility.yul\":2610:2663   */\n      tag_203\n      jump\t// in\n    tag_224:\n        /* \"#utility.yul\":2600:2663   */\n      swap7\n      pop\n        /* \"#utility.yul\":2556:2673   */\n      pop\n        /* \"#utility.yul\":2712:2714   */\n      0x20\n        /* \"#utility.yul\":2738:2791   */\n      tag_225\n        /* \"#utility.yul\":2783:2790   */\n      dup10\n        /* \"#utility.yul\":2774:2780   */\n      dup3\n        /* \"#utility.yul\":2763:2772   */\n      dup11\n        /* \"#utility.yul\":2759:2781   */\n      add\n        /* \"#utility.yul\":2738:2791   */\n      tag_193\n      jump\t// in\n    tag_225:\n        /* \"#utility.yul\":2728:2791   */\n      swap6\n      pop\n        /* \"#utility.yul\":2683:2801   */\n      pop\n        /* \"#utility.yul\":2868:2870   */\n      0x40\n        /* \"#utility.yul\":2857:2866   */\n      dup8\n        /* \"#utility.yul\":2853:2871   */\n      add\n        /* \"#utility.yul\":2840:2872   */\n      calldataload\n        /* \"#utility.yul\":2899:2917   */\n      0xffffffffffffffff\n        /* \"#utility.yul\":2891:2897   */\n      dup2\n        /* \"#utility.yul\":2888:2918   */\n      gt\n        /* \"#utility.yul\":2885:3002   */\n      iszero\n      tag_226\n      jumpi\n        /* \"#utility.yul\":2921:3000   */\n      tag_227\n      tag_228\n      jump\t// in\n    tag_227:\n        /* \"#utility.yul\":2885:3002   */\n    tag_226:\n        /* \"#utility.yul\":3026:3089   */\n      tag_229\n        /* \"#utility.yul\":3081:3088   */\n      dup10\n        /* \"#utility.yul\":3072:3078   */\n      dup3\n        /* \"#utility.yul\":3061:3070   */\n      dup11\n        /* \"#utility.yul\":3057:3079   */\n      add\n        /* \"#utility.yul\":3026:3089   */\n      tag_197\n      jump\t// in\n    tag_229:\n        /* \"#utility.yul\":3016:3089   */\n      swap5\n      pop\n        /* \"#utility.yul\":2811:3099   */\n      pop\n        /* \"#utility.yul\":3166:3168   */\n      0x60\n        /* \"#utility.yul\":3155:3164   */\n      dup8\n        /* \"#utility.yul\":3151:3169   */\n      add\n        /* \"#utility.yul\":3138:3170   */\n      calldataload\n        /* \"#utility.yul\":3197:3215   */\n      0xffffffffffffffff\n        /* \"#utility.yul\":3189:3195   */\n      dup2\n        /* \"#utility.yul\":3186:3216   */\n      gt\n        /* \"#utility.yul\":3183:3300   */\n      iszero\n      tag_230\n      jumpi\n        /* \"#utility.yul\":3219:3298   */\n      tag_231\n      tag_228\n      jump\t// in\n    tag_231:\n        /* \"#utility.yul\":3183:3300   */\n    tag_230:\n        /* \"#utility.yul\":3324:3387   */\n      tag_232\n        /* \"#utility.yul\":3379:3386   */\n      dup10\n        /* \"#utility.yul\":3370:3376   */\n      dup3\n        /* \"#utility.yul\":3359:3368   */\n      dup11\n        /* \"#utility.yul\":3355:3377   */\n      add\n        /* \"#utility.yul\":3324:3387   */\n      tag_197\n      jump\t// in\n    tag_232:\n        /* \"#utility.yul\":3314:3387   */\n      swap4\n      pop\n        /* \"#utility.yul\":3109:3397   */\n      pop\n        /* \"#utility.yul\":3464:3467   */\n      0x80\n        /* \"#utility.yul\":3453:3462   */\n      dup8\n        /* \"#utility.yul\":3449:3468   */\n      add\n        /* \"#utility.yul\":3436:3469   */\n      calldataload\n        /* \"#utility.yul\":3496:3514   */\n      0xffffffffffffffff\n        /* \"#utility.yul\":3488:3494   */\n      dup2\n        /* \"#utility.yul\":3485:3515   */\n      gt\n        /* \"#utility.yul\":3482:3599   */\n      iszero\n      tag_233\n      jumpi\n        /* \"#utility.yul\":3518:3597   */\n      tag_234\n      tag_228\n      jump\t// in\n    tag_234:\n        /* \"#utility.yul\":3482:3599   */\n    tag_233:\n        /* \"#utility.yul\":3623:3686   */\n      tag_235\n        /* \"#utility.yul\":3678:3685   */\n      dup10\n        /* \"#utility.yul\":3669:3675   */\n      dup3\n        /* \"#utility.yul\":3658:3667   */\n      dup11\n        /* \"#utility.yul\":3654:3676   */\n      add\n        /* \"#utility.yul\":3623:3686   */\n      tag_197\n      jump\t// in\n    tag_235:\n        /* \"#utility.yul\":3613:3686   */\n      swap3\n      pop\n        /* \"#utility.yul\":3407:3696   */\n      pop\n        /* \"#utility.yul\":3763:3766   */\n      0xa0\n        /* \"#utility.yul\":3752:3761   */\n      dup8\n        /* \"#utility.yul\":3748:3767   */\n      add\n        /* \"#utility.yul\":3735:3768   */\n      calldataload\n        /* \"#utility.yul\":3795:3813   */\n      0xffffffffffffffff\n        /* \"#utility.yul\":3787:3793   */\n      dup2\n        /* \"#utility.yul\":3784:3814   */\n      gt\n        /* \"#utility.yul\":3781:3898   */\n      iszero\n      tag_236\n      jumpi\n        /* \"#utility.yul\":3817:3896   */\n      tag_237\n      tag_228\n      jump\t// in\n    tag_237:\n        /* \"#utility.yul\":3781:3898   */\n    tag_236:\n        /* \"#utility.yul\":3922:3985   */\n      tag_238\n        /* \"#utility.yul\":3977:3984   */\n      dup10\n        /* \"#utility.yul\":3968:3974   */\n      dup3\n        /* \"#utility.yul\":3957:3966   */\n      dup11\n        /* \"#utility.yul\":3953:3975   */\n      add\n        /* \"#utility.yul\":3922:3985   */\n      tag_197\n      jump\t// in\n    tag_238:\n        /* \"#utility.yul\":3912:3985   */\n      swap2\n      pop\n        /* \"#utility.yul\":3706:3995   */\n      pop\n        /* \"#utility.yul\":2225:4002   */\n      swap3\n      swap6\n      pop\n      swap3\n      swap6\n      pop\n      swap3\n      swap6\n      jump\t// out\n        /* \"#utility.yul\":4008:4117   */\n    tag_239:\n        /* \"#utility.yul\":4089:4110   */\n      tag_241\n        /* \"#utility.yul\":4104:4109   */\n      dup2\n        /* \"#utility.yul\":4089:4110   */\n      tag_242\n      jump\t// in\n    tag_241:\n        /* \"#utility.yul\":4084:4087   */\n      dup3\n        /* \"#utility.yul\":4077:4111   */\n      mstore\n        /* \"#utility.yul\":4008:4117   */\n      pop\n      pop\n      jump\t// out\n        /* \"#utility.yul\":4123:4489   */\n    tag_243:\n        /* \"#utility.yul\":4265:4268   */\n      0x00\n        /* \"#utility.yul\":4286:4353   */\n      tag_245\n        /* \"#utility.yul\":4350:4352   */\n      0x1f\n        /* \"#utility.yul\":4345:4348   */\n      dup4\n        /* \"#utility.yul\":4286:4353   */\n      tag_246\n      jump\t// in\n    tag_245:\n        /* \"#utility.yul\":4279:4353   */\n      swap2\n      pop\n        /* \"#utility.yul\":4362:4455   */\n      tag_247\n        /* \"#utility.yul\":4451:4454   */\n      dup3\n        /* \"#utility.yul\":4362:4455   */\n      tag_248\n      jump\t// in\n    tag_247:\n        /* \"#utility.yul\":4480:4482   */\n      0x20\n        /* \"#utility.yul\":4475:4478   */\n      dup3\n        /* \"#utility.yul\":4471:4483   */\n      add\n        /* \"#utility.yul\":4464:4483   */\n      swap1\n      pop\n        /* \"#utility.yul\":4123:4489   */\n      swap2\n      swap1\n      pop\n      jump\t// out\n        /* \"#utility.yul\":4495:4613   */\n    tag_249:\n        /* \"#utility.yul\":4582:4606   */\n      tag_251\n        /* \"#utility.yul\":4600:4605   */\n      dup2\n        /* \"#utility.yul\":4582:4606   */\n      tag_252\n      jump\t// in\n    tag_251:\n        /* \"#utility.yul\":4577:4580   */\n      dup3\n        /* \"#utility.yul\":4570:4607   */\n      mstore\n        /* \"#utility.yul\":4495:4613   */\n      pop\n      pop\n      jump\t// out\n        /* \"#utility.yul\":4619:4829   */\n    tag_32:\n        /* \"#utility.yul\":4706:4710   */\n      0x00\n        /* \"#utility.yul\":4744:4746   */\n      0x20\n        /* \"#utility.yul\":4733:4742   */\n      dup3\n        /* \"#utility.yul\":4729:4747   */\n      add\n        /* \"#utility.yul\":4721:4747   */\n      swap1\n      pop\n        /* \"#utility.yul\":4757:4822   */\n      tag_254\n        /* \"#utility.yul\":4819:4820   */\n      0x00\n        /* \"#utility.yul\":4808:4817   */\n      dup4\n        /* \"#utility.yul\":4804:4821   */\n      add\n        /* \"#utility.yul\":4795:4801   */\n      dup5\n        /* \"#utility.yul\":4757:4822   */\n      tag_239\n      jump\t// in\n    tag_254:\n        /* \"#utility.yul\":4619:4829   */\n      swap3\n      swap2\n      pop\n      pop\n      jump\t// out\n        /* \"#utility.yul\":4835:5254   */\n    tag_126:\n        /* \"#utility.yul\":5001:5005   */\n      0x00\n        /* \"#utility.yul\":5039:5041   */\n      0x20\n        /* \"#utility.yul\":5028:5037   */\n      dup3\n        /* \"#utility.yul\":5024:5042   */\n      add\n        /* \"#utility.yul\":5016:5042   */\n      swap1\n      pop\n        /* \"#utility.yul\":5088:5097   */\n      dup2\n        /* \"#utility.yul\":5082:5086   */\n      dup2\n        /* \"#utility.yul\":5078:5098   */\n      sub\n        /* \"#utility.yul\":5074:5075   */\n      0x00\n        /* \"#utility.yul\":5063:5072   */\n      dup4\n        /* \"#utility.yul\":5059:5076   */\n      add\n        /* \"#utility.yul\":5052:5099   */\n      mstore\n        /* \"#utility.yul\":5116:5247   */\n      tag_256\n        /* \"#utility.yul\":5242:5246   */\n      dup2\n        /* \"#utility.yul\":5116:5247   */\n      tag_243\n      jump\t// in\n    tag_256:\n        /* \"#utility.yul\":5108:5247   */\n      swap1\n      pop\n        /* \"#utility.yul\":4835:5254   */\n      swap2\n      swap1\n      pop\n      jump\t// out\n        /* \"#utility.yul\":5260:5482   */\n    tag_75:\n        /* \"#utility.yul\":5353:5357   */\n      0x00\n        /* \"#utility.yul\":5391:5393   */\n      0x20\n        /* \"#utility.yul\":5380:5389   */\n      dup3\n        /* \"#utility.yul\":5376:5394   */\n      add\n        /* \"#utility.yul\":5368:5394   */\n      swap1\n      pop\n        /* \"#utility.yul\":5404:5475   */\n      tag_258\n        /* \"#utility.yul\":5472:5473   */\n      0x00\n        /* \"#utility.yul\":5461:5470   */\n      dup4\n        /* \"#utility.yul\":5457:5474   */\n      add\n        /* \"#utility.yul\":5448:5454   */\n      dup5\n        /* \"#utility.yul\":5404:5475   */\n      tag_249\n      jump\t// in\n    tag_258:\n        /* \"#utility.yul\":5260:5482   */\n      swap3\n      swap2\n      pop\n      pop\n      jump\t// out\n        /* \"#utility.yul\":5488:5617   */\n    tag_187:\n        /* \"#utility.yul\":5522:5528   */\n      0x00\n        /* \"#utility.yul\":5549:5569   */\n      tag_260\n      tag_261\n      jump\t// in\n    tag_260:\n        /* \"#utility.yul\":5539:5569   */\n      swap1\n      pop\n        /* \"#utility.yul\":5578:5611   */\n      tag_262\n        /* \"#utility.yul\":5606:5610   */\n      dup3\n        /* \"#utility.yul\":5598:5604   */\n      dup3\n        /* \"#utility.yul\":5578:5611   */\n      tag_263\n      jump\t// in\n    tag_262:\n        /* \"#utility.yul\":5488:5617   */\n      swap2\n      swap1\n      pop\n      jump\t// out\n        /* \"#utility.yul\":5623:5698   */\n    tag_261:\n        /* \"#utility.yul\":5656:5662   */\n      0x00\n        /* \"#utility.yul\":5689:5691   */\n      0x40\n        /* \"#utility.yul\":5683:5692   */\n      mload\n        /* \"#utility.yul\":5673:5692   */\n      swap1\n      pop\n        /* \"#utility.yul\":5623:5698   */\n      swap1\n      jump\t// out\n        /* \"#utility.yul\":5704:6012   */\n    tag_186:\n        /* \"#utility.yul\":5766:5770   */\n      0x00\n        /* \"#utility.yul\":5856:5874   */\n      0xffffffffffffffff\n        /* \"#utility.yul\":5848:5854   */\n      dup3\n        /* \"#utility.yul\":5845:5875   */\n      gt\n        /* \"#utility.yul\":5842:5898   */\n      iszero\n      tag_266\n      jumpi\n        /* \"#utility.yul\":5878:5896   */\n      tag_267\n      tag_268\n      jump\t// in\n    tag_267:\n        /* \"#utility.yul\":5842:5898   */\n    tag_266:\n        /* \"#utility.yul\":5916:5945   */\n      tag_269\n        /* \"#utility.yul\":5938:5944   */\n      dup3\n        /* \"#utility.yul\":5916:5945   */\n      tag_270\n      jump\t// in\n    tag_269:\n        /* \"#utility.yul\":5908:5945   */\n      swap1\n      pop\n        /* \"#utility.yul\":6000:6004   */\n      0x20\n        /* \"#utility.yul\":5994:5998   */\n      dup2\n        /* \"#utility.yul\":5990:6005   */\n      add\n        /* \"#utility.yul\":5982:6005   */\n      swap1\n      pop\n        /* \"#utility.yul\":5704:6012   */\n      swap2\n      swap1\n      pop\n      jump\t// out\n        /* \"#utility.yul\":6018:6187   */\n    tag_246:\n        /* \"#utility.yul\":6102:6113   */\n      0x00\n        /* \"#utility.yul\":6136:6142   */\n      dup3\n        /* \"#utility.yul\":6131:6134   */\n      dup3\n        /* \"#utility.yul\":6124:6143   */\n      mstore\n        /* \"#utility.yul\":6176:6180   */\n      0x20\n        /* \"#utility.yul\":6171:6174   */\n      dup3\n        /* \"#utility.yul\":6167:6181   */\n      add\n        /* \"#utility.yul\":6152:6181   */\n      swap1\n      pop\n        /* \"#utility.yul\":6018:6187   */\n      swap3\n      swap2\n      pop\n      pop\n      jump\t// out\n        /* \"#utility.yul\":6193:6498   */\n    tag_106:\n        /* \"#utility.yul\":6233:6236   */\n      0x00\n        /* \"#utility.yul\":6252:6272   */\n      tag_273\n        /* \"#utility.yul\":6270:6271   */\n      dup3\n        /* \"#utility.yul\":6252:6272   */\n      tag_252\n      jump\t// in\n    tag_273:\n        /* \"#utility.yul\":6247:6272   */\n      swap2\n      pop\n        /* \"#utility.yul\":6286:6306   */\n      tag_274\n        /* \"#utility.yul\":6304:6305   */\n      dup4\n        /* \"#utility.yul\":6286:6306   */\n      tag_252\n      jump\t// in\n    tag_274:\n        /* \"#utility.yul\":6281:6306   */\n      swap3\n      pop\n        /* \"#utility.yul\":6440:6441   */\n      dup3\n        /* \"#utility.yul\":6372:6438   */\n      0xffffffffffffffffffffffffffffffffffffffffffffffffffffffffffffffff\n        /* \"#utility.yul\":6368:6442   */\n      sub\n        /* \"#utility.yul\":6365:6366   */\n      dup3\n        /* \"#utility.yul\":6362:6443   */\n      gt\n        /* \"#utility.yul\":6359:6466   */\n      iszero\n      tag_275\n      jumpi\n        /* \"#utility.yul\":6446:6464   */\n      tag_276\n      tag_277\n      jump\t// in\n    tag_276:\n        /* \"#utility.yul\":6359:6466   */\n    tag_275:\n        /* \"#utility.yul\":6490:6491   */\n      dup3\n        /* \"#utility.yul\":6487:6488   */\n      dup3\n        /* \"#utility.yul\":6483:6492   */\n      add\n        /* \"#utility.yul\":6476:6492   */\n      swap1\n      pop\n        /* \"#utility.yul\":6193:6498   */\n      swap3\n      swap2\n      pop\n      pop\n      jump\t// out\n        /* \"#utility.yul\":6504:6600   */\n    tag_278:\n        /* \"#utility.yul\":6541:6548   */\n      0x00\n        /* \"#utility.yul\":6570:6594   */\n      tag_280\n        /* \"#utility.yul\":6588:6593   */\n      dup3\n        /* \"#utility.yul\":6570:6594   */\n      tag_281\n      jump\t// in\n    tag_280:\n        /* \"#utility.yul\":6559:6594   */\n      swap1\n      pop\n        /* \"#utility.yul\":6504:6600   */\n      swap2\n      swap1\n      pop\n      jump\t// out\n        /* \"#utility.yul\":6606:6696   */\n    tag_242:\n        /* \"#utility.yul\":6640:6647   */\n      0x00\n        /* \"#utility.yul\":6683:6688   */\n      dup2\n        /* \"#utility.yul\":6676:6689   */\n      iszero\n        /* \"#utility.yul\":6669:6690   */\n      iszero\n        /* \"#utility.yul\":6658:6690   */\n      swap1\n      pop\n        /* \"#utility.yul\":6606:6696   */\n      swap2\n      swap1\n      pop\n      jump\t// out\n        /* \"#utility.yul\":6702:6828   */\n    tag_281:\n        /* \"#utility.yul\":6739:6746   */\n      0x00\n        /* \"#utility.yul\":6779:6821   */\n      0xffffffffffffffffffffffffffffffffffffffff\n        /* \"#utility.yul\":6772:6777   */\n      dup3\n        /* \"#utility.yul\":6768:6822   */\n      and\n        /* \"#utility.yul\":6757:6822   */\n      swap1\n      pop\n        /* \"#utility.yul\":6702:6828   */\n      swap2\n      swap1\n      pop\n      jump\t// out\n        /* \"#utility.yul\":6834:6911   */\n    tag_252:\n        /* \"#utility.yul\":6871:6878   */\n      0x00\n        /* \"#utility.yul\":6900:6905   */\n      dup2\n        /* \"#utility.yul\":6889:6905   */\n      swap1\n      pop\n        /* \"#utility.yul\":6834:6911   */\n      swap2\n      swap1\n      pop\n      jump\t// out\n        /* \"#utility.yul\":6917:7071   */\n    tag_192:\n        /* \"#utility.yul\":7001:7007   */\n      dup3\n        /* \"#utility.yul\":6996:6999   */\n      dup2\n        /* \"#utility.yul\":6991:6994   */\n      dup4\n        /* \"#utility.yul\":6978:7008   */\n      calldatacopy\n        /* \"#utility.yul\":7063:7064   */\n      0x00\n        /* \"#utility.yul\":7054:7060   */\n      dup4\n        /* \"#utility.yul\":7049:7052   */\n      dup4\n        /* \"#utility.yul\":7045:7061   */\n      add\n        /* \"#utility.yul\":7038:7065   */\n      mstore\n        /* \"#utility.yul\":6917:7071   */\n      pop\n      pop\n      pop\n      jump\t// out\n        /* \"#utility.yul\":7077:7397   */\n    tag_171:\n        /* \"#utility.yul\":7121:7127   */\n      0x00\n        /* \"#utility.yul\":7158:7159   */\n      0x02\n        /* \"#utility.yul\":7152:7156   */\n      dup3\n        /* \"#utility.yul\":7148:7160   */\n      div\n        /* \"#utility.yul\":7138:7160   */\n      swap1\n      pop\n        /* \"#utility.yul\":7205:7206   */\n      0x01\n        /* \"#utility.yul\":7199:7203   */\n      dup3\n        /* \"#utility.yul\":7195:7207   */\n      and\n        /* \"#utility.yul\":7226:7244   */\n      dup1\n        /* \"#utility.yul\":7216:7297   */\n      tag_287\n      jumpi\n        /* \"#utility.yul\":7282:7286   */\n      0x7f\n        /* \"#utility.yul\":7274:7280   */\n      dup3\n        /* \"#utility.yul\":7270:7287   */\n      and\n        /* \"#utility.yul\":7260:7287   */\n      swap2\n      pop\n        /* \"#utility.yul\":7216:7297   */\n    tag_287:\n        /* \"#utility.yul\":7344:7346   */\n      0x20\n        /* \"#utility.yul\":7336:7342   */\n      dup3\n        /* \"#utility.yul\":7333:7347   */\n      lt\n        /* \"#utility.yul\":7313:7331   */\n      dup2\n        /* \"#utility.yul\":7310:7348   */\n      eq\n        /* \"#utility.yul\":7307:7391   */\n      iszero\n      tag_288\n      jumpi\n        /* \"#utility.yul\":7363:7381   */\n      tag_289\n      tag_290\n      jump\t// in\n    tag_289:\n        /* \"#utility.yul\":7307:7391   */\n    tag_288:\n        /* \"#utility.yul\":7128:7397   */\n      pop\n        /* \"#utility.yul\":7077:7397   */\n      swap2\n      swap1\n      pop\n      jump\t// out\n        /* \"#utility.yul\":7403:7684   */\n    tag_263:\n        /* \"#utility.yul\":7486:7513   */\n      tag_292\n        /* \"#utility.yul\":7508:7512   */\n      dup3\n        /* \"#utility.yul\":7486:7513   */\n      tag_270\n      jump\t// in\n    tag_292:\n        /* \"#utility.yul\":7478:7484   */\n      dup2\n        /* \"#utility.yul\":7474:7514   */\n      add\n        /* \"#utility.yul\":7616:7622   */\n      dup2\n        /* \"#utility.yul\":7604:7614   */\n      dup2\n        /* \"#utility.yul\":7601:7623   */\n      lt\n        /* \"#utility.yul\":7580:7598   */\n      0xffffffffffffffff\n        /* \"#utility.yul\":7568:7578   */\n      dup3\n        /* \"#utility.yul\":7565:7599   */\n      gt\n        /* \"#utility.yul\":7562:7624   */\n      or\n        /* \"#utility.yul\":7559:7647   */\n      iszero\n      tag_293\n      jumpi\n        /* \"#utility.yul\":7627:7645   */\n      tag_294\n      tag_268\n      jump\t// in\n    tag_294:\n        /* \"#utility.yul\":7559:7647   */\n    tag_293:\n        /* \"#utility.yul\":7667:7677   */\n      dup1\n        /* \"#utility.yul\":7663:7665   */\n      0x40\n        /* \"#utility.yul\":7656:7678   */\n      mstore\n        /* \"#utility.yul\":7446:7684   */\n      pop\n        /* \"#utility.yul\":7403:7684   */\n      pop\n      pop\n      jump\t// out\n        /* \"#utility.yul\":7690:7870   */\n    tag_277:\n        /* \"#utility.yul\":7738:7815   */\n      0x4e487b7100000000000000000000000000000000000000000000000000000000\n        /* \"#utility.yul\":7735:7736   */\n      0x00\n        /* \"#utility.yul\":7728:7816   */\n      mstore\n        /* \"#utility.yul\":7835:7839   */\n      0x11\n        /* \"#utility.yul\":7832:7833   */\n      0x04\n        /* \"#utility.yul\":7825:7840   */\n      mstore\n        /* \"#utility.yul\":7859:7863   */\n      0x24\n        /* \"#utility.yul\":7856:7857   */\n      0x00\n        /* \"#utility.yul\":7849:7864   */\n      revert\n        /* \"#utility.yul\":7876:8056   */\n    tag_65:\n        /* \"#utility.yul\":7924:8001   */\n      0x4e487b7100000000000000000000000000000000000000000000000000000000\n        /* \"#utility.yul\":7921:7922   */\n      0x00\n        /* \"#utility.yul\":7914:8002   */\n      mstore\n        /* \"#utility.yul\":8021:8025   */\n      0x21\n        /* \"#utility.yul\":8018:8019   */\n      0x04\n        /* \"#utility.yul\":8011:8026   */\n      mstore\n        /* \"#utility.yul\":8045:8049   */\n      0x24\n        /* \"#utility.yul\":8042:8043   */\n      0x00\n        /* \"#utility.yul\":8035:8050   */\n      revert\n        /* \"#utility.yul\":8062:8242   */\n    tag_290:\n        /* \"#utility.yul\":8110:8187   */\n      0x4e487b7100000000000000000000000000000000000000000000000000000000\n        /* \"#utility.yul\":8107:8108   */\n      0x00\n        /* \"#utility.yul\":8100:8188   */\n      mstore\n        /* \"#utility.yul\":8207:8211   */\n      0x22\n        /* \"#utility.yul\":8204:8205   */\n      0x04\n        /* \"#utility.yul\":8197:8212   */\n      mstore\n        /* \"#utility.yul\":8231:8235   */\n      0x24\n        /* \"#utility.yul\":8228:8229   */\n      0x00\n        /* \"#utility.yul\":8221:8236   */\n      revert\n        /* \"#utility.yul\":8248:8428   */\n    tag_268:\n        /* \"#utility.yul\":8296:8373   */\n      0x4e487b7100000000000000000000000000000000000000000000000000000000\n        /* \"#utility.yul\":8293:8294   */\n      0x00\n        /* \"#utility.yul\":8286:8374   */\n      mstore\n        /* \"#utility.yul\":8393:8397   */\n      0x41\n        /* \"#utility.yul\":8390:8391   */\n      0x04\n        /* \"#utility.yul\":8383:8398   */\n      mstore\n        /* \"#utility.yul\":8417:8421   */\n      0x24\n        /* \"#utility.yul\":8414:8415   */\n      0x00\n        /* \"#utility.yul\":8407:8422   */\n      revert\n        /* \"#utility.yul\":8434:8551   */\n    tag_201:\n        /* \"#utility.yul\":8543:8544   */\n      0x00\n        /* \"#utility.yul\":8540:8541   */\n      dup1\n        /* \"#utility.yul\":8533:8545   */\n      revert\n        /* \"#utility.yul\":8557:8674   */\n    tag_190:\n        /* \"#utility.yul\":8666:8667   */\n      0x00\n        /* \"#utility.yul\":8663:8664   */\n      dup1\n        /* \"#utility.yul\":8656:8668   */\n      revert\n        /* \"#utility.yul\":8680:8797   */\n    tag_228:\n        /* \"#utility.yul\":8789:8790   */\n      0x00\n        /* \"#utility.yul\":8786:8787   */\n      dup1\n        /* \"#utility.yul\":8779:8791   */\n      revert\n        /* \"#utility.yul\":8803:8920   */\n    tag_210:\n        /* \"#utility.yul\":8912:8913   */\n      0x00\n        /* \"#utility.yul\":8909:8910   */\n      dup1\n        /* \"#utility.yul\":8902:8914   */\n      revert\n        /* \"#utility.yul\":8926:9028   */\n    tag_270:\n        /* \"#utility.yul\":8967:8973   */\n      0x00\n        /* \"#utility.yul\":9018:9020   */\n      0x1f\n        /* \"#utility.yul\":9014:9021   */\n      not\n        /* \"#utility.yul\":9009:9011   */\n      0x1f\n        /* \"#utility.yul\":9002:9007   */\n      dup4\n        /* \"#utility.yul\":8998:9012   */\n      add\n        /* \"#utility.yul\":8994:9022   */\n      and\n        /* \"#utility.yul\":8984:9022   */\n      swap1\n      pop\n        /* \"#utility.yul\":8926:9028   */\n      swap2\n      swap1\n      pop\n      jump\t// out\n        /* \"#utility.yul\":9034:9215   */\n    tag_248:\n        /* \"#utility.yul\":9174:9207   */\n      0x546869732061646472657373206973206e6f74206120526567756c61746f7200\n        /* \"#utility.yul\":9170:9171   */\n      0x00\n        /* \"#utility.yul\":9162:9168   */\n      dup3\n        /* \"#utility.yul\":9158:9172   */\n      add\n        /* \"#utility.yul\":9151:9208   */\n      mstore\n        /* \"#utility.yul\":9034:9215   */\n      pop\n      jump\t// out\n        /* \"#utility.yul\":9221:9343   */\n    tag_196:\n        /* \"#utility.yul\":9294:9318   */\n      tag_306\n        /* \"#utility.yul\":9312:9317   */\n      dup2\n        /* \"#utility.yul\":9294:9318   */\n      tag_278\n      jump\t// in\n    tag_306:\n        /* \"#utility.yul\":9287:9292   */\n      dup2\n        /* \"#utility.yul\":9284:9319   */\n      eq\n        /* \"#utility.yul\":9274:9337   */\n      tag_307\n      jumpi\n        /* \"#utility.yul\":9333:9334   */\n      0x00\n        /* \"#utility.yul\":9330:9331   */\n      dup1\n        /* \"#utility.yul\":9323:9335   */\n      revert\n        /* \"#utility.yul\":9274:9337   */\n    tag_307:\n        /* \"#utility.yul\":9221:9343   */\n      pop\n      jump\t// out\n        /* \"#utility.yul\":9349:9471   */\n    tag_206:\n        /* \"#utility.yul\":9422:9446   */\n      tag_309\n        /* \"#utility.yul\":9440:9445   */\n      dup2\n        /* \"#utility.yul\":9422:9446   */\n      tag_252\n      jump\t// in\n    tag_309:\n        /* \"#utility.yul\":9415:9420   */\n      dup2\n        /* \"#utility.yul\":9412:9447   */\n      eq\n        /* \"#utility.yul\":9402:9465   */\n      tag_310\n      jumpi\n        /* \"#utility.yul\":9461:9462   */\n      0x00\n        /* \"#utility.yul\":9458:9459   */\n      dup1\n        /* \"#utility.yul\":9451:9463   */\n      revert\n        /* \"#utility.yul\":9402:9465   */\n    tag_310:\n        /* \"#utility.yul\":9349:9471   */\n      pop\n      jump\t// out\n\n    auxdata: 0xa264697066735822122013f52287c55f1353d0f31a919cef3a42142e9824d19117f1d0433269caec142964736f6c63430008070033\n}\n",
				"bytecode": {
					"linkReferences": {},
					"object": "60806040523480156200001157600080fd5b5062000023336200009460201b60201c565b6200003433620000f560201b60201c565b62000045336200015660201b60201c565b33600360006101000a81548173ffffffffffffffffffffffffffffffffffffffff021916908373ffffffffffffffffffffffffffffffffffffffff160217905550600160048190555062000300565b620000af816000620001b760201b62000a3c1790919060201c565b8073ffffffffffffffffffffffffffffffffffffffff167f6599d9dd7f97ccdc3d99ab507544f9f6ebfca20c63a7e3c018da49eeaefb164a60405160405180910390a250565b62000110816001620001b760201b62000a3c1790919060201c565b8073ffffffffffffffffffffffffffffffffffffffff167f2860b5ba44f983f8f363ee6eeb3c24cbca3096803fbdd5129b9e253f01cac07660405160405180910390a250565b62000171816002620001b760201b62000a3c1790919060201c565b8073ffffffffffffffffffffffffffffffffffffffff167f36179de14e9e7cbce2e0a64264f3eb82e80b70aac44ff098d9c6f70b1d7d659560405160405180910390a250565b600073ffffffffffffffffffffffffffffffffffffffff168173ffffffffffffffffffffffffffffffffffffffff161415620001f257600080fd5b6200020482826200026d60201b60201c565b156200020f57600080fd5b60018260000160008373ffffffffffffffffffffffffffffffffffffffff1673ffffffffffffffffffffffffffffffffffffffff16815260200190815260200160002060006101000a81548160ff0219169083151502179055505050565b60008073ffffffffffffffffffffffffffffffffffffffff168273ffffffffffffffffffffffffffffffffffffffff161415620002a957600080fd5b8260000160008373ffffffffffffffffffffffffffffffffffffffff1673ffffffffffffffffffffffffffffffffffffffff16815260200190815260200160002060009054906101000a900460ff16905092915050565b61149180620003106000396000f3fe608060405234801561001057600080fd5b50600436106100cf5760003560e01c806364c0daea1161008c578063ac63f3c711610066578063ac63f3c7146101c2578063bbf89803146101de578063c204a0cf146101fa578063d1e4fd0f14610204576100cf565b806364c0daea1461018057806381612e4f1461019c5780638e2b65d7146101a6576100cf565b80630c5484d7146100d45780631b90c4be146100f05780631beadbe21461010c5780632a55feec1461011657806341c0e1b51461014657806354fc916914610150575b600080fd5b6100ee60048036038101906100e99190610fab565b610234565b005b61010a60048036038101906101059190610f7e565b610373565b005b610114610391565b005b610130600480360381019061012b9190610f7e565b61039c565b60405161013d9190611156565b60405180910390f35b61014e6103b9565b005b61016a60048036038101906101659190610f7e565b61044c565b6040516101779190611156565b60405180910390f35b61019a60048036038101906101959190611018565b610469565b005b6101a4610789565b005b6101c060048036038101906101bb9190610fd8565b610794565b005b6101dc60048036038101906101d79190610f7e565b6109d8565b005b6101f860048036038101906101f39190610f7e565b6109f6565b005b610202610a14565b005b61021e60048036038101906102199190610f7e565b610a1f565b60405161022b9190611156565b60405180910390f35b806000600681111561024957610248611352565b5b6005600083815260200190815260200160002060090160009054906101000a900460ff16600681111561027f5761027e611352565b5b1461028957600080fd5b816005600082815260200190815260200160002060020160009054906101000a900473ffffffffffffffffffffffffffffffffffffffff1673ffffffffffffffffffffffffffffffffffffffff163373ffffffffffffffffffffffffffffffffffffffff16146102f857600080fd5b60016005600085815260200190815260200160002060090160006101000a81548160ff0219169083600681111561033257610331611352565b5b02179055507f06974b56d21c283fee3ed0905f648b2e17cb684cc8dc972ea99704bea957814e836040516103669190611191565b60405180910390a1505050565b61037c33610a1f565b61038557600080fd5b61038e81610ae8565b50565b61039a33610b42565b565b60006103b2826000610b9c90919063ffffffff16565b9050919050565b600360009054906101000a900473ffffffffffffffffffffffffffffffffffffffff1673ffffffffffffffffffffffffffffffffffffffff163373ffffffffffffffffffffffffffffffffffffffff16141561044a57600360009054906101000a900473ffffffffffffffffffffffffffffffffffffffff1673ffffffffffffffffffffffffffffffffffffffff16ff5b565b6000610462826001610b9c90919063ffffffff16565b9050919050565b61047233610a1f565b61047b57600080fd5b60405180610180016040528060045481526020018781526020013373ffffffffffffffffffffffffffffffffffffffff1681526020018673ffffffffffffffffffffffffffffffffffffffff1681526020018581526020018481526020018381526020018281526020016000815260200160006006811115610500576104ff611352565b5b8152602001600073ffffffffffffffffffffffffffffffffffffffff168152602001600073ffffffffffffffffffffffffffffffffffffffff1681525060056000888152602001908152602001600020600082015181600001556020820151816001015560408201518160020160006101000a81548173ffffffffffffffffffffffffffffffffffffffff021916908373ffffffffffffffffffffffffffffffffffffffff16021790555060608201518160030160006101000a81548173ffffffffffffffffffffffffffffffffffffffff021916908373ffffffffffffffffffffffffffffffffffffffff160217905550608082015181600401908051906020019061060e929190610e41565b5060a082015181600501908051906020019061062b929190610e41565b5060c0820151816006019080519060200190610648929190610e41565b5060e0820151816007019080519060200190610665929190610e41565b5061010082015181600801556101208201518160090160006101000a81548160ff0219169083600681111561069d5761069c611352565b5b02179055506101408201518160090160016101000a81548173ffffffffffffffffffffffffffffffffffffffff021916908373ffffffffffffffffffffffffffffffffffffffff16021790555061016082015181600a0160006101000a81548173ffffffffffffffffffffffffffffffffffffffff021916908373ffffffffffffffffffffffffffffffffffffffff16021790555090505060016004546107449190611213565b6004819055507f9d1715437821cd9a90cba5d1a68995c308d9ad9afc754ed9a1cff429760796e6866040516107799190611191565b60405180910390a1505050505050565b61079233610c2e565b565b81600160068111156107a9576107a8611352565b5b6005600083815260200190815260200160002060090160009054906101000a900460ff1660068111156107df576107de611352565b5b146107e957600080fd5b6107f233610a1f565b6107fb57600080fd5b826005600082815260200190815260200160002060020160009054906101000a900473ffffffffffffffffffffffffffffffffffffffff1673ffffffffffffffffffffffffffffffffffffffff163373ffffffffffffffffffffffffffffffffffffffff161461086a57600080fd5b6108738361044c565b6108b2576040517f08c379a00000000000000000000000000000000000000000000000000000000081526004016108a990611171565b60405180910390fd5b826005600086815260200190815260200160002060090160016101000a81548173ffffffffffffffffffffffffffffffffffffffff021916908373ffffffffffffffffffffffffffffffffffffffff16021790555060026005600086815260200190815260200160002060090160006101000a81548160ff0219169083600681111561094157610940611352565b5b0217905550826005600086815260200190815260200160002060020160006101000a81548173ffffffffffffffffffffffffffffffffffffffff021916908373ffffffffffffffffffffffffffffffffffffffff1602179055507ff12328dacf931f6c8c8c904ea8b9791d681613ed5ec258dce2866c311795c9ea846040516109ca9190611191565b60405180910390a150505050565b6109e13361044c565b6109ea57600080fd5b6109f381610c88565b50565b6109ff3361039c565b610a0857600080fd5b610a1181610ce2565b50565b610a1d33610d3c565b565b6000610a35826002610b9c90919063ffffffff16565b9050919050565b600073ffffffffffffffffffffffffffffffffffffffff168173ffffffffffffffffffffffffffffffffffffffff161415610a7657600080fd5b610a808282610b9c565b15610a8a57600080fd5b60018260000160008373ffffffffffffffffffffffffffffffffffffffff1673ffffffffffffffffffffffffffffffffffffffff16815260200190815260200160002060006101000a81548160ff0219169083151502179055505050565b610afc816002610a3c90919063ffffffff16565b8073ffffffffffffffffffffffffffffffffffffffff167f36179de14e9e7cbce2e0a64264f3eb82e80b70aac44ff098d9c6f70b1d7d659560405160405180910390a250565b610b56816001610d9690919063ffffffff16565b8073ffffffffffffffffffffffffffffffffffffffff167fc8ecc453f78c13ccc7596603b61935f29b99dc15bb91b91647e1ccf2469ad00a60405160405180910390a250565b60008073ffffffffffffffffffffffffffffffffffffffff168273ffffffffffffffffffffffffffffffffffffffff161415610bd757600080fd5b8260000160008373ffffffffffffffffffffffffffffffffffffffff1673ffffffffffffffffffffffffffffffffffffffff16815260200190815260200160002060009054906101000a900460ff16905092915050565b610c42816002610d9690919063ffffffff16565b8073ffffffffffffffffffffffffffffffffffffffff167fa9a482e6375ef89327f2177c114191d0b88502ca4a7b961d211cc45786ee510760405160405180910390a250565b610c9c816001610a3c90919063ffffffff16565b8073ffffffffffffffffffffffffffffffffffffffff167f2860b5ba44f983f8f363ee6eeb3c24cbca3096803fbdd5129b9e253f01cac07660405160405180910390a250565b610cf6816000610a3c90919063ffffffff16565b8073ffffffffffffffffffffffffffffffffffffffff167f6599d9dd7f97ccdc3d99ab507544f9f6ebfca20c63a7e3c018da49eeaefb164a60405160405180910390a250565b610d50816000610d9690919063ffffffff16565b8073ffffffffffffffffffffffffffffffffffffffff167f83fd4cbc7bc934bdfbae994ac6e72fcc0e50abd6995c1949520e761ba650d58260405160405180910390a250565b600073ffffffffffffffffffffffffffffffffffffffff168173ffffffffffffffffffffffffffffffffffffffff161415610dd057600080fd5b610dda8282610b9c565b610de357600080fd5b60008260000160008373ffffffffffffffffffffffffffffffffffffffff1673ffffffffffffffffffffffffffffffffffffffff16815260200190815260200160002060006101000a81548160ff0219169083151502179055505050565b828054610e4d906112c0565b90600052602060002090601f016020900481019282610e6f5760008555610eb6565b82601f10610e8857805160ff1916838001178555610eb6565b82800160010185558215610eb6579182015b82811115610eb5578251825591602001919060010190610e9a565b5b509050610ec39190610ec7565b5090565b5b80821115610ee0576000816000905550600101610ec8565b5090565b6000610ef7610ef2846111d1565b6111ac565b905082815260208101848484011115610f1357610f126113e4565b5b610f1e8482856112b1565b509392505050565b600081359050610f358161142d565b92915050565b600082601f830112610f5057610f4f6113df565b5b8135610f60848260208601610ee4565b91505092915050565b600081359050610f7881611444565b92915050565b600060208284031215610f9457610f936113ee565b5b6000610fa284828501610f26565b91505092915050565b600060208284031215610fc157610fc06113ee565b5b6000610fcf84828501610f69565b91505092915050565b60008060408385031215610fef57610fee6113ee565b5b6000610ffd85828601610f69565b925050602061100e85828601610f26565b9150509250929050565b60008060008060008060c08789031215611035576110346113ee565b5b600061104389828a01610f69565b965050602061105489828a01610f26565b955050604087013567ffffffffffffffff811115611075576110746113e9565b5b61108189828a01610f3b565b945050606087013567ffffffffffffffff8111156110a2576110a16113e9565b5b6110ae89828a01610f3b565b935050608087013567ffffffffffffffff8111156110cf576110ce6113e9565b5b6110db89828a01610f3b565b92505060a087013567ffffffffffffffff8111156110fc576110fb6113e9565b5b61110889828a01610f3b565b9150509295509295509295565b61111e8161127b565b82525050565b6000611131601f83611202565b915061113c82611404565b602082019050919050565b611150816112a7565b82525050565b600060208201905061116b6000830184611115565b92915050565b6000602082019050818103600083015261118a81611124565b9050919050565b60006020820190506111a66000830184611147565b92915050565b60006111b66111c7565b90506111c282826112f2565b919050565b6000604051905090565b600067ffffffffffffffff8211156111ec576111eb6113b0565b5b6111f5826113f3565b9050602081019050919050565b600082825260208201905092915050565b600061121e826112a7565b9150611229836112a7565b9250827fffffffffffffffffffffffffffffffffffffffffffffffffffffffffffffffff0382111561125e5761125d611323565b5b828201905092915050565b600061127482611287565b9050919050565b60008115159050919050565b600073ffffffffffffffffffffffffffffffffffffffff82169050919050565b6000819050919050565b82818337600083830152505050565b600060028204905060018216806112d857607f821691505b602082108114156112ec576112eb611381565b5b50919050565b6112fb826113f3565b810181811067ffffffffffffffff8211171561131a576113196113b0565b5b80604052505050565b7f4e487b7100000000000000000000000000000000000000000000000000000000600052601160045260246000fd5b7f4e487b7100000000000000000000000000000000000000000000000000000000600052602160045260246000fd5b7f4e487b7100000000000000000000000000000000000000000000000000000000600052602260045260246000fd5b7f4e487b7100000000000000000000000000000000000000000000000000000000600052604160045260246000fd5b600080fd5b600080fd5b600080fd5b600080fd5b6000601f19601f8301169050919050565b7f546869732061646472657373206973206e6f74206120526567756c61746f7200600082015250565b61143681611269565b811461144157600080fd5b50565b61144d816112a7565b811461145857600080fd5b5056fea264697066735822122013f52287c55f1353d0f31a919cef3a42142e9824d19117f1d0433269caec142964736f6c63430008070033",
					"opcodes": "PUSH1 0x80 PUSH1 0x40 MSTORE CALLVALUE DUP1 ISZERO PUSH3 0x11 JUMPI PUSH1 0x0 DUP1 REVERT JUMPDEST POP PUSH3 0x23 CALLER PUSH3 0x94 PUSH1 0x20 SHL PUSH1 0x20 SHR JUMP JUMPDEST PUSH3 0x34 CALLER PUSH3 0xF5 PUSH1 0x20 SHL PUSH1 0x20 SHR JUMP JUMPDEST PUSH3 0x45 CALLER PUSH3 0x156 PUSH1 0x20 SHL PUSH1 0x20 SHR JUMP JUMPDEST CALLER PUSH1 0x3 PUSH1 0x0 PUSH2 0x100 EXP DUP2 SLOAD DUP2 PUSH20 0xFFFFFFFFFFFFFFFFFFFFFFFFFFFFFFFFFFFFFFFF MUL NOT AND SWAP1 DUP4 PUSH20 0xFFFFFFFFFFFFFFFFFFFFFFFFFFFFFFFFFFFFFFFF AND MUL OR SWAP1 SSTORE POP PUSH1 0x1 PUSH1 0x4 DUP2 SWAP1 SSTORE POP PUSH3 0x300 JUMP JUMPDEST PUSH3 0xAF DUP2 PUSH1 0x0 PUSH3 0x1B7 PUSH1 0x20 SHL PUSH3 0xA3C OR SWAP1 SWAP2 SWAP1 PUSH1 0x20 SHR JUMP JUMPDEST DUP1 PUSH20 0xFFFFFFFFFFFFFFFFFFFFFFFFFFFFFFFFFFFFFFFF AND PUSH32 0x6599D9DD7F97CCDC3D99AB507544F9F6EBFCA20C63A7E3C018DA49EEAEFB164A PUSH1 0x40 MLOAD PUSH1 0x40 MLOAD DUP1 SWAP2 SUB SWAP1 LOG2 POP JUMP JUMPDEST PUSH3 0x110 DUP2 PUSH1 0x1 PUSH3 0x1B7 PUSH1 0x20 SHL PUSH3 0xA3C OR SWAP1 SWAP2 SWAP1 PUSH1 0x20 SHR JUMP JUMPDEST DUP1 PUSH20 0xFFFFFFFFFFFFFFFFFFFFFFFFFFFFFFFFFFFFFFFF AND PUSH32 0x2860B5BA44F983F8F363EE6EEB3C24CBCA3096803FBDD5129B9E253F01CAC076 PUSH1 0x40 MLOAD PUSH1 0x40 MLOAD DUP1 SWAP2 SUB SWAP1 LOG2 POP JUMP JUMPDEST PUSH3 0x171 DUP2 PUSH1 0x2 PUSH3 0x1B7 PUSH1 0x20 SHL PUSH3 0xA3C OR SWAP1 SWAP2 SWAP1 PUSH1 0x20 SHR JUMP JUMPDEST DUP1 PUSH20 0xFFFFFFFFFFFFFFFFFFFFFFFFFFFFFFFFFFFFFFFF AND PUSH32 0x36179DE14E9E7CBCE2E0A64264F3EB82E80B70AAC44FF098D9C6F70B1D7D6595 PUSH1 0x40 MLOAD PUSH1 0x40 MLOAD DUP1 SWAP2 SUB SWAP1 LOG2 POP JUMP JUMPDEST PUSH1 0x0 PUSH20 0xFFFFFFFFFFFFFFFFFFFFFFFFFFFFFFFFFFFFFFFF AND DUP2 PUSH20 0xFFFFFFFFFFFFFFFFFFFFFFFFFFFFFFFFFFFFFFFF AND EQ ISZERO PUSH3 0x1F2 JUMPI PUSH1 0x0 DUP1 REVERT JUMPDEST PUSH3 0x204 DUP3 DUP3 PUSH3 0x26D PUSH1 0x20 SHL PUSH1 0x20 SHR JUMP JUMPDEST ISZERO PUSH3 0x20F JUMPI PUSH1 0x0 DUP1 REVERT JUMPDEST PUSH1 0x1 DUP3 PUSH1 0x0 ADD PUSH1 0x0 DUP4 PUSH20 0xFFFFFFFFFFFFFFFFFFFFFFFFFFFFFFFFFFFFFFFF AND PUSH20 0xFFFFFFFFFFFFFFFFFFFFFFFFFFFFFFFFFFFFFFFF AND DUP2 MSTORE PUSH1 0x20 ADD SWAP1 DUP2 MSTORE PUSH1 0x20 ADD PUSH1 0x0 KECCAK256 PUSH1 0x0 PUSH2 0x100 EXP DUP2 SLOAD DUP2 PUSH1 0xFF MUL NOT AND SWAP1 DUP4 ISZERO ISZERO MUL OR SWAP1 SSTORE POP POP POP JUMP JUMPDEST PUSH1 0x0 DUP1 PUSH20 0xFFFFFFFFFFFFFFFFFFFFFFFFFFFFFFFFFFFFFFFF AND DUP3 PUSH20 0xFFFFFFFFFFFFFFFFFFFFFFFFFFFFFFFFFFFFFFFF AND EQ ISZERO PUSH3 0x2A9 JUMPI PUSH1 0x0 DUP1 REVERT JUMPDEST DUP3 PUSH1 0x0 ADD PUSH1 0x0 DUP4 PUSH20 0xFFFFFFFFFFFFFFFFFFFFFFFFFFFFFFFFFFFFFFFF AND PUSH20 0xFFFFFFFFFFFFFFFFFFFFFFFFFFFFFFFFFFFFFFFF AND DUP2 MSTORE PUSH1 0x20 ADD SWAP1 DUP2 MSTORE PUSH1 0x20 ADD PUSH1 0x0 KECCAK256 PUSH1 0x0 SWAP1 SLOAD SWAP1 PUSH2 0x100 EXP SWAP1 DIV PUSH1 0xFF AND SWAP1 POP SWAP3 SWAP2 POP POP JUMP JUMPDEST PUSH2 0x1491 DUP1 PUSH3 0x310 PUSH1 0x0 CODECOPY PUSH1 0x0 RETURN INVALID PUSH1 0x80 PUSH1 0x40 MSTORE CALLVALUE DUP1 ISZERO PUSH2 0x10 JUMPI PUSH1 0x0 DUP1 REVERT JUMPDEST POP PUSH1 0x4 CALLDATASIZE LT PUSH2 0xCF JUMPI PUSH1 0x0 CALLDATALOAD PUSH1 0xE0 SHR DUP1 PUSH4 0x64C0DAEA GT PUSH2 0x8C JUMPI DUP1 PUSH4 0xAC63F3C7 GT PUSH2 0x66 JUMPI DUP1 PUSH4 0xAC63F3C7 EQ PUSH2 0x1C2 JUMPI DUP1 PUSH4 0xBBF89803 EQ PUSH2 0x1DE JUMPI DUP1 PUSH4 0xC204A0CF EQ PUSH2 0x1FA JUMPI DUP1 PUSH4 0xD1E4FD0F EQ PUSH2 0x204 JUMPI PUSH2 0xCF JUMP JUMPDEST DUP1 PUSH4 0x64C0DAEA EQ PUSH2 0x180 JUMPI DUP1 PUSH4 0x81612E4F EQ PUSH2 0x19C JUMPI DUP1 PUSH4 0x8E2B65D7 EQ PUSH2 0x1A6 JUMPI PUSH2 0xCF JUMP JUMPDEST DUP1 PUSH4 0xC5484D7 EQ PUSH2 0xD4 JUMPI DUP1 PUSH4 0x1B90C4BE EQ PUSH2 0xF0 JUMPI DUP1 PUSH4 0x1BEADBE2 EQ PUSH2 0x10C JUMPI DUP1 PUSH4 0x2A55FEEC EQ PUSH2 0x116 JUMPI DUP1 PUSH4 0x41C0E1B5 EQ PUSH2 0x146 JUMPI DUP1 PUSH4 0x54FC9169 EQ PUSH2 0x150 JUMPI JUMPDEST PUSH1 0x0 DUP1 REVERT JUMPDEST PUSH2 0xEE PUSH1 0x4 DUP1 CALLDATASIZE SUB DUP2 ADD SWAP1 PUSH2 0xE9 SWAP2 SWAP1 PUSH2 0xFAB JUMP JUMPDEST PUSH2 0x234 JUMP JUMPDEST STOP JUMPDEST PUSH2 0x10A PUSH1 0x4 DUP1 CALLDATASIZE SUB DUP2 ADD SWAP1 PUSH2 0x105 SWAP2 SWAP1 PUSH2 0xF7E JUMP JUMPDEST PUSH2 0x373 JUMP JUMPDEST STOP JUMPDEST PUSH2 0x114 PUSH2 0x391 JUMP JUMPDEST STOP JUMPDEST PUSH2 0x130 PUSH1 0x4 DUP1 CALLDATASIZE SUB DUP2 ADD SWAP1 PUSH2 0x12B SWAP2 SWAP1 PUSH2 0xF7E JUMP JUMPDEST PUSH2 0x39C JUMP JUMPDEST PUSH1 0x40 MLOAD PUSH2 0x13D SWAP2 SWAP1 PUSH2 0x1156 JUMP JUMPDEST PUSH1 0x40 MLOAD DUP1 SWAP2 SUB SWAP1 RETURN JUMPDEST PUSH2 0x14E PUSH2 0x3B9 JUMP JUMPDEST STOP JUMPDEST PUSH2 0x16A PUSH1 0x4 DUP1 CALLDATASIZE SUB DUP2 ADD SWAP1 PUSH2 0x165 SWAP2 SWAP1 PUSH2 0xF7E JUMP JUMPDEST PUSH2 0x44C JUMP JUMPDEST PUSH1 0x40 MLOAD PUSH2 0x177 SWAP2 SWAP1 PUSH2 0x1156 JUMP JUMPDEST PUSH1 0x40 MLOAD DUP1 SWAP2 SUB SWAP1 RETURN JUMPDEST PUSH2 0x19A PUSH1 0x4 DUP1 CALLDATASIZE SUB DUP2 ADD SWAP1 PUSH2 0x195 SWAP2 SWAP1 PUSH2 0x1018 JUMP JUMPDEST PUSH2 0x469 JUMP JUMPDEST STOP JUMPDEST PUSH2 0x1A4 PUSH2 0x789 JUMP JUMPDEST STOP JUMPDEST PUSH2 0x1C0 PUSH1 0x4 DUP1 CALLDATASIZE SUB DUP2 ADD SWAP1 PUSH2 0x1BB SWAP2 SWAP1 PUSH2 0xFD8 JUMP JUMPDEST PUSH2 0x794 JUMP JUMPDEST STOP JUMPDEST PUSH2 0x1DC PUSH1 0x4 DUP1 CALLDATASIZE SUB DUP2 ADD SWAP1 PUSH2 0x1D7 SWAP2 SWAP1 PUSH2 0xF7E JUMP JUMPDEST PUSH2 0x9D8 JUMP JUMPDEST STOP JUMPDEST PUSH2 0x1F8 PUSH1 0x4 DUP1 CALLDATASIZE SUB DUP2 ADD SWAP1 PUSH2 0x1F3 SWAP2 SWAP1 PUSH2 0xF7E JUMP JUMPDEST PUSH2 0x9F6 JUMP JUMPDEST STOP JUMPDEST PUSH2 0x202 PUSH2 0xA14 JUMP JUMPDEST STOP JUMPDEST PUSH2 0x21E PUSH1 0x4 DUP1 CALLDATASIZE SUB DUP2 ADD SWAP1 PUSH2 0x219 SWAP2 SWAP1 PUSH2 0xF7E JUMP JUMPDEST PUSH2 0xA1F JUMP JUMPDEST PUSH1 0x40 MLOAD PUSH2 0x22B SWAP2 SWAP1 PUSH2 0x1156 JUMP JUMPDEST PUSH1 0x40 MLOAD DUP1 SWAP2 SUB SWAP1 RETURN JUMPDEST DUP1 PUSH1 0x0 PUSH1 0x6 DUP2 GT ISZERO PUSH2 0x249 JUMPI PUSH2 0x248 PUSH2 0x1352 JUMP JUMPDEST JUMPDEST PUSH1 0x5 PUSH1 0x0 DUP4 DUP2 MSTORE PUSH1 0x20 ADD SWAP1 DUP2 MSTORE PUSH1 0x20 ADD PUSH1 0x0 KECCAK256 PUSH1 0x9 ADD PUSH1 0x0 SWAP1 SLOAD SWAP1 PUSH2 0x100 EXP SWAP1 DIV PUSH1 0xFF AND PUSH1 0x6 DUP2 GT ISZERO PUSH2 0x27F JUMPI PUSH2 0x27E PUSH2 0x1352 JUMP JUMPDEST JUMPDEST EQ PUSH2 0x289 JUMPI PUSH1 0x0 DUP1 REVERT JUMPDEST DUP2 PUSH1 0x5 PUSH1 0x0 DUP3 DUP2 MSTORE PUSH1 0x20 ADD SWAP1 DUP2 MSTORE PUSH1 0x20 ADD PUSH1 0x0 KECCAK256 PUSH1 0x2 ADD PUSH1 0x0 SWAP1 SLOAD SWAP1 PUSH2 0x100 EXP SWAP1 DIV PUSH20 0xFFFFFFFFFFFFFFFFFFFFFFFFFFFFFFFFFFFFFFFF AND PUSH20 0xFFFFFFFFFFFFFFFFFFFFFFFFFFFFFFFFFFFFFFFF AND CALLER PUSH20 0xFFFFFFFFFFFFFFFFFFFFFFFFFFFFFFFFFFFFFFFF AND EQ PUSH2 0x2F8 JUMPI PUSH1 0x0 DUP1 REVERT JUMPDEST PUSH1 0x1 PUSH1 0x5 PUSH1 0x0 DUP6 DUP2 MSTORE PUSH1 0x20 ADD SWAP1 DUP2 MSTORE PUSH1 0x20 ADD PUSH1 0x0 KECCAK256 PUSH1 0x9 ADD PUSH1 0x0 PUSH2 0x100 EXP DUP2 SLOAD DUP2 PUSH1 0xFF MUL NOT AND SWAP1 DUP4 PUSH1 0x6 DUP2 GT ISZERO PUSH2 0x332 JUMPI PUSH2 0x331 PUSH2 0x1352 JUMP JUMPDEST JUMPDEST MUL OR SWAP1 SSTORE POP PUSH32 0x6974B56D21C283FEE3ED0905F648B2E17CB684CC8DC972EA99704BEA957814E DUP4 PUSH1 0x40 MLOAD PUSH2 0x366 SWAP2 SWAP1 PUSH2 0x1191 JUMP JUMPDEST PUSH1 0x40 MLOAD DUP1 SWAP2 SUB SWAP1 LOG1 POP POP POP JUMP JUMPDEST PUSH2 0x37C CALLER PUSH2 0xA1F JUMP JUMPDEST PUSH2 0x385 JUMPI PUSH1 0x0 DUP1 REVERT JUMPDEST PUSH2 0x38E DUP2 PUSH2 0xAE8 JUMP JUMPDEST POP JUMP JUMPDEST PUSH2 0x39A CALLER PUSH2 0xB42 JUMP JUMPDEST JUMP JUMPDEST PUSH1 0x0 PUSH2 0x3B2 DUP3 PUSH1 0x0 PUSH2 0xB9C SWAP1 SWAP2 SWAP1 PUSH4 0xFFFFFFFF AND JUMP JUMPDEST SWAP1 POP SWAP2 SWAP1 POP JUMP JUMPDEST PUSH1 0x3 PUSH1 0x0 SWAP1 SLOAD SWAP1 PUSH2 0x100 EXP SWAP1 DIV PUSH20 0xFFFFFFFFFFFFFFFFFFFFFFFFFFFFFFFFFFFFFFFF AND PUSH20 0xFFFFFFFFFFFFFFFFFFFFFFFFFFFFFFFFFFFFFFFF AND CALLER PUSH20 0xFFFFFFFFFFFFFFFFFFFFFFFFFFFFFFFFFFFFFFFF AND EQ ISZERO PUSH2 0x44A JUMPI PUSH1 0x3 PUSH1 0x0 SWAP1 SLOAD SWAP1 PUSH2 0x100 EXP SWAP1 DIV PUSH20 0xFFFFFFFFFFFFFFFFFFFFFFFFFFFFFFFFFFFFFFFF AND PUSH20 0xFFFFFFFFFFFFFFFFFFFFFFFFFFFFFFFFFFFFFFFF AND SELFDESTRUCT JUMPDEST JUMP JUMPDEST PUSH1 0x0 PUSH2 0x462 DUP3 PUSH1 0x1 PUSH2 0xB9C SWAP1 SWAP2 SWAP1 PUSH4 0xFFFFFFFF AND JUMP JUMPDEST SWAP1 POP SWAP2 SWAP1 POP JUMP JUMPDEST PUSH2 0x472 CALLER PUSH2 0xA1F JUMP JUMPDEST PUSH2 0x47B JUMPI PUSH1 0x0 DUP1 REVERT JUMPDEST PUSH1 0x40 MLOAD DUP1 PUSH2 0x180 ADD PUSH1 0x40 MSTORE DUP1 PUSH1 0x4 SLOAD DUP2 MSTORE PUSH1 0x20 ADD DUP8 DUP2 MSTORE PUSH1 0x20 ADD CALLER PUSH20 0xFFFFFFFFFFFFFFFFFFFFFFFFFFFFFFFFFFFFFFFF AND DUP2 MSTORE PUSH1 0x20 ADD DUP7 PUSH20 0xFFFFFFFFFFFFFFFFFFFFFFFFFFFFFFFFFFFFFFFF AND DUP2 MSTORE PUSH1 0x20 ADD DUP6 DUP2 MSTORE PUSH1 0x20 ADD DUP5 DUP2 MSTORE PUSH1 0x20 ADD DUP4 DUP2 MSTORE PUSH1 0x20 ADD DUP3 DUP2 MSTORE PUSH1 0x20 ADD PUSH1 0x0 DUP2 MSTORE PUSH1 0x20 ADD PUSH1 0x0 PUSH1 0x6 DUP2 GT ISZERO PUSH2 0x500 JUMPI PUSH2 0x4FF PUSH2 0x1352 JUMP JUMPDEST JUMPDEST DUP2 MSTORE PUSH1 0x20 ADD PUSH1 0x0 PUSH20 0xFFFFFFFFFFFFFFFFFFFFFFFFFFFFFFFFFFFFFFFF AND DUP2 MSTORE PUSH1 0x20 ADD PUSH1 0x0 PUSH20 0xFFFFFFFFFFFFFFFFFFFFFFFFFFFFFFFFFFFFFFFF AND DUP2 MSTORE POP PUSH1 0x5 PUSH1 0x0 DUP9 DUP2 MSTORE PUSH1 0x20 ADD SWAP1 DUP2 MSTORE PUSH1 0x20 ADD PUSH1 0x0 KECCAK256 PUSH1 0x0 DUP3 ADD MLOAD DUP2 PUSH1 0x0 ADD SSTORE PUSH1 0x20 DUP3 ADD MLOAD DUP2 PUSH1 0x1 ADD SSTORE PUSH1 0x40 DUP3 ADD MLOAD DUP2 PUSH1 0x2 ADD PUSH1 0x0 PUSH2 0x100 EXP DUP2 SLOAD DUP2 PUSH20 0xFFFFFFFFFFFFFFFFFFFFFFFFFFFFFFFFFFFFFFFF MUL NOT AND SWAP1 DUP4 PUSH20 0xFFFFFFFFFFFFFFFFFFFFFFFFFFFFFFFFFFFFFFFF AND MUL OR SWAP1 SSTORE POP PUSH1 0x60 DUP3 ADD MLOAD DUP2 PUSH1 0x3 ADD PUSH1 0x0 PUSH2 0x100 EXP DUP2 SLOAD DUP2 PUSH20 0xFFFFFFFFFFFFFFFFFFFFFFFFFFFFFFFFFFFFFFFF MUL NOT AND SWAP1 DUP4 PUSH20 0xFFFFFFFFFFFFFFFFFFFFFFFFFFFFFFFFFFFFFFFF AND MUL OR SWAP1 SSTORE POP PUSH1 0x80 DUP3 ADD MLOAD DUP2 PUSH1 0x4 ADD SWAP1 DUP1 MLOAD SWAP1 PUSH1 0x20 ADD SWAP1 PUSH2 0x60E SWAP3 SWAP2 SWAP1 PUSH2 0xE41 JUMP JUMPDEST POP PUSH1 0xA0 DUP3 ADD MLOAD DUP2 PUSH1 0x5 ADD SWAP1 DUP1 MLOAD SWAP1 PUSH1 0x20 ADD SWAP1 PUSH2 0x62B SWAP3 SWAP2 SWAP1 PUSH2 0xE41 JUMP JUMPDEST POP PUSH1 0xC0 DUP3 ADD MLOAD DUP2 PUSH1 0x6 ADD SWAP1 DUP1 MLOAD SWAP1 PUSH1 0x20 ADD SWAP1 PUSH2 0x648 SWAP3 SWAP2 SWAP1 PUSH2 0xE41 JUMP JUMPDEST POP PUSH1 0xE0 DUP3 ADD MLOAD DUP2 PUSH1 0x7 ADD SWAP1 DUP1 MLOAD SWAP1 PUSH1 0x20 ADD SWAP1 PUSH2 0x665 SWAP3 SWAP2 SWAP1 PUSH2 0xE41 JUMP JUMPDEST POP PUSH2 0x100 DUP3 ADD MLOAD DUP2 PUSH1 0x8 ADD SSTORE PUSH2 0x120 DUP3 ADD MLOAD DUP2 PUSH1 0x9 ADD PUSH1 0x0 PUSH2 0x100 EXP DUP2 SLOAD DUP2 PUSH1 0xFF MUL NOT AND SWAP1 DUP4 PUSH1 0x6 DUP2 GT ISZERO PUSH2 0x69D JUMPI PUSH2 0x69C PUSH2 0x1352 JUMP JUMPDEST JUMPDEST MUL OR SWAP1 SSTORE POP PUSH2 0x140 DUP3 ADD MLOAD DUP2 PUSH1 0x9 ADD PUSH1 0x1 PUSH2 0x100 EXP DUP2 SLOAD DUP2 PUSH20 0xFFFFFFFFFFFFFFFFFFFFFFFFFFFFFFFFFFFFFFFF MUL NOT AND SWAP1 DUP4 PUSH20 0xFFFFFFFFFFFFFFFFFFFFFFFFFFFFFFFFFFFFFFFF AND MUL OR SWAP1 SSTORE POP PUSH2 0x160 DUP3 ADD MLOAD DUP2 PUSH1 0xA ADD PUSH1 0x0 PUSH2 0x100 EXP DUP2 SLOAD DUP2 PUSH20 0xFFFFFFFFFFFFFFFFFFFFFFFFFFFFFFFFFFFFFFFF MUL NOT AND SWAP1 DUP4 PUSH20 0xFFFFFFFFFFFFFFFFFFFFFFFFFFFFFFFFFFFFFFFF AND MUL OR SWAP1 SSTORE POP SWAP1 POP POP PUSH1 0x1 PUSH1 0x4 SLOAD PUSH2 0x744 SWAP2 SWAP1 PUSH2 0x1213 JUMP JUMPDEST PUSH1 0x4 DUP2 SWAP1 SSTORE POP PUSH32 0x9D1715437821CD9A90CBA5D1A68995C308D9AD9AFC754ED9A1CFF429760796E6 DUP7 PUSH1 0x40 MLOAD PUSH2 0x779 SWAP2 SWAP1 PUSH2 0x1191 JUMP JUMPDEST PUSH1 0x40 MLOAD DUP1 SWAP2 SUB SWAP1 LOG1 POP POP POP POP POP POP JUMP JUMPDEST PUSH2 0x792 CALLER PUSH2 0xC2E JUMP JUMPDEST JUMP JUMPDEST DUP2 PUSH1 0x1 PUSH1 0x6 DUP2 GT ISZERO PUSH2 0x7A9 JUMPI PUSH2 0x7A8 PUSH2 0x1352 JUMP JUMPDEST JUMPDEST PUSH1 0x5 PUSH1 0x0 DUP4 DUP2 MSTORE PUSH1 0x20 ADD SWAP1 DUP2 MSTORE PUSH1 0x20 ADD PUSH1 0x0 KECCAK256 PUSH1 0x9 ADD PUSH1 0x0 SWAP1 SLOAD SWAP1 PUSH2 0x100 EXP SWAP1 DIV PUSH1 0xFF AND PUSH1 0x6 DUP2 GT ISZERO PUSH2 0x7DF JUMPI PUSH2 0x7DE PUSH2 0x1352 JUMP JUMPDEST JUMPDEST EQ PUSH2 0x7E9 JUMPI PUSH1 0x0 DUP1 REVERT JUMPDEST PUSH2 0x7F2 CALLER PUSH2 0xA1F JUMP JUMPDEST PUSH2 0x7FB JUMPI PUSH1 0x0 DUP1 REVERT JUMPDEST DUP3 PUSH1 0x5 PUSH1 0x0 DUP3 DUP2 MSTORE PUSH1 0x20 ADD SWAP1 DUP2 MSTORE PUSH1 0x20 ADD PUSH1 0x0 KECCAK256 PUSH1 0x2 ADD PUSH1 0x0 SWAP1 SLOAD SWAP1 PUSH2 0x100 EXP SWAP1 DIV PUSH20 0xFFFFFFFFFFFFFFFFFFFFFFFFFFFFFFFFFFFFFFFF AND PUSH20 0xFFFFFFFFFFFFFFFFFFFFFFFFFFFFFFFFFFFFFFFF AND CALLER PUSH20 0xFFFFFFFFFFFFFFFFFFFFFFFFFFFFFFFFFFFFFFFF AND EQ PUSH2 0x86A JUMPI PUSH1 0x0 DUP1 REVERT JUMPDEST PUSH2 0x873 DUP4 PUSH2 0x44C JUMP JUMPDEST PUSH2 0x8B2 JUMPI PUSH1 0x40 MLOAD PUSH32 0x8C379A000000000000000000000000000000000000000000000000000000000 DUP2 MSTORE PUSH1 0x4 ADD PUSH2 0x8A9 SWAP1 PUSH2 0x1171 JUMP JUMPDEST PUSH1 0x40 MLOAD DUP1 SWAP2 SUB SWAP1 REVERT JUMPDEST DUP3 PUSH1 0x5 PUSH1 0x0 DUP7 DUP2 MSTORE PUSH1 0x20 ADD SWAP1 DUP2 MSTORE PUSH1 0x20 ADD PUSH1 0x0 KECCAK256 PUSH1 0x9 ADD PUSH1 0x1 PUSH2 0x100 EXP DUP2 SLOAD DUP2 PUSH20 0xFFFFFFFFFFFFFFFFFFFFFFFFFFFFFFFFFFFFFFFF MUL NOT AND SWAP1 DUP4 PUSH20 0xFFFFFFFFFFFFFFFFFFFFFFFFFFFFFFFFFFFFFFFF AND MUL OR SWAP1 SSTORE POP PUSH1 0x2 PUSH1 0x5 PUSH1 0x0 DUP7 DUP2 MSTORE PUSH1 0x20 ADD SWAP1 DUP2 MSTORE PUSH1 0x20 ADD PUSH1 0x0 KECCAK256 PUSH1 0x9 ADD PUSH1 0x0 PUSH2 0x100 EXP DUP2 SLOAD DUP2 PUSH1 0xFF MUL NOT AND SWAP1 DUP4 PUSH1 0x6 DUP2 GT ISZERO PUSH2 0x941 JUMPI PUSH2 0x940 PUSH2 0x1352 JUMP JUMPDEST JUMPDEST MUL OR SWAP1 SSTORE POP DUP3 PUSH1 0x5 PUSH1 0x0 DUP7 DUP2 MSTORE PUSH1 0x20 ADD SWAP1 DUP2 MSTORE PUSH1 0x20 ADD PUSH1 0x0 KECCAK256 PUSH1 0x2 ADD PUSH1 0x0 PUSH2 0x100 EXP DUP2 SLOAD DUP2 PUSH20 0xFFFFFFFFFFFFFFFFFFFFFFFFFFFFFFFFFFFFFFFF MUL NOT AND SWAP1 DUP4 PUSH20 0xFFFFFFFFFFFFFFFFFFFFFFFFFFFFFFFFFFFFFFFF AND MUL OR SWAP1 SSTORE POP PUSH32 0xF12328DACF931F6C8C8C904EA8B9791D681613ED5EC258DCE2866C311795C9EA DUP5 PUSH1 0x40 MLOAD PUSH2 0x9CA SWAP2 SWAP1 PUSH2 0x1191 JUMP JUMPDEST PUSH1 0x40 MLOAD DUP1 SWAP2 SUB SWAP1 LOG1 POP POP POP POP JUMP JUMPDEST PUSH2 0x9E1 CALLER PUSH2 0x44C JUMP JUMPDEST PUSH2 0x9EA JUMPI PUSH1 0x0 DUP1 REVERT JUMPDEST PUSH2 0x9F3 DUP2 PUSH2 0xC88 JUMP JUMPDEST POP JUMP JUMPDEST PUSH2 0x9FF CALLER PUSH2 0x39C JUMP JUMPDEST PUSH2 0xA08 JUMPI PUSH1 0x0 DUP1 REVERT JUMPDEST PUSH2 0xA11 DUP2 PUSH2 0xCE2 JUMP JUMPDEST POP JUMP JUMPDEST PUSH2 0xA1D CALLER PUSH2 0xD3C JUMP JUMPDEST JUMP JUMPDEST PUSH1 0x0 PUSH2 0xA35 DUP3 PUSH1 0x2 PUSH2 0xB9C SWAP1 SWAP2 SWAP1 PUSH4 0xFFFFFFFF AND JUMP JUMPDEST SWAP1 POP SWAP2 SWAP1 POP JUMP JUMPDEST PUSH1 0x0 PUSH20 0xFFFFFFFFFFFFFFFFFFFFFFFFFFFFFFFFFFFFFFFF AND DUP2 PUSH20 0xFFFFFFFFFFFFFFFFFFFFFFFFFFFFFFFFFFFFFFFF AND EQ ISZERO PUSH2 0xA76 JUMPI PUSH1 0x0 DUP1 REVERT JUMPDEST PUSH2 0xA80 DUP3 DUP3 PUSH2 0xB9C JUMP JUMPDEST ISZERO PUSH2 0xA8A JUMPI PUSH1 0x0 DUP1 REVERT JUMPDEST PUSH1 0x1 DUP3 PUSH1 0x0 ADD PUSH1 0x0 DUP4 PUSH20 0xFFFFFFFFFFFFFFFFFFFFFFFFFFFFFFFFFFFFFFFF AND PUSH20 0xFFFFFFFFFFFFFFFFFFFFFFFFFFFFFFFFFFFFFFFF AND DUP2 MSTORE PUSH1 0x20 ADD SWAP1 DUP2 MSTORE PUSH1 0x20 ADD PUSH1 0x0 KECCAK256 PUSH1 0x0 PUSH2 0x100 EXP DUP2 SLOAD DUP2 PUSH1 0xFF MUL NOT AND SWAP1 DUP4 ISZERO ISZERO MUL OR SWAP1 SSTORE POP POP POP JUMP JUMPDEST PUSH2 0xAFC DUP2 PUSH1 0x2 PUSH2 0xA3C SWAP1 SWAP2 SWAP1 PUSH4 0xFFFFFFFF AND JUMP JUMPDEST DUP1 PUSH20 0xFFFFFFFFFFFFFFFFFFFFFFFFFFFFFFFFFFFFFFFF AND PUSH32 0x36179DE14E9E7CBCE2E0A64264F3EB82E80B70AAC44FF098D9C6F70B1D7D6595 PUSH1 0x40 MLOAD PUSH1 0x40 MLOAD DUP1 SWAP2 SUB SWAP1 LOG2 POP JUMP JUMPDEST PUSH2 0xB56 DUP2 PUSH1 0x1 PUSH2 0xD96 SWAP1 SWAP2 SWAP1 PUSH4 0xFFFFFFFF AND JUMP JUMPDEST DUP1 PUSH20 0xFFFFFFFFFFFFFFFFFFFFFFFFFFFFFFFFFFFFFFFF AND PUSH32 0xC8ECC453F78C13CCC7596603B61935F29B99DC15BB91B91647E1CCF2469AD00A PUSH1 0x40 MLOAD PUSH1 0x40 MLOAD DUP1 SWAP2 SUB SWAP1 LOG2 POP JUMP JUMPDEST PUSH1 0x0 DUP1 PUSH20 0xFFFFFFFFFFFFFFFFFFFFFFFFFFFFFFFFFFFFFFFF AND DUP3 PUSH20 0xFFFFFFFFFFFFFFFFFFFFFFFFFFFFFFFFFFFFFFFF AND EQ ISZERO PUSH2 0xBD7 JUMPI PUSH1 0x0 DUP1 REVERT JUMPDEST DUP3 PUSH1 0x0 ADD PUSH1 0x0 DUP4 PUSH20 0xFFFFFFFFFFFFFFFFFFFFFFFFFFFFFFFFFFFFFFFF AND PUSH20 0xFFFFFFFFFFFFFFFFFFFFFFFFFFFFFFFFFFFFFFFF AND DUP2 MSTORE PUSH1 0x20 ADD SWAP1 DUP2 MSTORE PUSH1 0x20 ADD PUSH1 0x0 KECCAK256 PUSH1 0x0 SWAP1 SLOAD SWAP1 PUSH2 0x100 EXP SWAP1 DIV PUSH1 0xFF AND SWAP1 POP SWAP3 SWAP2 POP POP JUMP JUMPDEST PUSH2 0xC42 DUP2 PUSH1 0x2 PUSH2 0xD96 SWAP1 SWAP2 SWAP1 PUSH4 0xFFFFFFFF AND JUMP JUMPDEST DUP1 PUSH20 0xFFFFFFFFFFFFFFFFFFFFFFFFFFFFFFFFFFFFFFFF AND PUSH32 0xA9A482E6375EF89327F2177C114191D0B88502CA4A7B961D211CC45786EE5107 PUSH1 0x40 MLOAD PUSH1 0x40 MLOAD DUP1 SWAP2 SUB SWAP1 LOG2 POP JUMP JUMPDEST PUSH2 0xC9C DUP2 PUSH1 0x1 PUSH2 0xA3C SWAP1 SWAP2 SWAP1 PUSH4 0xFFFFFFFF AND JUMP JUMPDEST DUP1 PUSH20 0xFFFFFFFFFFFFFFFFFFFFFFFFFFFFFFFFFFFFFFFF AND PUSH32 0x2860B5BA44F983F8F363EE6EEB3C24CBCA3096803FBDD5129B9E253F01CAC076 PUSH1 0x40 MLOAD PUSH1 0x40 MLOAD DUP1 SWAP2 SUB SWAP1 LOG2 POP JUMP JUMPDEST PUSH2 0xCF6 DUP2 PUSH1 0x0 PUSH2 0xA3C SWAP1 SWAP2 SWAP1 PUSH4 0xFFFFFFFF AND JUMP JUMPDEST DUP1 PUSH20 0xFFFFFFFFFFFFFFFFFFFFFFFFFFFFFFFFFFFFFFFF AND PUSH32 0x6599D9DD7F97CCDC3D99AB507544F9F6EBFCA20C63A7E3C018DA49EEAEFB164A PUSH1 0x40 MLOAD PUSH1 0x40 MLOAD DUP1 SWAP2 SUB SWAP1 LOG2 POP JUMP JUMPDEST PUSH2 0xD50 DUP2 PUSH1 0x0 PUSH2 0xD96 SWAP1 SWAP2 SWAP1 PUSH4 0xFFFFFFFF AND JUMP JUMPDEST DUP1 PUSH20 0xFFFFFFFFFFFFFFFFFFFFFFFFFFFFFFFFFFFFFFFF AND PUSH32 0x83FD4CBC7BC934BDFBAE994AC6E72FCC0E50ABD6995C1949520E761BA650D582 PUSH1 0x40 MLOAD PUSH1 0x40 MLOAD DUP1 SWAP2 SUB SWAP1 LOG2 POP JUMP JUMPDEST PUSH1 0x0 PUSH20 0xFFFFFFFFFFFFFFFFFFFFFFFFFFFFFFFFFFFFFFFF AND DUP2 PUSH20 0xFFFFFFFFFFFFFFFFFFFFFFFFFFFFFFFFFFFFFFFF AND EQ ISZERO PUSH2 0xDD0 JUMPI PUSH1 0x0 DUP1 REVERT JUMPDEST PUSH2 0xDDA DUP3 DUP3 PUSH2 0xB9C JUMP JUMPDEST PUSH2 0xDE3 JUMPI PUSH1 0x0 DUP1 REVERT JUMPDEST PUSH1 0x0 DUP3 PUSH1 0x0 ADD PUSH1 0x0 DUP4 PUSH20 0xFFFFFFFFFFFFFFFFFFFFFFFFFFFFFFFFFFFFFFFF AND PUSH20 0xFFFFFFFFFFFFFFFFFFFFFFFFFFFFFFFFFFFFFFFF AND DUP2 MSTORE PUSH1 0x20 ADD SWAP1 DUP2 MSTORE PUSH1 0x20 ADD PUSH1 0x0 KECCAK256 PUSH1 0x0 PUSH2 0x100 EXP DUP2 SLOAD DUP2 PUSH1 0xFF MUL NOT AND SWAP1 DUP4 ISZERO ISZERO MUL OR SWAP1 SSTORE POP POP POP JUMP JUMPDEST DUP3 DUP1 SLOAD PUSH2 0xE4D SWAP1 PUSH2 0x12C0 JUMP JUMPDEST SWAP1 PUSH1 0x0 MSTORE PUSH1 0x20 PUSH1 0x0 KECCAK256 SWAP1 PUSH1 0x1F ADD PUSH1 0x20 SWAP1 DIV DUP2 ADD SWAP3 DUP3 PUSH2 0xE6F JUMPI PUSH1 0x0 DUP6 SSTORE PUSH2 0xEB6 JUMP JUMPDEST DUP3 PUSH1 0x1F LT PUSH2 0xE88 JUMPI DUP1 MLOAD PUSH1 0xFF NOT AND DUP4 DUP1 ADD OR DUP6 SSTORE PUSH2 0xEB6 JUMP JUMPDEST DUP3 DUP1 ADD PUSH1 0x1 ADD DUP6 SSTORE DUP3 ISZERO PUSH2 0xEB6 JUMPI SWAP2 DUP3 ADD JUMPDEST DUP3 DUP2 GT ISZERO PUSH2 0xEB5 JUMPI DUP3 MLOAD DUP3 SSTORE SWAP2 PUSH1 0x20 ADD SWAP2 SWAP1 PUSH1 0x1 ADD SWAP1 PUSH2 0xE9A JUMP JUMPDEST JUMPDEST POP SWAP1 POP PUSH2 0xEC3 SWAP2 SWAP1 PUSH2 0xEC7 JUMP JUMPDEST POP SWAP1 JUMP JUMPDEST JUMPDEST DUP1 DUP3 GT ISZERO PUSH2 0xEE0 JUMPI PUSH1 0x0 DUP2 PUSH1 0x0 SWAP1 SSTORE POP PUSH1 0x1 ADD PUSH2 0xEC8 JUMP JUMPDEST POP SWAP1 JUMP JUMPDEST PUSH1 0x0 PUSH2 0xEF7 PUSH2 0xEF2 DUP5 PUSH2 0x11D1 JUMP JUMPDEST PUSH2 0x11AC JUMP JUMPDEST SWAP1 POP DUP3 DUP2 MSTORE PUSH1 0x20 DUP2 ADD DUP5 DUP5 DUP5 ADD GT ISZERO PUSH2 0xF13 JUMPI PUSH2 0xF12 PUSH2 0x13E4 JUMP JUMPDEST JUMPDEST PUSH2 0xF1E DUP5 DUP3 DUP6 PUSH2 0x12B1 JUMP JUMPDEST POP SWAP4 SWAP3 POP POP POP JUMP JUMPDEST PUSH1 0x0 DUP2 CALLDATALOAD SWAP1 POP PUSH2 0xF35 DUP2 PUSH2 0x142D JUMP JUMPDEST SWAP3 SWAP2 POP POP JUMP JUMPDEST PUSH1 0x0 DUP3 PUSH1 0x1F DUP4 ADD SLT PUSH2 0xF50 JUMPI PUSH2 0xF4F PUSH2 0x13DF JUMP JUMPDEST JUMPDEST DUP2 CALLDATALOAD PUSH2 0xF60 DUP5 DUP3 PUSH1 0x20 DUP7 ADD PUSH2 0xEE4 JUMP JUMPDEST SWAP2 POP POP SWAP3 SWAP2 POP POP JUMP JUMPDEST PUSH1 0x0 DUP2 CALLDATALOAD SWAP1 POP PUSH2 0xF78 DUP2 PUSH2 0x1444 JUMP JUMPDEST SWAP3 SWAP2 POP POP JUMP JUMPDEST PUSH1 0x0 PUSH1 0x20 DUP3 DUP5 SUB SLT ISZERO PUSH2 0xF94 JUMPI PUSH2 0xF93 PUSH2 0x13EE JUMP JUMPDEST JUMPDEST PUSH1 0x0 PUSH2 0xFA2 DUP5 DUP3 DUP6 ADD PUSH2 0xF26 JUMP JUMPDEST SWAP2 POP POP SWAP3 SWAP2 POP POP JUMP JUMPDEST PUSH1 0x0 PUSH1 0x20 DUP3 DUP5 SUB SLT ISZERO PUSH2 0xFC1 JUMPI PUSH2 0xFC0 PUSH2 0x13EE JUMP JUMPDEST JUMPDEST PUSH1 0x0 PUSH2 0xFCF DUP5 DUP3 DUP6 ADD PUSH2 0xF69 JUMP JUMPDEST SWAP2 POP POP SWAP3 SWAP2 POP POP JUMP JUMPDEST PUSH1 0x0 DUP1 PUSH1 0x40 DUP4 DUP6 SUB SLT ISZERO PUSH2 0xFEF JUMPI PUSH2 0xFEE PUSH2 0x13EE JUMP JUMPDEST JUMPDEST PUSH1 0x0 PUSH2 0xFFD DUP6 DUP3 DUP7 ADD PUSH2 0xF69 JUMP JUMPDEST SWAP3 POP POP PUSH1 0x20 PUSH2 0x100E DUP6 DUP3 DUP7 ADD PUSH2 0xF26 JUMP JUMPDEST SWAP2 POP POP SWAP3 POP SWAP3 SWAP1 POP JUMP JUMPDEST PUSH1 0x0 DUP1 PUSH1 0x0 DUP1 PUSH1 0x0 DUP1 PUSH1 0xC0 DUP8 DUP10 SUB SLT ISZERO PUSH2 0x1035 JUMPI PUSH2 0x1034 PUSH2 0x13EE JUMP JUMPDEST JUMPDEST PUSH1 0x0 PUSH2 0x1043 DUP10 DUP3 DUP11 ADD PUSH2 0xF69 JUMP JUMPDEST SWAP7 POP POP PUSH1 0x20 PUSH2 0x1054 DUP10 DUP3 DUP11 ADD PUSH2 0xF26 JUMP JUMPDEST SWAP6 POP POP PUSH1 0x40 DUP8 ADD CALLDATALOAD PUSH8 0xFFFFFFFFFFFFFFFF DUP2 GT ISZERO PUSH2 0x1075 JUMPI PUSH2 0x1074 PUSH2 0x13E9 JUMP JUMPDEST JUMPDEST PUSH2 0x1081 DUP10 DUP3 DUP11 ADD PUSH2 0xF3B JUMP JUMPDEST SWAP5 POP POP PUSH1 0x60 DUP8 ADD CALLDATALOAD PUSH8 0xFFFFFFFFFFFFFFFF DUP2 GT ISZERO PUSH2 0x10A2 JUMPI PUSH2 0x10A1 PUSH2 0x13E9 JUMP JUMPDEST JUMPDEST PUSH2 0x10AE DUP10 DUP3 DUP11 ADD PUSH2 0xF3B JUMP JUMPDEST SWAP4 POP POP PUSH1 0x80 DUP8 ADD CALLDATALOAD PUSH8 0xFFFFFFFFFFFFFFFF DUP2 GT ISZERO PUSH2 0x10CF JUMPI PUSH2 0x10CE PUSH2 0x13E9 JUMP JUMPDEST JUMPDEST PUSH2 0x10DB DUP10 DUP3 DUP11 ADD PUSH2 0xF3B JUMP JUMPDEST SWAP3 POP POP PUSH1 0xA0 DUP8 ADD CALLDATALOAD PUSH8 0xFFFFFFFFFFFFFFFF DUP2 GT ISZERO PUSH2 0x10FC JUMPI PUSH2 0x10FB PUSH2 0x13E9 JUMP JUMPDEST JUMPDEST PUSH2 0x1108 DUP10 DUP3 DUP11 ADD PUSH2 0xF3B JUMP JUMPDEST SWAP2 POP POP SWAP3 SWAP6 POP SWAP3 SWAP6 POP SWAP3 SWAP6 JUMP JUMPDEST PUSH2 0x111E DUP2 PUSH2 0x127B JUMP JUMPDEST DUP3 MSTORE POP POP JUMP JUMPDEST PUSH1 0x0 PUSH2 0x1131 PUSH1 0x1F DUP4 PUSH2 0x1202 JUMP JUMPDEST SWAP2 POP PUSH2 0x113C DUP3 PUSH2 0x1404 JUMP JUMPDEST PUSH1 0x20 DUP3 ADD SWAP1 POP SWAP2 SWAP1 POP JUMP JUMPDEST PUSH2 0x1150 DUP2 PUSH2 0x12A7 JUMP JUMPDEST DUP3 MSTORE POP POP JUMP JUMPDEST PUSH1 0x0 PUSH1 0x20 DUP3 ADD SWAP1 POP PUSH2 0x116B PUSH1 0x0 DUP4 ADD DUP5 PUSH2 0x1115 JUMP JUMPDEST SWAP3 SWAP2 POP POP JUMP JUMPDEST PUSH1 0x0 PUSH1 0x20 DUP3 ADD SWAP1 POP DUP2 DUP2 SUB PUSH1 0x0 DUP4 ADD MSTORE PUSH2 0x118A DUP2 PUSH2 0x1124 JUMP JUMPDEST SWAP1 POP SWAP2 SWAP1 POP JUMP JUMPDEST PUSH1 0x0 PUSH1 0x20 DUP3 ADD SWAP1 POP PUSH2 0x11A6 PUSH1 0x0 DUP4 ADD DUP5 PUSH2 0x1147 JUMP JUMPDEST SWAP3 SWAP2 POP POP JUMP JUMPDEST PUSH1 0x0 PUSH2 0x11B6 PUSH2 0x11C7 JUMP JUMPDEST SWAP1 POP PUSH2 0x11C2 DUP3 DUP3 PUSH2 0x12F2 JUMP JUMPDEST SWAP2 SWAP1 POP JUMP JUMPDEST PUSH1 0x0 PUSH1 0x40 MLOAD SWAP1 POP SWAP1 JUMP JUMPDEST PUSH1 0x0 PUSH8 0xFFFFFFFFFFFFFFFF DUP3 GT ISZERO PUSH2 0x11EC JUMPI PUSH2 0x11EB PUSH2 0x13B0 JUMP JUMPDEST JUMPDEST PUSH2 0x11F5 DUP3 PUSH2 0x13F3 JUMP JUMPDEST SWAP1 POP PUSH1 0x20 DUP2 ADD SWAP1 POP SWAP2 SWAP1 POP JUMP JUMPDEST PUSH1 0x0 DUP3 DUP3 MSTORE PUSH1 0x20 DUP3 ADD SWAP1 POP SWAP3 SWAP2 POP POP JUMP JUMPDEST PUSH1 0x0 PUSH2 0x121E DUP3 PUSH2 0x12A7 JUMP JUMPDEST SWAP2 POP PUSH2 0x1229 DUP4 PUSH2 0x12A7 JUMP JUMPDEST SWAP3 POP DUP3 PUSH32 0xFFFFFFFFFFFFFFFFFFFFFFFFFFFFFFFFFFFFFFFFFFFFFFFFFFFFFFFFFFFFFFFF SUB DUP3 GT ISZERO PUSH2 0x125E JUMPI PUSH2 0x125D PUSH2 0x1323 JUMP JUMPDEST JUMPDEST DUP3 DUP3 ADD SWAP1 POP SWAP3 SWAP2 POP POP JUMP JUMPDEST PUSH1 0x0 PUSH2 0x1274 DUP3 PUSH2 0x1287 JUMP JUMPDEST SWAP1 POP SWAP2 SWAP1 POP JUMP JUMPDEST PUSH1 0x0 DUP2 ISZERO ISZERO SWAP1 POP SWAP2 SWAP1 POP JUMP JUMPDEST PUSH1 0x0 PUSH20 0xFFFFFFFFFFFFFFFFFFFFFFFFFFFFFFFFFFFFFFFF DUP3 AND SWAP1 POP SWAP2 SWAP1 POP JUMP JUMPDEST PUSH1 0x0 DUP2 SWAP1 POP SWAP2 SWAP1 POP JUMP JUMPDEST DUP3 DUP2 DUP4 CALLDATACOPY PUSH1 0x0 DUP4 DUP4 ADD MSTORE POP POP POP JUMP JUMPDEST PUSH1 0x0 PUSH1 0x2 DUP3 DIV SWAP1 POP PUSH1 0x1 DUP3 AND DUP1 PUSH2 0x12D8 JUMPI PUSH1 0x7F DUP3 AND SWAP2 POP JUMPDEST PUSH1 0x20 DUP3 LT DUP2 EQ ISZERO PUSH2 0x12EC JUMPI PUSH2 0x12EB PUSH2 0x1381 JUMP JUMPDEST JUMPDEST POP SWAP2 SWAP1 POP JUMP JUMPDEST PUSH2 0x12FB DUP3 PUSH2 0x13F3 JUMP JUMPDEST DUP2 ADD DUP2 DUP2 LT PUSH8 0xFFFFFFFFFFFFFFFF DUP3 GT OR ISZERO PUSH2 0x131A JUMPI PUSH2 0x1319 PUSH2 0x13B0 JUMP JUMPDEST JUMPDEST DUP1 PUSH1 0x40 MSTORE POP POP POP JUMP JUMPDEST PUSH32 0x4E487B7100000000000000000000000000000000000000000000000000000000 PUSH1 0x0 MSTORE PUSH1 0x11 PUSH1 0x4 MSTORE PUSH1 0x24 PUSH1 0x0 REVERT JUMPDEST PUSH32 0x4E487B7100000000000000000000000000000000000000000000000000000000 PUSH1 0x0 MSTORE PUSH1 0x21 PUSH1 0x4 MSTORE PUSH1 0x24 PUSH1 0x0 REVERT JUMPDEST PUSH32 0x4E487B7100000000000000000000000000000000000000000000000000000000 PUSH1 0x0 MSTORE PUSH1 0x22 PUSH1 0x4 MSTORE PUSH1 0x24 PUSH1 0x0 REVERT JUMPDEST PUSH32 0x4E487B7100000000000000000000000000000000000000000000000000000000 PUSH1 0x0 MSTORE PUSH1 0x41 PUSH1 0x4 MSTORE PUSH1 0x24 PUSH1 0x0 REVERT JUMPDEST PUSH1 0x0 DUP1 REVERT JUMPDEST PUSH1 0x0 DUP1 REVERT JUMPDEST PUSH1 0x0 DUP1 REVERT JUMPDEST PUSH1 0x0 DUP1 REVERT JUMPDEST PUSH1 0x0 PUSH1 0x1F NOT PUSH1 0x1F DUP4 ADD AND SWAP1 POP SWAP2 SWAP1 POP JUMP JUMPDEST PUSH32 0x546869732061646472657373206973206E6F74206120526567756C61746F7200 PUSH1 0x0 DUP3 ADD MSTORE POP JUMP JUMPDEST PUSH2 0x1436 DUP2 PUSH2 0x1269 JUMP JUMPDEST DUP2 EQ PUSH2 0x1441 JUMPI PUSH1 0x0 DUP1 REVERT JUMPDEST POP JUMP JUMPDEST PUSH2 0x144D DUP2 PUSH2 0x12A7 JUMP JUMPDEST DUP2 EQ PUSH2 0x1458 JUMPI PUSH1 0x0 DUP1 REVERT JUMPDEST POP JUMP INVALID LOG2 PUSH5 0x6970667358 0x22 SLT KECCAK256 SGT CREATE2 0x22 DUP8 0xC5 0x5F SGT MSTORE8 0xD0 RETURN BYTE SWAP2 SWAP13 0xEF GASPRICE TIMESTAMP EQ 0x2E SWAP9 0x24 0xD1 SWAP2 OR CALL 0xD0 NUMBER ORIGIN PUSH10 0xCAEC142964736F6C6343 STOP ADDMOD SMOD STOP CALLER "
				},
				"gasEstimates": {
					"creation": {
						"codeDepositCost": "1053000",
						"executionCost": "infinite",
						"totalCost": "infinite"
					},
					"external": {
						"addBuyer(address)": "infinite",
						"addPharma(address)": "infinite",
						"addRegulator(address)": "infinite",
						"isBuyer(address)": "infinite",
						"isPharma(address)": "infinite",
						"isRegulator(address)": "infinite",
						"kill()": "32141",
						"produceMedicine(uint256,address,string,string,string,string)": "infinite",
						"renounceBuyer()": "infinite",
						"renouncePharma()": "infinite",
						"renounceRegulator()": "infinite",
						"sendToRegulation(uint256,address)": "infinite",
						"testMedicine(uint256)": "infinite"
					}
				},
				"methodIdentifiers": {
					"addBuyer(address)": "bbf89803",
					"addPharma(address)": "1b90c4be",
					"addRegulator(address)": "ac63f3c7",
					"isBuyer(address)": "2a55feec",
					"isPharma(address)": "d1e4fd0f",
					"isRegulator(address)": "54fc9169",
					"kill()": "41c0e1b5",
					"produceMedicine(uint256,address,string,string,string,string)": "64c0daea",
					"renounceBuyer()": "c204a0cf",
					"renouncePharma()": "81612e4f",
					"renounceRegulator()": "1beadbe2",
					"sendToRegulation(uint256,address)": "8e2b65d7",
					"testMedicine(uint256)": "0c5484d7"
				}
			},
			"storageLayout": {
				"storage": [
					{
						"astId": 17,
						"contract": "contracts/SupplyChain.sol:SupplyChain",
						"label": "buyers",
						"offset": 0,
						"slot": "0",
						"type": "t_struct(Role)322_storage"
					},
					{
						"astId": 227,
						"contract": "contracts/SupplyChain.sol:SupplyChain",
						"label": "regulators",
						"offset": 0,
						"slot": "1",
						"type": "t_struct(Role)322_storage"
					},
					{
						"astId": 122,
						"contract": "contracts/SupplyChain.sol:SupplyChain",
						"label": "pharmas",
						"offset": 0,
						"slot": "2",
						"type": "t_struct(Role)322_storage"
					},
					{
						"astId": 431,
						"contract": "contracts/SupplyChain.sol:SupplyChain",
						"label": "owner",
						"offset": 0,
						"slot": "3",
						"type": "t_address"
					},
					{
						"astId": 433,
						"contract": "contracts/SupplyChain.sol:SupplyChain",
						"label": "sku",
						"offset": 0,
						"slot": "4",
						"type": "t_uint256"
					},
					{
						"astId": 438,
						"contract": "contracts/SupplyChain.sol:SupplyChain",
						"label": "items",
						"offset": 0,
						"slot": "5",
						"type": "t_mapping(t_uint256,t_struct(Item)482_storage)"
					},
					{
						"astId": 443,
						"contract": "contracts/SupplyChain.sol:SupplyChain",
						"label": "itemsHistory",
						"offset": 0,
						"slot": "6",
						"type": "t_mapping(t_uint256,t_array(t_string_storage)dyn_storage)"
					}
				],
				"types": {
					"t_address": {
						"encoding": "inplace",
						"label": "address",
						"numberOfBytes": "20"
					},
					"t_array(t_string_storage)dyn_storage": {
						"base": "t_string_storage",
						"encoding": "dynamic_array",
						"label": "string[]",
						"numberOfBytes": "32"
					},
					"t_bool": {
						"encoding": "inplace",
						"label": "bool",
						"numberOfBytes": "1"
					},
					"t_enum(State)451": {
						"encoding": "inplace",
						"label": "enum SupplyChain.State",
						"numberOfBytes": "1"
					},
					"t_mapping(t_address,t_bool)": {
						"encoding": "mapping",
						"key": "t_address",
						"label": "mapping(address => bool)",
						"numberOfBytes": "32",
						"value": "t_bool"
					},
					"t_mapping(t_uint256,t_array(t_string_storage)dyn_storage)": {
						"encoding": "mapping",
						"key": "t_uint256",
						"label": "mapping(uint256 => string[])",
						"numberOfBytes": "32",
						"value": "t_array(t_string_storage)dyn_storage"
					},
					"t_mapping(t_uint256,t_struct(Item)482_storage)": {
						"encoding": "mapping",
						"key": "t_uint256",
						"label": "mapping(uint256 => struct SupplyChain.Item)",
						"numberOfBytes": "32",
						"value": "t_struct(Item)482_storage"
					},
					"t_string_storage": {
						"encoding": "bytes",
						"label": "string",
						"numberOfBytes": "32"
					},
					"t_struct(Item)482_storage": {
						"encoding": "inplace",
						"label": "struct SupplyChain.Item",
						"members": [
							{
								"astId": 458,
								"contract": "contracts/SupplyChain.sol:SupplyChain",
								"label": "sku",
								"offset": 0,
								"slot": "0",
								"type": "t_uint256"
							},
							{
								"astId": 460,
								"contract": "contracts/SupplyChain.sol:SupplyChain",
								"label": "upc",
								"offset": 0,
								"slot": "1",
								"type": "t_uint256"
							},
							{
								"astId": 462,
								"contract": "contracts/SupplyChain.sol:SupplyChain",
								"label": "ownerID",
								"offset": 0,
								"slot": "2",
								"type": "t_address"
							},
							{
								"astId": 464,
								"contract": "contracts/SupplyChain.sol:SupplyChain",
								"label": "originPharmaID",
								"offset": 0,
								"slot": "3",
								"type": "t_address"
							},
							{
								"astId": 466,
								"contract": "contracts/SupplyChain.sol:SupplyChain",
								"label": "originPharmaName",
								"offset": 0,
								"slot": "4",
								"type": "t_string_storage"
							},
							{
								"astId": 468,
								"contract": "contracts/SupplyChain.sol:SupplyChain",
								"label": "originPharmaInformation",
								"offset": 0,
								"slot": "5",
								"type": "t_string_storage"
							},
							{
								"astId": 470,
								"contract": "contracts/SupplyChain.sol:SupplyChain",
								"label": "originPharmaCountry",
								"offset": 0,
								"slot": "6",
								"type": "t_string_storage"
							},
							{
								"astId": 472,
								"contract": "contracts/SupplyChain.sol:SupplyChain",
								"label": "productName",
								"offset": 0,
								"slot": "7",
								"type": "t_string_storage"
							},
							{
								"astId": 474,
								"contract": "contracts/SupplyChain.sol:SupplyChain",
								"label": "productPrice",
								"offset": 0,
								"slot": "8",
								"type": "t_uint256"
							},
							{
								"astId": 477,
								"contract": "contracts/SupplyChain.sol:SupplyChain",
								"label": "itemState",
								"offset": 0,
								"slot": "9",
								"type": "t_enum(State)451"
							},
							{
								"astId": 479,
								"contract": "contracts/SupplyChain.sol:SupplyChain",
								"label": "regulatorId",
								"offset": 1,
								"slot": "9",
								"type": "t_address"
							},
							{
								"astId": 481,
								"contract": "contracts/SupplyChain.sol:SupplyChain",
								"label": "buyerId",
								"offset": 0,
								"slot": "10",
								"type": "t_address"
							}
						],
						"numberOfBytes": "352"
					},
					"t_struct(Role)322_storage": {
						"encoding": "inplace",
						"label": "struct Roles.Role",
						"members": [
							{
								"astId": 321,
								"contract": "contracts/SupplyChain.sol:SupplyChain",
								"label": "bearer",
								"offset": 0,
								"slot": "0",
								"type": "t_mapping(t_address,t_bool)"
							}
						],
						"numberOfBytes": "32"
					},
					"t_uint256": {
						"encoding": "inplace",
						"label": "uint256",
						"numberOfBytes": "32"
					}
				}
			},
			"userdoc": {
				"kind": "user",
				"methods": {},
				"version": 1
			}
		}
	}
}