{
	"contracts/SupplyChain.sol": {
		"SupplyChain": {
			"abi": [
				{
					"inputs": [],
					"stateMutability": "nonpayable",
					"type": "constructor"
				},
				{
					"anonymous": false,
					"inputs": [
						{
							"indexed": false,
							"internalType": "uint256",
							"name": "upc",
							"type": "uint256"
						}
					],
					"name": "Approved",
					"type": "event"
				},
				{
					"anonymous": false,
					"inputs": [
						{
							"indexed": false,
							"internalType": "uint256",
							"name": "upc",
							"type": "uint256"
						}
					],
					"name": "Available",
					"type": "event"
				},
				{
					"anonymous": false,
					"inputs": [
						{
							"indexed": false,
							"internalType": "uint256",
							"name": "upc",
							"type": "uint256"
						}
					],
					"name": "Bought",
					"type": "event"
				},
				{
					"anonymous": false,
					"inputs": [
						{
							"indexed": true,
							"internalType": "address",
							"name": "account",
							"type": "address"
						}
					],
					"name": "BuyerAdded",
					"type": "event"
				},
				{
					"anonymous": false,
					"inputs": [
						{
							"indexed": true,
							"internalType": "address",
							"name": "account",
							"type": "address"
						}
					],
					"name": "BuyerRemoved",
					"type": "event"
				},
				{
					"anonymous": false,
					"inputs": [
						{
							"indexed": true,
							"internalType": "address",
							"name": "account",
							"type": "address"
						}
					],
					"name": "PharmaAdded",
					"type": "event"
				},
				{
					"anonymous": false,
					"inputs": [
						{
							"indexed": true,
							"internalType": "address",
							"name": "account",
							"type": "address"
						}
					],
					"name": "PharmaRemoved",
					"type": "event"
				},
				{
					"anonymous": false,
					"inputs": [
						{
							"indexed": false,
							"internalType": "uint256",
							"name": "upc",
							"type": "uint256"
						}
					],
					"name": "Produced",
					"type": "event"
				},
				{
					"anonymous": false,
					"inputs": [
						{
							"indexed": true,
							"internalType": "address",
							"name": "account",
							"type": "address"
						}
					],
					"name": "RegulatorAdded",
					"type": "event"
				},
				{
					"anonymous": false,
					"inputs": [
						{
							"indexed": true,
							"internalType": "address",
							"name": "account",
							"type": "address"
						}
					],
					"name": "RegulatorRemoved",
					"type": "event"
				},
				{
					"anonymous": false,
					"inputs": [
						{
							"indexed": false,
							"internalType": "uint256",
							"name": "upc",
							"type": "uint256"
						}
					],
					"name": "SentToMarket",
					"type": "event"
				},
				{
					"anonymous": false,
					"inputs": [
						{
							"indexed": false,
							"internalType": "uint256",
							"name": "upc",
							"type": "uint256"
						}
					],
					"name": "SentToVerification",
					"type": "event"
				},
				{
					"anonymous": false,
					"inputs": [
						{
							"indexed": false,
							"internalType": "uint256",
							"name": "upc",
							"type": "uint256"
						}
					],
					"name": "Tested",
					"type": "event"
				},
				{
					"inputs": [
						{
							"internalType": "address",
							"name": "account",
							"type": "address"
						}
					],
					"name": "addBuyer",
					"outputs": [],
					"stateMutability": "nonpayable",
					"type": "function"
				},
				{
					"inputs": [
						{
							"internalType": "address",
							"name": "account",
							"type": "address"
						}
					],
					"name": "addPharma",
					"outputs": [],
					"stateMutability": "nonpayable",
					"type": "function"
				},
				{
					"inputs": [
						{
							"internalType": "address",
							"name": "account",
							"type": "address"
						}
					],
					"name": "addRegulator",
					"outputs": [],
					"stateMutability": "nonpayable",
					"type": "function"
				},
				{
					"inputs": [
						{
							"internalType": "address",
							"name": "account",
							"type": "address"
						}
					],
					"name": "isBuyer",
					"outputs": [
						{
							"internalType": "bool",
							"name": "",
							"type": "bool"
						}
					],
					"stateMutability": "view",
					"type": "function"
				},
				{
					"inputs": [
						{
							"internalType": "address",
							"name": "account",
							"type": "address"
						}
					],
					"name": "isPharma",
					"outputs": [
						{
							"internalType": "bool",
							"name": "",
							"type": "bool"
						}
					],
					"stateMutability": "view",
					"type": "function"
				},
				{
					"inputs": [
						{
							"internalType": "address",
							"name": "account",
							"type": "address"
						}
					],
					"name": "isRegulator",
					"outputs": [
						{
							"internalType": "bool",
							"name": "",
							"type": "bool"
						}
					],
					"stateMutability": "view",
					"type": "function"
				},
				{
					"inputs": [],
					"name": "kill",
					"outputs": [],
					"stateMutability": "nonpayable",
					"type": "function"
				},
				{
					"inputs": [
						{
							"internalType": "uint256",
							"name": "_upc",
							"type": "uint256"
						},
						{
							"internalType": "string",
							"name": "_originPharmaName",
							"type": "string"
						},
						{
							"internalType": "string",
							"name": "_originPharmaInformation",
							"type": "string"
						},
						{
							"internalType": "string",
							"name": "_originPharmaCountry",
							"type": "string"
						},
						{
							"internalType": "string",
							"name": "_productName",
							"type": "string"
						}
					],
					"name": "produceMedicine",
					"outputs": [],
					"stateMutability": "payable",
					"type": "function"
				},
				{
					"inputs": [],
					"name": "renounceBuyer",
					"outputs": [],
					"stateMutability": "nonpayable",
					"type": "function"
				},
				{
					"inputs": [],
					"name": "renouncePharma",
					"outputs": [],
					"stateMutability": "nonpayable",
					"type": "function"
				},
				{
					"inputs": [],
					"name": "renounceRegulator",
					"outputs": [],
					"stateMutability": "nonpayable",
					"type": "function"
				},
				{
					"inputs": [
						{
							"internalType": "uint256",
							"name": "_upc",
							"type": "uint256"
						},
						{
							"internalType": "address",
							"name": "_regulatorId",
							"type": "address"
						}
					],
					"name": "sendToRegulation",
					"outputs": [],
					"stateMutability": "nonpayable",
					"type": "function"
				},
				{
					"inputs": [
						{
							"internalType": "uint256",
							"name": "_upc",
							"type": "uint256"
						}
					],
					"name": "testMedicine",
					"outputs": [],
					"stateMutability": "nonpayable",
					"type": "function"
				}
			],
			"devdoc": {
				"kind": "dev",
				"methods": {},
				"version": 1
			},
			"evm": {
				"assembly": "    /* \"contracts/SupplyChain.sol\":110:5254  contract SupplyChain is BuyerRole, RegulatorRole, PharmaRole {... */\n  mstore(0x40, 0x80)\n    /* \"contracts/SupplyChain.sol\":3257:3323  constructor() {... */\n  callvalue\n  dup1\n  iszero\n  tag_1\n  jumpi\n  0x00\n  dup1\n  revert\ntag_1:\n  pop\n    /* \"contracts/BuyerRole.sol\":267:288  _addBuyer(msg.sender) */\n  tag_7\n    /* \"contracts/BuyerRole.sol\":277:287  msg.sender */\n  caller\n    /* \"contracts/BuyerRole.sol\":267:276  _addBuyer */\n  shl(0x20, tag_8)\n    /* \"contracts/BuyerRole.sol\":267:288  _addBuyer(msg.sender) */\n  0x20\n  shr\n  jump\t// in\ntag_7:\n    /* \"contracts/RegulatorRole.sol\":283:308  _addRegulator(msg.sender) */\n  tag_10\n    /* \"contracts/RegulatorRole.sol\":297:307  msg.sender */\n  caller\n    /* \"contracts/RegulatorRole.sol\":283:296  _addRegulator */\n  shl(0x20, tag_11)\n    /* \"contracts/RegulatorRole.sol\":283:308  _addRegulator(msg.sender) */\n  0x20\n  shr\n  jump\t// in\ntag_10:\n    /* \"contracts/PharmaRole.sol\":271:293  _addPharma(msg.sender) */\n  tag_13\n    /* \"contracts/PharmaRole.sol\":282:292  msg.sender */\n  caller\n    /* \"contracts/PharmaRole.sol\":271:281  _addPharma */\n  shl(0x20, tag_14)\n    /* \"contracts/PharmaRole.sol\":271:293  _addPharma(msg.sender) */\n  0x20\n  shr\n  jump\t// in\ntag_13:\n    /* \"contracts/SupplyChain.sol\":3289:3299  msg.sender */\n  caller\n    /* \"contracts/SupplyChain.sol\":3281:3286  owner */\n  0x03\n  0x00\n    /* \"contracts/SupplyChain.sol\":3281:3299  owner = msg.sender */\n  0x0100\n  exp\n  dup2\n  sload\n  dup2\n  0xffffffffffffffffffffffffffffffffffffffff\n  mul\n  not\n  and\n  swap1\n  dup4\n  0xffffffffffffffffffffffffffffffffffffffff\n  and\n  mul\n  or\n  swap1\n  sstore\n  pop\n    /* \"contracts/SupplyChain.sol\":3315:3316  1 */\n  0x01\n    /* \"contracts/SupplyChain.sol\":3309:3312  sku */\n  0x04\n    /* \"contracts/SupplyChain.sol\":3309:3316  sku = 1 */\n  dup2\n  swap1\n  sstore\n  pop\n    /* \"contracts/SupplyChain.sol\":110:5254  contract SupplyChain is BuyerRole, RegulatorRole, PharmaRole {... */\n  jump(tag_16)\n    /* \"contracts/BuyerRole.sol\":1008:1123  function _addBuyer(address account) internal {... */\ntag_8:\n    /* \"contracts/BuyerRole.sol\":1063:1082  buyers.add(account) */\n  tag_18\n    /* \"contracts/BuyerRole.sol\":1074:1081  account */\n  dup2\n    /* \"contracts/BuyerRole.sol\":1063:1069  buyers */\n  0x00\n    /* \"contracts/BuyerRole.sol\":1063:1073  buyers.add */\n  or(tag_0_72, shl(0x20, tag_19))\n  swap1\n    /* \"contracts/BuyerRole.sol\":1063:1082  buyers.add(account) */\n  swap2\n  swap1\n  0x20\n  shr\n  jump\t// in\ntag_18:\n    /* \"contracts/BuyerRole.sol\":1108:1115  account */\n  dup1\n    /* \"contracts/BuyerRole.sol\":1097:1116  BuyerAdded(account) */\n  0xffffffffffffffffffffffffffffffffffffffff\n  and\n  0x6599d9dd7f97ccdc3d99ab507544f9f6ebfca20c63a7e3c018da49eeaefb164a\n  mload(0x40)\n  mload(0x40)\n  dup1\n  swap2\n  sub\n  swap1\n  log2\n    /* \"contracts/BuyerRole.sol\":1008:1123  function _addBuyer(address account) internal {... */\n  pop\n  jump\t// out\n    /* \"contracts/RegulatorRole.sol\":1084:1211  function _addRegulator(address account) internal {... */\ntag_11:\n    /* \"contracts/RegulatorRole.sol\":1143:1166  regulators.add(account) */\n  tag_21\n    /* \"contracts/RegulatorRole.sol\":1158:1165  account */\n  dup2\n    /* \"contracts/RegulatorRole.sol\":1143:1153  regulators */\n  0x01\n    /* \"contracts/RegulatorRole.sol\":1143:1157  regulators.add */\n  or(tag_0_72, shl(0x20, tag_19))\n  swap1\n    /* \"contracts/RegulatorRole.sol\":1143:1166  regulators.add(account) */\n  swap2\n  swap1\n  0x20\n  shr\n  jump\t// in\ntag_21:\n    /* \"contracts/RegulatorRole.sol\":1196:1203  account */\n  dup1\n    /* \"contracts/RegulatorRole.sol\":1181:1204  RegulatorAdded(account) */\n  0xffffffffffffffffffffffffffffffffffffffff\n  and\n  0x2860b5ba44f983f8f363ee6eeb3c24cbca3096803fbdd5129b9e253f01cac076\n  mload(0x40)\n  mload(0x40)\n  dup1\n  swap2\n  sub\n  swap1\n  log2\n    /* \"contracts/RegulatorRole.sol\":1084:1211  function _addRegulator(address account) internal {... */\n  pop\n  jump\t// out\n    /* \"contracts/PharmaRole.sol\":1027:1145  function _addPharma(address account) internal {... */\ntag_14:\n    /* \"contracts/PharmaRole.sol\":1083:1103  pharmas.add(account) */\n  tag_23\n    /* \"contracts/PharmaRole.sol\":1095:1102  account */\n  dup2\n    /* \"contracts/PharmaRole.sol\":1083:1090  pharmas */\n  0x02\n    /* \"contracts/PharmaRole.sol\":1083:1094  pharmas.add */\n  or(tag_0_72, shl(0x20, tag_19))\n  swap1\n    /* \"contracts/PharmaRole.sol\":1083:1103  pharmas.add(account) */\n  swap2\n  swap1\n  0x20\n  shr\n  jump\t// in\ntag_23:\n    /* \"contracts/PharmaRole.sol\":1130:1137  account */\n  dup1\n    /* \"contracts/PharmaRole.sol\":1118:1138  PharmaAdded(account) */\n  0xffffffffffffffffffffffffffffffffffffffff\n  and\n  0x36179de14e9e7cbce2e0a64264f3eb82e80b70aac44ff098d9c6f70b1d7d6595\n  mload(0x40)\n  mload(0x40)\n  dup1\n  swap2\n  sub\n  swap1\n  log2\n    /* \"contracts/PharmaRole.sol\":1027:1145  function _addPharma(address account) internal {... */\n  pop\n  jump\t// out\n    /* \"contracts/Roles.sol\":259:440  function add(Role storage role, address account) internal {... */\ntag_19:\n    /* \"contracts/Roles.sol\":354:355  0 */\n  0x00\n    /* \"contracts/Roles.sol\":335:356  account != address(0) */\n  0xffffffffffffffffffffffffffffffffffffffff\n  and\n    /* \"contracts/Roles.sol\":335:342  account */\n  dup2\n    /* \"contracts/Roles.sol\":335:356  account != address(0) */\n  0xffffffffffffffffffffffffffffffffffffffff\n  and\n  eq\n  iszero\n    /* \"contracts/Roles.sol\":327:357  require(account != address(0)) */\n  tag_25\n  jumpi\n  0x00\n  dup1\n  revert\ntag_25:\n    /* \"contracts/Roles.sol\":376:394  has(role, account) */\n  tag_26\n    /* \"contracts/Roles.sol\":380:384  role */\n  dup3\n    /* \"contracts/Roles.sol\":386:393  account */\n  dup3\n    /* \"contracts/Roles.sol\":376:379  has */\n  shl(0x20, tag_27)\n    /* \"contracts/Roles.sol\":376:394  has(role, account) */\n  0x20\n  shr\n  jump\t// in\ntag_26:\n    /* \"contracts/Roles.sol\":375:394  !has(role, account) */\n  iszero\n    /* \"contracts/Roles.sol\":367:395  require(!has(role, account)) */\n  tag_28\n  jumpi\n  0x00\n  dup1\n  revert\ntag_28:\n    /* \"contracts/Roles.sol\":429:433  true */\n  0x01\n    /* \"contracts/Roles.sol\":406:410  role */\n  dup3\n    /* \"contracts/Roles.sol\":406:417  role.bearer */\n  0x00\n  add\n    /* \"contracts/Roles.sol\":406:426  role.bearer[account] */\n  0x00\n    /* \"contracts/Roles.sol\":418:425  account */\n  dup4\n    /* \"contracts/Roles.sol\":406:426  role.bearer[account] */\n  0xffffffffffffffffffffffffffffffffffffffff\n  and\n  0xffffffffffffffffffffffffffffffffffffffff\n  and\n  dup2\n  mstore\n  0x20\n  add\n  swap1\n  dup2\n  mstore\n  0x20\n  add\n  0x00\n  keccak256\n  0x00\n    /* \"contracts/Roles.sol\":406:433  role.bearer[account] = true */\n  0x0100\n  exp\n  dup2\n  sload\n  dup2\n  0xff\n  mul\n  not\n  and\n  swap1\n  dup4\n  iszero\n  iszero\n  mul\n  or\n  swap1\n  sstore\n  pop\n    /* \"contracts/Roles.sol\":259:440  function add(Role storage role, address account) internal {... */\n  pop\n  pop\n  jump\t// out\n    /* \"contracts/Roles.sol\":786:976  function has(Role storage role, address account)... */\ntag_27:\n    /* \"contracts/Roles.sol\":882:886  bool */\n  0x00\n    /* \"contracts/Roles.sol\":929:930  0 */\n  dup1\n    /* \"contracts/Roles.sol\":910:931  account != address(0) */\n  0xffffffffffffffffffffffffffffffffffffffff\n  and\n    /* \"contracts/Roles.sol\":910:917  account */\n  dup3\n    /* \"contracts/Roles.sol\":910:931  account != address(0) */\n  0xffffffffffffffffffffffffffffffffffffffff\n  and\n  eq\n  iszero\n    /* \"contracts/Roles.sol\":902:932  require(account != address(0)) */\n  tag_30\n  jumpi\n  0x00\n  dup1\n  revert\ntag_30:\n    /* \"contracts/Roles.sol\":949:953  role */\n  dup3\n    /* \"contracts/Roles.sol\":949:960  role.bearer */\n  0x00\n  add\n    /* \"contracts/Roles.sol\":949:969  role.bearer[account] */\n  0x00\n    /* \"contracts/Roles.sol\":961:968  account */\n  dup4\n    /* \"contracts/Roles.sol\":949:969  role.bearer[account] */\n  0xffffffffffffffffffffffffffffffffffffffff\n  and\n  0xffffffffffffffffffffffffffffffffffffffff\n  and\n  dup2\n  mstore\n  0x20\n  add\n  swap1\n  dup2\n  mstore\n  0x20\n  add\n  0x00\n  keccak256\n  0x00\n  swap1\n  sload\n  swap1\n  0x0100\n  exp\n  swap1\n  div\n  0xff\n  and\n    /* \"contracts/Roles.sol\":942:969  return role.bearer[account] */\n  swap1\n  pop\n    /* \"contracts/Roles.sol\":786:976  function has(Role storage role, address account)... */\n  swap3\n  swap2\n  pop\n  pop\n  jump\t// out\n    /* \"contracts/SupplyChain.sol\":110:5254  contract SupplyChain is BuyerRole, RegulatorRole, PharmaRole {... */\ntag_16:\n  dataSize(sub_0)\n  dup1\n  dataOffset(sub_0)\n  0x00\n  codecopy\n  0x00\n  return\nstop\n\nsub_0: assembly {\n        /* \"contracts/SupplyChain.sol\":110:5254  contract SupplyChain is BuyerRole, RegulatorRole, PharmaRole {... */\n      mstore(0x40, 0x80)\n      jumpi(tag_1, lt(calldatasize, 0x04))\n      shr(0xe0, calldataload(0x00))\n      dup1\n      0x54fc9169\n      gt\n      tag_15\n      jumpi\n      dup1\n      0xac63f3c7\n      gt\n      tag_16\n      jumpi\n      dup1\n      0xac63f3c7\n      eq\n      tag_11\n      jumpi\n      dup1\n      0xbbf89803\n      eq\n      tag_12\n      jumpi\n      dup1\n      0xc204a0cf\n      eq\n      tag_13\n      jumpi\n      dup1\n      0xd1e4fd0f\n      eq\n      tag_14\n      jumpi\n      jump(tag_1)\n    tag_16:\n      dup1\n      0x54fc9169\n      eq\n      tag_8\n      jumpi\n      dup1\n      0x81612e4f\n      eq\n      tag_9\n      jumpi\n      dup1\n      0x8e2b65d7\n      eq\n      tag_10\n      jumpi\n      jump(tag_1)\n    tag_15:\n      dup1\n      0x0c5484d7\n      eq\n      tag_2\n      jumpi\n      dup1\n      0x1b90c4be\n      eq\n      tag_3\n      jumpi\n      dup1\n      0x1beadbe2\n      eq\n      tag_4\n      jumpi\n      dup1\n      0x2a55feec\n      eq\n      tag_5\n      jumpi\n      dup1\n      0x3221a13e\n      eq\n      tag_6\n      jumpi\n      dup1\n      0x41c0e1b5\n      eq\n      tag_7\n      jumpi\n    tag_1:\n      0x00\n      dup1\n      revert\n        /* \"contracts/SupplyChain.sol\":4490:4679  function testMedicine(uint _upc)... */\n    tag_2:\n      callvalue\n      dup1\n      iszero\n      tag_17\n      jumpi\n      0x00\n      dup1\n      revert\n    tag_17:\n      pop\n      tag_18\n      0x04\n      dup1\n      calldatasize\n      sub\n      dup2\n      add\n      swap1\n      tag_19\n      swap2\n      swap1\n      tag_20\n      jump\t// in\n    tag_19:\n      tag_21\n      jump\t// in\n    tag_18:\n      stop\n        /* \"contracts/PharmaRole.sol\":698:788  function addPharma(address account) public onlyPharma {... */\n    tag_3:\n      callvalue\n      dup1\n      iszero\n      tag_22\n      jumpi\n      0x00\n      dup1\n      revert\n    tag_22:\n      pop\n      tag_23\n      0x04\n      dup1\n      calldatasize\n      sub\n      dup2\n      add\n      swap1\n      tag_24\n      swap2\n      swap1\n      tag_25\n      jump\t// in\n    tag_24:\n      tag_26\n      jump\t// in\n    tag_23:\n      stop\n        /* \"contracts/RegulatorRole.sol\":903:984  function renounceRegulator() public {... */\n    tag_4:\n      callvalue\n      dup1\n      iszero\n      tag_27\n      jumpi\n      0x00\n      dup1\n      revert\n    tag_27:\n      pop\n      tag_28\n      tag_29\n      jump\t// in\n    tag_28:\n      stop\n        /* \"contracts/BuyerRole.sol\":521:625  function isBuyer(address account) public view returns (bool) {... */\n    tag_5:\n      callvalue\n      dup1\n      iszero\n      tag_30\n      jumpi\n      0x00\n      dup1\n      revert\n    tag_30:\n      pop\n      tag_31\n      0x04\n      dup1\n      calldatasize\n      sub\n      dup2\n      add\n      swap1\n      tag_32\n      swap2\n      swap1\n      tag_25\n      jump\t// in\n    tag_32:\n      tag_33\n      jump\t// in\n    tag_31:\n      mload(0x40)\n      tag_34\n      swap2\n      swap1\n      tag_35\n      jump\t// in\n    tag_34:\n      mload(0x40)\n      dup1\n      swap2\n      sub\n      swap1\n      return\n        /* \"contracts/SupplyChain.sol\":3592:4398  function produceMedicine(... */\n    tag_6:\n      tag_36\n      0x04\n      dup1\n      calldatasize\n      sub\n      dup2\n      add\n      swap1\n      tag_37\n      swap2\n      swap1\n      tag_38\n      jump\t// in\n    tag_37:\n      tag_39\n      jump\t// in\n    tag_36:\n      stop\n        /* \"contracts/SupplyChain.sol\":3373:3490  function kill() public {... */\n    tag_7:\n      callvalue\n      dup1\n      iszero\n      tag_40\n      jumpi\n      0x00\n      dup1\n      revert\n    tag_40:\n      pop\n      tag_41\n      tag_42\n      jump\t// in\n    tag_41:\n      stop\n        /* \"contracts/RegulatorRole.sol\":553:665  function isRegulator(address account) public view returns (bool) {... */\n    tag_8:\n      callvalue\n      dup1\n      iszero\n      tag_43\n      jumpi\n      0x00\n      dup1\n      revert\n    tag_43:\n      pop\n      tag_44\n      0x04\n      dup1\n      calldatasize\n      sub\n      dup2\n      add\n      swap1\n      tag_45\n      swap2\n      swap1\n      tag_25\n      jump\t// in\n    tag_45:\n      tag_46\n      jump\t// in\n    tag_44:\n      mload(0x40)\n      tag_47\n      swap2\n      swap1\n      tag_35\n      jump\t// in\n    tag_47:\n      mload(0x40)\n      dup1\n      swap2\n      sub\n      swap1\n      return\n        /* \"contracts/PharmaRole.sol\":858:933  function renouncePharma() public {... */\n    tag_9:\n      callvalue\n      dup1\n      iszero\n      tag_48\n      jumpi\n      0x00\n      dup1\n      revert\n    tag_48:\n      pop\n      tag_49\n      tag_50\n      jump\t// in\n    tag_49:\n      stop\n        /* \"contracts/SupplyChain.sol\":4825:5252  function sendToRegulation(uint _upc, address _regulatorId)... */\n    tag_10:\n      callvalue\n      dup1\n      iszero\n      tag_51\n      jumpi\n      0x00\n      dup1\n      revert\n    tag_51:\n      pop\n      tag_52\n      0x04\n      dup1\n      calldatasize\n      sub\n      dup2\n      add\n      swap1\n      tag_53\n      swap2\n      swap1\n      tag_54\n      jump\t// in\n    tag_53:\n      tag_55\n      jump\t// in\n    tag_52:\n      stop\n        /* \"contracts/RegulatorRole.sol\":731:830  function addRegulator(address account) public onlyRegulator {... */\n    tag_11:\n      callvalue\n      dup1\n      iszero\n      tag_56\n      jumpi\n      0x00\n      dup1\n      revert\n    tag_56:\n      pop\n      tag_57\n      0x04\n      dup1\n      calldatasize\n      sub\n      dup2\n      add\n      swap1\n      tag_58\n      swap2\n      swap1\n      tag_25\n      jump\t// in\n    tag_58:\n      tag_59\n      jump\t// in\n    tag_57:\n      stop\n        /* \"contracts/BuyerRole.sol\":687:774  function addBuyer(address account) public onlyBuyer {... */\n    tag_12:\n      callvalue\n      dup1\n      iszero\n      tag_60\n      jumpi\n      0x00\n      dup1\n      revert\n    tag_60:\n      pop\n      tag_61\n      0x04\n      dup1\n      calldatasize\n      sub\n      dup2\n      add\n      swap1\n      tag_62\n      swap2\n      swap1\n      tag_25\n      jump\t// in\n    tag_62:\n      tag_63\n      jump\t// in\n    tag_61:\n      stop\n        /* \"contracts/BuyerRole.sol\":843:916  function renounceBuyer() public {... */\n    tag_13:\n      callvalue\n      dup1\n      iszero\n      tag_64\n      jumpi\n      0x00\n      dup1\n      revert\n    tag_64:\n      pop\n      tag_65\n      tag_66\n      jump\t// in\n    tag_65:\n      stop\n        /* \"contracts/PharmaRole.sol\":529:635  function isPharma(address account) public view returns (bool) {... */\n    tag_14:\n      callvalue\n      dup1\n      iszero\n      tag_67\n      jumpi\n      0x00\n      dup1\n      revert\n    tag_67:\n      pop\n      tag_68\n      0x04\n      dup1\n      calldatasize\n      sub\n      dup2\n      add\n      swap1\n      tag_69\n      swap2\n      swap1\n      tag_25\n      jump\t// in\n    tag_69:\n      tag_70\n      jump\t// in\n    tag_68:\n      mload(0x40)\n      tag_71\n      swap2\n      swap1\n      tag_35\n      jump\t// in\n    tag_71:\n      mload(0x40)\n      dup1\n      swap2\n      sub\n      swap1\n      return\n        /* \"contracts/SupplyChain.sol\":4490:4679  function testMedicine(uint _upc)... */\n    tag_21:\n        /* \"contracts/SupplyChain.sol\":4555:4559  _upc */\n      dup1\n        /* \"contracts/SupplyChain.sol\":2530:2544  State.Produced */\n      0x00\n        /* \"contracts/SupplyChain.sol\":2505:2544  items[_upc].itemState == State.Produced */\n      0x06\n      dup2\n      gt\n      iszero\n      tag_74\n      jumpi\n      tag_75\n      tag_76\n      jump\t// in\n    tag_75:\n    tag_74:\n        /* \"contracts/SupplyChain.sol\":2505:2510  items */\n      0x05\n        /* \"contracts/SupplyChain.sol\":2505:2516  items[_upc] */\n      0x00\n        /* \"contracts/SupplyChain.sol\":2511:2515  _upc */\n      dup4\n        /* \"contracts/SupplyChain.sol\":2505:2516  items[_upc] */\n      dup2\n      mstore\n      0x20\n      add\n      swap1\n      dup2\n      mstore\n      0x20\n      add\n      0x00\n      keccak256\n        /* \"contracts/SupplyChain.sol\":2505:2526  items[_upc].itemState */\n      0x09\n      add\n      0x00\n      swap1\n      sload\n      swap1\n      0x0100\n      exp\n      swap1\n      div\n      0xff\n      and\n        /* \"contracts/SupplyChain.sol\":2505:2544  items[_upc].itemState == State.Produced */\n      0x06\n      dup2\n      gt\n      iszero\n      tag_77\n      jumpi\n      tag_78\n      tag_76\n      jump\t// in\n    tag_78:\n    tag_77:\n      eq\n        /* \"contracts/SupplyChain.sol\":2497:2545  require(items[_upc].itemState == State.Produced) */\n      tag_79\n      jumpi\n      0x00\n      dup1\n      revert\n    tag_79:\n        /* \"contracts/SupplyChain.sol\":4589:4593  _upc */\n      dup2\n        /* \"contracts/SupplyChain.sol\":1924:1929  items */\n      0x05\n        /* \"contracts/SupplyChain.sol\":1924:1935  items[_upc] */\n      0x00\n        /* \"contracts/SupplyChain.sol\":1930:1934  _upc */\n      dup3\n        /* \"contracts/SupplyChain.sol\":1924:1935  items[_upc] */\n      dup2\n      mstore\n      0x20\n      add\n      swap1\n      dup2\n      mstore\n      0x20\n      add\n      0x00\n      keccak256\n        /* \"contracts/SupplyChain.sol\":1924:1943  items[_upc].ownerID */\n      0x02\n      add\n      0x00\n      swap1\n      sload\n      swap1\n      0x0100\n      exp\n      swap1\n      div\n      0xffffffffffffffffffffffffffffffffffffffff\n      and\n        /* \"contracts/SupplyChain.sol\":1910:1943  msg.sender == items[_upc].ownerID */\n      0xffffffffffffffffffffffffffffffffffffffff\n      and\n        /* \"contracts/SupplyChain.sol\":1910:1920  msg.sender */\n      caller\n        /* \"contracts/SupplyChain.sol\":1910:1943  msg.sender == items[_upc].ownerID */\n      0xffffffffffffffffffffffffffffffffffffffff\n      and\n      eq\n        /* \"contracts/SupplyChain.sol\":1902:1944  require(msg.sender == items[_upc].ownerID) */\n      tag_81\n      jumpi\n      0x00\n      dup1\n      revert\n    tag_81:\n        /* \"contracts/SupplyChain.sol\":4633:4645  State.Tested */\n      0x01\n        /* \"contracts/SupplyChain.sol\":4609:4614  items */\n      0x05\n        /* \"contracts/SupplyChain.sol\":4609:4620  items[_upc] */\n      0x00\n        /* \"contracts/SupplyChain.sol\":4615:4619  _upc */\n      dup6\n        /* \"contracts/SupplyChain.sol\":4609:4620  items[_upc] */\n      dup2\n      mstore\n      0x20\n      add\n      swap1\n      dup2\n      mstore\n      0x20\n      add\n      0x00\n      keccak256\n        /* \"contracts/SupplyChain.sol\":4609:4630  items[_upc].itemState */\n      0x09\n      add\n      0x00\n        /* \"contracts/SupplyChain.sol\":4609:4645  items[_upc].itemState = State.Tested */\n      0x0100\n      exp\n      dup2\n      sload\n      dup2\n      0xff\n      mul\n      not\n      and\n      swap1\n      dup4\n      0x06\n      dup2\n      gt\n      iszero\n      tag_83\n      jumpi\n      tag_84\n      tag_76\n      jump\t// in\n    tag_84:\n    tag_83:\n      mul\n      or\n      swap1\n      sstore\n      pop\n        /* \"contracts/SupplyChain.sol\":4660:4672  Tested(_upc) */\n      0x06974b56d21c283fee3ed0905f648b2e17cb684cc8dc972ea99704bea957814e\n        /* \"contracts/SupplyChain.sol\":4667:4671  _upc */\n      dup4\n        /* \"contracts/SupplyChain.sol\":4660:4672  Tested(_upc) */\n      mload(0x40)\n      tag_85\n      swap2\n      swap1\n      tag_86\n      jump\t// in\n    tag_85:\n      mload(0x40)\n      dup1\n      swap2\n      sub\n      swap1\n      log1\n        /* \"contracts/SupplyChain.sol\":2555:2556  _ */\n      pop\n        /* \"contracts/SupplyChain.sol\":4490:4679  function testMedicine(uint _upc)... */\n      pop\n      pop\n      jump\t// out\n        /* \"contracts/PharmaRole.sol\":698:788  function addPharma(address account) public onlyPharma {... */\n    tag_26:\n        /* \"contracts/PharmaRole.sol\":429:449  isPharma(msg.sender) */\n      tag_88\n        /* \"contracts/PharmaRole.sol\":438:448  msg.sender */\n      caller\n        /* \"contracts/PharmaRole.sol\":429:437  isPharma */\n      tag_70\n        /* \"contracts/PharmaRole.sol\":429:449  isPharma(msg.sender) */\n      jump\t// in\n    tag_88:\n        /* \"contracts/PharmaRole.sol\":421:450  require(isPharma(msg.sender)) */\n      tag_89\n      jumpi\n      0x00\n      dup1\n      revert\n    tag_89:\n        /* \"contracts/PharmaRole.sol\":762:781  _addPharma(account) */\n      tag_91\n        /* \"contracts/PharmaRole.sol\":773:780  account */\n      dup2\n        /* \"contracts/PharmaRole.sol\":762:772  _addPharma */\n      tag_92\n        /* \"contracts/PharmaRole.sol\":762:781  _addPharma(account) */\n      jump\t// in\n    tag_91:\n        /* \"contracts/PharmaRole.sol\":698:788  function addPharma(address account) public onlyPharma {... */\n      pop\n      jump\t// out\n        /* \"contracts/RegulatorRole.sol\":903:984  function renounceRegulator() public {... */\n    tag_29:\n        /* \"contracts/RegulatorRole.sol\":949:977  _removeRegulator(msg.sender) */\n      tag_94\n        /* \"contracts/RegulatorRole.sol\":966:976  msg.sender */\n      caller\n        /* \"contracts/RegulatorRole.sol\":949:965  _removeRegulator */\n      tag_95\n        /* \"contracts/RegulatorRole.sol\":949:977  _removeRegulator(msg.sender) */\n      jump\t// in\n    tag_94:\n        /* \"contracts/RegulatorRole.sol\":903:984  function renounceRegulator() public {... */\n      jump\t// out\n        /* \"contracts/BuyerRole.sol\":521:625  function isBuyer(address account) public view returns (bool) {... */\n    tag_33:\n        /* \"contracts/BuyerRole.sol\":576:580  bool */\n      0x00\n        /* \"contracts/BuyerRole.sol\":599:618  buyers.has(account) */\n      tag_97\n        /* \"contracts/BuyerRole.sol\":610:617  account */\n      dup3\n        /* \"contracts/BuyerRole.sol\":599:605  buyers */\n      0x00\n        /* \"contracts/BuyerRole.sol\":599:609  buyers.has */\n      tag_98\n      swap1\n        /* \"contracts/BuyerRole.sol\":599:618  buyers.has(account) */\n      swap2\n      swap1\n      0xffffffff\n      and\n      jump\t// in\n    tag_97:\n        /* \"contracts/BuyerRole.sol\":592:618  return buyers.has(account) */\n      swap1\n      pop\n        /* \"contracts/BuyerRole.sol\":521:625  function isBuyer(address account) public view returns (bool) {... */\n      swap2\n      swap1\n      pop\n      jump\t// out\n        /* \"contracts/SupplyChain.sol\":3592:4398  function produceMedicine(... */\n    tag_39:\n        /* \"contracts/PharmaRole.sol\":429:449  isPharma(msg.sender) */\n      tag_100\n        /* \"contracts/PharmaRole.sol\":438:448  msg.sender */\n      caller\n        /* \"contracts/PharmaRole.sol\":429:437  isPharma */\n      tag_70\n        /* \"contracts/PharmaRole.sol\":429:449  isPharma(msg.sender) */\n      jump\t// in\n    tag_100:\n        /* \"contracts/PharmaRole.sol\":421:450  require(isPharma(msg.sender)) */\n      tag_101\n      jumpi\n      0x00\n      dup1\n      revert\n    tag_101:\n        /* \"contracts/SupplyChain.sol\":3861:4339  Item({... */\n      mload(0x40)\n      dup1\n      0x0180\n      add\n      0x40\n      mstore\n      dup1\n        /* \"contracts/SupplyChain.sol\":3885:3888  sku */\n      sload(0x04)\n        /* \"contracts/SupplyChain.sol\":3861:4339  Item({... */\n      dup2\n      mstore\n      0x20\n      add\n        /* \"contracts/SupplyChain.sol\":3907:3911  _upc */\n      dup7\n        /* \"contracts/SupplyChain.sol\":3861:4339  Item({... */\n      dup2\n      mstore\n      0x20\n      add\n        /* \"contracts/SupplyChain.sol\":3934:3944  msg.sender */\n      caller\n        /* \"contracts/SupplyChain.sol\":3861:4339  Item({... */\n      0xffffffffffffffffffffffffffffffffffffffff\n      and\n      dup2\n      mstore\n      0x20\n      add\n        /* \"contracts/SupplyChain.sol\":3974:3984  msg.sender */\n      caller\n        /* \"contracts/SupplyChain.sol\":3861:4339  Item({... */\n      0xffffffffffffffffffffffffffffffffffffffff\n      and\n      dup2\n      mstore\n      0x20\n      add\n        /* \"contracts/SupplyChain.sol\":4016:4033  _originPharmaName */\n      dup6\n        /* \"contracts/SupplyChain.sol\":3861:4339  Item({... */\n      dup2\n      mstore\n      0x20\n      add\n        /* \"contracts/SupplyChain.sol\":4072:4096  _originPharmaInformation */\n      dup5\n        /* \"contracts/SupplyChain.sol\":3861:4339  Item({... */\n      dup2\n      mstore\n      0x20\n      add\n        /* \"contracts/SupplyChain.sol\":4131:4151  _originPharmaCountry */\n      dup4\n        /* \"contracts/SupplyChain.sol\":3861:4339  Item({... */\n      dup2\n      mstore\n      0x20\n      add\n        /* \"contracts/SupplyChain.sol\":4178:4190  _productName */\n      dup3\n        /* \"contracts/SupplyChain.sol\":3861:4339  Item({... */\n      dup2\n      mstore\n      0x20\n      add\n        /* \"contracts/SupplyChain.sol\":4218:4219  0 */\n      0x00\n        /* \"contracts/SupplyChain.sol\":3861:4339  Item({... */\n      dup2\n      mstore\n      0x20\n      add\n        /* \"contracts/SupplyChain.sol\":4244:4258  State.Produced */\n      0x00\n        /* \"contracts/SupplyChain.sol\":3861:4339  Item({... */\n      0x06\n      dup2\n      gt\n      iszero\n      tag_103\n      jumpi\n      tag_104\n      tag_76\n      jump\t// in\n    tag_104:\n    tag_103:\n      dup2\n      mstore\n      0x20\n      add\n        /* \"contracts/SupplyChain.sol\":4293:4294  0 */\n      0x00\n        /* \"contracts/SupplyChain.sol\":3861:4339  Item({... */\n      0xffffffffffffffffffffffffffffffffffffffff\n      and\n      dup2\n      mstore\n      0x20\n      add\n        /* \"contracts/SupplyChain.sol\":4326:4327  0 */\n      0x00\n        /* \"contracts/SupplyChain.sol\":3861:4339  Item({... */\n      0xffffffffffffffffffffffffffffffffffffffff\n      and\n      dup2\n      mstore\n      pop\n        /* \"contracts/SupplyChain.sol\":3847:3852  items */\n      0x05\n        /* \"contracts/SupplyChain.sol\":3847:3858  items[_upc] */\n      0x00\n        /* \"contracts/SupplyChain.sol\":3853:3857  _upc */\n      dup8\n        /* \"contracts/SupplyChain.sol\":3847:3858  items[_upc] */\n      dup2\n      mstore\n      0x20\n      add\n      swap1\n      dup2\n      mstore\n      0x20\n      add\n      0x00\n      keccak256\n        /* \"contracts/SupplyChain.sol\":3847:4339  items[_upc] = Item({... */\n      0x00\n      dup3\n      add\n      mload\n      dup2\n      0x00\n      add\n      sstore\n      0x20\n      dup3\n      add\n      mload\n      dup2\n      0x01\n      add\n      sstore\n      0x40\n      dup3\n      add\n      mload\n      dup2\n      0x02\n      add\n      exp(0x0100, 0x00)\n      dup2\n      sload\n      dup2\n      0xffffffffffffffffffffffffffffffffffffffff\n      mul\n      not\n      and\n      swap1\n      dup4\n      0xffffffffffffffffffffffffffffffffffffffff\n      and\n      mul\n      or\n      swap1\n      sstore\n      pop\n      0x60\n      dup3\n      add\n      mload\n      dup2\n      0x03\n      add\n      exp(0x0100, 0x00)\n      dup2\n      sload\n      dup2\n      0xffffffffffffffffffffffffffffffffffffffff\n      mul\n      not\n      and\n      swap1\n      dup4\n      0xffffffffffffffffffffffffffffffffffffffff\n      and\n      mul\n      or\n      swap1\n      sstore\n      pop\n      0x80\n      dup3\n      add\n      mload\n      dup2\n      0x04\n      add\n      swap1\n      dup1\n      mload\n      swap1\n      0x20\n      add\n      swap1\n      tag_105\n      swap3\n      swap2\n      swap1\n      tag_106\n      jump\t// in\n    tag_105:\n      pop\n      0xa0\n      dup3\n      add\n      mload\n      dup2\n      0x05\n      add\n      swap1\n      dup1\n      mload\n      swap1\n      0x20\n      add\n      swap1\n      tag_107\n      swap3\n      swap2\n      swap1\n      tag_106\n      jump\t// in\n    tag_107:\n      pop\n      0xc0\n      dup3\n      add\n      mload\n      dup2\n      0x06\n      add\n      swap1\n      dup1\n      mload\n      swap1\n      0x20\n      add\n      swap1\n      tag_108\n      swap3\n      swap2\n      swap1\n      tag_106\n      jump\t// in\n    tag_108:\n      pop\n      0xe0\n      dup3\n      add\n      mload\n      dup2\n      0x07\n      add\n      swap1\n      dup1\n      mload\n      swap1\n      0x20\n      add\n      swap1\n      tag_109\n      swap3\n      swap2\n      swap1\n      tag_106\n      jump\t// in\n    tag_109:\n      pop\n      0x0100\n      dup3\n      add\n      mload\n      dup2\n      0x08\n      add\n      sstore\n      0x0120\n      dup3\n      add\n      mload\n      dup2\n      0x09\n      add\n      exp(0x0100, 0x00)\n      dup2\n      sload\n      dup2\n      0xff\n      mul\n      not\n      and\n      swap1\n      dup4\n      0x06\n      dup2\n      gt\n      iszero\n      tag_110\n      jumpi\n      tag_111\n      tag_76\n      jump\t// in\n    tag_111:\n    tag_110:\n      mul\n      or\n      swap1\n      sstore\n      pop\n      0x0140\n      dup3\n      add\n      mload\n      dup2\n      0x09\n      add\n      exp(0x0100, 0x01)\n      dup2\n      sload\n      dup2\n      0xffffffffffffffffffffffffffffffffffffffff\n      mul\n      not\n      and\n      swap1\n      dup4\n      0xffffffffffffffffffffffffffffffffffffffff\n      and\n      mul\n      or\n      swap1\n      sstore\n      pop\n      0x0160\n      dup3\n      add\n      mload\n      dup2\n      0x0a\n      add\n      exp(0x0100, 0x00)\n      dup2\n      sload\n      dup2\n      0xffffffffffffffffffffffffffffffffffffffff\n      mul\n      not\n      and\n      swap1\n      dup4\n      0xffffffffffffffffffffffffffffffffffffffff\n      and\n      mul\n      or\n      swap1\n      sstore\n      pop\n      swap1\n      pop\n      pop\n        /* \"contracts/SupplyChain.sol\":4361:4362  1 */\n      0x01\n        /* \"contracts/SupplyChain.sol\":4355:4358  sku */\n      sload(0x04)\n        /* \"contracts/SupplyChain.sol\":4355:4362  sku + 1 */\n      tag_112\n      swap2\n      swap1\n      tag_113\n      jump\t// in\n    tag_112:\n        /* \"contracts/SupplyChain.sol\":4349:4352  sku */\n      0x04\n        /* \"contracts/SupplyChain.sol\":4349:4362  sku = sku + 1 */\n      dup2\n      swap1\n      sstore\n      pop\n        /* \"contracts/SupplyChain.sol\":4377:4391  Produced(_upc) */\n      0x9d1715437821cd9a90cba5d1a68995c308d9ad9afc754ed9a1cff429760796e6\n        /* \"contracts/SupplyChain.sol\":4386:4390  _upc */\n      dup6\n        /* \"contracts/SupplyChain.sol\":4377:4391  Produced(_upc) */\n      mload(0x40)\n      tag_114\n      swap2\n      swap1\n      tag_86\n      jump\t// in\n    tag_114:\n      mload(0x40)\n      dup1\n      swap2\n      sub\n      swap1\n      log1\n        /* \"contracts/SupplyChain.sol\":3592:4398  function produceMedicine(... */\n      pop\n      pop\n      pop\n      pop\n      pop\n      jump\t// out\n        /* \"contracts/SupplyChain.sol\":3373:3490  function kill() public {... */\n    tag_42:\n        /* \"contracts/SupplyChain.sol\":3424:3429  owner */\n      0x03\n      0x00\n      swap1\n      sload\n      swap1\n      0x0100\n      exp\n      swap1\n      div\n      0xffffffffffffffffffffffffffffffffffffffff\n      and\n        /* \"contracts/SupplyChain.sol\":3410:3429  msg.sender == owner */\n      0xffffffffffffffffffffffffffffffffffffffff\n      and\n        /* \"contracts/SupplyChain.sol\":3410:3420  msg.sender */\n      caller\n        /* \"contracts/SupplyChain.sol\":3410:3429  msg.sender == owner */\n      0xffffffffffffffffffffffffffffffffffffffff\n      and\n      eq\n        /* \"contracts/SupplyChain.sol\":3406:3484  if (msg.sender == owner) {... */\n      iszero\n      tag_116\n      jumpi\n        /* \"contracts/SupplyChain.sol\":3466:3471  owner */\n      0x03\n      0x00\n      swap1\n      sload\n      swap1\n      0x0100\n      exp\n      swap1\n      div\n      0xffffffffffffffffffffffffffffffffffffffff\n      and\n        /* \"contracts/SupplyChain.sol\":3445:3473  selfdestruct(payable(owner)) */\n      0xffffffffffffffffffffffffffffffffffffffff\n      and\n      selfdestruct\n        /* \"contracts/SupplyChain.sol\":3406:3484  if (msg.sender == owner) {... */\n    tag_116:\n        /* \"contracts/SupplyChain.sol\":3373:3490  function kill() public {... */\n      jump\t// out\n        /* \"contracts/RegulatorRole.sol\":553:665  function isRegulator(address account) public view returns (bool) {... */\n    tag_46:\n        /* \"contracts/RegulatorRole.sol\":612:616  bool */\n      0x00\n        /* \"contracts/RegulatorRole.sol\":635:658  regulators.has(account) */\n      tag_118\n        /* \"contracts/RegulatorRole.sol\":650:657  account */\n      dup3\n        /* \"contracts/RegulatorRole.sol\":635:645  regulators */\n      0x01\n        /* \"contracts/RegulatorRole.sol\":635:649  regulators.has */\n      tag_98\n      swap1\n        /* \"contracts/RegulatorRole.sol\":635:658  regulators.has(account) */\n      swap2\n      swap1\n      0xffffffff\n      and\n      jump\t// in\n    tag_118:\n        /* \"contracts/RegulatorRole.sol\":628:658  return regulators.has(account) */\n      swap1\n      pop\n        /* \"contracts/RegulatorRole.sol\":553:665  function isRegulator(address account) public view returns (bool) {... */\n      swap2\n      swap1\n      pop\n      jump\t// out\n        /* \"contracts/PharmaRole.sol\":858:933  function renouncePharma() public {... */\n    tag_50:\n        /* \"contracts/PharmaRole.sol\":901:926  _removePharma(msg.sender) */\n      tag_120\n        /* \"contracts/PharmaRole.sol\":915:925  msg.sender */\n      caller\n        /* \"contracts/PharmaRole.sol\":901:914  _removePharma */\n      tag_121\n        /* \"contracts/PharmaRole.sol\":901:926  _removePharma(msg.sender) */\n      jump\t// in\n    tag_120:\n        /* \"contracts/PharmaRole.sol\":858:933  function renouncePharma() public {... */\n      jump\t// out\n        /* \"contracts/SupplyChain.sol\":4825:5252  function sendToRegulation(uint _upc, address _regulatorId)... */\n    tag_55:\n        /* \"contracts/SupplyChain.sol\":4914:4918  _upc */\n      dup2\n        /* \"contracts/SupplyChain.sol\":2639:2651  State.Tested */\n      0x01\n        /* \"contracts/SupplyChain.sol\":2614:2651  items[_upc].itemState == State.Tested */\n      0x06\n      dup2\n      gt\n      iszero\n      tag_123\n      jumpi\n      tag_124\n      tag_76\n      jump\t// in\n    tag_124:\n    tag_123:\n        /* \"contracts/SupplyChain.sol\":2614:2619  items */\n      0x05\n        /* \"contracts/SupplyChain.sol\":2614:2625  items[_upc] */\n      0x00\n        /* \"contracts/SupplyChain.sol\":2620:2624  _upc */\n      dup4\n        /* \"contracts/SupplyChain.sol\":2614:2625  items[_upc] */\n      dup2\n      mstore\n      0x20\n      add\n      swap1\n      dup2\n      mstore\n      0x20\n      add\n      0x00\n      keccak256\n        /* \"contracts/SupplyChain.sol\":2614:2635  items[_upc].itemState */\n      0x09\n      add\n      0x00\n      swap1\n      sload\n      swap1\n      0x0100\n      exp\n      swap1\n      div\n      0xff\n      and\n        /* \"contracts/SupplyChain.sol\":2614:2651  items[_upc].itemState == State.Tested */\n      0x06\n      dup2\n      gt\n      iszero\n      tag_125\n      jumpi\n      tag_126\n      tag_76\n      jump\t// in\n    tag_126:\n    tag_125:\n      eq\n        /* \"contracts/SupplyChain.sol\":2606:2652  require(items[_upc].itemState == State.Tested) */\n      tag_127\n      jumpi\n      0x00\n      dup1\n      revert\n    tag_127:\n        /* \"contracts/PharmaRole.sol\":429:449  isPharma(msg.sender) */\n      tag_129\n        /* \"contracts/PharmaRole.sol\":438:448  msg.sender */\n      caller\n        /* \"contracts/PharmaRole.sol\":429:437  isPharma */\n      tag_70\n        /* \"contracts/PharmaRole.sol\":429:449  isPharma(msg.sender) */\n      jump\t// in\n    tag_129:\n        /* \"contracts/PharmaRole.sol\":421:450  require(isPharma(msg.sender)) */\n      tag_130\n      jumpi\n      0x00\n      dup1\n      revert\n    tag_130:\n        /* \"contracts/SupplyChain.sol\":4967:4971  _upc */\n      dup3\n        /* \"contracts/SupplyChain.sol\":1924:1929  items */\n      0x05\n        /* \"contracts/SupplyChain.sol\":1924:1935  items[_upc] */\n      0x00\n        /* \"contracts/SupplyChain.sol\":1930:1934  _upc */\n      dup3\n        /* \"contracts/SupplyChain.sol\":1924:1935  items[_upc] */\n      dup2\n      mstore\n      0x20\n      add\n      swap1\n      dup2\n      mstore\n      0x20\n      add\n      0x00\n      keccak256\n        /* \"contracts/SupplyChain.sol\":1924:1943  items[_upc].ownerID */\n      0x02\n      add\n      0x00\n      swap1\n      sload\n      swap1\n      0x0100\n      exp\n      swap1\n      div\n      0xffffffffffffffffffffffffffffffffffffffff\n      and\n        /* \"contracts/SupplyChain.sol\":1910:1943  msg.sender == items[_upc].ownerID */\n      0xffffffffffffffffffffffffffffffffffffffff\n      and\n        /* \"contracts/SupplyChain.sol\":1910:1920  msg.sender */\n      caller\n        /* \"contracts/SupplyChain.sol\":1910:1943  msg.sender == items[_upc].ownerID */\n      0xffffffffffffffffffffffffffffffffffffffff\n      and\n      eq\n        /* \"contracts/SupplyChain.sol\":1902:1944  require(msg.sender == items[_upc].ownerID) */\n      tag_132\n      jumpi\n      0x00\n      dup1\n      revert\n    tag_132:\n        /* \"contracts/SupplyChain.sol\":4995:5020  isRegulator(_regulatorId) */\n      tag_134\n        /* \"contracts/SupplyChain.sol\":5007:5019  _regulatorId */\n      dup4\n        /* \"contracts/SupplyChain.sol\":4995:5006  isRegulator */\n      tag_46\n        /* \"contracts/SupplyChain.sol\":4995:5020  isRegulator(_regulatorId) */\n      jump\t// in\n    tag_134:\n        /* \"contracts/SupplyChain.sol\":4987:5056  require(isRegulator(_regulatorId), \"This address is not a Regulator\") */\n      tag_135\n      jumpi\n      mload(0x40)\n      0x08c379a000000000000000000000000000000000000000000000000000000000\n      dup2\n      mstore\n      0x04\n      add\n      tag_136\n      swap1\n      tag_137\n      jump\t// in\n    tag_136:\n      mload(0x40)\n      dup1\n      swap2\n      sub\n      swap1\n      revert\n    tag_135:\n        /* \"contracts/SupplyChain.sol\":5092:5104  _regulatorId */\n      dup3\n        /* \"contracts/SupplyChain.sol\":5066:5071  items */\n      0x05\n        /* \"contracts/SupplyChain.sol\":5066:5077  items[_upc] */\n      0x00\n        /* \"contracts/SupplyChain.sol\":5072:5076  _upc */\n      dup7\n        /* \"contracts/SupplyChain.sol\":5066:5077  items[_upc] */\n      dup2\n      mstore\n      0x20\n      add\n      swap1\n      dup2\n      mstore\n      0x20\n      add\n      0x00\n      keccak256\n        /* \"contracts/SupplyChain.sol\":5066:5089  items[_upc].regulatorId */\n      0x09\n      add\n      0x01\n        /* \"contracts/SupplyChain.sol\":5066:5104  items[_upc].regulatorId = _regulatorId */\n      0x0100\n      exp\n      dup2\n      sload\n      dup2\n      0xffffffffffffffffffffffffffffffffffffffff\n      mul\n      not\n      and\n      swap1\n      dup4\n      0xffffffffffffffffffffffffffffffffffffffff\n      and\n      mul\n      or\n      swap1\n      sstore\n      pop\n        /* \"contracts/SupplyChain.sol\":5138:5162  State.SentToVerification */\n      0x02\n        /* \"contracts/SupplyChain.sol\":5114:5119  items */\n      0x05\n        /* \"contracts/SupplyChain.sol\":5114:5125  items[_upc] */\n      0x00\n        /* \"contracts/SupplyChain.sol\":5120:5124  _upc */\n      dup7\n        /* \"contracts/SupplyChain.sol\":5114:5125  items[_upc] */\n      dup2\n      mstore\n      0x20\n      add\n      swap1\n      dup2\n      mstore\n      0x20\n      add\n      0x00\n      keccak256\n        /* \"contracts/SupplyChain.sol\":5114:5135  items[_upc].itemState */\n      0x09\n      add\n      0x00\n        /* \"contracts/SupplyChain.sol\":5114:5162  items[_upc].itemState = State.SentToVerification */\n      0x0100\n      exp\n      dup2\n      sload\n      dup2\n      0xff\n      mul\n      not\n      and\n      swap1\n      dup4\n      0x06\n      dup2\n      gt\n      iszero\n      tag_138\n      jumpi\n      tag_139\n      tag_76\n      jump\t// in\n    tag_139:\n    tag_138:\n      mul\n      or\n      swap1\n      sstore\n      pop\n        /* \"contracts/SupplyChain.sol\":5194:5206  _regulatorId */\n      dup3\n        /* \"contracts/SupplyChain.sol\":5172:5177  items */\n      0x05\n        /* \"contracts/SupplyChain.sol\":5172:5183  items[_upc] */\n      0x00\n        /* \"contracts/SupplyChain.sol\":5178:5182  _upc */\n      dup7\n        /* \"contracts/SupplyChain.sol\":5172:5183  items[_upc] */\n      dup2\n      mstore\n      0x20\n      add\n      swap1\n      dup2\n      mstore\n      0x20\n      add\n      0x00\n      keccak256\n        /* \"contracts/SupplyChain.sol\":5172:5191  items[_upc].ownerID */\n      0x02\n      add\n      0x00\n        /* \"contracts/SupplyChain.sol\":5172:5206  items[_upc].ownerID = _regulatorId */\n      0x0100\n      exp\n      dup2\n      sload\n      dup2\n      0xffffffffffffffffffffffffffffffffffffffff\n      mul\n      not\n      and\n      swap1\n      dup4\n      0xffffffffffffffffffffffffffffffffffffffff\n      and\n      mul\n      or\n      swap1\n      sstore\n      pop\n        /* \"contracts/SupplyChain.sol\":5221:5245  SentToVerification(_upc) */\n      0xf12328dacf931f6c8c8c904ea8b9791d681613ed5ec258dce2866c311795c9ea\n        /* \"contracts/SupplyChain.sol\":5240:5244  _upc */\n      dup5\n        /* \"contracts/SupplyChain.sol\":5221:5245  SentToVerification(_upc) */\n      mload(0x40)\n      tag_140\n      swap2\n      swap1\n      tag_86\n      jump\t// in\n    tag_140:\n      mload(0x40)\n      dup1\n      swap2\n      sub\n      swap1\n      log1\n        /* \"contracts/PharmaRole.sol\":460:461  _ */\n      pop\n        /* \"contracts/SupplyChain.sol\":4825:5252  function sendToRegulation(uint _upc, address _regulatorId)... */\n      pop\n      pop\n      pop\n      jump\t// out\n        /* \"contracts/RegulatorRole.sol\":731:830  function addRegulator(address account) public onlyRegulator {... */\n    tag_59:\n        /* \"contracts/RegulatorRole.sol\":447:470  isRegulator(msg.sender) */\n      tag_142\n        /* \"contracts/RegulatorRole.sol\":459:469  msg.sender */\n      caller\n        /* \"contracts/RegulatorRole.sol\":447:458  isRegulator */\n      tag_46\n        /* \"contracts/RegulatorRole.sol\":447:470  isRegulator(msg.sender) */\n      jump\t// in\n    tag_142:\n        /* \"contracts/RegulatorRole.sol\":439:471  require(isRegulator(msg.sender)) */\n      tag_143\n      jumpi\n      0x00\n      dup1\n      revert\n    tag_143:\n        /* \"contracts/RegulatorRole.sol\":801:823  _addRegulator(account) */\n      tag_145\n        /* \"contracts/RegulatorRole.sol\":815:822  account */\n      dup2\n        /* \"contracts/RegulatorRole.sol\":801:814  _addRegulator */\n      tag_146\n        /* \"contracts/RegulatorRole.sol\":801:823  _addRegulator(account) */\n      jump\t// in\n    tag_145:\n        /* \"contracts/RegulatorRole.sol\":731:830  function addRegulator(address account) public onlyRegulator {... */\n      pop\n      jump\t// out\n        /* \"contracts/BuyerRole.sol\":687:774  function addBuyer(address account) public onlyBuyer {... */\n    tag_63:\n        /* \"contracts/BuyerRole.sol\":423:442  isBuyer(msg.sender) */\n      tag_148\n        /* \"contracts/BuyerRole.sol\":431:441  msg.sender */\n      caller\n        /* \"contracts/BuyerRole.sol\":423:430  isBuyer */\n      tag_33\n        /* \"contracts/BuyerRole.sol\":423:442  isBuyer(msg.sender) */\n      jump\t// in\n    tag_148:\n        /* \"contracts/BuyerRole.sol\":415:443  require(isBuyer(msg.sender)) */\n      tag_149\n      jumpi\n      0x00\n      dup1\n      revert\n    tag_149:\n        /* \"contracts/BuyerRole.sol\":749:767  _addBuyer(account) */\n      tag_151\n        /* \"contracts/BuyerRole.sol\":759:766  account */\n      dup2\n        /* \"contracts/BuyerRole.sol\":749:758  _addBuyer */\n      tag_152\n        /* \"contracts/BuyerRole.sol\":749:767  _addBuyer(account) */\n      jump\t// in\n    tag_151:\n        /* \"contracts/BuyerRole.sol\":687:774  function addBuyer(address account) public onlyBuyer {... */\n      pop\n      jump\t// out\n        /* \"contracts/BuyerRole.sol\":843:916  function renounceBuyer() public {... */\n    tag_66:\n        /* \"contracts/BuyerRole.sol\":885:909  _removeBuyer(msg.sender) */\n      tag_154\n        /* \"contracts/BuyerRole.sol\":898:908  msg.sender */\n      caller\n        /* \"contracts/BuyerRole.sol\":885:897  _removeBuyer */\n      tag_155\n        /* \"contracts/BuyerRole.sol\":885:909  _removeBuyer(msg.sender) */\n      jump\t// in\n    tag_154:\n        /* \"contracts/BuyerRole.sol\":843:916  function renounceBuyer() public {... */\n      jump\t// out\n        /* \"contracts/PharmaRole.sol\":529:635  function isPharma(address account) public view returns (bool) {... */\n    tag_70:\n        /* \"contracts/PharmaRole.sol\":585:589  bool */\n      0x00\n        /* \"contracts/PharmaRole.sol\":608:628  pharmas.has(account) */\n      tag_157\n        /* \"contracts/PharmaRole.sol\":620:627  account */\n      dup3\n        /* \"contracts/PharmaRole.sol\":608:615  pharmas */\n      0x02\n        /* \"contracts/PharmaRole.sol\":608:619  pharmas.has */\n      tag_98\n      swap1\n        /* \"contracts/PharmaRole.sol\":608:628  pharmas.has(account) */\n      swap2\n      swap1\n      0xffffffff\n      and\n      jump\t// in\n    tag_157:\n        /* \"contracts/PharmaRole.sol\":601:628  return pharmas.has(account) */\n      swap1\n      pop\n        /* \"contracts/PharmaRole.sol\":529:635  function isPharma(address account) public view returns (bool) {... */\n      swap2\n      swap1\n      pop\n      jump\t// out\n        /* \"contracts/Roles.sol\":259:440  function add(Role storage role, address account) internal {... */\n    tag_72:\n        /* \"contracts/Roles.sol\":354:355  0 */\n      0x00\n        /* \"contracts/Roles.sol\":335:356  account != address(0) */\n      0xffffffffffffffffffffffffffffffffffffffff\n      and\n        /* \"contracts/Roles.sol\":335:342  account */\n      dup2\n        /* \"contracts/Roles.sol\":335:356  account != address(0) */\n      0xffffffffffffffffffffffffffffffffffffffff\n      and\n      eq\n      iszero\n        /* \"contracts/Roles.sol\":327:357  require(account != address(0)) */\n      tag_159\n      jumpi\n      0x00\n      dup1\n      revert\n    tag_159:\n        /* \"contracts/Roles.sol\":376:394  has(role, account) */\n      tag_160\n        /* \"contracts/Roles.sol\":380:384  role */\n      dup3\n        /* \"contracts/Roles.sol\":386:393  account */\n      dup3\n        /* \"contracts/Roles.sol\":376:379  has */\n      tag_98\n        /* \"contracts/Roles.sol\":376:394  has(role, account) */\n      jump\t// in\n    tag_160:\n        /* \"contracts/Roles.sol\":375:394  !has(role, account) */\n      iszero\n        /* \"contracts/Roles.sol\":367:395  require(!has(role, account)) */\n      tag_161\n      jumpi\n      0x00\n      dup1\n      revert\n    tag_161:\n        /* \"contracts/Roles.sol\":429:433  true */\n      0x01\n        /* \"contracts/Roles.sol\":406:410  role */\n      dup3\n        /* \"contracts/Roles.sol\":406:417  role.bearer */\n      0x00\n      add\n        /* \"contracts/Roles.sol\":406:426  role.bearer[account] */\n      0x00\n        /* \"contracts/Roles.sol\":418:425  account */\n      dup4\n        /* \"contracts/Roles.sol\":406:426  role.bearer[account] */\n      0xffffffffffffffffffffffffffffffffffffffff\n      and\n      0xffffffffffffffffffffffffffffffffffffffff\n      and\n      dup2\n      mstore\n      0x20\n      add\n      swap1\n      dup2\n      mstore\n      0x20\n      add\n      0x00\n      keccak256\n      0x00\n        /* \"contracts/Roles.sol\":406:433  role.bearer[account] = true */\n      0x0100\n      exp\n      dup2\n      sload\n      dup2\n      0xff\n      mul\n      not\n      and\n      swap1\n      dup4\n      iszero\n      iszero\n      mul\n      or\n      swap1\n      sstore\n      pop\n        /* \"contracts/Roles.sol\":259:440  function add(Role storage role, address account) internal {... */\n      pop\n      pop\n      jump\t// out\n        /* \"contracts/PharmaRole.sol\":1027:1145  function _addPharma(address account) internal {... */\n    tag_92:\n        /* \"contracts/PharmaRole.sol\":1083:1103  pharmas.add(account) */\n      tag_163\n        /* \"contracts/PharmaRole.sol\":1095:1102  account */\n      dup2\n        /* \"contracts/PharmaRole.sol\":1083:1090  pharmas */\n      0x02\n        /* \"contracts/PharmaRole.sol\":1083:1094  pharmas.add */\n      tag_72\n      swap1\n        /* \"contracts/PharmaRole.sol\":1083:1103  pharmas.add(account) */\n      swap2\n      swap1\n      0xffffffff\n      and\n      jump\t// in\n    tag_163:\n        /* \"contracts/PharmaRole.sol\":1130:1137  account */\n      dup1\n        /* \"contracts/PharmaRole.sol\":1118:1138  PharmaAdded(account) */\n      0xffffffffffffffffffffffffffffffffffffffff\n      and\n      0x36179de14e9e7cbce2e0a64264f3eb82e80b70aac44ff098d9c6f70b1d7d6595\n      mload(0x40)\n      mload(0x40)\n      dup1\n      swap2\n      sub\n      swap1\n      log2\n        /* \"contracts/PharmaRole.sol\":1027:1145  function _addPharma(address account) internal {... */\n      pop\n      jump\t// out\n        /* \"contracts/RegulatorRole.sol\":1320:1455  function _removeRegulator(address account) internal {... */\n    tag_95:\n        /* \"contracts/RegulatorRole.sol\":1382:1408  regulators.remove(account) */\n      tag_165\n        /* \"contracts/RegulatorRole.sol\":1400:1407  account */\n      dup2\n        /* \"contracts/RegulatorRole.sol\":1382:1392  regulators */\n      0x01\n        /* \"contracts/RegulatorRole.sol\":1382:1399  regulators.remove */\n      tag_166\n      swap1\n        /* \"contracts/RegulatorRole.sol\":1382:1408  regulators.remove(account) */\n      swap2\n      swap1\n      0xffffffff\n      and\n      jump\t// in\n    tag_165:\n        /* \"contracts/RegulatorRole.sol\":1440:1447  account */\n      dup1\n        /* \"contracts/RegulatorRole.sol\":1423:1448  RegulatorRemoved(account) */\n      0xffffffffffffffffffffffffffffffffffffffff\n      and\n      0xc8ecc453f78c13ccc7596603b61935f29b99dc15bb91b91647e1ccf2469ad00a\n      mload(0x40)\n      mload(0x40)\n      dup1\n      swap2\n      sub\n      swap1\n      log2\n        /* \"contracts/RegulatorRole.sol\":1320:1455  function _removeRegulator(address account) internal {... */\n      pop\n      jump\t// out\n        /* \"contracts/Roles.sol\":786:976  function has(Role storage role, address account)... */\n    tag_98:\n        /* \"contracts/Roles.sol\":882:886  bool */\n      0x00\n        /* \"contracts/Roles.sol\":929:930  0 */\n      dup1\n        /* \"contracts/Roles.sol\":910:931  account != address(0) */\n      0xffffffffffffffffffffffffffffffffffffffff\n      and\n        /* \"contracts/Roles.sol\":910:917  account */\n      dup3\n        /* \"contracts/Roles.sol\":910:931  account != address(0) */\n      0xffffffffffffffffffffffffffffffffffffffff\n      and\n      eq\n      iszero\n        /* \"contracts/Roles.sol\":902:932  require(account != address(0)) */\n      tag_168\n      jumpi\n      0x00\n      dup1\n      revert\n    tag_168:\n        /* \"contracts/Roles.sol\":949:953  role */\n      dup3\n        /* \"contracts/Roles.sol\":949:960  role.bearer */\n      0x00\n      add\n        /* \"contracts/Roles.sol\":949:969  role.bearer[account] */\n      0x00\n        /* \"contracts/Roles.sol\":961:968  account */\n      dup4\n        /* \"contracts/Roles.sol\":949:969  role.bearer[account] */\n      0xffffffffffffffffffffffffffffffffffffffff\n      and\n      0xffffffffffffffffffffffffffffffffffffffff\n      and\n      dup2\n      mstore\n      0x20\n      add\n      swap1\n      dup2\n      mstore\n      0x20\n      add\n      0x00\n      keccak256\n      0x00\n      swap1\n      sload\n      swap1\n      0x0100\n      exp\n      swap1\n      div\n      0xff\n      and\n        /* \"contracts/Roles.sol\":942:969  return role.bearer[account] */\n      swap1\n      pop\n        /* \"contracts/Roles.sol\":786:976  function has(Role storage role, address account)... */\n      swap3\n      swap2\n      pop\n      pop\n      jump\t// out\n        /* \"contracts/PharmaRole.sol\":1248:1374  function _removePharma(address account) internal {... */\n    tag_121:\n        /* \"contracts/PharmaRole.sol\":1307:1330  pharmas.remove(account) */\n      tag_170\n        /* \"contracts/PharmaRole.sol\":1322:1329  account */\n      dup2\n        /* \"contracts/PharmaRole.sol\":1307:1314  pharmas */\n      0x02\n        /* \"contracts/PharmaRole.sol\":1307:1321  pharmas.remove */\n      tag_166\n      swap1\n        /* \"contracts/PharmaRole.sol\":1307:1330  pharmas.remove(account) */\n      swap2\n      swap1\n      0xffffffff\n      and\n      jump\t// in\n    tag_170:\n        /* \"contracts/PharmaRole.sol\":1359:1366  account */\n      dup1\n        /* \"contracts/PharmaRole.sol\":1345:1367  PharmaRemoved(account) */\n      0xffffffffffffffffffffffffffffffffffffffff\n      and\n      0xa9a482e6375ef89327f2177c114191d0b88502ca4a7b961d211cc45786ee5107\n      mload(0x40)\n      mload(0x40)\n      dup1\n      swap2\n      sub\n      swap1\n      log2\n        /* \"contracts/PharmaRole.sol\":1248:1374  function _removePharma(address account) internal {... */\n      pop\n      jump\t// out\n        /* \"contracts/RegulatorRole.sol\":1084:1211  function _addRegulator(address account) internal {... */\n    tag_146:\n        /* \"contracts/RegulatorRole.sol\":1143:1166  regulators.add(account) */\n      tag_172\n        /* \"contracts/RegulatorRole.sol\":1158:1165  account */\n      dup2\n        /* \"contracts/RegulatorRole.sol\":1143:1153  regulators */\n      0x01\n        /* \"contracts/RegulatorRole.sol\":1143:1157  regulators.add */\n      tag_72\n      swap1\n        /* \"contracts/RegulatorRole.sol\":1143:1166  regulators.add(account) */\n      swap2\n      swap1\n      0xffffffff\n      and\n      jump\t// in\n    tag_172:\n        /* \"contracts/RegulatorRole.sol\":1196:1203  account */\n      dup1\n        /* \"contracts/RegulatorRole.sol\":1181:1204  RegulatorAdded(account) */\n      0xffffffffffffffffffffffffffffffffffffffff\n      and\n      0x2860b5ba44f983f8f363ee6eeb3c24cbca3096803fbdd5129b9e253f01cac076\n      mload(0x40)\n      mload(0x40)\n      dup1\n      swap2\n      sub\n      swap1\n      log2\n        /* \"contracts/RegulatorRole.sol\":1084:1211  function _addRegulator(address account) internal {... */\n      pop\n      jump\t// out\n        /* \"contracts/BuyerRole.sol\":1008:1123  function _addBuyer(address account) internal {... */\n    tag_152:\n        /* \"contracts/BuyerRole.sol\":1063:1082  buyers.add(account) */\n      tag_174\n        /* \"contracts/BuyerRole.sol\":1074:1081  account */\n      dup2\n        /* \"contracts/BuyerRole.sol\":1063:1069  buyers */\n      0x00\n        /* \"contracts/BuyerRole.sol\":1063:1073  buyers.add */\n      tag_72\n      swap1\n        /* \"contracts/BuyerRole.sol\":1063:1082  buyers.add(account) */\n      swap2\n      swap1\n      0xffffffff\n      and\n      jump\t// in\n    tag_174:\n        /* \"contracts/BuyerRole.sol\":1108:1115  account */\n      dup1\n        /* \"contracts/BuyerRole.sol\":1097:1116  BuyerAdded(account) */\n      0xffffffffffffffffffffffffffffffffffffffff\n      and\n      0x6599d9dd7f97ccdc3d99ab507544f9f6ebfca20c63a7e3c018da49eeaefb164a\n      mload(0x40)\n      mload(0x40)\n      dup1\n      swap2\n      sub\n      swap1\n      log2\n        /* \"contracts/BuyerRole.sol\":1008:1123  function _addBuyer(address account) internal {... */\n      pop\n      jump\t// out\n        /* \"contracts/BuyerRole.sol\":1224:1347  function _removeBuyer(address account) internal {... */\n    tag_155:\n        /* \"contracts/BuyerRole.sol\":1282:1304  buyers.remove(account) */\n      tag_176\n        /* \"contracts/BuyerRole.sol\":1296:1303  account */\n      dup2\n        /* \"contracts/BuyerRole.sol\":1282:1288  buyers */\n      0x00\n        /* \"contracts/BuyerRole.sol\":1282:1295  buyers.remove */\n      tag_166\n      swap1\n        /* \"contracts/BuyerRole.sol\":1282:1304  buyers.remove(account) */\n      swap2\n      swap1\n      0xffffffff\n      and\n      jump\t// in\n    tag_176:\n        /* \"contracts/BuyerRole.sol\":1332:1339  account */\n      dup1\n        /* \"contracts/BuyerRole.sol\":1319:1340  BuyerRemoved(account) */\n      0xffffffffffffffffffffffffffffffffffffffff\n      and\n      0x83fd4cbc7bc934bdfbae994ac6e72fcc0e50abd6995c1949520e761ba650d582\n      mload(0x40)\n      mload(0x40)\n      dup1\n      swap2\n      sub\n      swap1\n      log2\n        /* \"contracts/BuyerRole.sol\":1224:1347  function _removeBuyer(address account) internal {... */\n      pop\n      jump\t// out\n        /* \"contracts/Roles.sol\":514:698  function remove(Role storage role, address account) internal {... */\n    tag_166:\n        /* \"contracts/Roles.sol\":612:613  0 */\n      0x00\n        /* \"contracts/Roles.sol\":593:614  account != address(0) */\n      0xffffffffffffffffffffffffffffffffffffffff\n      and\n        /* \"contracts/Roles.sol\":593:600  account */\n      dup2\n        /* \"contracts/Roles.sol\":593:614  account != address(0) */\n      0xffffffffffffffffffffffffffffffffffffffff\n      and\n      eq\n      iszero\n        /* \"contracts/Roles.sol\":585:615  require(account != address(0)) */\n      tag_178\n      jumpi\n      0x00\n      dup1\n      revert\n    tag_178:\n        /* \"contracts/Roles.sol\":633:651  has(role, account) */\n      tag_179\n        /* \"contracts/Roles.sol\":637:641  role */\n      dup3\n        /* \"contracts/Roles.sol\":643:650  account */\n      dup3\n        /* \"contracts/Roles.sol\":633:636  has */\n      tag_98\n        /* \"contracts/Roles.sol\":633:651  has(role, account) */\n      jump\t// in\n    tag_179:\n        /* \"contracts/Roles.sol\":625:652  require(has(role, account)) */\n      tag_180\n      jumpi\n      0x00\n      dup1\n      revert\n    tag_180:\n        /* \"contracts/Roles.sol\":686:691  false */\n      0x00\n        /* \"contracts/Roles.sol\":663:667  role */\n      dup3\n        /* \"contracts/Roles.sol\":663:674  role.bearer */\n      0x00\n      add\n        /* \"contracts/Roles.sol\":663:683  role.bearer[account] */\n      0x00\n        /* \"contracts/Roles.sol\":675:682  account */\n      dup4\n        /* \"contracts/Roles.sol\":663:683  role.bearer[account] */\n      0xffffffffffffffffffffffffffffffffffffffff\n      and\n      0xffffffffffffffffffffffffffffffffffffffff\n      and\n      dup2\n      mstore\n      0x20\n      add\n      swap1\n      dup2\n      mstore\n      0x20\n      add\n      0x00\n      keccak256\n      0x00\n        /* \"contracts/Roles.sol\":663:691  role.bearer[account] = false */\n      0x0100\n      exp\n      dup2\n      sload\n      dup2\n      0xff\n      mul\n      not\n      and\n      swap1\n      dup4\n      iszero\n      iszero\n      mul\n      or\n      swap1\n      sstore\n      pop\n        /* \"contracts/Roles.sol\":514:698  function remove(Role storage role, address account) internal {... */\n      pop\n      pop\n      jump\t// out\n    tag_106:\n      dup3\n      dup1\n      sload\n      tag_181\n      swap1\n      tag_182\n      jump\t// in\n    tag_181:\n      swap1\n      0x00\n      mstore\n      keccak256(0x00, 0x20)\n      swap1\n      0x1f\n      add\n      0x20\n      swap1\n      div\n      dup2\n      add\n      swap3\n      dup3\n      tag_184\n      jumpi\n      0x00\n      dup6\n      sstore\n      jump(tag_183)\n    tag_184:\n      dup3\n      0x1f\n      lt\n      tag_185\n      jumpi\n      dup1\n      mload\n      not(0xff)\n      and\n      dup4\n      dup1\n      add\n      or\n      dup6\n      sstore\n      jump(tag_183)\n    tag_185:\n      dup3\n      dup1\n      add\n      0x01\n      add\n      dup6\n      sstore\n      dup3\n      iszero\n      tag_183\n      jumpi\n      swap2\n      dup3\n      add\n    tag_186:\n      dup3\n      dup2\n      gt\n      iszero\n      tag_187\n      jumpi\n      dup3\n      mload\n      dup3\n      sstore\n      swap2\n      0x20\n      add\n      swap2\n      swap1\n      0x01\n      add\n      swap1\n      jump(tag_186)\n    tag_187:\n    tag_183:\n      pop\n      swap1\n      pop\n      tag_188\n      swap2\n      swap1\n      tag_189\n      jump\t// in\n    tag_188:\n      pop\n      swap1\n      jump\t// out\n    tag_189:\n    tag_190:\n      dup1\n      dup3\n      gt\n      iszero\n      tag_191\n      jumpi\n      0x00\n      dup2\n      0x00\n      swap1\n      sstore\n      pop\n      0x01\n      add\n      jump(tag_190)\n    tag_191:\n      pop\n      swap1\n      jump\t// out\n        /* \"#utility.yul\":7:419   */\n    tag_193:\n        /* \"#utility.yul\":85:90   */\n      0x00\n        /* \"#utility.yul\":110:176   */\n      tag_195\n        /* \"#utility.yul\":126:175   */\n      tag_196\n        /* \"#utility.yul\":168:174   */\n      dup5\n        /* \"#utility.yul\":126:175   */\n      tag_197\n      jump\t// in\n    tag_196:\n        /* \"#utility.yul\":110:176   */\n      tag_198\n      jump\t// in\n    tag_195:\n        /* \"#utility.yul\":101:176   */\n      swap1\n      pop\n        /* \"#utility.yul\":199:205   */\n      dup3\n        /* \"#utility.yul\":192:197   */\n      dup2\n        /* \"#utility.yul\":185:206   */\n      mstore\n        /* \"#utility.yul\":237:241   */\n      0x20\n        /* \"#utility.yul\":230:235   */\n      dup2\n        /* \"#utility.yul\":226:242   */\n      add\n        /* \"#utility.yul\":275:278   */\n      dup5\n        /* \"#utility.yul\":266:272   */\n      dup5\n        /* \"#utility.yul\":261:264   */\n      dup5\n        /* \"#utility.yul\":257:273   */\n      add\n        /* \"#utility.yul\":254:279   */\n      gt\n        /* \"#utility.yul\":251:363   */\n      iszero\n      tag_199\n      jumpi\n        /* \"#utility.yul\":282:361   */\n      tag_200\n      tag_201\n      jump\t// in\n    tag_200:\n        /* \"#utility.yul\":251:363   */\n    tag_199:\n        /* \"#utility.yul\":372:413   */\n      tag_202\n        /* \"#utility.yul\":406:412   */\n      dup5\n        /* \"#utility.yul\":401:404   */\n      dup3\n        /* \"#utility.yul\":396:399   */\n      dup6\n        /* \"#utility.yul\":372:413   */\n      tag_203\n      jump\t// in\n    tag_202:\n        /* \"#utility.yul\":91:419   */\n      pop\n        /* \"#utility.yul\":7:419   */\n      swap4\n      swap3\n      pop\n      pop\n      pop\n      jump\t// out\n        /* \"#utility.yul\":425:564   */\n    tag_204:\n        /* \"#utility.yul\":471:476   */\n      0x00\n        /* \"#utility.yul\":509:515   */\n      dup2\n        /* \"#utility.yul\":496:516   */\n      calldataload\n        /* \"#utility.yul\":487:516   */\n      swap1\n      pop\n        /* \"#utility.yul\":525:558   */\n      tag_206\n        /* \"#utility.yul\":552:557   */\n      dup2\n        /* \"#utility.yul\":525:558   */\n      tag_207\n      jump\t// in\n    tag_206:\n        /* \"#utility.yul\":425:564   */\n      swap3\n      swap2\n      pop\n      pop\n      jump\t// out\n        /* \"#utility.yul\":584:924   */\n    tag_208:\n        /* \"#utility.yul\":640:645   */\n      0x00\n        /* \"#utility.yul\":689:692   */\n      dup3\n        /* \"#utility.yul\":682:686   */\n      0x1f\n        /* \"#utility.yul\":674:680   */\n      dup4\n        /* \"#utility.yul\":670:687   */\n      add\n        /* \"#utility.yul\":666:693   */\n      slt\n        /* \"#utility.yul\":656:778   */\n      tag_210\n      jumpi\n        /* \"#utility.yul\":697:776   */\n      tag_211\n      tag_212\n      jump\t// in\n    tag_211:\n        /* \"#utility.yul\":656:778   */\n    tag_210:\n        /* \"#utility.yul\":814:820   */\n      dup2\n        /* \"#utility.yul\":801:821   */\n      calldataload\n        /* \"#utility.yul\":839:918   */\n      tag_213\n        /* \"#utility.yul\":914:917   */\n      dup5\n        /* \"#utility.yul\":906:912   */\n      dup3\n        /* \"#utility.yul\":899:903   */\n      0x20\n        /* \"#utility.yul\":891:897   */\n      dup7\n        /* \"#utility.yul\":887:904   */\n      add\n        /* \"#utility.yul\":839:918   */\n      tag_193\n      jump\t// in\n    tag_213:\n        /* \"#utility.yul\":830:918   */\n      swap2\n      pop\n        /* \"#utility.yul\":646:924   */\n      pop\n        /* \"#utility.yul\":584:924   */\n      swap3\n      swap2\n      pop\n      pop\n      jump\t// out\n        /* \"#utility.yul\":930:1069   */\n    tag_214:\n        /* \"#utility.yul\":976:981   */\n      0x00\n        /* \"#utility.yul\":1014:1020   */\n      dup2\n        /* \"#utility.yul\":1001:1021   */\n      calldataload\n        /* \"#utility.yul\":992:1021   */\n      swap1\n      pop\n        /* \"#utility.yul\":1030:1063   */\n      tag_216\n        /* \"#utility.yul\":1057:1062   */\n      dup2\n        /* \"#utility.yul\":1030:1063   */\n      tag_217\n      jump\t// in\n    tag_216:\n        /* \"#utility.yul\":930:1069   */\n      swap3\n      swap2\n      pop\n      pop\n      jump\t// out\n        /* \"#utility.yul\":1075:1404   */\n    tag_25:\n        /* \"#utility.yul\":1134:1140   */\n      0x00\n        /* \"#utility.yul\":1183:1185   */\n      0x20\n        /* \"#utility.yul\":1171:1180   */\n      dup3\n        /* \"#utility.yul\":1162:1169   */\n      dup5\n        /* \"#utility.yul\":1158:1181   */\n      sub\n        /* \"#utility.yul\":1154:1186   */\n      slt\n        /* \"#utility.yul\":1151:1270   */\n      iszero\n      tag_219\n      jumpi\n        /* \"#utility.yul\":1189:1268   */\n      tag_220\n      tag_221\n      jump\t// in\n    tag_220:\n        /* \"#utility.yul\":1151:1270   */\n    tag_219:\n        /* \"#utility.yul\":1309:1310   */\n      0x00\n        /* \"#utility.yul\":1334:1387   */\n      tag_222\n        /* \"#utility.yul\":1379:1386   */\n      dup5\n        /* \"#utility.yul\":1370:1376   */\n      dup3\n        /* \"#utility.yul\":1359:1368   */\n      dup6\n        /* \"#utility.yul\":1355:1377   */\n      add\n        /* \"#utility.yul\":1334:1387   */\n      tag_204\n      jump\t// in\n    tag_222:\n        /* \"#utility.yul\":1324:1387   */\n      swap2\n      pop\n        /* \"#utility.yul\":1280:1397   */\n      pop\n        /* \"#utility.yul\":1075:1404   */\n      swap3\n      swap2\n      pop\n      pop\n      jump\t// out\n        /* \"#utility.yul\":1410:1739   */\n    tag_20:\n        /* \"#utility.yul\":1469:1475   */\n      0x00\n        /* \"#utility.yul\":1518:1520   */\n      0x20\n        /* \"#utility.yul\":1506:1515   */\n      dup3\n        /* \"#utility.yul\":1497:1504   */\n      dup5\n        /* \"#utility.yul\":1493:1516   */\n      sub\n        /* \"#utility.yul\":1489:1521   */\n      slt\n        /* \"#utility.yul\":1486:1605   */\n      iszero\n      tag_224\n      jumpi\n        /* \"#utility.yul\":1524:1603   */\n      tag_225\n      tag_221\n      jump\t// in\n    tag_225:\n        /* \"#utility.yul\":1486:1605   */\n    tag_224:\n        /* \"#utility.yul\":1644:1645   */\n      0x00\n        /* \"#utility.yul\":1669:1722   */\n      tag_226\n        /* \"#utility.yul\":1714:1721   */\n      dup5\n        /* \"#utility.yul\":1705:1711   */\n      dup3\n        /* \"#utility.yul\":1694:1703   */\n      dup6\n        /* \"#utility.yul\":1690:1712   */\n      add\n        /* \"#utility.yul\":1669:1722   */\n      tag_214\n      jump\t// in\n    tag_226:\n        /* \"#utility.yul\":1659:1722   */\n      swap2\n      pop\n        /* \"#utility.yul\":1615:1732   */\n      pop\n        /* \"#utility.yul\":1410:1739   */\n      swap3\n      swap2\n      pop\n      pop\n      jump\t// out\n        /* \"#utility.yul\":1745:2219   */\n    tag_54:\n        /* \"#utility.yul\":1813:1819   */\n      0x00\n        /* \"#utility.yul\":1821:1827   */\n      dup1\n        /* \"#utility.yul\":1870:1872   */\n      0x40\n        /* \"#utility.yul\":1858:1867   */\n      dup4\n        /* \"#utility.yul\":1849:1856   */\n      dup6\n        /* \"#utility.yul\":1845:1868   */\n      sub\n        /* \"#utility.yul\":1841:1873   */\n      slt\n        /* \"#utility.yul\":1838:1957   */\n      iszero\n      tag_228\n      jumpi\n        /* \"#utility.yul\":1876:1955   */\n      tag_229\n      tag_221\n      jump\t// in\n    tag_229:\n        /* \"#utility.yul\":1838:1957   */\n    tag_228:\n        /* \"#utility.yul\":1996:1997   */\n      0x00\n        /* \"#utility.yul\":2021:2074   */\n      tag_230\n        /* \"#utility.yul\":2066:2073   */\n      dup6\n        /* \"#utility.yul\":2057:2063   */\n      dup3\n        /* \"#utility.yul\":2046:2055   */\n      dup7\n        /* \"#utility.yul\":2042:2064   */\n      add\n        /* \"#utility.yul\":2021:2074   */\n      tag_214\n      jump\t// in\n    tag_230:\n        /* \"#utility.yul\":2011:2074   */\n      swap3\n      pop\n        /* \"#utility.yul\":1967:2084   */\n      pop\n        /* \"#utility.yul\":2123:2125   */\n      0x20\n        /* \"#utility.yul\":2149:2202   */\n      tag_231\n        /* \"#utility.yul\":2194:2201   */\n      dup6\n        /* \"#utility.yul\":2185:2191   */\n      dup3\n        /* \"#utility.yul\":2174:2183   */\n      dup7\n        /* \"#utility.yul\":2170:2192   */\n      add\n        /* \"#utility.yul\":2149:2202   */\n      tag_204\n      jump\t// in\n    tag_231:\n        /* \"#utility.yul\":2139:2202   */\n      swap2\n      pop\n        /* \"#utility.yul\":2094:2212   */\n      pop\n        /* \"#utility.yul\":1745:2219   */\n      swap3\n      pop\n      swap3\n      swap1\n      pop\n      jump\t// out\n        /* \"#utility.yul\":2225:3856   */\n    tag_38:\n        /* \"#utility.yul\":2360:2366   */\n      0x00\n        /* \"#utility.yul\":2368:2374   */\n      dup1\n        /* \"#utility.yul\":2376:2382   */\n      0x00\n        /* \"#utility.yul\":2384:2390   */\n      dup1\n        /* \"#utility.yul\":2392:2398   */\n      0x00\n        /* \"#utility.yul\":2441:2444   */\n      0xa0\n        /* \"#utility.yul\":2429:2438   */\n      dup7\n        /* \"#utility.yul\":2420:2427   */\n      dup9\n        /* \"#utility.yul\":2416:2439   */\n      sub\n        /* \"#utility.yul\":2412:2445   */\n      slt\n        /* \"#utility.yul\":2409:2529   */\n      iszero\n      tag_233\n      jumpi\n        /* \"#utility.yul\":2448:2527   */\n      tag_234\n      tag_221\n      jump\t// in\n    tag_234:\n        /* \"#utility.yul\":2409:2529   */\n    tag_233:\n        /* \"#utility.yul\":2568:2569   */\n      0x00\n        /* \"#utility.yul\":2593:2646   */\n      tag_235\n        /* \"#utility.yul\":2638:2645   */\n      dup9\n        /* \"#utility.yul\":2629:2635   */\n      dup3\n        /* \"#utility.yul\":2618:2627   */\n      dup10\n        /* \"#utility.yul\":2614:2636   */\n      add\n        /* \"#utility.yul\":2593:2646   */\n      tag_214\n      jump\t// in\n    tag_235:\n        /* \"#utility.yul\":2583:2646   */\n      swap6\n      pop\n        /* \"#utility.yul\":2539:2656   */\n      pop\n        /* \"#utility.yul\":2723:2725   */\n      0x20\n        /* \"#utility.yul\":2712:2721   */\n      dup7\n        /* \"#utility.yul\":2708:2726   */\n      add\n        /* \"#utility.yul\":2695:2727   */\n      calldataload\n        /* \"#utility.yul\":2754:2772   */\n      0xffffffffffffffff\n        /* \"#utility.yul\":2746:2752   */\n      dup2\n        /* \"#utility.yul\":2743:2773   */\n      gt\n        /* \"#utility.yul\":2740:2857   */\n      iszero\n      tag_236\n      jumpi\n        /* \"#utility.yul\":2776:2855   */\n      tag_237\n      tag_238\n      jump\t// in\n    tag_237:\n        /* \"#utility.yul\":2740:2857   */\n    tag_236:\n        /* \"#utility.yul\":2881:2944   */\n      tag_239\n        /* \"#utility.yul\":2936:2943   */\n      dup9\n        /* \"#utility.yul\":2927:2933   */\n      dup3\n        /* \"#utility.yul\":2916:2925   */\n      dup10\n        /* \"#utility.yul\":2912:2934   */\n      add\n        /* \"#utility.yul\":2881:2944   */\n      tag_208\n      jump\t// in\n    tag_239:\n        /* \"#utility.yul\":2871:2944   */\n      swap5\n      pop\n        /* \"#utility.yul\":2666:2954   */\n      pop\n        /* \"#utility.yul\":3021:3023   */\n      0x40\n        /* \"#utility.yul\":3010:3019   */\n      dup7\n        /* \"#utility.yul\":3006:3024   */\n      add\n        /* \"#utility.yul\":2993:3025   */\n      calldataload\n        /* \"#utility.yul\":3052:3070   */\n      0xffffffffffffffff\n        /* \"#utility.yul\":3044:3050   */\n      dup2\n        /* \"#utility.yul\":3041:3071   */\n      gt\n        /* \"#utility.yul\":3038:3155   */\n      iszero\n      tag_240\n      jumpi\n        /* \"#utility.yul\":3074:3153   */\n      tag_241\n      tag_238\n      jump\t// in\n    tag_241:\n        /* \"#utility.yul\":3038:3155   */\n    tag_240:\n        /* \"#utility.yul\":3179:3242   */\n      tag_242\n        /* \"#utility.yul\":3234:3241   */\n      dup9\n        /* \"#utility.yul\":3225:3231   */\n      dup3\n        /* \"#utility.yul\":3214:3223   */\n      dup10\n        /* \"#utility.yul\":3210:3232   */\n      add\n        /* \"#utility.yul\":3179:3242   */\n      tag_208\n      jump\t// in\n    tag_242:\n        /* \"#utility.yul\":3169:3242   */\n      swap4\n      pop\n        /* \"#utility.yul\":2964:3252   */\n      pop\n        /* \"#utility.yul\":3319:3321   */\n      0x60\n        /* \"#utility.yul\":3308:3317   */\n      dup7\n        /* \"#utility.yul\":3304:3322   */\n      add\n        /* \"#utility.yul\":3291:3323   */\n      calldataload\n        /* \"#utility.yul\":3350:3368   */\n      0xffffffffffffffff\n        /* \"#utility.yul\":3342:3348   */\n      dup2\n        /* \"#utility.yul\":3339:3369   */\n      gt\n        /* \"#utility.yul\":3336:3453   */\n      iszero\n      tag_243\n      jumpi\n        /* \"#utility.yul\":3372:3451   */\n      tag_244\n      tag_238\n      jump\t// in\n    tag_244:\n        /* \"#utility.yul\":3336:3453   */\n    tag_243:\n        /* \"#utility.yul\":3477:3540   */\n      tag_245\n        /* \"#utility.yul\":3532:3539   */\n      dup9\n        /* \"#utility.yul\":3523:3529   */\n      dup3\n        /* \"#utility.yul\":3512:3521   */\n      dup10\n        /* \"#utility.yul\":3508:3530   */\n      add\n        /* \"#utility.yul\":3477:3540   */\n      tag_208\n      jump\t// in\n    tag_245:\n        /* \"#utility.yul\":3467:3540   */\n      swap3\n      pop\n        /* \"#utility.yul\":3262:3550   */\n      pop\n        /* \"#utility.yul\":3617:3620   */\n      0x80\n        /* \"#utility.yul\":3606:3615   */\n      dup7\n        /* \"#utility.yul\":3602:3621   */\n      add\n        /* \"#utility.yul\":3589:3622   */\n      calldataload\n        /* \"#utility.yul\":3649:3667   */\n      0xffffffffffffffff\n        /* \"#utility.yul\":3641:3647   */\n      dup2\n        /* \"#utility.yul\":3638:3668   */\n      gt\n        /* \"#utility.yul\":3635:3752   */\n      iszero\n      tag_246\n      jumpi\n        /* \"#utility.yul\":3671:3750   */\n      tag_247\n      tag_238\n      jump\t// in\n    tag_247:\n        /* \"#utility.yul\":3635:3752   */\n    tag_246:\n        /* \"#utility.yul\":3776:3839   */\n      tag_248\n        /* \"#utility.yul\":3831:3838   */\n      dup9\n        /* \"#utility.yul\":3822:3828   */\n      dup3\n        /* \"#utility.yul\":3811:3820   */\n      dup10\n        /* \"#utility.yul\":3807:3829   */\n      add\n        /* \"#utility.yul\":3776:3839   */\n      tag_208\n      jump\t// in\n    tag_248:\n        /* \"#utility.yul\":3766:3839   */\n      swap2\n      pop\n        /* \"#utility.yul\":3560:3849   */\n      pop\n        /* \"#utility.yul\":2225:3856   */\n      swap3\n      swap6\n      pop\n      swap3\n      swap6\n      swap1\n      swap4\n      pop\n      jump\t// out\n        /* \"#utility.yul\":3862:3971   */\n    tag_249:\n        /* \"#utility.yul\":3943:3964   */\n      tag_251\n        /* \"#utility.yul\":3958:3963   */\n      dup2\n        /* \"#utility.yul\":3943:3964   */\n      tag_252\n      jump\t// in\n    tag_251:\n        /* \"#utility.yul\":3938:3941   */\n      dup3\n        /* \"#utility.yul\":3931:3965   */\n      mstore\n        /* \"#utility.yul\":3862:3971   */\n      pop\n      pop\n      jump\t// out\n        /* \"#utility.yul\":3977:4343   */\n    tag_253:\n        /* \"#utility.yul\":4119:4122   */\n      0x00\n        /* \"#utility.yul\":4140:4207   */\n      tag_255\n        /* \"#utility.yul\":4204:4206   */\n      0x1f\n        /* \"#utility.yul\":4199:4202   */\n      dup4\n        /* \"#utility.yul\":4140:4207   */\n      tag_256\n      jump\t// in\n    tag_255:\n        /* \"#utility.yul\":4133:4207   */\n      swap2\n      pop\n        /* \"#utility.yul\":4216:4309   */\n      tag_257\n        /* \"#utility.yul\":4305:4308   */\n      dup3\n        /* \"#utility.yul\":4216:4309   */\n      tag_258\n      jump\t// in\n    tag_257:\n        /* \"#utility.yul\":4334:4336   */\n      0x20\n        /* \"#utility.yul\":4329:4332   */\n      dup3\n        /* \"#utility.yul\":4325:4337   */\n      add\n        /* \"#utility.yul\":4318:4337   */\n      swap1\n      pop\n        /* \"#utility.yul\":3977:4343   */\n      swap2\n      swap1\n      pop\n      jump\t// out\n        /* \"#utility.yul\":4349:4467   */\n    tag_259:\n        /* \"#utility.yul\":4436:4460   */\n      tag_261\n        /* \"#utility.yul\":4454:4459   */\n      dup2\n        /* \"#utility.yul\":4436:4460   */\n      tag_262\n      jump\t// in\n    tag_261:\n        /* \"#utility.yul\":4431:4434   */\n      dup3\n        /* \"#utility.yul\":4424:4461   */\n      mstore\n        /* \"#utility.yul\":4349:4467   */\n      pop\n      pop\n      jump\t// out\n        /* \"#utility.yul\":4473:4683   */\n    tag_35:\n        /* \"#utility.yul\":4560:4564   */\n      0x00\n        /* \"#utility.yul\":4598:4600   */\n      0x20\n        /* \"#utility.yul\":4587:4596   */\n      dup3\n        /* \"#utility.yul\":4583:4601   */\n      add\n        /* \"#utility.yul\":4575:4601   */\n      swap1\n      pop\n        /* \"#utility.yul\":4611:4676   */\n      tag_264\n        /* \"#utility.yul\":4673:4674   */\n      0x00\n        /* \"#utility.yul\":4662:4671   */\n      dup4\n        /* \"#utility.yul\":4658:4675   */\n      add\n        /* \"#utility.yul\":4649:4655   */\n      dup5\n        /* \"#utility.yul\":4611:4676   */\n      tag_249\n      jump\t// in\n    tag_264:\n        /* \"#utility.yul\":4473:4683   */\n      swap3\n      swap2\n      pop\n      pop\n      jump\t// out\n        /* \"#utility.yul\":4689:5108   */\n    tag_137:\n        /* \"#utility.yul\":4855:4859   */\n      0x00\n        /* \"#utility.yul\":4893:4895   */\n      0x20\n        /* \"#utility.yul\":4882:4891   */\n      dup3\n        /* \"#utility.yul\":4878:4896   */\n      add\n        /* \"#utility.yul\":4870:4896   */\n      swap1\n      pop\n        /* \"#utility.yul\":4942:4951   */\n      dup2\n        /* \"#utility.yul\":4936:4940   */\n      dup2\n        /* \"#utility.yul\":4932:4952   */\n      sub\n        /* \"#utility.yul\":4928:4929   */\n      0x00\n        /* \"#utility.yul\":4917:4926   */\n      dup4\n        /* \"#utility.yul\":4913:4930   */\n      add\n        /* \"#utility.yul\":4906:4953   */\n      mstore\n        /* \"#utility.yul\":4970:5101   */\n      tag_266\n        /* \"#utility.yul\":5096:5100   */\n      dup2\n        /* \"#utility.yul\":4970:5101   */\n      tag_253\n      jump\t// in\n    tag_266:\n        /* \"#utility.yul\":4962:5101   */\n      swap1\n      pop\n        /* \"#utility.yul\":4689:5108   */\n      swap2\n      swap1\n      pop\n      jump\t// out\n        /* \"#utility.yul\":5114:5336   */\n    tag_86:\n        /* \"#utility.yul\":5207:5211   */\n      0x00\n        /* \"#utility.yul\":5245:5247   */\n      0x20\n        /* \"#utility.yul\":5234:5243   */\n      dup3\n        /* \"#utility.yul\":5230:5248   */\n      add\n        /* \"#utility.yul\":5222:5248   */\n      swap1\n      pop\n        /* \"#utility.yul\":5258:5329   */\n      tag_268\n        /* \"#utility.yul\":5326:5327   */\n      0x00\n        /* \"#utility.yul\":5315:5324   */\n      dup4\n        /* \"#utility.yul\":5311:5328   */\n      add\n        /* \"#utility.yul\":5302:5308   */\n      dup5\n        /* \"#utility.yul\":5258:5329   */\n      tag_259\n      jump\t// in\n    tag_268:\n        /* \"#utility.yul\":5114:5336   */\n      swap3\n      swap2\n      pop\n      pop\n      jump\t// out\n        /* \"#utility.yul\":5342:5471   */\n    tag_198:\n        /* \"#utility.yul\":5376:5382   */\n      0x00\n        /* \"#utility.yul\":5403:5423   */\n      tag_270\n      tag_271\n      jump\t// in\n    tag_270:\n        /* \"#utility.yul\":5393:5423   */\n      swap1\n      pop\n        /* \"#utility.yul\":5432:5465   */\n      tag_272\n        /* \"#utility.yul\":5460:5464   */\n      dup3\n        /* \"#utility.yul\":5452:5458   */\n      dup3\n        /* \"#utility.yul\":5432:5465   */\n      tag_273\n      jump\t// in\n    tag_272:\n        /* \"#utility.yul\":5342:5471   */\n      swap2\n      swap1\n      pop\n      jump\t// out\n        /* \"#utility.yul\":5477:5552   */\n    tag_271:\n        /* \"#utility.yul\":5510:5516   */\n      0x00\n        /* \"#utility.yul\":5543:5545   */\n      0x40\n        /* \"#utility.yul\":5537:5546   */\n      mload\n        /* \"#utility.yul\":5527:5546   */\n      swap1\n      pop\n        /* \"#utility.yul\":5477:5552   */\n      swap1\n      jump\t// out\n        /* \"#utility.yul\":5558:5866   */\n    tag_197:\n        /* \"#utility.yul\":5620:5624   */\n      0x00\n        /* \"#utility.yul\":5710:5728   */\n      0xffffffffffffffff\n        /* \"#utility.yul\":5702:5708   */\n      dup3\n        /* \"#utility.yul\":5699:5729   */\n      gt\n        /* \"#utility.yul\":5696:5752   */\n      iszero\n      tag_276\n      jumpi\n        /* \"#utility.yul\":5732:5750   */\n      tag_277\n      tag_278\n      jump\t// in\n    tag_277:\n        /* \"#utility.yul\":5696:5752   */\n    tag_276:\n        /* \"#utility.yul\":5770:5799   */\n      tag_279\n        /* \"#utility.yul\":5792:5798   */\n      dup3\n        /* \"#utility.yul\":5770:5799   */\n      tag_280\n      jump\t// in\n    tag_279:\n        /* \"#utility.yul\":5762:5799   */\n      swap1\n      pop\n        /* \"#utility.yul\":5854:5858   */\n      0x20\n        /* \"#utility.yul\":5848:5852   */\n      dup2\n        /* \"#utility.yul\":5844:5859   */\n      add\n        /* \"#utility.yul\":5836:5859   */\n      swap1\n      pop\n        /* \"#utility.yul\":5558:5866   */\n      swap2\n      swap1\n      pop\n      jump\t// out\n        /* \"#utility.yul\":5872:6041   */\n    tag_256:\n        /* \"#utility.yul\":5956:5967   */\n      0x00\n        /* \"#utility.yul\":5990:5996   */\n      dup3\n        /* \"#utility.yul\":5985:5988   */\n      dup3\n        /* \"#utility.yul\":5978:5997   */\n      mstore\n        /* \"#utility.yul\":6030:6034   */\n      0x20\n        /* \"#utility.yul\":6025:6028   */\n      dup3\n        /* \"#utility.yul\":6021:6035   */\n      add\n        /* \"#utility.yul\":6006:6035   */\n      swap1\n      pop\n        /* \"#utility.yul\":5872:6041   */\n      swap3\n      swap2\n      pop\n      pop\n      jump\t// out\n        /* \"#utility.yul\":6047:6352   */\n    tag_113:\n        /* \"#utility.yul\":6087:6090   */\n      0x00\n        /* \"#utility.yul\":6106:6126   */\n      tag_283\n        /* \"#utility.yul\":6124:6125   */\n      dup3\n        /* \"#utility.yul\":6106:6126   */\n      tag_262\n      jump\t// in\n    tag_283:\n        /* \"#utility.yul\":6101:6126   */\n      swap2\n      pop\n        /* \"#utility.yul\":6140:6160   */\n      tag_284\n        /* \"#utility.yul\":6158:6159   */\n      dup4\n        /* \"#utility.yul\":6140:6160   */\n      tag_262\n      jump\t// in\n    tag_284:\n        /* \"#utility.yul\":6135:6160   */\n      swap3\n      pop\n        /* \"#utility.yul\":6294:6295   */\n      dup3\n        /* \"#utility.yul\":6226:6292   */\n      0xffffffffffffffffffffffffffffffffffffffffffffffffffffffffffffffff\n        /* \"#utility.yul\":6222:6296   */\n      sub\n        /* \"#utility.yul\":6219:6220   */\n      dup3\n        /* \"#utility.yul\":6216:6297   */\n      gt\n        /* \"#utility.yul\":6213:6320   */\n      iszero\n      tag_285\n      jumpi\n        /* \"#utility.yul\":6300:6318   */\n      tag_286\n      tag_287\n      jump\t// in\n    tag_286:\n        /* \"#utility.yul\":6213:6320   */\n    tag_285:\n        /* \"#utility.yul\":6344:6345   */\n      dup3\n        /* \"#utility.yul\":6341:6342   */\n      dup3\n        /* \"#utility.yul\":6337:6346   */\n      add\n        /* \"#utility.yul\":6330:6346   */\n      swap1\n      pop\n        /* \"#utility.yul\":6047:6352   */\n      swap3\n      swap2\n      pop\n      pop\n      jump\t// out\n        /* \"#utility.yul\":6358:6454   */\n    tag_288:\n        /* \"#utility.yul\":6395:6402   */\n      0x00\n        /* \"#utility.yul\":6424:6448   */\n      tag_290\n        /* \"#utility.yul\":6442:6447   */\n      dup3\n        /* \"#utility.yul\":6424:6448   */\n      tag_291\n      jump\t// in\n    tag_290:\n        /* \"#utility.yul\":6413:6448   */\n      swap1\n      pop\n        /* \"#utility.yul\":6358:6454   */\n      swap2\n      swap1\n      pop\n      jump\t// out\n        /* \"#utility.yul\":6460:6550   */\n    tag_252:\n        /* \"#utility.yul\":6494:6501   */\n      0x00\n        /* \"#utility.yul\":6537:6542   */\n      dup2\n        /* \"#utility.yul\":6530:6543   */\n      iszero\n        /* \"#utility.yul\":6523:6544   */\n      iszero\n        /* \"#utility.yul\":6512:6544   */\n      swap1\n      pop\n        /* \"#utility.yul\":6460:6550   */\n      swap2\n      swap1\n      pop\n      jump\t// out\n        /* \"#utility.yul\":6556:6682   */\n    tag_291:\n        /* \"#utility.yul\":6593:6600   */\n      0x00\n        /* \"#utility.yul\":6633:6675   */\n      0xffffffffffffffffffffffffffffffffffffffff\n        /* \"#utility.yul\":6626:6631   */\n      dup3\n        /* \"#utility.yul\":6622:6676   */\n      and\n        /* \"#utility.yul\":6611:6676   */\n      swap1\n      pop\n        /* \"#utility.yul\":6556:6682   */\n      swap2\n      swap1\n      pop\n      jump\t// out\n        /* \"#utility.yul\":6688:6765   */\n    tag_262:\n        /* \"#utility.yul\":6725:6732   */\n      0x00\n        /* \"#utility.yul\":6754:6759   */\n      dup2\n        /* \"#utility.yul\":6743:6759   */\n      swap1\n      pop\n        /* \"#utility.yul\":6688:6765   */\n      swap2\n      swap1\n      pop\n      jump\t// out\n        /* \"#utility.yul\":6771:6925   */\n    tag_203:\n        /* \"#utility.yul\":6855:6861   */\n      dup3\n        /* \"#utility.yul\":6850:6853   */\n      dup2\n        /* \"#utility.yul\":6845:6848   */\n      dup4\n        /* \"#utility.yul\":6832:6862   */\n      calldatacopy\n        /* \"#utility.yul\":6917:6918   */\n      0x00\n        /* \"#utility.yul\":6908:6914   */\n      dup4\n        /* \"#utility.yul\":6903:6906   */\n      dup4\n        /* \"#utility.yul\":6899:6915   */\n      add\n        /* \"#utility.yul\":6892:6919   */\n      mstore\n        /* \"#utility.yul\":6771:6925   */\n      pop\n      pop\n      pop\n      jump\t// out\n        /* \"#utility.yul\":6931:7251   */\n    tag_182:\n        /* \"#utility.yul\":6975:6981   */\n      0x00\n        /* \"#utility.yul\":7012:7013   */\n      0x02\n        /* \"#utility.yul\":7006:7010   */\n      dup3\n        /* \"#utility.yul\":7002:7014   */\n      div\n        /* \"#utility.yul\":6992:7014   */\n      swap1\n      pop\n        /* \"#utility.yul\":7059:7060   */\n      0x01\n        /* \"#utility.yul\":7053:7057   */\n      dup3\n        /* \"#utility.yul\":7049:7061   */\n      and\n        /* \"#utility.yul\":7080:7098   */\n      dup1\n        /* \"#utility.yul\":7070:7151   */\n      tag_297\n      jumpi\n        /* \"#utility.yul\":7136:7140   */\n      0x7f\n        /* \"#utility.yul\":7128:7134   */\n      dup3\n        /* \"#utility.yul\":7124:7141   */\n      and\n        /* \"#utility.yul\":7114:7141   */\n      swap2\n      pop\n        /* \"#utility.yul\":7070:7151   */\n    tag_297:\n        /* \"#utility.yul\":7198:7200   */\n      0x20\n        /* \"#utility.yul\":7190:7196   */\n      dup3\n        /* \"#utility.yul\":7187:7201   */\n      lt\n        /* \"#utility.yul\":7167:7185   */\n      dup2\n        /* \"#utility.yul\":7164:7202   */\n      eq\n        /* \"#utility.yul\":7161:7245   */\n      iszero\n      tag_298\n      jumpi\n        /* \"#utility.yul\":7217:7235   */\n      tag_299\n      tag_300\n      jump\t// in\n    tag_299:\n        /* \"#utility.yul\":7161:7245   */\n    tag_298:\n        /* \"#utility.yul\":6982:7251   */\n      pop\n        /* \"#utility.yul\":6931:7251   */\n      swap2\n      swap1\n      pop\n      jump\t// out\n        /* \"#utility.yul\":7257:7538   */\n    tag_273:\n        /* \"#utility.yul\":7340:7367   */\n      tag_302\n        /* \"#utility.yul\":7362:7366   */\n      dup3\n        /* \"#utility.yul\":7340:7367   */\n      tag_280\n      jump\t// in\n    tag_302:\n        /* \"#utility.yul\":7332:7338   */\n      dup2\n        /* \"#utility.yul\":7328:7368   */\n      add\n        /* \"#utility.yul\":7470:7476   */\n      dup2\n        /* \"#utility.yul\":7458:7468   */\n      dup2\n        /* \"#utility.yul\":7455:7477   */\n      lt\n        /* \"#utility.yul\":7434:7452   */\n      0xffffffffffffffff\n        /* \"#utility.yul\":7422:7432   */\n      dup3\n        /* \"#utility.yul\":7419:7453   */\n      gt\n        /* \"#utility.yul\":7416:7478   */\n      or\n        /* \"#utility.yul\":7413:7501   */\n      iszero\n      tag_303\n      jumpi\n        /* \"#utility.yul\":7481:7499   */\n      tag_304\n      tag_278\n      jump\t// in\n    tag_304:\n        /* \"#utility.yul\":7413:7501   */\n    tag_303:\n        /* \"#utility.yul\":7521:7531   */\n      dup1\n        /* \"#utility.yul\":7517:7519   */\n      0x40\n        /* \"#utility.yul\":7510:7532   */\n      mstore\n        /* \"#utility.yul\":7300:7538   */\n      pop\n        /* \"#utility.yul\":7257:7538   */\n      pop\n      pop\n      jump\t// out\n        /* \"#utility.yul\":7544:7724   */\n    tag_287:\n        /* \"#utility.yul\":7592:7669   */\n      0x4e487b7100000000000000000000000000000000000000000000000000000000\n        /* \"#utility.yul\":7589:7590   */\n      0x00\n        /* \"#utility.yul\":7582:7670   */\n      mstore\n        /* \"#utility.yul\":7689:7693   */\n      0x11\n        /* \"#utility.yul\":7686:7687   */\n      0x04\n        /* \"#utility.yul\":7679:7694   */\n      mstore\n        /* \"#utility.yul\":7713:7717   */\n      0x24\n        /* \"#utility.yul\":7710:7711   */\n      0x00\n        /* \"#utility.yul\":7703:7718   */\n      revert\n        /* \"#utility.yul\":7730:7910   */\n    tag_76:\n        /* \"#utility.yul\":7778:7855   */\n      0x4e487b7100000000000000000000000000000000000000000000000000000000\n        /* \"#utility.yul\":7775:7776   */\n      0x00\n        /* \"#utility.yul\":7768:7856   */\n      mstore\n        /* \"#utility.yul\":7875:7879   */\n      0x21\n        /* \"#utility.yul\":7872:7873   */\n      0x04\n        /* \"#utility.yul\":7865:7880   */\n      mstore\n        /* \"#utility.yul\":7899:7903   */\n      0x24\n        /* \"#utility.yul\":7896:7897   */\n      0x00\n        /* \"#utility.yul\":7889:7904   */\n      revert\n        /* \"#utility.yul\":7916:8096   */\n    tag_300:\n        /* \"#utility.yul\":7964:8041   */\n      0x4e487b7100000000000000000000000000000000000000000000000000000000\n        /* \"#utility.yul\":7961:7962   */\n      0x00\n        /* \"#utility.yul\":7954:8042   */\n      mstore\n        /* \"#utility.yul\":8061:8065   */\n      0x22\n        /* \"#utility.yul\":8058:8059   */\n      0x04\n        /* \"#utility.yul\":8051:8066   */\n      mstore\n        /* \"#utility.yul\":8085:8089   */\n      0x24\n        /* \"#utility.yul\":8082:8083   */\n      0x00\n        /* \"#utility.yul\":8075:8090   */\n      revert\n        /* \"#utility.yul\":8102:8282   */\n    tag_278:\n        /* \"#utility.yul\":8150:8227   */\n      0x4e487b7100000000000000000000000000000000000000000000000000000000\n        /* \"#utility.yul\":8147:8148   */\n      0x00\n        /* \"#utility.yul\":8140:8228   */\n      mstore\n        /* \"#utility.yul\":8247:8251   */\n      0x41\n        /* \"#utility.yul\":8244:8245   */\n      0x04\n        /* \"#utility.yul\":8237:8252   */\n      mstore\n        /* \"#utility.yul\":8271:8275   */\n      0x24\n        /* \"#utility.yul\":8268:8269   */\n      0x00\n        /* \"#utility.yul\":8261:8276   */\n      revert\n        /* \"#utility.yul\":8288:8405   */\n    tag_212:\n        /* \"#utility.yul\":8397:8398   */\n      0x00\n        /* \"#utility.yul\":8394:8395   */\n      dup1\n        /* \"#utility.yul\":8387:8399   */\n      revert\n        /* \"#utility.yul\":8411:8528   */\n    tag_201:\n        /* \"#utility.yul\":8520:8521   */\n      0x00\n        /* \"#utility.yul\":8517:8518   */\n      dup1\n        /* \"#utility.yul\":8510:8522   */\n      revert\n        /* \"#utility.yul\":8534:8651   */\n    tag_238:\n        /* \"#utility.yul\":8643:8644   */\n      0x00\n        /* \"#utility.yul\":8640:8641   */\n      dup1\n        /* \"#utility.yul\":8633:8645   */\n      revert\n        /* \"#utility.yul\":8657:8774   */\n    tag_221:\n        /* \"#utility.yul\":8766:8767   */\n      0x00\n        /* \"#utility.yul\":8763:8764   */\n      dup1\n        /* \"#utility.yul\":8756:8768   */\n      revert\n        /* \"#utility.yul\":8780:8882   */\n    tag_280:\n        /* \"#utility.yul\":8821:8827   */\n      0x00\n        /* \"#utility.yul\":8872:8874   */\n      0x1f\n        /* \"#utility.yul\":8868:8875   */\n      not\n        /* \"#utility.yul\":8863:8865   */\n      0x1f\n        /* \"#utility.yul\":8856:8861   */\n      dup4\n        /* \"#utility.yul\":8852:8866   */\n      add\n        /* \"#utility.yul\":8848:8876   */\n      and\n        /* \"#utility.yul\":8838:8876   */\n      swap1\n      pop\n        /* \"#utility.yul\":8780:8882   */\n      swap2\n      swap1\n      pop\n      jump\t// out\n        /* \"#utility.yul\":8888:9069   */\n    tag_258:\n        /* \"#utility.yul\":9028:9061   */\n      0x546869732061646472657373206973206e6f74206120526567756c61746f7200\n        /* \"#utility.yul\":9024:9025   */\n      0x00\n        /* \"#utility.yul\":9016:9022   */\n      dup3\n        /* \"#utility.yul\":9012:9026   */\n      add\n        /* \"#utility.yul\":9005:9062   */\n      mstore\n        /* \"#utility.yul\":8888:9069   */\n      pop\n      jump\t// out\n        /* \"#utility.yul\":9075:9197   */\n    tag_207:\n        /* \"#utility.yul\":9148:9172   */\n      tag_316\n        /* \"#utility.yul\":9166:9171   */\n      dup2\n        /* \"#utility.yul\":9148:9172   */\n      tag_288\n      jump\t// in\n    tag_316:\n        /* \"#utility.yul\":9141:9146   */\n      dup2\n        /* \"#utility.yul\":9138:9173   */\n      eq\n        /* \"#utility.yul\":9128:9191   */\n      tag_317\n      jumpi\n        /* \"#utility.yul\":9187:9188   */\n      0x00\n        /* \"#utility.yul\":9184:9185   */\n      dup1\n        /* \"#utility.yul\":9177:9189   */\n      revert\n        /* \"#utility.yul\":9128:9191   */\n    tag_317:\n        /* \"#utility.yul\":9075:9197   */\n      pop\n      jump\t// out\n        /* \"#utility.yul\":9203:9325   */\n    tag_217:\n        /* \"#utility.yul\":9276:9300   */\n      tag_319\n        /* \"#utility.yul\":9294:9299   */\n      dup2\n        /* \"#utility.yul\":9276:9300   */\n      tag_262\n      jump\t// in\n    tag_319:\n        /* \"#utility.yul\":9269:9274   */\n      dup2\n        /* \"#utility.yul\":9266:9301   */\n      eq\n        /* \"#utility.yul\":9256:9319   */\n      tag_320\n      jumpi\n        /* \"#utility.yul\":9315:9316   */\n      0x00\n        /* \"#utility.yul\":9312:9313   */\n      dup1\n        /* \"#utility.yul\":9305:9317   */\n      revert\n        /* \"#utility.yul\":9256:9319   */\n    tag_320:\n        /* \"#utility.yul\":9203:9325   */\n      pop\n      jump\t// out\n\n    auxdata: 0xa2646970667358221220a6f6e3e771da08a2c7185db75b5b300883432af9f7a5f95ccabc60c5b8a311a964736f6c63430008070033\n}\n",
				"bytecode": {
					"linkReferences": {},
					"object": "60806040523480156200001157600080fd5b5062000023336200009460201b60201c565b6200003433620000f560201b60201c565b62000045336200015660201b60201c565b33600360006101000a81548173ffffffffffffffffffffffffffffffffffffffff021916908373ffffffffffffffffffffffffffffffffffffffff160217905550600160048190555062000300565b620000af816000620001b760201b62000aca1790919060201c565b8073ffffffffffffffffffffffffffffffffffffffff167f6599d9dd7f97ccdc3d99ab507544f9f6ebfca20c63a7e3c018da49eeaefb164a60405160405180910390a250565b62000110816001620001b760201b62000aca1790919060201c565b8073ffffffffffffffffffffffffffffffffffffffff167f2860b5ba44f983f8f363ee6eeb3c24cbca3096803fbdd5129b9e253f01cac07660405160405180910390a250565b62000171816002620001b760201b62000aca1790919060201c565b8073ffffffffffffffffffffffffffffffffffffffff167f36179de14e9e7cbce2e0a64264f3eb82e80b70aac44ff098d9c6f70b1d7d659560405160405180910390a250565b600073ffffffffffffffffffffffffffffffffffffffff168173ffffffffffffffffffffffffffffffffffffffff161415620001f257600080fd5b6200020482826200026d60201b60201c565b156200020f57600080fd5b60018260000160008373ffffffffffffffffffffffffffffffffffffffff1673ffffffffffffffffffffffffffffffffffffffff16815260200190815260200160002060006101000a81548160ff0219169083151502179055505050565b60008073ffffffffffffffffffffffffffffffffffffffff168273ffffffffffffffffffffffffffffffffffffffff161415620002a957600080fd5b8260000160008373ffffffffffffffffffffffffffffffffffffffff1673ffffffffffffffffffffffffffffffffffffffff16815260200190815260200160002060009054906101000a900460ff16905092915050565b61150d80620003106000396000f3fe6080604052600436106100c25760003560e01c806354fc91691161007f578063ac63f3c711610059578063ac63f3c71461021d578063bbf8980314610246578063c204a0cf1461026f578063d1e4fd0f14610286576100c2565b806354fc9169146101a057806381612e4f146101dd5780638e2b65d7146101f4576100c2565b80630c5484d7146100c75780631b90c4be146100f05780631beadbe2146101195780632a55feec146101305780633221a13e1461016d57806341c0e1b514610189575b600080fd5b3480156100d357600080fd5b506100ee60048036038101906100e99190611039565b6102c3565b005b3480156100fc57600080fd5b506101176004803603810190610112919061100c565b610402565b005b34801561012557600080fd5b5061012e610420565b005b34801561013c57600080fd5b506101576004803603810190610152919061100c565b61042b565b60405161016491906111d2565b60405180910390f35b610187600480360381019061018291906110a6565b610448565b005b34801561019557600080fd5b5061019e610767565b005b3480156101ac57600080fd5b506101c760048036038101906101c2919061100c565b6107fa565b6040516101d491906111d2565b60405180910390f35b3480156101e957600080fd5b506101f2610817565b005b34801561020057600080fd5b5061021b60048036038101906102169190611066565b610822565b005b34801561022957600080fd5b50610244600480360381019061023f919061100c565b610a66565b005b34801561025257600080fd5b5061026d6004803603810190610268919061100c565b610a84565b005b34801561027b57600080fd5b50610284610aa2565b005b34801561029257600080fd5b506102ad60048036038101906102a8919061100c565b610aad565b6040516102ba91906111d2565b60405180910390f35b80600060068111156102d8576102d76113ce565b5b6005600083815260200190815260200160002060090160009054906101000a900460ff16600681111561030e5761030d6113ce565b5b1461031857600080fd5b816005600082815260200190815260200160002060020160009054906101000a900473ffffffffffffffffffffffffffffffffffffffff1673ffffffffffffffffffffffffffffffffffffffff163373ffffffffffffffffffffffffffffffffffffffff161461038757600080fd5b60016005600085815260200190815260200160002060090160006101000a81548160ff021916908360068111156103c1576103c06113ce565b5b02179055507f06974b56d21c283fee3ed0905f648b2e17cb684cc8dc972ea99704bea957814e836040516103f5919061120d565b60405180910390a1505050565b61040b33610aad565b61041457600080fd5b61041d81610b76565b50565b61042933610bd0565b565b6000610441826000610c2a90919063ffffffff16565b9050919050565b61045133610aad565b61045a57600080fd5b60405180610180016040528060045481526020018681526020013373ffffffffffffffffffffffffffffffffffffffff1681526020013373ffffffffffffffffffffffffffffffffffffffff16815260200185815260200184815260200183815260200182815260200160008152602001600060068111156104df576104de6113ce565b5b8152602001600073ffffffffffffffffffffffffffffffffffffffff168152602001600073ffffffffffffffffffffffffffffffffffffffff1681525060056000878152602001908152602001600020600082015181600001556020820151816001015560408201518160020160006101000a81548173ffffffffffffffffffffffffffffffffffffffff021916908373ffffffffffffffffffffffffffffffffffffffff16021790555060608201518160030160006101000a81548173ffffffffffffffffffffffffffffffffffffffff021916908373ffffffffffffffffffffffffffffffffffffffff16021790555060808201518160040190805190602001906105ed929190610ecf565b5060a082015181600501908051906020019061060a929190610ecf565b5060c0820151816006019080519060200190610627929190610ecf565b5060e0820151816007019080519060200190610644929190610ecf565b5061010082015181600801556101208201518160090160006101000a81548160ff0219169083600681111561067c5761067b6113ce565b5b02179055506101408201518160090160016101000a81548173ffffffffffffffffffffffffffffffffffffffff021916908373ffffffffffffffffffffffffffffffffffffffff16021790555061016082015181600a0160006101000a81548173ffffffffffffffffffffffffffffffffffffffff021916908373ffffffffffffffffffffffffffffffffffffffff1602179055509050506001600454610723919061128f565b6004819055507f9d1715437821cd9a90cba5d1a68995c308d9ad9afc754ed9a1cff429760796e685604051610758919061120d565b60405180910390a15050505050565b600360009054906101000a900473ffffffffffffffffffffffffffffffffffffffff1673ffffffffffffffffffffffffffffffffffffffff163373ffffffffffffffffffffffffffffffffffffffff1614156107f857600360009054906101000a900473ffffffffffffffffffffffffffffffffffffffff1673ffffffffffffffffffffffffffffffffffffffff16ff5b565b6000610810826001610c2a90919063ffffffff16565b9050919050565b61082033610cbc565b565b8160016006811115610837576108366113ce565b5b6005600083815260200190815260200160002060090160009054906101000a900460ff16600681111561086d5761086c6113ce565b5b1461087757600080fd5b61088033610aad565b61088957600080fd5b826005600082815260200190815260200160002060020160009054906101000a900473ffffffffffffffffffffffffffffffffffffffff1673ffffffffffffffffffffffffffffffffffffffff163373ffffffffffffffffffffffffffffffffffffffff16146108f857600080fd5b610901836107fa565b610940576040517f08c379a0000000000000000000000000000000000000000000000000000000008152600401610937906111ed565b60405180910390fd5b826005600086815260200190815260200160002060090160016101000a81548173ffffffffffffffffffffffffffffffffffffffff021916908373ffffffffffffffffffffffffffffffffffffffff16021790555060026005600086815260200190815260200160002060090160006101000a81548160ff021916908360068111156109cf576109ce6113ce565b5b0217905550826005600086815260200190815260200160002060020160006101000a81548173ffffffffffffffffffffffffffffffffffffffff021916908373ffffffffffffffffffffffffffffffffffffffff1602179055507ff12328dacf931f6c8c8c904ea8b9791d681613ed5ec258dce2866c311795c9ea84604051610a58919061120d565b60405180910390a150505050565b610a6f336107fa565b610a7857600080fd5b610a8181610d16565b50565b610a8d3361042b565b610a9657600080fd5b610a9f81610d70565b50565b610aab33610dca565b565b6000610ac3826002610c2a90919063ffffffff16565b9050919050565b600073ffffffffffffffffffffffffffffffffffffffff168173ffffffffffffffffffffffffffffffffffffffff161415610b0457600080fd5b610b0e8282610c2a565b15610b1857600080fd5b60018260000160008373ffffffffffffffffffffffffffffffffffffffff1673ffffffffffffffffffffffffffffffffffffffff16815260200190815260200160002060006101000a81548160ff0219169083151502179055505050565b610b8a816002610aca90919063ffffffff16565b8073ffffffffffffffffffffffffffffffffffffffff167f36179de14e9e7cbce2e0a64264f3eb82e80b70aac44ff098d9c6f70b1d7d659560405160405180910390a250565b610be4816001610e2490919063ffffffff16565b8073ffffffffffffffffffffffffffffffffffffffff167fc8ecc453f78c13ccc7596603b61935f29b99dc15bb91b91647e1ccf2469ad00a60405160405180910390a250565b60008073ffffffffffffffffffffffffffffffffffffffff168273ffffffffffffffffffffffffffffffffffffffff161415610c6557600080fd5b8260000160008373ffffffffffffffffffffffffffffffffffffffff1673ffffffffffffffffffffffffffffffffffffffff16815260200190815260200160002060009054906101000a900460ff16905092915050565b610cd0816002610e2490919063ffffffff16565b8073ffffffffffffffffffffffffffffffffffffffff167fa9a482e6375ef89327f2177c114191d0b88502ca4a7b961d211cc45786ee510760405160405180910390a250565b610d2a816001610aca90919063ffffffff16565b8073ffffffffffffffffffffffffffffffffffffffff167f2860b5ba44f983f8f363ee6eeb3c24cbca3096803fbdd5129b9e253f01cac07660405160405180910390a250565b610d84816000610aca90919063ffffffff16565b8073ffffffffffffffffffffffffffffffffffffffff167f6599d9dd7f97ccdc3d99ab507544f9f6ebfca20c63a7e3c018da49eeaefb164a60405160405180910390a250565b610dde816000610e2490919063ffffffff16565b8073ffffffffffffffffffffffffffffffffffffffff167f83fd4cbc7bc934bdfbae994ac6e72fcc0e50abd6995c1949520e761ba650d58260405160405180910390a250565b600073ffffffffffffffffffffffffffffffffffffffff168173ffffffffffffffffffffffffffffffffffffffff161415610e5e57600080fd5b610e688282610c2a565b610e7157600080fd5b60008260000160008373ffffffffffffffffffffffffffffffffffffffff1673ffffffffffffffffffffffffffffffffffffffff16815260200190815260200160002060006101000a81548160ff0219169083151502179055505050565b828054610edb9061133c565b90600052602060002090601f016020900481019282610efd5760008555610f44565b82601f10610f1657805160ff1916838001178555610f44565b82800160010185558215610f44579182015b82811115610f43578251825591602001919060010190610f28565b5b509050610f519190610f55565b5090565b5b80821115610f6e576000816000905550600101610f56565b5090565b6000610f85610f808461124d565b611228565b905082815260208101848484011115610fa157610fa0611460565b5b610fac84828561132d565b509392505050565b600081359050610fc3816114a9565b92915050565b600082601f830112610fde57610fdd61145b565b5b8135610fee848260208601610f72565b91505092915050565b600081359050611006816114c0565b92915050565b6000602082840312156110225761102161146a565b5b600061103084828501610fb4565b91505092915050565b60006020828403121561104f5761104e61146a565b5b600061105d84828501610ff7565b91505092915050565b6000806040838503121561107d5761107c61146a565b5b600061108b85828601610ff7565b925050602061109c85828601610fb4565b9150509250929050565b600080600080600060a086880312156110c2576110c161146a565b5b60006110d088828901610ff7565b955050602086013567ffffffffffffffff8111156110f1576110f0611465565b5b6110fd88828901610fc9565b945050604086013567ffffffffffffffff81111561111e5761111d611465565b5b61112a88828901610fc9565b935050606086013567ffffffffffffffff81111561114b5761114a611465565b5b61115788828901610fc9565b925050608086013567ffffffffffffffff81111561117857611177611465565b5b61118488828901610fc9565b9150509295509295909350565b61119a816112f7565b82525050565b60006111ad601f8361127e565b91506111b882611480565b602082019050919050565b6111cc81611323565b82525050565b60006020820190506111e76000830184611191565b92915050565b60006020820190508181036000830152611206816111a0565b9050919050565b600060208201905061122260008301846111c3565b92915050565b6000611232611243565b905061123e828261136e565b919050565b6000604051905090565b600067ffffffffffffffff8211156112685761126761142c565b5b6112718261146f565b9050602081019050919050565b600082825260208201905092915050565b600061129a82611323565b91506112a583611323565b9250827fffffffffffffffffffffffffffffffffffffffffffffffffffffffffffffffff038211156112da576112d961139f565b5b828201905092915050565b60006112f082611303565b9050919050565b60008115159050919050565b600073ffffffffffffffffffffffffffffffffffffffff82169050919050565b6000819050919050565b82818337600083830152505050565b6000600282049050600182168061135457607f821691505b60208210811415611368576113676113fd565b5b50919050565b6113778261146f565b810181811067ffffffffffffffff821117156113965761139561142c565b5b80604052505050565b7f4e487b7100000000000000000000000000000000000000000000000000000000600052601160045260246000fd5b7f4e487b7100000000000000000000000000000000000000000000000000000000600052602160045260246000fd5b7f4e487b7100000000000000000000000000000000000000000000000000000000600052602260045260246000fd5b7f4e487b7100000000000000000000000000000000000000000000000000000000600052604160045260246000fd5b600080fd5b600080fd5b600080fd5b600080fd5b6000601f19601f8301169050919050565b7f546869732061646472657373206973206e6f74206120526567756c61746f7200600082015250565b6114b2816112e5565b81146114bd57600080fd5b50565b6114c981611323565b81146114d457600080fd5b5056fea2646970667358221220a6f6e3e771da08a2c7185db75b5b300883432af9f7a5f95ccabc60c5b8a311a964736f6c63430008070033",
					"opcodes": "PUSH1 0x80 PUSH1 0x40 MSTORE CALLVALUE DUP1 ISZERO PUSH3 0x11 JUMPI PUSH1 0x0 DUP1 REVERT JUMPDEST POP PUSH3 0x23 CALLER PUSH3 0x94 PUSH1 0x20 SHL PUSH1 0x20 SHR JUMP JUMPDEST PUSH3 0x34 CALLER PUSH3 0xF5 PUSH1 0x20 SHL PUSH1 0x20 SHR JUMP JUMPDEST PUSH3 0x45 CALLER PUSH3 0x156 PUSH1 0x20 SHL PUSH1 0x20 SHR JUMP JUMPDEST CALLER PUSH1 0x3 PUSH1 0x0 PUSH2 0x100 EXP DUP2 SLOAD DUP2 PUSH20 0xFFFFFFFFFFFFFFFFFFFFFFFFFFFFFFFFFFFFFFFF MUL NOT AND SWAP1 DUP4 PUSH20 0xFFFFFFFFFFFFFFFFFFFFFFFFFFFFFFFFFFFFFFFF AND MUL OR SWAP1 SSTORE POP PUSH1 0x1 PUSH1 0x4 DUP2 SWAP1 SSTORE POP PUSH3 0x300 JUMP JUMPDEST PUSH3 0xAF DUP2 PUSH1 0x0 PUSH3 0x1B7 PUSH1 0x20 SHL PUSH3 0xACA OR SWAP1 SWAP2 SWAP1 PUSH1 0x20 SHR JUMP JUMPDEST DUP1 PUSH20 0xFFFFFFFFFFFFFFFFFFFFFFFFFFFFFFFFFFFFFFFF AND PUSH32 0x6599D9DD7F97CCDC3D99AB507544F9F6EBFCA20C63A7E3C018DA49EEAEFB164A PUSH1 0x40 MLOAD PUSH1 0x40 MLOAD DUP1 SWAP2 SUB SWAP1 LOG2 POP JUMP JUMPDEST PUSH3 0x110 DUP2 PUSH1 0x1 PUSH3 0x1B7 PUSH1 0x20 SHL PUSH3 0xACA OR SWAP1 SWAP2 SWAP1 PUSH1 0x20 SHR JUMP JUMPDEST DUP1 PUSH20 0xFFFFFFFFFFFFFFFFFFFFFFFFFFFFFFFFFFFFFFFF AND PUSH32 0x2860B5BA44F983F8F363EE6EEB3C24CBCA3096803FBDD5129B9E253F01CAC076 PUSH1 0x40 MLOAD PUSH1 0x40 MLOAD DUP1 SWAP2 SUB SWAP1 LOG2 POP JUMP JUMPDEST PUSH3 0x171 DUP2 PUSH1 0x2 PUSH3 0x1B7 PUSH1 0x20 SHL PUSH3 0xACA OR SWAP1 SWAP2 SWAP1 PUSH1 0x20 SHR JUMP JUMPDEST DUP1 PUSH20 0xFFFFFFFFFFFFFFFFFFFFFFFFFFFFFFFFFFFFFFFF AND PUSH32 0x36179DE14E9E7CBCE2E0A64264F3EB82E80B70AAC44FF098D9C6F70B1D7D6595 PUSH1 0x40 MLOAD PUSH1 0x40 MLOAD DUP1 SWAP2 SUB SWAP1 LOG2 POP JUMP JUMPDEST PUSH1 0x0 PUSH20 0xFFFFFFFFFFFFFFFFFFFFFFFFFFFFFFFFFFFFFFFF AND DUP2 PUSH20 0xFFFFFFFFFFFFFFFFFFFFFFFFFFFFFFFFFFFFFFFF AND EQ ISZERO PUSH3 0x1F2 JUMPI PUSH1 0x0 DUP1 REVERT JUMPDEST PUSH3 0x204 DUP3 DUP3 PUSH3 0x26D PUSH1 0x20 SHL PUSH1 0x20 SHR JUMP JUMPDEST ISZERO PUSH3 0x20F JUMPI PUSH1 0x0 DUP1 REVERT JUMPDEST PUSH1 0x1 DUP3 PUSH1 0x0 ADD PUSH1 0x0 DUP4 PUSH20 0xFFFFFFFFFFFFFFFFFFFFFFFFFFFFFFFFFFFFFFFF AND PUSH20 0xFFFFFFFFFFFFFFFFFFFFFFFFFFFFFFFFFFFFFFFF AND DUP2 MSTORE PUSH1 0x20 ADD SWAP1 DUP2 MSTORE PUSH1 0x20 ADD PUSH1 0x0 KECCAK256 PUSH1 0x0 PUSH2 0x100 EXP DUP2 SLOAD DUP2 PUSH1 0xFF MUL NOT AND SWAP1 DUP4 ISZERO ISZERO MUL OR SWAP1 SSTORE POP POP POP JUMP JUMPDEST PUSH1 0x0 DUP1 PUSH20 0xFFFFFFFFFFFFFFFFFFFFFFFFFFFFFFFFFFFFFFFF AND DUP3 PUSH20 0xFFFFFFFFFFFFFFFFFFFFFFFFFFFFFFFFFFFFFFFF AND EQ ISZERO PUSH3 0x2A9 JUMPI PUSH1 0x0 DUP1 REVERT JUMPDEST DUP3 PUSH1 0x0 ADD PUSH1 0x0 DUP4 PUSH20 0xFFFFFFFFFFFFFFFFFFFFFFFFFFFFFFFFFFFFFFFF AND PUSH20 0xFFFFFFFFFFFFFFFFFFFFFFFFFFFFFFFFFFFFFFFF AND DUP2 MSTORE PUSH1 0x20 ADD SWAP1 DUP2 MSTORE PUSH1 0x20 ADD PUSH1 0x0 KECCAK256 PUSH1 0x0 SWAP1 SLOAD SWAP1 PUSH2 0x100 EXP SWAP1 DIV PUSH1 0xFF AND SWAP1 POP SWAP3 SWAP2 POP POP JUMP JUMPDEST PUSH2 0x150D DUP1 PUSH3 0x310 PUSH1 0x0 CODECOPY PUSH1 0x0 RETURN INVALID PUSH1 0x80 PUSH1 0x40 MSTORE PUSH1 0x4 CALLDATASIZE LT PUSH2 0xC2 JUMPI PUSH1 0x0 CALLDATALOAD PUSH1 0xE0 SHR DUP1 PUSH4 0x54FC9169 GT PUSH2 0x7F JUMPI DUP1 PUSH4 0xAC63F3C7 GT PUSH2 0x59 JUMPI DUP1 PUSH4 0xAC63F3C7 EQ PUSH2 0x21D JUMPI DUP1 PUSH4 0xBBF89803 EQ PUSH2 0x246 JUMPI DUP1 PUSH4 0xC204A0CF EQ PUSH2 0x26F JUMPI DUP1 PUSH4 0xD1E4FD0F EQ PUSH2 0x286 JUMPI PUSH2 0xC2 JUMP JUMPDEST DUP1 PUSH4 0x54FC9169 EQ PUSH2 0x1A0 JUMPI DUP1 PUSH4 0x81612E4F EQ PUSH2 0x1DD JUMPI DUP1 PUSH4 0x8E2B65D7 EQ PUSH2 0x1F4 JUMPI PUSH2 0xC2 JUMP JUMPDEST DUP1 PUSH4 0xC5484D7 EQ PUSH2 0xC7 JUMPI DUP1 PUSH4 0x1B90C4BE EQ PUSH2 0xF0 JUMPI DUP1 PUSH4 0x1BEADBE2 EQ PUSH2 0x119 JUMPI DUP1 PUSH4 0x2A55FEEC EQ PUSH2 0x130 JUMPI DUP1 PUSH4 0x3221A13E EQ PUSH2 0x16D JUMPI DUP1 PUSH4 0x41C0E1B5 EQ PUSH2 0x189 JUMPI JUMPDEST PUSH1 0x0 DUP1 REVERT JUMPDEST CALLVALUE DUP1 ISZERO PUSH2 0xD3 JUMPI PUSH1 0x0 DUP1 REVERT JUMPDEST POP PUSH2 0xEE PUSH1 0x4 DUP1 CALLDATASIZE SUB DUP2 ADD SWAP1 PUSH2 0xE9 SWAP2 SWAP1 PUSH2 0x1039 JUMP JUMPDEST PUSH2 0x2C3 JUMP JUMPDEST STOP JUMPDEST CALLVALUE DUP1 ISZERO PUSH2 0xFC JUMPI PUSH1 0x0 DUP1 REVERT JUMPDEST POP PUSH2 0x117 PUSH1 0x4 DUP1 CALLDATASIZE SUB DUP2 ADD SWAP1 PUSH2 0x112 SWAP2 SWAP1 PUSH2 0x100C JUMP JUMPDEST PUSH2 0x402 JUMP JUMPDEST STOP JUMPDEST CALLVALUE DUP1 ISZERO PUSH2 0x125 JUMPI PUSH1 0x0 DUP1 REVERT JUMPDEST POP PUSH2 0x12E PUSH2 0x420 JUMP JUMPDEST STOP JUMPDEST CALLVALUE DUP1 ISZERO PUSH2 0x13C JUMPI PUSH1 0x0 DUP1 REVERT JUMPDEST POP PUSH2 0x157 PUSH1 0x4 DUP1 CALLDATASIZE SUB DUP2 ADD SWAP1 PUSH2 0x152 SWAP2 SWAP1 PUSH2 0x100C JUMP JUMPDEST PUSH2 0x42B JUMP JUMPDEST PUSH1 0x40 MLOAD PUSH2 0x164 SWAP2 SWAP1 PUSH2 0x11D2 JUMP JUMPDEST PUSH1 0x40 MLOAD DUP1 SWAP2 SUB SWAP1 RETURN JUMPDEST PUSH2 0x187 PUSH1 0x4 DUP1 CALLDATASIZE SUB DUP2 ADD SWAP1 PUSH2 0x182 SWAP2 SWAP1 PUSH2 0x10A6 JUMP JUMPDEST PUSH2 0x448 JUMP JUMPDEST STOP JUMPDEST CALLVALUE DUP1 ISZERO PUSH2 0x195 JUMPI PUSH1 0x0 DUP1 REVERT JUMPDEST POP PUSH2 0x19E PUSH2 0x767 JUMP JUMPDEST STOP JUMPDEST CALLVALUE DUP1 ISZERO PUSH2 0x1AC JUMPI PUSH1 0x0 DUP1 REVERT JUMPDEST POP PUSH2 0x1C7 PUSH1 0x4 DUP1 CALLDATASIZE SUB DUP2 ADD SWAP1 PUSH2 0x1C2 SWAP2 SWAP1 PUSH2 0x100C JUMP JUMPDEST PUSH2 0x7FA JUMP JUMPDEST PUSH1 0x40 MLOAD PUSH2 0x1D4 SWAP2 SWAP1 PUSH2 0x11D2 JUMP JUMPDEST PUSH1 0x40 MLOAD DUP1 SWAP2 SUB SWAP1 RETURN JUMPDEST CALLVALUE DUP1 ISZERO PUSH2 0x1E9 JUMPI PUSH1 0x0 DUP1 REVERT JUMPDEST POP PUSH2 0x1F2 PUSH2 0x817 JUMP JUMPDEST STOP JUMPDEST CALLVALUE DUP1 ISZERO PUSH2 0x200 JUMPI PUSH1 0x0 DUP1 REVERT JUMPDEST POP PUSH2 0x21B PUSH1 0x4 DUP1 CALLDATASIZE SUB DUP2 ADD SWAP1 PUSH2 0x216 SWAP2 SWAP1 PUSH2 0x1066 JUMP JUMPDEST PUSH2 0x822 JUMP JUMPDEST STOP JUMPDEST CALLVALUE DUP1 ISZERO PUSH2 0x229 JUMPI PUSH1 0x0 DUP1 REVERT JUMPDEST POP PUSH2 0x244 PUSH1 0x4 DUP1 CALLDATASIZE SUB DUP2 ADD SWAP1 PUSH2 0x23F SWAP2 SWAP1 PUSH2 0x100C JUMP JUMPDEST PUSH2 0xA66 JUMP JUMPDEST STOP JUMPDEST CALLVALUE DUP1 ISZERO PUSH2 0x252 JUMPI PUSH1 0x0 DUP1 REVERT JUMPDEST POP PUSH2 0x26D PUSH1 0x4 DUP1 CALLDATASIZE SUB DUP2 ADD SWAP1 PUSH2 0x268 SWAP2 SWAP1 PUSH2 0x100C JUMP JUMPDEST PUSH2 0xA84 JUMP JUMPDEST STOP JUMPDEST CALLVALUE DUP1 ISZERO PUSH2 0x27B JUMPI PUSH1 0x0 DUP1 REVERT JUMPDEST POP PUSH2 0x284 PUSH2 0xAA2 JUMP JUMPDEST STOP JUMPDEST CALLVALUE DUP1 ISZERO PUSH2 0x292 JUMPI PUSH1 0x0 DUP1 REVERT JUMPDEST POP PUSH2 0x2AD PUSH1 0x4 DUP1 CALLDATASIZE SUB DUP2 ADD SWAP1 PUSH2 0x2A8 SWAP2 SWAP1 PUSH2 0x100C JUMP JUMPDEST PUSH2 0xAAD JUMP JUMPDEST PUSH1 0x40 MLOAD PUSH2 0x2BA SWAP2 SWAP1 PUSH2 0x11D2 JUMP JUMPDEST PUSH1 0x40 MLOAD DUP1 SWAP2 SUB SWAP1 RETURN JUMPDEST DUP1 PUSH1 0x0 PUSH1 0x6 DUP2 GT ISZERO PUSH2 0x2D8 JUMPI PUSH2 0x2D7 PUSH2 0x13CE JUMP JUMPDEST JUMPDEST PUSH1 0x5 PUSH1 0x0 DUP4 DUP2 MSTORE PUSH1 0x20 ADD SWAP1 DUP2 MSTORE PUSH1 0x20 ADD PUSH1 0x0 KECCAK256 PUSH1 0x9 ADD PUSH1 0x0 SWAP1 SLOAD SWAP1 PUSH2 0x100 EXP SWAP1 DIV PUSH1 0xFF AND PUSH1 0x6 DUP2 GT ISZERO PUSH2 0x30E JUMPI PUSH2 0x30D PUSH2 0x13CE JUMP JUMPDEST JUMPDEST EQ PUSH2 0x318 JUMPI PUSH1 0x0 DUP1 REVERT JUMPDEST DUP2 PUSH1 0x5 PUSH1 0x0 DUP3 DUP2 MSTORE PUSH1 0x20 ADD SWAP1 DUP2 MSTORE PUSH1 0x20 ADD PUSH1 0x0 KECCAK256 PUSH1 0x2 ADD PUSH1 0x0 SWAP1 SLOAD SWAP1 PUSH2 0x100 EXP SWAP1 DIV PUSH20 0xFFFFFFFFFFFFFFFFFFFFFFFFFFFFFFFFFFFFFFFF AND PUSH20 0xFFFFFFFFFFFFFFFFFFFFFFFFFFFFFFFFFFFFFFFF AND CALLER PUSH20 0xFFFFFFFFFFFFFFFFFFFFFFFFFFFFFFFFFFFFFFFF AND EQ PUSH2 0x387 JUMPI PUSH1 0x0 DUP1 REVERT JUMPDEST PUSH1 0x1 PUSH1 0x5 PUSH1 0x0 DUP6 DUP2 MSTORE PUSH1 0x20 ADD SWAP1 DUP2 MSTORE PUSH1 0x20 ADD PUSH1 0x0 KECCAK256 PUSH1 0x9 ADD PUSH1 0x0 PUSH2 0x100 EXP DUP2 SLOAD DUP2 PUSH1 0xFF MUL NOT AND SWAP1 DUP4 PUSH1 0x6 DUP2 GT ISZERO PUSH2 0x3C1 JUMPI PUSH2 0x3C0 PUSH2 0x13CE JUMP JUMPDEST JUMPDEST MUL OR SWAP1 SSTORE POP PUSH32 0x6974B56D21C283FEE3ED0905F648B2E17CB684CC8DC972EA99704BEA957814E DUP4 PUSH1 0x40 MLOAD PUSH2 0x3F5 SWAP2 SWAP1 PUSH2 0x120D JUMP JUMPDEST PUSH1 0x40 MLOAD DUP1 SWAP2 SUB SWAP1 LOG1 POP POP POP JUMP JUMPDEST PUSH2 0x40B CALLER PUSH2 0xAAD JUMP JUMPDEST PUSH2 0x414 JUMPI PUSH1 0x0 DUP1 REVERT JUMPDEST PUSH2 0x41D DUP2 PUSH2 0xB76 JUMP JUMPDEST POP JUMP JUMPDEST PUSH2 0x429 CALLER PUSH2 0xBD0 JUMP JUMPDEST JUMP JUMPDEST PUSH1 0x0 PUSH2 0x441 DUP3 PUSH1 0x0 PUSH2 0xC2A SWAP1 SWAP2 SWAP1 PUSH4 0xFFFFFFFF AND JUMP JUMPDEST SWAP1 POP SWAP2 SWAP1 POP JUMP JUMPDEST PUSH2 0x451 CALLER PUSH2 0xAAD JUMP JUMPDEST PUSH2 0x45A JUMPI PUSH1 0x0 DUP1 REVERT JUMPDEST PUSH1 0x40 MLOAD DUP1 PUSH2 0x180 ADD PUSH1 0x40 MSTORE DUP1 PUSH1 0x4 SLOAD DUP2 MSTORE PUSH1 0x20 ADD DUP7 DUP2 MSTORE PUSH1 0x20 ADD CALLER PUSH20 0xFFFFFFFFFFFFFFFFFFFFFFFFFFFFFFFFFFFFFFFF AND DUP2 MSTORE PUSH1 0x20 ADD CALLER PUSH20 0xFFFFFFFFFFFFFFFFFFFFFFFFFFFFFFFFFFFFFFFF AND DUP2 MSTORE PUSH1 0x20 ADD DUP6 DUP2 MSTORE PUSH1 0x20 ADD DUP5 DUP2 MSTORE PUSH1 0x20 ADD DUP4 DUP2 MSTORE PUSH1 0x20 ADD DUP3 DUP2 MSTORE PUSH1 0x20 ADD PUSH1 0x0 DUP2 MSTORE PUSH1 0x20 ADD PUSH1 0x0 PUSH1 0x6 DUP2 GT ISZERO PUSH2 0x4DF JUMPI PUSH2 0x4DE PUSH2 0x13CE JUMP JUMPDEST JUMPDEST DUP2 MSTORE PUSH1 0x20 ADD PUSH1 0x0 PUSH20 0xFFFFFFFFFFFFFFFFFFFFFFFFFFFFFFFFFFFFFFFF AND DUP2 MSTORE PUSH1 0x20 ADD PUSH1 0x0 PUSH20 0xFFFFFFFFFFFFFFFFFFFFFFFFFFFFFFFFFFFFFFFF AND DUP2 MSTORE POP PUSH1 0x5 PUSH1 0x0 DUP8 DUP2 MSTORE PUSH1 0x20 ADD SWAP1 DUP2 MSTORE PUSH1 0x20 ADD PUSH1 0x0 KECCAK256 PUSH1 0x0 DUP3 ADD MLOAD DUP2 PUSH1 0x0 ADD SSTORE PUSH1 0x20 DUP3 ADD MLOAD DUP2 PUSH1 0x1 ADD SSTORE PUSH1 0x40 DUP3 ADD MLOAD DUP2 PUSH1 0x2 ADD PUSH1 0x0 PUSH2 0x100 EXP DUP2 SLOAD DUP2 PUSH20 0xFFFFFFFFFFFFFFFFFFFFFFFFFFFFFFFFFFFFFFFF MUL NOT AND SWAP1 DUP4 PUSH20 0xFFFFFFFFFFFFFFFFFFFFFFFFFFFFFFFFFFFFFFFF AND MUL OR SWAP1 SSTORE POP PUSH1 0x60 DUP3 ADD MLOAD DUP2 PUSH1 0x3 ADD PUSH1 0x0 PUSH2 0x100 EXP DUP2 SLOAD DUP2 PUSH20 0xFFFFFFFFFFFFFFFFFFFFFFFFFFFFFFFFFFFFFFFF MUL NOT AND SWAP1 DUP4 PUSH20 0xFFFFFFFFFFFFFFFFFFFFFFFFFFFFFFFFFFFFFFFF AND MUL OR SWAP1 SSTORE POP PUSH1 0x80 DUP3 ADD MLOAD DUP2 PUSH1 0x4 ADD SWAP1 DUP1 MLOAD SWAP1 PUSH1 0x20 ADD SWAP1 PUSH2 0x5ED SWAP3 SWAP2 SWAP1 PUSH2 0xECF JUMP JUMPDEST POP PUSH1 0xA0 DUP3 ADD MLOAD DUP2 PUSH1 0x5 ADD SWAP1 DUP1 MLOAD SWAP1 PUSH1 0x20 ADD SWAP1 PUSH2 0x60A SWAP3 SWAP2 SWAP1 PUSH2 0xECF JUMP JUMPDEST POP PUSH1 0xC0 DUP3 ADD MLOAD DUP2 PUSH1 0x6 ADD SWAP1 DUP1 MLOAD SWAP1 PUSH1 0x20 ADD SWAP1 PUSH2 0x627 SWAP3 SWAP2 SWAP1 PUSH2 0xECF JUMP JUMPDEST POP PUSH1 0xE0 DUP3 ADD MLOAD DUP2 PUSH1 0x7 ADD SWAP1 DUP1 MLOAD SWAP1 PUSH1 0x20 ADD SWAP1 PUSH2 0x644 SWAP3 SWAP2 SWAP1 PUSH2 0xECF JUMP JUMPDEST POP PUSH2 0x100 DUP3 ADD MLOAD DUP2 PUSH1 0x8 ADD SSTORE PUSH2 0x120 DUP3 ADD MLOAD DUP2 PUSH1 0x9 ADD PUSH1 0x0 PUSH2 0x100 EXP DUP2 SLOAD DUP2 PUSH1 0xFF MUL NOT AND SWAP1 DUP4 PUSH1 0x6 DUP2 GT ISZERO PUSH2 0x67C JUMPI PUSH2 0x67B PUSH2 0x13CE JUMP JUMPDEST JUMPDEST MUL OR SWAP1 SSTORE POP PUSH2 0x140 DUP3 ADD MLOAD DUP2 PUSH1 0x9 ADD PUSH1 0x1 PUSH2 0x100 EXP DUP2 SLOAD DUP2 PUSH20 0xFFFFFFFFFFFFFFFFFFFFFFFFFFFFFFFFFFFFFFFF MUL NOT AND SWAP1 DUP4 PUSH20 0xFFFFFFFFFFFFFFFFFFFFFFFFFFFFFFFFFFFFFFFF AND MUL OR SWAP1 SSTORE POP PUSH2 0x160 DUP3 ADD MLOAD DUP2 PUSH1 0xA ADD PUSH1 0x0 PUSH2 0x100 EXP DUP2 SLOAD DUP2 PUSH20 0xFFFFFFFFFFFFFFFFFFFFFFFFFFFFFFFFFFFFFFFF MUL NOT AND SWAP1 DUP4 PUSH20 0xFFFFFFFFFFFFFFFFFFFFFFFFFFFFFFFFFFFFFFFF AND MUL OR SWAP1 SSTORE POP SWAP1 POP POP PUSH1 0x1 PUSH1 0x4 SLOAD PUSH2 0x723 SWAP2 SWAP1 PUSH2 0x128F JUMP JUMPDEST PUSH1 0x4 DUP2 SWAP1 SSTORE POP PUSH32 0x9D1715437821CD9A90CBA5D1A68995C308D9AD9AFC754ED9A1CFF429760796E6 DUP6 PUSH1 0x40 MLOAD PUSH2 0x758 SWAP2 SWAP1 PUSH2 0x120D JUMP JUMPDEST PUSH1 0x40 MLOAD DUP1 SWAP2 SUB SWAP1 LOG1 POP POP POP POP POP JUMP JUMPDEST PUSH1 0x3 PUSH1 0x0 SWAP1 SLOAD SWAP1 PUSH2 0x100 EXP SWAP1 DIV PUSH20 0xFFFFFFFFFFFFFFFFFFFFFFFFFFFFFFFFFFFFFFFF AND PUSH20 0xFFFFFFFFFFFFFFFFFFFFFFFFFFFFFFFFFFFFFFFF AND CALLER PUSH20 0xFFFFFFFFFFFFFFFFFFFFFFFFFFFFFFFFFFFFFFFF AND EQ ISZERO PUSH2 0x7F8 JUMPI PUSH1 0x3 PUSH1 0x0 SWAP1 SLOAD SWAP1 PUSH2 0x100 EXP SWAP1 DIV PUSH20 0xFFFFFFFFFFFFFFFFFFFFFFFFFFFFFFFFFFFFFFFF AND PUSH20 0xFFFFFFFFFFFFFFFFFFFFFFFFFFFFFFFFFFFFFFFF AND SELFDESTRUCT JUMPDEST JUMP JUMPDEST PUSH1 0x0 PUSH2 0x810 DUP3 PUSH1 0x1 PUSH2 0xC2A SWAP1 SWAP2 SWAP1 PUSH4 0xFFFFFFFF AND JUMP JUMPDEST SWAP1 POP SWAP2 SWAP1 POP JUMP JUMPDEST PUSH2 0x820 CALLER PUSH2 0xCBC JUMP JUMPDEST JUMP JUMPDEST DUP2 PUSH1 0x1 PUSH1 0x6 DUP2 GT ISZERO PUSH2 0x837 JUMPI PUSH2 0x836 PUSH2 0x13CE JUMP JUMPDEST JUMPDEST PUSH1 0x5 PUSH1 0x0 DUP4 DUP2 MSTORE PUSH1 0x20 ADD SWAP1 DUP2 MSTORE PUSH1 0x20 ADD PUSH1 0x0 KECCAK256 PUSH1 0x9 ADD PUSH1 0x0 SWAP1 SLOAD SWAP1 PUSH2 0x100 EXP SWAP1 DIV PUSH1 0xFF AND PUSH1 0x6 DUP2 GT ISZERO PUSH2 0x86D JUMPI PUSH2 0x86C PUSH2 0x13CE JUMP JUMPDEST JUMPDEST EQ PUSH2 0x877 JUMPI PUSH1 0x0 DUP1 REVERT JUMPDEST PUSH2 0x880 CALLER PUSH2 0xAAD JUMP JUMPDEST PUSH2 0x889 JUMPI PUSH1 0x0 DUP1 REVERT JUMPDEST DUP3 PUSH1 0x5 PUSH1 0x0 DUP3 DUP2 MSTORE PUSH1 0x20 ADD SWAP1 DUP2 MSTORE PUSH1 0x20 ADD PUSH1 0x0 KECCAK256 PUSH1 0x2 ADD PUSH1 0x0 SWAP1 SLOAD SWAP1 PUSH2 0x100 EXP SWAP1 DIV PUSH20 0xFFFFFFFFFFFFFFFFFFFFFFFFFFFFFFFFFFFFFFFF AND PUSH20 0xFFFFFFFFFFFFFFFFFFFFFFFFFFFFFFFFFFFFFFFF AND CALLER PUSH20 0xFFFFFFFFFFFFFFFFFFFFFFFFFFFFFFFFFFFFFFFF AND EQ PUSH2 0x8F8 JUMPI PUSH1 0x0 DUP1 REVERT JUMPDEST PUSH2 0x901 DUP4 PUSH2 0x7FA JUMP JUMPDEST PUSH2 0x940 JUMPI PUSH1 0x40 MLOAD PUSH32 0x8C379A000000000000000000000000000000000000000000000000000000000 DUP2 MSTORE PUSH1 0x4 ADD PUSH2 0x937 SWAP1 PUSH2 0x11ED JUMP JUMPDEST PUSH1 0x40 MLOAD DUP1 SWAP2 SUB SWAP1 REVERT JUMPDEST DUP3 PUSH1 0x5 PUSH1 0x0 DUP7 DUP2 MSTORE PUSH1 0x20 ADD SWAP1 DUP2 MSTORE PUSH1 0x20 ADD PUSH1 0x0 KECCAK256 PUSH1 0x9 ADD PUSH1 0x1 PUSH2 0x100 EXP DUP2 SLOAD DUP2 PUSH20 0xFFFFFFFFFFFFFFFFFFFFFFFFFFFFFFFFFFFFFFFF MUL NOT AND SWAP1 DUP4 PUSH20 0xFFFFFFFFFFFFFFFFFFFFFFFFFFFFFFFFFFFFFFFF AND MUL OR SWAP1 SSTORE POP PUSH1 0x2 PUSH1 0x5 PUSH1 0x0 DUP7 DUP2 MSTORE PUSH1 0x20 ADD SWAP1 DUP2 MSTORE PUSH1 0x20 ADD PUSH1 0x0 KECCAK256 PUSH1 0x9 ADD PUSH1 0x0 PUSH2 0x100 EXP DUP2 SLOAD DUP2 PUSH1 0xFF MUL NOT AND SWAP1 DUP4 PUSH1 0x6 DUP2 GT ISZERO PUSH2 0x9CF JUMPI PUSH2 0x9CE PUSH2 0x13CE JUMP JUMPDEST JUMPDEST MUL OR SWAP1 SSTORE POP DUP3 PUSH1 0x5 PUSH1 0x0 DUP7 DUP2 MSTORE PUSH1 0x20 ADD SWAP1 DUP2 MSTORE PUSH1 0x20 ADD PUSH1 0x0 KECCAK256 PUSH1 0x2 ADD PUSH1 0x0 PUSH2 0x100 EXP DUP2 SLOAD DUP2 PUSH20 0xFFFFFFFFFFFFFFFFFFFFFFFFFFFFFFFFFFFFFFFF MUL NOT AND SWAP1 DUP4 PUSH20 0xFFFFFFFFFFFFFFFFFFFFFFFFFFFFFFFFFFFFFFFF AND MUL OR SWAP1 SSTORE POP PUSH32 0xF12328DACF931F6C8C8C904EA8B9791D681613ED5EC258DCE2866C311795C9EA DUP5 PUSH1 0x40 MLOAD PUSH2 0xA58 SWAP2 SWAP1 PUSH2 0x120D JUMP JUMPDEST PUSH1 0x40 MLOAD DUP1 SWAP2 SUB SWAP1 LOG1 POP POP POP POP JUMP JUMPDEST PUSH2 0xA6F CALLER PUSH2 0x7FA JUMP JUMPDEST PUSH2 0xA78 JUMPI PUSH1 0x0 DUP1 REVERT JUMPDEST PUSH2 0xA81 DUP2 PUSH2 0xD16 JUMP JUMPDEST POP JUMP JUMPDEST PUSH2 0xA8D CALLER PUSH2 0x42B JUMP JUMPDEST PUSH2 0xA96 JUMPI PUSH1 0x0 DUP1 REVERT JUMPDEST PUSH2 0xA9F DUP2 PUSH2 0xD70 JUMP JUMPDEST POP JUMP JUMPDEST PUSH2 0xAAB CALLER PUSH2 0xDCA JUMP JUMPDEST JUMP JUMPDEST PUSH1 0x0 PUSH2 0xAC3 DUP3 PUSH1 0x2 PUSH2 0xC2A SWAP1 SWAP2 SWAP1 PUSH4 0xFFFFFFFF AND JUMP JUMPDEST SWAP1 POP SWAP2 SWAP1 POP JUMP JUMPDEST PUSH1 0x0 PUSH20 0xFFFFFFFFFFFFFFFFFFFFFFFFFFFFFFFFFFFFFFFF AND DUP2 PUSH20 0xFFFFFFFFFFFFFFFFFFFFFFFFFFFFFFFFFFFFFFFF AND EQ ISZERO PUSH2 0xB04 JUMPI PUSH1 0x0 DUP1 REVERT JUMPDEST PUSH2 0xB0E DUP3 DUP3 PUSH2 0xC2A JUMP JUMPDEST ISZERO PUSH2 0xB18 JUMPI PUSH1 0x0 DUP1 REVERT JUMPDEST PUSH1 0x1 DUP3 PUSH1 0x0 ADD PUSH1 0x0 DUP4 PUSH20 0xFFFFFFFFFFFFFFFFFFFFFFFFFFFFFFFFFFFFFFFF AND PUSH20 0xFFFFFFFFFFFFFFFFFFFFFFFFFFFFFFFFFFFFFFFF AND DUP2 MSTORE PUSH1 0x20 ADD SWAP1 DUP2 MSTORE PUSH1 0x20 ADD PUSH1 0x0 KECCAK256 PUSH1 0x0 PUSH2 0x100 EXP DUP2 SLOAD DUP2 PUSH1 0xFF MUL NOT AND SWAP1 DUP4 ISZERO ISZERO MUL OR SWAP1 SSTORE POP POP POP JUMP JUMPDEST PUSH2 0xB8A DUP2 PUSH1 0x2 PUSH2 0xACA SWAP1 SWAP2 SWAP1 PUSH4 0xFFFFFFFF AND JUMP JUMPDEST DUP1 PUSH20 0xFFFFFFFFFFFFFFFFFFFFFFFFFFFFFFFFFFFFFFFF AND PUSH32 0x36179DE14E9E7CBCE2E0A64264F3EB82E80B70AAC44FF098D9C6F70B1D7D6595 PUSH1 0x40 MLOAD PUSH1 0x40 MLOAD DUP1 SWAP2 SUB SWAP1 LOG2 POP JUMP JUMPDEST PUSH2 0xBE4 DUP2 PUSH1 0x1 PUSH2 0xE24 SWAP1 SWAP2 SWAP1 PUSH4 0xFFFFFFFF AND JUMP JUMPDEST DUP1 PUSH20 0xFFFFFFFFFFFFFFFFFFFFFFFFFFFFFFFFFFFFFFFF AND PUSH32 0xC8ECC453F78C13CCC7596603B61935F29B99DC15BB91B91647E1CCF2469AD00A PUSH1 0x40 MLOAD PUSH1 0x40 MLOAD DUP1 SWAP2 SUB SWAP1 LOG2 POP JUMP JUMPDEST PUSH1 0x0 DUP1 PUSH20 0xFFFFFFFFFFFFFFFFFFFFFFFFFFFFFFFFFFFFFFFF AND DUP3 PUSH20 0xFFFFFFFFFFFFFFFFFFFFFFFFFFFFFFFFFFFFFFFF AND EQ ISZERO PUSH2 0xC65 JUMPI PUSH1 0x0 DUP1 REVERT JUMPDEST DUP3 PUSH1 0x0 ADD PUSH1 0x0 DUP4 PUSH20 0xFFFFFFFFFFFFFFFFFFFFFFFFFFFFFFFFFFFFFFFF AND PUSH20 0xFFFFFFFFFFFFFFFFFFFFFFFFFFFFFFFFFFFFFFFF AND DUP2 MSTORE PUSH1 0x20 ADD SWAP1 DUP2 MSTORE PUSH1 0x20 ADD PUSH1 0x0 KECCAK256 PUSH1 0x0 SWAP1 SLOAD SWAP1 PUSH2 0x100 EXP SWAP1 DIV PUSH1 0xFF AND SWAP1 POP SWAP3 SWAP2 POP POP JUMP JUMPDEST PUSH2 0xCD0 DUP2 PUSH1 0x2 PUSH2 0xE24 SWAP1 SWAP2 SWAP1 PUSH4 0xFFFFFFFF AND JUMP JUMPDEST DUP1 PUSH20 0xFFFFFFFFFFFFFFFFFFFFFFFFFFFFFFFFFFFFFFFF AND PUSH32 0xA9A482E6375EF89327F2177C114191D0B88502CA4A7B961D211CC45786EE5107 PUSH1 0x40 MLOAD PUSH1 0x40 MLOAD DUP1 SWAP2 SUB SWAP1 LOG2 POP JUMP JUMPDEST PUSH2 0xD2A DUP2 PUSH1 0x1 PUSH2 0xACA SWAP1 SWAP2 SWAP1 PUSH4 0xFFFFFFFF AND JUMP JUMPDEST DUP1 PUSH20 0xFFFFFFFFFFFFFFFFFFFFFFFFFFFFFFFFFFFFFFFF AND PUSH32 0x2860B5BA44F983F8F363EE6EEB3C24CBCA3096803FBDD5129B9E253F01CAC076 PUSH1 0x40 MLOAD PUSH1 0x40 MLOAD DUP1 SWAP2 SUB SWAP1 LOG2 POP JUMP JUMPDEST PUSH2 0xD84 DUP2 PUSH1 0x0 PUSH2 0xACA SWAP1 SWAP2 SWAP1 PUSH4 0xFFFFFFFF AND JUMP JUMPDEST DUP1 PUSH20 0xFFFFFFFFFFFFFFFFFFFFFFFFFFFFFFFFFFFFFFFF AND PUSH32 0x6599D9DD7F97CCDC3D99AB507544F9F6EBFCA20C63A7E3C018DA49EEAEFB164A PUSH1 0x40 MLOAD PUSH1 0x40 MLOAD DUP1 SWAP2 SUB SWAP1 LOG2 POP JUMP JUMPDEST PUSH2 0xDDE DUP2 PUSH1 0x0 PUSH2 0xE24 SWAP1 SWAP2 SWAP1 PUSH4 0xFFFFFFFF AND JUMP JUMPDEST DUP1 PUSH20 0xFFFFFFFFFFFFFFFFFFFFFFFFFFFFFFFFFFFFFFFF AND PUSH32 0x83FD4CBC7BC934BDFBAE994AC6E72FCC0E50ABD6995C1949520E761BA650D582 PUSH1 0x40 MLOAD PUSH1 0x40 MLOAD DUP1 SWAP2 SUB SWAP1 LOG2 POP JUMP JUMPDEST PUSH1 0x0 PUSH20 0xFFFFFFFFFFFFFFFFFFFFFFFFFFFFFFFFFFFFFFFF AND DUP2 PUSH20 0xFFFFFFFFFFFFFFFFFFFFFFFFFFFFFFFFFFFFFFFF AND EQ ISZERO PUSH2 0xE5E JUMPI PUSH1 0x0 DUP1 REVERT JUMPDEST PUSH2 0xE68 DUP3 DUP3 PUSH2 0xC2A JUMP JUMPDEST PUSH2 0xE71 JUMPI PUSH1 0x0 DUP1 REVERT JUMPDEST PUSH1 0x0 DUP3 PUSH1 0x0 ADD PUSH1 0x0 DUP4 PUSH20 0xFFFFFFFFFFFFFFFFFFFFFFFFFFFFFFFFFFFFFFFF AND PUSH20 0xFFFFFFFFFFFFFFFFFFFFFFFFFFFFFFFFFFFFFFFF AND DUP2 MSTORE PUSH1 0x20 ADD SWAP1 DUP2 MSTORE PUSH1 0x20 ADD PUSH1 0x0 KECCAK256 PUSH1 0x0 PUSH2 0x100 EXP DUP2 SLOAD DUP2 PUSH1 0xFF MUL NOT AND SWAP1 DUP4 ISZERO ISZERO MUL OR SWAP1 SSTORE POP POP POP JUMP JUMPDEST DUP3 DUP1 SLOAD PUSH2 0xEDB SWAP1 PUSH2 0x133C JUMP JUMPDEST SWAP1 PUSH1 0x0 MSTORE PUSH1 0x20 PUSH1 0x0 KECCAK256 SWAP1 PUSH1 0x1F ADD PUSH1 0x20 SWAP1 DIV DUP2 ADD SWAP3 DUP3 PUSH2 0xEFD JUMPI PUSH1 0x0 DUP6 SSTORE PUSH2 0xF44 JUMP JUMPDEST DUP3 PUSH1 0x1F LT PUSH2 0xF16 JUMPI DUP1 MLOAD PUSH1 0xFF NOT AND DUP4 DUP1 ADD OR DUP6 SSTORE PUSH2 0xF44 JUMP JUMPDEST DUP3 DUP1 ADD PUSH1 0x1 ADD DUP6 SSTORE DUP3 ISZERO PUSH2 0xF44 JUMPI SWAP2 DUP3 ADD JUMPDEST DUP3 DUP2 GT ISZERO PUSH2 0xF43 JUMPI DUP3 MLOAD DUP3 SSTORE SWAP2 PUSH1 0x20 ADD SWAP2 SWAP1 PUSH1 0x1 ADD SWAP1 PUSH2 0xF28 JUMP JUMPDEST JUMPDEST POP SWAP1 POP PUSH2 0xF51 SWAP2 SWAP1 PUSH2 0xF55 JUMP JUMPDEST POP SWAP1 JUMP JUMPDEST JUMPDEST DUP1 DUP3 GT ISZERO PUSH2 0xF6E JUMPI PUSH1 0x0 DUP2 PUSH1 0x0 SWAP1 SSTORE POP PUSH1 0x1 ADD PUSH2 0xF56 JUMP JUMPDEST POP SWAP1 JUMP JUMPDEST PUSH1 0x0 PUSH2 0xF85 PUSH2 0xF80 DUP5 PUSH2 0x124D JUMP JUMPDEST PUSH2 0x1228 JUMP JUMPDEST SWAP1 POP DUP3 DUP2 MSTORE PUSH1 0x20 DUP2 ADD DUP5 DUP5 DUP5 ADD GT ISZERO PUSH2 0xFA1 JUMPI PUSH2 0xFA0 PUSH2 0x1460 JUMP JUMPDEST JUMPDEST PUSH2 0xFAC DUP5 DUP3 DUP6 PUSH2 0x132D JUMP JUMPDEST POP SWAP4 SWAP3 POP POP POP JUMP JUMPDEST PUSH1 0x0 DUP2 CALLDATALOAD SWAP1 POP PUSH2 0xFC3 DUP2 PUSH2 0x14A9 JUMP JUMPDEST SWAP3 SWAP2 POP POP JUMP JUMPDEST PUSH1 0x0 DUP3 PUSH1 0x1F DUP4 ADD SLT PUSH2 0xFDE JUMPI PUSH2 0xFDD PUSH2 0x145B JUMP JUMPDEST JUMPDEST DUP2 CALLDATALOAD PUSH2 0xFEE DUP5 DUP3 PUSH1 0x20 DUP7 ADD PUSH2 0xF72 JUMP JUMPDEST SWAP2 POP POP SWAP3 SWAP2 POP POP JUMP JUMPDEST PUSH1 0x0 DUP2 CALLDATALOAD SWAP1 POP PUSH2 0x1006 DUP2 PUSH2 0x14C0 JUMP JUMPDEST SWAP3 SWAP2 POP POP JUMP JUMPDEST PUSH1 0x0 PUSH1 0x20 DUP3 DUP5 SUB SLT ISZERO PUSH2 0x1022 JUMPI PUSH2 0x1021 PUSH2 0x146A JUMP JUMPDEST JUMPDEST PUSH1 0x0 PUSH2 0x1030 DUP5 DUP3 DUP6 ADD PUSH2 0xFB4 JUMP JUMPDEST SWAP2 POP POP SWAP3 SWAP2 POP POP JUMP JUMPDEST PUSH1 0x0 PUSH1 0x20 DUP3 DUP5 SUB SLT ISZERO PUSH2 0x104F JUMPI PUSH2 0x104E PUSH2 0x146A JUMP JUMPDEST JUMPDEST PUSH1 0x0 PUSH2 0x105D DUP5 DUP3 DUP6 ADD PUSH2 0xFF7 JUMP JUMPDEST SWAP2 POP POP SWAP3 SWAP2 POP POP JUMP JUMPDEST PUSH1 0x0 DUP1 PUSH1 0x40 DUP4 DUP6 SUB SLT ISZERO PUSH2 0x107D JUMPI PUSH2 0x107C PUSH2 0x146A JUMP JUMPDEST JUMPDEST PUSH1 0x0 PUSH2 0x108B DUP6 DUP3 DUP7 ADD PUSH2 0xFF7 JUMP JUMPDEST SWAP3 POP POP PUSH1 0x20 PUSH2 0x109C DUP6 DUP3 DUP7 ADD PUSH2 0xFB4 JUMP JUMPDEST SWAP2 POP POP SWAP3 POP SWAP3 SWAP1 POP JUMP JUMPDEST PUSH1 0x0 DUP1 PUSH1 0x0 DUP1 PUSH1 0x0 PUSH1 0xA0 DUP7 DUP9 SUB SLT ISZERO PUSH2 0x10C2 JUMPI PUSH2 0x10C1 PUSH2 0x146A JUMP JUMPDEST JUMPDEST PUSH1 0x0 PUSH2 0x10D0 DUP9 DUP3 DUP10 ADD PUSH2 0xFF7 JUMP JUMPDEST SWAP6 POP POP PUSH1 0x20 DUP7 ADD CALLDATALOAD PUSH8 0xFFFFFFFFFFFFFFFF DUP2 GT ISZERO PUSH2 0x10F1 JUMPI PUSH2 0x10F0 PUSH2 0x1465 JUMP JUMPDEST JUMPDEST PUSH2 0x10FD DUP9 DUP3 DUP10 ADD PUSH2 0xFC9 JUMP JUMPDEST SWAP5 POP POP PUSH1 0x40 DUP7 ADD CALLDATALOAD PUSH8 0xFFFFFFFFFFFFFFFF DUP2 GT ISZERO PUSH2 0x111E JUMPI PUSH2 0x111D PUSH2 0x1465 JUMP JUMPDEST JUMPDEST PUSH2 0x112A DUP9 DUP3 DUP10 ADD PUSH2 0xFC9 JUMP JUMPDEST SWAP4 POP POP PUSH1 0x60 DUP7 ADD CALLDATALOAD PUSH8 0xFFFFFFFFFFFFFFFF DUP2 GT ISZERO PUSH2 0x114B JUMPI PUSH2 0x114A PUSH2 0x1465 JUMP JUMPDEST JUMPDEST PUSH2 0x1157 DUP9 DUP3 DUP10 ADD PUSH2 0xFC9 JUMP JUMPDEST SWAP3 POP POP PUSH1 0x80 DUP7 ADD CALLDATALOAD PUSH8 0xFFFFFFFFFFFFFFFF DUP2 GT ISZERO PUSH2 0x1178 JUMPI PUSH2 0x1177 PUSH2 0x1465 JUMP JUMPDEST JUMPDEST PUSH2 0x1184 DUP9 DUP3 DUP10 ADD PUSH2 0xFC9 JUMP JUMPDEST SWAP2 POP POP SWAP3 SWAP6 POP SWAP3 SWAP6 SWAP1 SWAP4 POP JUMP JUMPDEST PUSH2 0x119A DUP2 PUSH2 0x12F7 JUMP JUMPDEST DUP3 MSTORE POP POP JUMP JUMPDEST PUSH1 0x0 PUSH2 0x11AD PUSH1 0x1F DUP4 PUSH2 0x127E JUMP JUMPDEST SWAP2 POP PUSH2 0x11B8 DUP3 PUSH2 0x1480 JUMP JUMPDEST PUSH1 0x20 DUP3 ADD SWAP1 POP SWAP2 SWAP1 POP JUMP JUMPDEST PUSH2 0x11CC DUP2 PUSH2 0x1323 JUMP JUMPDEST DUP3 MSTORE POP POP JUMP JUMPDEST PUSH1 0x0 PUSH1 0x20 DUP3 ADD SWAP1 POP PUSH2 0x11E7 PUSH1 0x0 DUP4 ADD DUP5 PUSH2 0x1191 JUMP JUMPDEST SWAP3 SWAP2 POP POP JUMP JUMPDEST PUSH1 0x0 PUSH1 0x20 DUP3 ADD SWAP1 POP DUP2 DUP2 SUB PUSH1 0x0 DUP4 ADD MSTORE PUSH2 0x1206 DUP2 PUSH2 0x11A0 JUMP JUMPDEST SWAP1 POP SWAP2 SWAP1 POP JUMP JUMPDEST PUSH1 0x0 PUSH1 0x20 DUP3 ADD SWAP1 POP PUSH2 0x1222 PUSH1 0x0 DUP4 ADD DUP5 PUSH2 0x11C3 JUMP JUMPDEST SWAP3 SWAP2 POP POP JUMP JUMPDEST PUSH1 0x0 PUSH2 0x1232 PUSH2 0x1243 JUMP JUMPDEST SWAP1 POP PUSH2 0x123E DUP3 DUP3 PUSH2 0x136E JUMP JUMPDEST SWAP2 SWAP1 POP JUMP JUMPDEST PUSH1 0x0 PUSH1 0x40 MLOAD SWAP1 POP SWAP1 JUMP JUMPDEST PUSH1 0x0 PUSH8 0xFFFFFFFFFFFFFFFF DUP3 GT ISZERO PUSH2 0x1268 JUMPI PUSH2 0x1267 PUSH2 0x142C JUMP JUMPDEST JUMPDEST PUSH2 0x1271 DUP3 PUSH2 0x146F JUMP JUMPDEST SWAP1 POP PUSH1 0x20 DUP2 ADD SWAP1 POP SWAP2 SWAP1 POP JUMP JUMPDEST PUSH1 0x0 DUP3 DUP3 MSTORE PUSH1 0x20 DUP3 ADD SWAP1 POP SWAP3 SWAP2 POP POP JUMP JUMPDEST PUSH1 0x0 PUSH2 0x129A DUP3 PUSH2 0x1323 JUMP JUMPDEST SWAP2 POP PUSH2 0x12A5 DUP4 PUSH2 0x1323 JUMP JUMPDEST SWAP3 POP DUP3 PUSH32 0xFFFFFFFFFFFFFFFFFFFFFFFFFFFFFFFFFFFFFFFFFFFFFFFFFFFFFFFFFFFFFFFF SUB DUP3 GT ISZERO PUSH2 0x12DA JUMPI PUSH2 0x12D9 PUSH2 0x139F JUMP JUMPDEST JUMPDEST DUP3 DUP3 ADD SWAP1 POP SWAP3 SWAP2 POP POP JUMP JUMPDEST PUSH1 0x0 PUSH2 0x12F0 DUP3 PUSH2 0x1303 JUMP JUMPDEST SWAP1 POP SWAP2 SWAP1 POP JUMP JUMPDEST PUSH1 0x0 DUP2 ISZERO ISZERO SWAP1 POP SWAP2 SWAP1 POP JUMP JUMPDEST PUSH1 0x0 PUSH20 0xFFFFFFFFFFFFFFFFFFFFFFFFFFFFFFFFFFFFFFFF DUP3 AND SWAP1 POP SWAP2 SWAP1 POP JUMP JUMPDEST PUSH1 0x0 DUP2 SWAP1 POP SWAP2 SWAP1 POP JUMP JUMPDEST DUP3 DUP2 DUP4 CALLDATACOPY PUSH1 0x0 DUP4 DUP4 ADD MSTORE POP POP POP JUMP JUMPDEST PUSH1 0x0 PUSH1 0x2 DUP3 DIV SWAP1 POP PUSH1 0x1 DUP3 AND DUP1 PUSH2 0x1354 JUMPI PUSH1 0x7F DUP3 AND SWAP2 POP JUMPDEST PUSH1 0x20 DUP3 LT DUP2 EQ ISZERO PUSH2 0x1368 JUMPI PUSH2 0x1367 PUSH2 0x13FD JUMP JUMPDEST JUMPDEST POP SWAP2 SWAP1 POP JUMP JUMPDEST PUSH2 0x1377 DUP3 PUSH2 0x146F JUMP JUMPDEST DUP2 ADD DUP2 DUP2 LT PUSH8 0xFFFFFFFFFFFFFFFF DUP3 GT OR ISZERO PUSH2 0x1396 JUMPI PUSH2 0x1395 PUSH2 0x142C JUMP JUMPDEST JUMPDEST DUP1 PUSH1 0x40 MSTORE POP POP POP JUMP JUMPDEST PUSH32 0x4E487B7100000000000000000000000000000000000000000000000000000000 PUSH1 0x0 MSTORE PUSH1 0x11 PUSH1 0x4 MSTORE PUSH1 0x24 PUSH1 0x0 REVERT JUMPDEST PUSH32 0x4E487B7100000000000000000000000000000000000000000000000000000000 PUSH1 0x0 MSTORE PUSH1 0x21 PUSH1 0x4 MSTORE PUSH1 0x24 PUSH1 0x0 REVERT JUMPDEST PUSH32 0x4E487B7100000000000000000000000000000000000000000000000000000000 PUSH1 0x0 MSTORE PUSH1 0x22 PUSH1 0x4 MSTORE PUSH1 0x24 PUSH1 0x0 REVERT JUMPDEST PUSH32 0x4E487B7100000000000000000000000000000000000000000000000000000000 PUSH1 0x0 MSTORE PUSH1 0x41 PUSH1 0x4 MSTORE PUSH1 0x24 PUSH1 0x0 REVERT JUMPDEST PUSH1 0x0 DUP1 REVERT JUMPDEST PUSH1 0x0 DUP1 REVERT JUMPDEST PUSH1 0x0 DUP1 REVERT JUMPDEST PUSH1 0x0 DUP1 REVERT JUMPDEST PUSH1 0x0 PUSH1 0x1F NOT PUSH1 0x1F DUP4 ADD AND SWAP1 POP SWAP2 SWAP1 POP JUMP JUMPDEST PUSH32 0x546869732061646472657373206973206E6F74206120526567756C61746F7200 PUSH1 0x0 DUP3 ADD MSTORE POP JUMP JUMPDEST PUSH2 0x14B2 DUP2 PUSH2 0x12E5 JUMP JUMPDEST DUP2 EQ PUSH2 0x14BD JUMPI PUSH1 0x0 DUP1 REVERT JUMPDEST POP JUMP JUMPDEST PUSH2 0x14C9 DUP2 PUSH2 0x1323 JUMP JUMPDEST DUP2 EQ PUSH2 0x14D4 JUMPI PUSH1 0x0 DUP1 REVERT JUMPDEST POP JUMP INVALID LOG2 PUSH5 0x6970667358 0x22 SLT KECCAK256 0xA6 0xF6 0xE3 0xE7 PUSH18 0xDA08A2C7185DB75B5B300883432AF9F7A5F9 0x5C 0xCA 0xBC PUSH1 0xC5 0xB8 LOG3 GT 0xA9 PUSH5 0x736F6C6343 STOP ADDMOD SMOD STOP CALLER "
				},
				"gasEstimates": {
					"creation": {
						"codeDepositCost": "1077800",
						"executionCost": "infinite",
						"totalCost": "infinite"
					},
					"external": {
						"addBuyer(address)": "infinite",
						"addPharma(address)": "infinite",
						"addRegulator(address)": "infinite",
						"isBuyer(address)": "infinite",
						"isPharma(address)": "infinite",
						"isRegulator(address)": "infinite",
						"kill()": "32163",
						"produceMedicine(uint256,string,string,string,string)": "infinite",
						"renounceBuyer()": "infinite",
						"renouncePharma()": "infinite",
						"renounceRegulator()": "infinite",
						"sendToRegulation(uint256,address)": "infinite",
						"testMedicine(uint256)": "infinite"
					}
				},
				"methodIdentifiers": {
					"addBuyer(address)": "bbf89803",
					"addPharma(address)": "1b90c4be",
					"addRegulator(address)": "ac63f3c7",
					"isBuyer(address)": "2a55feec",
					"isPharma(address)": "d1e4fd0f",
					"isRegulator(address)": "54fc9169",
					"kill()": "41c0e1b5",
					"produceMedicine(uint256,string,string,string,string)": "3221a13e",
					"renounceBuyer()": "c204a0cf",
					"renouncePharma()": "81612e4f",
					"renounceRegulator()": "1beadbe2",
					"sendToRegulation(uint256,address)": "8e2b65d7",
					"testMedicine(uint256)": "0c5484d7"
				}
			},
			"storageLayout": {
				"storage": [
					{
						"astId": 17,
						"contract": "contracts/SupplyChain.sol:SupplyChain",
						"label": "buyers",
						"offset": 0,
						"slot": "0",
						"type": "t_struct(Role)322_storage"
					},
					{
						"astId": 227,
						"contract": "contracts/SupplyChain.sol:SupplyChain",
						"label": "regulators",
						"offset": 0,
						"slot": "1",
						"type": "t_struct(Role)322_storage"
					},
					{
						"astId": 122,
						"contract": "contracts/SupplyChain.sol:SupplyChain",
						"label": "pharmas",
						"offset": 0,
						"slot": "2",
						"type": "t_struct(Role)322_storage"
					},
					{
						"astId": 431,
						"contract": "contracts/SupplyChain.sol:SupplyChain",
						"label": "owner",
						"offset": 0,
						"slot": "3",
						"type": "t_address"
					},
					{
						"astId": 433,
						"contract": "contracts/SupplyChain.sol:SupplyChain",
						"label": "sku",
						"offset": 0,
						"slot": "4",
						"type": "t_uint256"
					},
					{
						"astId": 438,
						"contract": "contracts/SupplyChain.sol:SupplyChain",
						"label": "items",
						"offset": 0,
						"slot": "5",
						"type": "t_mapping(t_uint256,t_struct(Item)482_storage)"
					},
					{
						"astId": 443,
						"contract": "contracts/SupplyChain.sol:SupplyChain",
						"label": "itemsHistory",
						"offset": 0,
						"slot": "6",
						"type": "t_mapping(t_uint256,t_array(t_string_storage)dyn_storage)"
					}
				],
				"types": {
					"t_address": {
						"encoding": "inplace",
						"label": "address",
						"numberOfBytes": "20"
					},
					"t_array(t_string_storage)dyn_storage": {
						"base": "t_string_storage",
						"encoding": "dynamic_array",
						"label": "string[]",
						"numberOfBytes": "32"
					},
					"t_bool": {
						"encoding": "inplace",
						"label": "bool",
						"numberOfBytes": "1"
					},
					"t_enum(State)451": {
						"encoding": "inplace",
						"label": "enum SupplyChain.State",
						"numberOfBytes": "1"
					},
					"t_mapping(t_address,t_bool)": {
						"encoding": "mapping",
						"key": "t_address",
						"label": "mapping(address => bool)",
						"numberOfBytes": "32",
						"value": "t_bool"
					},
					"t_mapping(t_uint256,t_array(t_string_storage)dyn_storage)": {
						"encoding": "mapping",
						"key": "t_uint256",
						"label": "mapping(uint256 => string[])",
						"numberOfBytes": "32",
						"value": "t_array(t_string_storage)dyn_storage"
					},
					"t_mapping(t_uint256,t_struct(Item)482_storage)": {
						"encoding": "mapping",
						"key": "t_uint256",
						"label": "mapping(uint256 => struct SupplyChain.Item)",
						"numberOfBytes": "32",
						"value": "t_struct(Item)482_storage"
					},
					"t_string_storage": {
						"encoding": "bytes",
						"label": "string",
						"numberOfBytes": "32"
					},
					"t_struct(Item)482_storage": {
						"encoding": "inplace",
						"label": "struct SupplyChain.Item",
						"members": [
							{
								"astId": 458,
								"contract": "contracts/SupplyChain.sol:SupplyChain",
								"label": "sku",
								"offset": 0,
								"slot": "0",
								"type": "t_uint256"
							},
							{
								"astId": 460,
								"contract": "contracts/SupplyChain.sol:SupplyChain",
								"label": "upc",
								"offset": 0,
								"slot": "1",
								"type": "t_uint256"
							},
							{
								"astId": 462,
								"contract": "contracts/SupplyChain.sol:SupplyChain",
								"label": "ownerID",
								"offset": 0,
								"slot": "2",
								"type": "t_address"
							},
							{
								"astId": 464,
								"contract": "contracts/SupplyChain.sol:SupplyChain",
								"label": "originPharmaID",
								"offset": 0,
								"slot": "3",
								"type": "t_address"
							},
							{
								"astId": 466,
								"contract": "contracts/SupplyChain.sol:SupplyChain",
								"label": "originPharmaName",
								"offset": 0,
								"slot": "4",
								"type": "t_string_storage"
							},
							{
								"astId": 468,
								"contract": "contracts/SupplyChain.sol:SupplyChain",
								"label": "originPharmaInformation",
								"offset": 0,
								"slot": "5",
								"type": "t_string_storage"
							},
							{
								"astId": 470,
								"contract": "contracts/SupplyChain.sol:SupplyChain",
								"label": "originPharmaCountry",
								"offset": 0,
								"slot": "6",
								"type": "t_string_storage"
							},
							{
								"astId": 472,
								"contract": "contracts/SupplyChain.sol:SupplyChain",
								"label": "productName",
								"offset": 0,
								"slot": "7",
								"type": "t_string_storage"
							},
							{
								"astId": 474,
								"contract": "contracts/SupplyChain.sol:SupplyChain",
								"label": "productPrice",
								"offset": 0,
								"slot": "8",
								"type": "t_uint256"
							},
							{
								"astId": 477,
								"contract": "contracts/SupplyChain.sol:SupplyChain",
								"label": "itemState",
								"offset": 0,
								"slot": "9",
								"type": "t_enum(State)451"
							},
							{
								"astId": 479,
								"contract": "contracts/SupplyChain.sol:SupplyChain",
								"label": "regulatorId",
								"offset": 1,
								"slot": "9",
								"type": "t_address"
							},
							{
								"astId": 481,
								"contract": "contracts/SupplyChain.sol:SupplyChain",
								"label": "buyerId",
								"offset": 0,
								"slot": "10",
								"type": "t_address"
							}
						],
						"numberOfBytes": "352"
					},
					"t_struct(Role)322_storage": {
						"encoding": "inplace",
						"label": "struct Roles.Role",
						"members": [
							{
								"astId": 321,
								"contract": "contracts/SupplyChain.sol:SupplyChain",
								"label": "bearer",
								"offset": 0,
								"slot": "0",
								"type": "t_mapping(t_address,t_bool)"
							}
						],
						"numberOfBytes": "32"
					},
					"t_uint256": {
						"encoding": "inplace",
						"label": "uint256",
						"numberOfBytes": "32"
					}
				}
			},
			"userdoc": {
				"kind": "user",
				"methods": {},
				"version": 1
			}
		}
	}
}