{
	"contracts/RegulatorRole.sol": {
		"RegulatorRole": {
			"abi": [
				{
					"inputs": [],
					"stateMutability": "nonpayable",
					"type": "constructor"
				},
				{
					"anonymous": false,
					"inputs": [
						{
							"indexed": true,
							"internalType": "address",
							"name": "account",
							"type": "address"
						}
					],
					"name": "RegulatorAdded",
					"type": "event"
				},
				{
					"anonymous": false,
					"inputs": [
						{
							"indexed": true,
							"internalType": "address",
							"name": "account",
							"type": "address"
						}
					],
					"name": "RegulatorRemoved",
					"type": "event"
				},
				{
					"inputs": [
						{
							"internalType": "address",
							"name": "account",
							"type": "address"
						}
					],
					"name": "addRegulator",
					"outputs": [],
					"stateMutability": "nonpayable",
					"type": "function"
				},
				{
					"inputs": [
						{
							"internalType": "address",
							"name": "account",
							"type": "address"
						}
					],
					"name": "isRegulator",
					"outputs": [
						{
							"internalType": "bool",
							"name": "",
							"type": "bool"
						}
					],
					"stateMutability": "view",
					"type": "function"
				},
				{
					"inputs": [],
					"name": "renounceRegulator",
					"outputs": [],
					"stateMutability": "nonpayable",
					"type": "function"
				}
			],
			"devdoc": {
				"kind": "dev",
				"methods": {},
				"version": 1
			},
			"evm": {
				"assembly": "    /* \"contracts/RegulatorRole.sol\":49:1457  contract RegulatorRole {... */\n  mstore(0x40, 0x80)\n    /* \"contracts/RegulatorRole.sol\":252:315  constructor() public {... */\n  callvalue\n  dup1\n  iszero\n  tag_1\n  jumpi\n  0x00\n  dup1\n  revert\ntag_1:\n  pop\n    /* \"contracts/RegulatorRole.sol\":283:308  _addRegulator(msg.sender) */\n  tag_4\n    /* \"contracts/RegulatorRole.sol\":297:307  msg.sender */\n  caller\n    /* \"contracts/RegulatorRole.sol\":283:296  _addRegulator */\n  shl(0x20, tag_5)\n    /* \"contracts/RegulatorRole.sol\":283:308  _addRegulator(msg.sender) */\n  0x20\n  shr\n  jump\t// in\ntag_4:\n    /* \"contracts/RegulatorRole.sol\":49:1457  contract RegulatorRole {... */\n  jump(tag_6)\n    /* \"contracts/RegulatorRole.sol\":1084:1211  function _addRegulator(address account) internal {... */\ntag_5:\n    /* \"contracts/RegulatorRole.sol\":1143:1166  regulators.add(account) */\n  tag_8\n    /* \"contracts/RegulatorRole.sol\":1158:1165  account */\n  dup2\n    /* \"contracts/RegulatorRole.sol\":1143:1153  regulators */\n  0x00\n    /* \"contracts/RegulatorRole.sol\":1143:1157  regulators.add */\n  or(tag_0_17, shl(0x20, tag_9))\n  swap1\n    /* \"contracts/RegulatorRole.sol\":1143:1166  regulators.add(account) */\n  swap2\n  swap1\n  0x20\n  shr\n  jump\t// in\ntag_8:\n    /* \"contracts/RegulatorRole.sol\":1196:1203  account */\n  dup1\n    /* \"contracts/RegulatorRole.sol\":1181:1204  RegulatorAdded(account) */\n  0xffffffffffffffffffffffffffffffffffffffff\n  and\n  0x2860b5ba44f983f8f363ee6eeb3c24cbca3096803fbdd5129b9e253f01cac076\n  mload(0x40)\n  mload(0x40)\n  dup1\n  swap2\n  sub\n  swap1\n  log2\n    /* \"contracts/RegulatorRole.sol\":1084:1211  function _addRegulator(address account) internal {... */\n  pop\n  jump\t// out\n    /* \"contracts/Roles.sol\":259:440  function add(Role storage role, address account) internal {... */\ntag_9:\n    /* \"contracts/Roles.sol\":354:355  0 */\n  0x00\n    /* \"contracts/Roles.sol\":335:356  account != address(0) */\n  0xffffffffffffffffffffffffffffffffffffffff\n  and\n    /* \"contracts/Roles.sol\":335:342  account */\n  dup2\n    /* \"contracts/Roles.sol\":335:356  account != address(0) */\n  0xffffffffffffffffffffffffffffffffffffffff\n  and\n  eq\n  iszero\n    /* \"contracts/Roles.sol\":327:357  require(account != address(0)) */\n  tag_11\n  jumpi\n  0x00\n  dup1\n  revert\ntag_11:\n    /* \"contracts/Roles.sol\":376:394  has(role, account) */\n  tag_12\n    /* \"contracts/Roles.sol\":380:384  role */\n  dup3\n    /* \"contracts/Roles.sol\":386:393  account */\n  dup3\n    /* \"contracts/Roles.sol\":376:379  has */\n  shl(0x20, tag_13)\n    /* \"contracts/Roles.sol\":376:394  has(role, account) */\n  0x20\n  shr\n  jump\t// in\ntag_12:\n    /* \"contracts/Roles.sol\":375:394  !has(role, account) */\n  iszero\n    /* \"contracts/Roles.sol\":367:395  require(!has(role, account)) */\n  tag_14\n  jumpi\n  0x00\n  dup1\n  revert\ntag_14:\n    /* \"contracts/Roles.sol\":429:433  true */\n  0x01\n    /* \"contracts/Roles.sol\":406:410  role */\n  dup3\n    /* \"contracts/Roles.sol\":406:417  role.bearer */\n  0x00\n  add\n    /* \"contracts/Roles.sol\":406:426  role.bearer[account] */\n  0x00\n    /* \"contracts/Roles.sol\":418:425  account */\n  dup4\n    /* \"contracts/Roles.sol\":406:426  role.bearer[account] */\n  0xffffffffffffffffffffffffffffffffffffffff\n  and\n  0xffffffffffffffffffffffffffffffffffffffff\n  and\n  dup2\n  mstore\n  0x20\n  add\n  swap1\n  dup2\n  mstore\n  0x20\n  add\n  0x00\n  keccak256\n  0x00\n    /* \"contracts/Roles.sol\":406:433  role.bearer[account] = true */\n  0x0100\n  exp\n  dup2\n  sload\n  dup2\n  0xff\n  mul\n  not\n  and\n  swap1\n  dup4\n  iszero\n  iszero\n  mul\n  or\n  swap1\n  sstore\n  pop\n    /* \"contracts/Roles.sol\":259:440  function add(Role storage role, address account) internal {... */\n  pop\n  pop\n  jump\t// out\n    /* \"contracts/Roles.sol\":786:976  function has(Role storage role, address account)... */\ntag_13:\n    /* \"contracts/Roles.sol\":882:886  bool */\n  0x00\n    /* \"contracts/Roles.sol\":929:930  0 */\n  dup1\n    /* \"contracts/Roles.sol\":910:931  account != address(0) */\n  0xffffffffffffffffffffffffffffffffffffffff\n  and\n    /* \"contracts/Roles.sol\":910:917  account */\n  dup3\n    /* \"contracts/Roles.sol\":910:931  account != address(0) */\n  0xffffffffffffffffffffffffffffffffffffffff\n  and\n  eq\n  iszero\n    /* \"contracts/Roles.sol\":902:932  require(account != address(0)) */\n  tag_16\n  jumpi\n  0x00\n  dup1\n  revert\ntag_16:\n    /* \"contracts/Roles.sol\":949:953  role */\n  dup3\n    /* \"contracts/Roles.sol\":949:960  role.bearer */\n  0x00\n  add\n    /* \"contracts/Roles.sol\":949:969  role.bearer[account] */\n  0x00\n    /* \"contracts/Roles.sol\":961:968  account */\n  dup4\n    /* \"contracts/Roles.sol\":949:969  role.bearer[account] */\n  0xffffffffffffffffffffffffffffffffffffffff\n  and\n  0xffffffffffffffffffffffffffffffffffffffff\n  and\n  dup2\n  mstore\n  0x20\n  add\n  swap1\n  dup2\n  mstore\n  0x20\n  add\n  0x00\n  keccak256\n  0x00\n  swap1\n  sload\n  swap1\n  0x0100\n  exp\n  swap1\n  div\n  0xff\n  and\n    /* \"contracts/Roles.sol\":942:969  return role.bearer[account] */\n  swap1\n  pop\n    /* \"contracts/Roles.sol\":786:976  function has(Role storage role, address account)... */\n  swap3\n  swap2\n  pop\n  pop\n  jump\t// out\n    /* \"contracts/RegulatorRole.sol\":49:1457  contract RegulatorRole {... */\ntag_6:\n  dataSize(sub_0)\n  dup1\n  dataOffset(sub_0)\n  0x00\n  codecopy\n  0x00\n  return\nstop\n\nsub_0: assembly {\n        /* \"contracts/RegulatorRole.sol\":49:1457  contract RegulatorRole {... */\n      mstore(0x40, 0x80)\n      callvalue\n      dup1\n      iszero\n      tag_1\n      jumpi\n      0x00\n      dup1\n      revert\n    tag_1:\n      pop\n      jumpi(tag_2, lt(calldatasize, 0x04))\n      shr(0xe0, calldataload(0x00))\n      dup1\n      0x1beadbe2\n      eq\n      tag_3\n      jumpi\n      dup1\n      0x54fc9169\n      eq\n      tag_4\n      jumpi\n      dup1\n      0xac63f3c7\n      eq\n      tag_5\n      jumpi\n    tag_2:\n      0x00\n      dup1\n      revert\n        /* \"contracts/RegulatorRole.sol\":903:984  function renounceRegulator() public {... */\n    tag_3:\n      tag_6\n      tag_7\n      jump\t// in\n    tag_6:\n      stop\n        /* \"contracts/RegulatorRole.sol\":553:665  function isRegulator(address account) public view returns (bool) {... */\n    tag_4:\n      tag_8\n      0x04\n      dup1\n      calldatasize\n      sub\n      dup2\n      add\n      swap1\n      tag_9\n      swap2\n      swap1\n      tag_10\n      jump\t// in\n    tag_9:\n      tag_11\n      jump\t// in\n    tag_8:\n      mload(0x40)\n      tag_12\n      swap2\n      swap1\n      tag_13\n      jump\t// in\n    tag_12:\n      mload(0x40)\n      dup1\n      swap2\n      sub\n      swap1\n      return\n        /* \"contracts/RegulatorRole.sol\":731:830  function addRegulator(address account) public onlyRegulator {... */\n    tag_5:\n      tag_14\n      0x04\n      dup1\n      calldatasize\n      sub\n      dup2\n      add\n      swap1\n      tag_15\n      swap2\n      swap1\n      tag_10\n      jump\t// in\n    tag_15:\n      tag_16\n      jump\t// in\n    tag_14:\n      stop\n        /* \"contracts/RegulatorRole.sol\":903:984  function renounceRegulator() public {... */\n    tag_7:\n        /* \"contracts/RegulatorRole.sol\":949:977  _removeRegulator(msg.sender) */\n      tag_19\n        /* \"contracts/RegulatorRole.sol\":966:976  msg.sender */\n      caller\n        /* \"contracts/RegulatorRole.sol\":949:965  _removeRegulator */\n      tag_20\n        /* \"contracts/RegulatorRole.sol\":949:977  _removeRegulator(msg.sender) */\n      jump\t// in\n    tag_19:\n        /* \"contracts/RegulatorRole.sol\":903:984  function renounceRegulator() public {... */\n      jump\t// out\n        /* \"contracts/RegulatorRole.sol\":553:665  function isRegulator(address account) public view returns (bool) {... */\n    tag_11:\n        /* \"contracts/RegulatorRole.sol\":612:616  bool */\n      0x00\n        /* \"contracts/RegulatorRole.sol\":635:658  regulators.has(account) */\n      tag_22\n        /* \"contracts/RegulatorRole.sol\":650:657  account */\n      dup3\n        /* \"contracts/RegulatorRole.sol\":635:645  regulators */\n      0x00\n        /* \"contracts/RegulatorRole.sol\":635:649  regulators.has */\n      tag_23\n      swap1\n        /* \"contracts/RegulatorRole.sol\":635:658  regulators.has(account) */\n      swap2\n      swap1\n      0xffffffff\n      and\n      jump\t// in\n    tag_22:\n        /* \"contracts/RegulatorRole.sol\":628:658  return regulators.has(account) */\n      swap1\n      pop\n        /* \"contracts/RegulatorRole.sol\":553:665  function isRegulator(address account) public view returns (bool) {... */\n      swap2\n      swap1\n      pop\n      jump\t// out\n        /* \"contracts/RegulatorRole.sol\":731:830  function addRegulator(address account) public onlyRegulator {... */\n    tag_16:\n        /* \"contracts/RegulatorRole.sol\":447:470  isRegulator(msg.sender) */\n      tag_25\n        /* \"contracts/RegulatorRole.sol\":459:469  msg.sender */\n      caller\n        /* \"contracts/RegulatorRole.sol\":447:458  isRegulator */\n      tag_11\n        /* \"contracts/RegulatorRole.sol\":447:470  isRegulator(msg.sender) */\n      jump\t// in\n    tag_25:\n        /* \"contracts/RegulatorRole.sol\":439:471  require(isRegulator(msg.sender)) */\n      tag_26\n      jumpi\n      0x00\n      dup1\n      revert\n    tag_26:\n        /* \"contracts/RegulatorRole.sol\":801:823  _addRegulator(account) */\n      tag_28\n        /* \"contracts/RegulatorRole.sol\":815:822  account */\n      dup2\n        /* \"contracts/RegulatorRole.sol\":801:814  _addRegulator */\n      tag_29\n        /* \"contracts/RegulatorRole.sol\":801:823  _addRegulator(account) */\n      jump\t// in\n    tag_28:\n        /* \"contracts/RegulatorRole.sol\":731:830  function addRegulator(address account) public onlyRegulator {... */\n      pop\n      jump\t// out\n        /* \"contracts/Roles.sol\":259:440  function add(Role storage role, address account) internal {... */\n    tag_17:\n        /* \"contracts/Roles.sol\":354:355  0 */\n      0x00\n        /* \"contracts/Roles.sol\":335:356  account != address(0) */\n      0xffffffffffffffffffffffffffffffffffffffff\n      and\n        /* \"contracts/Roles.sol\":335:342  account */\n      dup2\n        /* \"contracts/Roles.sol\":335:356  account != address(0) */\n      0xffffffffffffffffffffffffffffffffffffffff\n      and\n      eq\n      iszero\n        /* \"contracts/Roles.sol\":327:357  require(account != address(0)) */\n      tag_31\n      jumpi\n      0x00\n      dup1\n      revert\n    tag_31:\n        /* \"contracts/Roles.sol\":376:394  has(role, account) */\n      tag_32\n        /* \"contracts/Roles.sol\":380:384  role */\n      dup3\n        /* \"contracts/Roles.sol\":386:393  account */\n      dup3\n        /* \"contracts/Roles.sol\":376:379  has */\n      tag_23\n        /* \"contracts/Roles.sol\":376:394  has(role, account) */\n      jump\t// in\n    tag_32:\n        /* \"contracts/Roles.sol\":375:394  !has(role, account) */\n      iszero\n        /* \"contracts/Roles.sol\":367:395  require(!has(role, account)) */\n      tag_33\n      jumpi\n      0x00\n      dup1\n      revert\n    tag_33:\n        /* \"contracts/Roles.sol\":429:433  true */\n      0x01\n        /* \"contracts/Roles.sol\":406:410  role */\n      dup3\n        /* \"contracts/Roles.sol\":406:417  role.bearer */\n      0x00\n      add\n        /* \"contracts/Roles.sol\":406:426  role.bearer[account] */\n      0x00\n        /* \"contracts/Roles.sol\":418:425  account */\n      dup4\n        /* \"contracts/Roles.sol\":406:426  role.bearer[account] */\n      0xffffffffffffffffffffffffffffffffffffffff\n      and\n      0xffffffffffffffffffffffffffffffffffffffff\n      and\n      dup2\n      mstore\n      0x20\n      add\n      swap1\n      dup2\n      mstore\n      0x20\n      add\n      0x00\n      keccak256\n      0x00\n        /* \"contracts/Roles.sol\":406:433  role.bearer[account] = true */\n      0x0100\n      exp\n      dup2\n      sload\n      dup2\n      0xff\n      mul\n      not\n      and\n      swap1\n      dup4\n      iszero\n      iszero\n      mul\n      or\n      swap1\n      sstore\n      pop\n        /* \"contracts/Roles.sol\":259:440  function add(Role storage role, address account) internal {... */\n      pop\n      pop\n      jump\t// out\n        /* \"contracts/RegulatorRole.sol\":1320:1455  function _removeRegulator(address account) internal {... */\n    tag_20:\n        /* \"contracts/RegulatorRole.sol\":1382:1408  regulators.remove(account) */\n      tag_35\n        /* \"contracts/RegulatorRole.sol\":1400:1407  account */\n      dup2\n        /* \"contracts/RegulatorRole.sol\":1382:1392  regulators */\n      0x00\n        /* \"contracts/RegulatorRole.sol\":1382:1399  regulators.remove */\n      tag_36\n      swap1\n        /* \"contracts/RegulatorRole.sol\":1382:1408  regulators.remove(account) */\n      swap2\n      swap1\n      0xffffffff\n      and\n      jump\t// in\n    tag_35:\n        /* \"contracts/RegulatorRole.sol\":1440:1447  account */\n      dup1\n        /* \"contracts/RegulatorRole.sol\":1423:1448  RegulatorRemoved(account) */\n      0xffffffffffffffffffffffffffffffffffffffff\n      and\n      0xc8ecc453f78c13ccc7596603b61935f29b99dc15bb91b91647e1ccf2469ad00a\n      mload(0x40)\n      mload(0x40)\n      dup1\n      swap2\n      sub\n      swap1\n      log2\n        /* \"contracts/RegulatorRole.sol\":1320:1455  function _removeRegulator(address account) internal {... */\n      pop\n      jump\t// out\n        /* \"contracts/Roles.sol\":786:976  function has(Role storage role, address account)... */\n    tag_23:\n        /* \"contracts/Roles.sol\":882:886  bool */\n      0x00\n        /* \"contracts/Roles.sol\":929:930  0 */\n      dup1\n        /* \"contracts/Roles.sol\":910:931  account != address(0) */\n      0xffffffffffffffffffffffffffffffffffffffff\n      and\n        /* \"contracts/Roles.sol\":910:917  account */\n      dup3\n        /* \"contracts/Roles.sol\":910:931  account != address(0) */\n      0xffffffffffffffffffffffffffffffffffffffff\n      and\n      eq\n      iszero\n        /* \"contracts/Roles.sol\":902:932  require(account != address(0)) */\n      tag_38\n      jumpi\n      0x00\n      dup1\n      revert\n    tag_38:\n        /* \"contracts/Roles.sol\":949:953  role */\n      dup3\n        /* \"contracts/Roles.sol\":949:960  role.bearer */\n      0x00\n      add\n        /* \"contracts/Roles.sol\":949:969  role.bearer[account] */\n      0x00\n        /* \"contracts/Roles.sol\":961:968  account */\n      dup4\n        /* \"contracts/Roles.sol\":949:969  role.bearer[account] */\n      0xffffffffffffffffffffffffffffffffffffffff\n      and\n      0xffffffffffffffffffffffffffffffffffffffff\n      and\n      dup2\n      mstore\n      0x20\n      add\n      swap1\n      dup2\n      mstore\n      0x20\n      add\n      0x00\n      keccak256\n      0x00\n      swap1\n      sload\n      swap1\n      0x0100\n      exp\n      swap1\n      div\n      0xff\n      and\n        /* \"contracts/Roles.sol\":942:969  return role.bearer[account] */\n      swap1\n      pop\n        /* \"contracts/Roles.sol\":786:976  function has(Role storage role, address account)... */\n      swap3\n      swap2\n      pop\n      pop\n      jump\t// out\n        /* \"contracts/RegulatorRole.sol\":1084:1211  function _addRegulator(address account) internal {... */\n    tag_29:\n        /* \"contracts/RegulatorRole.sol\":1143:1166  regulators.add(account) */\n      tag_40\n        /* \"contracts/RegulatorRole.sol\":1158:1165  account */\n      dup2\n        /* \"contracts/RegulatorRole.sol\":1143:1153  regulators */\n      0x00\n        /* \"contracts/RegulatorRole.sol\":1143:1157  regulators.add */\n      tag_17\n      swap1\n        /* \"contracts/RegulatorRole.sol\":1143:1166  regulators.add(account) */\n      swap2\n      swap1\n      0xffffffff\n      and\n      jump\t// in\n    tag_40:\n        /* \"contracts/RegulatorRole.sol\":1196:1203  account */\n      dup1\n        /* \"contracts/RegulatorRole.sol\":1181:1204  RegulatorAdded(account) */\n      0xffffffffffffffffffffffffffffffffffffffff\n      and\n      0x2860b5ba44f983f8f363ee6eeb3c24cbca3096803fbdd5129b9e253f01cac076\n      mload(0x40)\n      mload(0x40)\n      dup1\n      swap2\n      sub\n      swap1\n      log2\n        /* \"contracts/RegulatorRole.sol\":1084:1211  function _addRegulator(address account) internal {... */\n      pop\n      jump\t// out\n        /* \"contracts/Roles.sol\":514:698  function remove(Role storage role, address account) internal {... */\n    tag_36:\n        /* \"contracts/Roles.sol\":612:613  0 */\n      0x00\n        /* \"contracts/Roles.sol\":593:614  account != address(0) */\n      0xffffffffffffffffffffffffffffffffffffffff\n      and\n        /* \"contracts/Roles.sol\":593:600  account */\n      dup2\n        /* \"contracts/Roles.sol\":593:614  account != address(0) */\n      0xffffffffffffffffffffffffffffffffffffffff\n      and\n      eq\n      iszero\n        /* \"contracts/Roles.sol\":585:615  require(account != address(0)) */\n      tag_42\n      jumpi\n      0x00\n      dup1\n      revert\n    tag_42:\n        /* \"contracts/Roles.sol\":633:651  has(role, account) */\n      tag_43\n        /* \"contracts/Roles.sol\":637:641  role */\n      dup3\n        /* \"contracts/Roles.sol\":643:650  account */\n      dup3\n        /* \"contracts/Roles.sol\":633:636  has */\n      tag_23\n        /* \"contracts/Roles.sol\":633:651  has(role, account) */\n      jump\t// in\n    tag_43:\n        /* \"contracts/Roles.sol\":625:652  require(has(role, account)) */\n      tag_44\n      jumpi\n      0x00\n      dup1\n      revert\n    tag_44:\n        /* \"contracts/Roles.sol\":686:691  false */\n      0x00\n        /* \"contracts/Roles.sol\":663:667  role */\n      dup3\n        /* \"contracts/Roles.sol\":663:674  role.bearer */\n      0x00\n      add\n        /* \"contracts/Roles.sol\":663:683  role.bearer[account] */\n      0x00\n        /* \"contracts/Roles.sol\":675:682  account */\n      dup4\n        /* \"contracts/Roles.sol\":663:683  role.bearer[account] */\n      0xffffffffffffffffffffffffffffffffffffffff\n      and\n      0xffffffffffffffffffffffffffffffffffffffff\n      and\n      dup2\n      mstore\n      0x20\n      add\n      swap1\n      dup2\n      mstore\n      0x20\n      add\n      0x00\n      keccak256\n      0x00\n        /* \"contracts/Roles.sol\":663:691  role.bearer[account] = false */\n      0x0100\n      exp\n      dup2\n      sload\n      dup2\n      0xff\n      mul\n      not\n      and\n      swap1\n      dup4\n      iszero\n      iszero\n      mul\n      or\n      swap1\n      sstore\n      pop\n        /* \"contracts/Roles.sol\":514:698  function remove(Role storage role, address account) internal {... */\n      pop\n      pop\n      jump\t// out\n        /* \"#utility.yul\":7:146   */\n    tag_46:\n        /* \"#utility.yul\":53:58   */\n      0x00\n        /* \"#utility.yul\":91:97   */\n      dup2\n        /* \"#utility.yul\":78:98   */\n      calldataload\n        /* \"#utility.yul\":69:98   */\n      swap1\n      pop\n        /* \"#utility.yul\":107:140   */\n      tag_48\n        /* \"#utility.yul\":134:139   */\n      dup2\n        /* \"#utility.yul\":107:140   */\n      tag_49\n      jump\t// in\n    tag_48:\n        /* \"#utility.yul\":7:146   */\n      swap3\n      swap2\n      pop\n      pop\n      jump\t// out\n        /* \"#utility.yul\":152:481   */\n    tag_10:\n        /* \"#utility.yul\":211:217   */\n      0x00\n        /* \"#utility.yul\":260:262   */\n      0x20\n        /* \"#utility.yul\":248:257   */\n      dup3\n        /* \"#utility.yul\":239:246   */\n      dup5\n        /* \"#utility.yul\":235:258   */\n      sub\n        /* \"#utility.yul\":231:263   */\n      slt\n        /* \"#utility.yul\":228:347   */\n      iszero\n      tag_51\n      jumpi\n        /* \"#utility.yul\":266:345   */\n      tag_52\n      tag_53\n      jump\t// in\n    tag_52:\n        /* \"#utility.yul\":228:347   */\n    tag_51:\n        /* \"#utility.yul\":386:387   */\n      0x00\n        /* \"#utility.yul\":411:464   */\n      tag_54\n        /* \"#utility.yul\":456:463   */\n      dup5\n        /* \"#utility.yul\":447:453   */\n      dup3\n        /* \"#utility.yul\":436:445   */\n      dup6\n        /* \"#utility.yul\":432:454   */\n      add\n        /* \"#utility.yul\":411:464   */\n      tag_46\n      jump\t// in\n    tag_54:\n        /* \"#utility.yul\":401:464   */\n      swap2\n      pop\n        /* \"#utility.yul\":357:474   */\n      pop\n        /* \"#utility.yul\":152:481   */\n      swap3\n      swap2\n      pop\n      pop\n      jump\t// out\n        /* \"#utility.yul\":487:596   */\n    tag_55:\n        /* \"#utility.yul\":568:589   */\n      tag_57\n        /* \"#utility.yul\":583:588   */\n      dup2\n        /* \"#utility.yul\":568:589   */\n      tag_58\n      jump\t// in\n    tag_57:\n        /* \"#utility.yul\":563:566   */\n      dup3\n        /* \"#utility.yul\":556:590   */\n      mstore\n        /* \"#utility.yul\":487:596   */\n      pop\n      pop\n      jump\t// out\n        /* \"#utility.yul\":602:812   */\n    tag_13:\n        /* \"#utility.yul\":689:693   */\n      0x00\n        /* \"#utility.yul\":727:729   */\n      0x20\n        /* \"#utility.yul\":716:725   */\n      dup3\n        /* \"#utility.yul\":712:730   */\n      add\n        /* \"#utility.yul\":704:730   */\n      swap1\n      pop\n        /* \"#utility.yul\":740:805   */\n      tag_60\n        /* \"#utility.yul\":802:803   */\n      0x00\n        /* \"#utility.yul\":791:800   */\n      dup4\n        /* \"#utility.yul\":787:804   */\n      add\n        /* \"#utility.yul\":778:784   */\n      dup5\n        /* \"#utility.yul\":740:805   */\n      tag_55\n      jump\t// in\n    tag_60:\n        /* \"#utility.yul\":602:812   */\n      swap3\n      swap2\n      pop\n      pop\n      jump\t// out\n        /* \"#utility.yul\":899:995   */\n    tag_63:\n        /* \"#utility.yul\":936:943   */\n      0x00\n        /* \"#utility.yul\":965:989   */\n      tag_65\n        /* \"#utility.yul\":983:988   */\n      dup3\n        /* \"#utility.yul\":965:989   */\n      tag_66\n      jump\t// in\n    tag_65:\n        /* \"#utility.yul\":954:989   */\n      swap1\n      pop\n        /* \"#utility.yul\":899:995   */\n      swap2\n      swap1\n      pop\n      jump\t// out\n        /* \"#utility.yul\":1001:1091   */\n    tag_58:\n        /* \"#utility.yul\":1035:1042   */\n      0x00\n        /* \"#utility.yul\":1078:1083   */\n      dup2\n        /* \"#utility.yul\":1071:1084   */\n      iszero\n        /* \"#utility.yul\":1064:1085   */\n      iszero\n        /* \"#utility.yul\":1053:1085   */\n      swap1\n      pop\n        /* \"#utility.yul\":1001:1091   */\n      swap2\n      swap1\n      pop\n      jump\t// out\n        /* \"#utility.yul\":1097:1223   */\n    tag_66:\n        /* \"#utility.yul\":1134:1141   */\n      0x00\n        /* \"#utility.yul\":1174:1216   */\n      0xffffffffffffffffffffffffffffffffffffffff\n        /* \"#utility.yul\":1167:1172   */\n      dup3\n        /* \"#utility.yul\":1163:1217   */\n      and\n        /* \"#utility.yul\":1152:1217   */\n      swap1\n      pop\n        /* \"#utility.yul\":1097:1223   */\n      swap2\n      swap1\n      pop\n      jump\t// out\n        /* \"#utility.yul\":1352:1469   */\n    tag_53:\n        /* \"#utility.yul\":1461:1462   */\n      0x00\n        /* \"#utility.yul\":1458:1459   */\n      dup1\n        /* \"#utility.yul\":1451:1463   */\n      revert\n        /* \"#utility.yul\":1475:1597   */\n    tag_49:\n        /* \"#utility.yul\":1548:1572   */\n      tag_73\n        /* \"#utility.yul\":1566:1571   */\n      dup2\n        /* \"#utility.yul\":1548:1572   */\n      tag_63\n      jump\t// in\n    tag_73:\n        /* \"#utility.yul\":1541:1546   */\n      dup2\n        /* \"#utility.yul\":1538:1573   */\n      eq\n        /* \"#utility.yul\":1528:1591   */\n      tag_74\n      jumpi\n        /* \"#utility.yul\":1587:1588   */\n      0x00\n        /* \"#utility.yul\":1584:1585   */\n      dup1\n        /* \"#utility.yul\":1577:1589   */\n      revert\n        /* \"#utility.yul\":1528:1591   */\n    tag_74:\n        /* \"#utility.yul\":1475:1597   */\n      pop\n      jump\t// out\n\n    auxdata: 0xa26469706673582212204c88086734a98c954b785c2b28a6e52430fd28a6ee1d9afcfbb34f681153c41864736f6c63430008070033\n}\n",
				"bytecode": {
					"linkReferences": {},
					"object": "608060405234801561001057600080fd5b506100203361002560201b60201c565b6101c7565b61003d81600061008360201b6100e21790919060201c565b8073ffffffffffffffffffffffffffffffffffffffff167f2860b5ba44f983f8f363ee6eeb3c24cbca3096803fbdd5129b9e253f01cac07660405160405180910390a250565b600073ffffffffffffffffffffffffffffffffffffffff168173ffffffffffffffffffffffffffffffffffffffff1614156100bd57600080fd5b6100cd828261013560201b60201c565b156100d757600080fd5b60018260000160008373ffffffffffffffffffffffffffffffffffffffff1673ffffffffffffffffffffffffffffffffffffffff16815260200190815260200160002060006101000a81548160ff0219169083151502179055505050565b60008073ffffffffffffffffffffffffffffffffffffffff168273ffffffffffffffffffffffffffffffffffffffff16141561017057600080fd5b8260000160008373ffffffffffffffffffffffffffffffffffffffff1673ffffffffffffffffffffffffffffffffffffffff16815260200190815260200160002060009054906101000a900460ff16905092915050565b61047b806101d66000396000f3fe608060405234801561001057600080fd5b50600436106100415760003560e01c80631beadbe21461004657806354fc916914610050578063ac63f3c714610080575b600080fd5b61004e61009c565b005b61006a60048036038101906100659190610394565b6100a7565b60405161007791906103d0565b60405180910390f35b61009a60048036038101906100959190610394565b6100c4565b005b6100a53361018e565b565b60006100bd8260006101e890919063ffffffff16565b9050919050565b6100cd336100a7565b6100d657600080fd5b6100df8161027a565b50565b600073ffffffffffffffffffffffffffffffffffffffff168173ffffffffffffffffffffffffffffffffffffffff16141561011c57600080fd5b61012682826101e8565b1561013057600080fd5b60018260000160008373ffffffffffffffffffffffffffffffffffffffff1673ffffffffffffffffffffffffffffffffffffffff16815260200190815260200160002060006101000a81548160ff0219169083151502179055505050565b6101a28160006102d490919063ffffffff16565b8073ffffffffffffffffffffffffffffffffffffffff167fc8ecc453f78c13ccc7596603b61935f29b99dc15bb91b91647e1ccf2469ad00a60405160405180910390a250565b60008073ffffffffffffffffffffffffffffffffffffffff168273ffffffffffffffffffffffffffffffffffffffff16141561022357600080fd5b8260000160008373ffffffffffffffffffffffffffffffffffffffff1673ffffffffffffffffffffffffffffffffffffffff16815260200190815260200160002060009054906101000a900460ff16905092915050565b61028e8160006100e290919063ffffffff16565b8073ffffffffffffffffffffffffffffffffffffffff167f2860b5ba44f983f8f363ee6eeb3c24cbca3096803fbdd5129b9e253f01cac07660405160405180910390a250565b600073ffffffffffffffffffffffffffffffffffffffff168173ffffffffffffffffffffffffffffffffffffffff16141561030e57600080fd5b61031882826101e8565b61032157600080fd5b60008260000160008373ffffffffffffffffffffffffffffffffffffffff1673ffffffffffffffffffffffffffffffffffffffff16815260200190815260200160002060006101000a81548160ff0219169083151502179055505050565b60008135905061038e8161042e565b92915050565b6000602082840312156103aa576103a9610429565b5b60006103b88482850161037f565b91505092915050565b6103ca816103fd565b82525050565b60006020820190506103e560008301846103c1565b92915050565b60006103f682610409565b9050919050565b60008115159050919050565b600073ffffffffffffffffffffffffffffffffffffffff82169050919050565b600080fd5b610437816103eb565b811461044257600080fd5b5056fea26469706673582212204c88086734a98c954b785c2b28a6e52430fd28a6ee1d9afcfbb34f681153c41864736f6c63430008070033",
					"opcodes": "PUSH1 0x80 PUSH1 0x40 MSTORE CALLVALUE DUP1 ISZERO PUSH2 0x10 JUMPI PUSH1 0x0 DUP1 REVERT JUMPDEST POP PUSH2 0x20 CALLER PUSH2 0x25 PUSH1 0x20 SHL PUSH1 0x20 SHR JUMP JUMPDEST PUSH2 0x1C7 JUMP JUMPDEST PUSH2 0x3D DUP2 PUSH1 0x0 PUSH2 0x83 PUSH1 0x20 SHL PUSH2 0xE2 OR SWAP1 SWAP2 SWAP1 PUSH1 0x20 SHR JUMP JUMPDEST DUP1 PUSH20 0xFFFFFFFFFFFFFFFFFFFFFFFFFFFFFFFFFFFFFFFF AND PUSH32 0x2860B5BA44F983F8F363EE6EEB3C24CBCA3096803FBDD5129B9E253F01CAC076 PUSH1 0x40 MLOAD PUSH1 0x40 MLOAD DUP1 SWAP2 SUB SWAP1 LOG2 POP JUMP JUMPDEST PUSH1 0x0 PUSH20 0xFFFFFFFFFFFFFFFFFFFFFFFFFFFFFFFFFFFFFFFF AND DUP2 PUSH20 0xFFFFFFFFFFFFFFFFFFFFFFFFFFFFFFFFFFFFFFFF AND EQ ISZERO PUSH2 0xBD JUMPI PUSH1 0x0 DUP1 REVERT JUMPDEST PUSH2 0xCD DUP3 DUP3 PUSH2 0x135 PUSH1 0x20 SHL PUSH1 0x20 SHR JUMP JUMPDEST ISZERO PUSH2 0xD7 JUMPI PUSH1 0x0 DUP1 REVERT JUMPDEST PUSH1 0x1 DUP3 PUSH1 0x0 ADD PUSH1 0x0 DUP4 PUSH20 0xFFFFFFFFFFFFFFFFFFFFFFFFFFFFFFFFFFFFFFFF AND PUSH20 0xFFFFFFFFFFFFFFFFFFFFFFFFFFFFFFFFFFFFFFFF AND DUP2 MSTORE PUSH1 0x20 ADD SWAP1 DUP2 MSTORE PUSH1 0x20 ADD PUSH1 0x0 KECCAK256 PUSH1 0x0 PUSH2 0x100 EXP DUP2 SLOAD DUP2 PUSH1 0xFF MUL NOT AND SWAP1 DUP4 ISZERO ISZERO MUL OR SWAP1 SSTORE POP POP POP JUMP JUMPDEST PUSH1 0x0 DUP1 PUSH20 0xFFFFFFFFFFFFFFFFFFFFFFFFFFFFFFFFFFFFFFFF AND DUP3 PUSH20 0xFFFFFFFFFFFFFFFFFFFFFFFFFFFFFFFFFFFFFFFF AND EQ ISZERO PUSH2 0x170 JUMPI PUSH1 0x0 DUP1 REVERT JUMPDEST DUP3 PUSH1 0x0 ADD PUSH1 0x0 DUP4 PUSH20 0xFFFFFFFFFFFFFFFFFFFFFFFFFFFFFFFFFFFFFFFF AND PUSH20 0xFFFFFFFFFFFFFFFFFFFFFFFFFFFFFFFFFFFFFFFF AND DUP2 MSTORE PUSH1 0x20 ADD SWAP1 DUP2 MSTORE PUSH1 0x20 ADD PUSH1 0x0 KECCAK256 PUSH1 0x0 SWAP1 SLOAD SWAP1 PUSH2 0x100 EXP SWAP1 DIV PUSH1 0xFF AND SWAP1 POP SWAP3 SWAP2 POP POP JUMP JUMPDEST PUSH2 0x47B DUP1 PUSH2 0x1D6 PUSH1 0x0 CODECOPY PUSH1 0x0 RETURN INVALID PUSH1 0x80 PUSH1 0x40 MSTORE CALLVALUE DUP1 ISZERO PUSH2 0x10 JUMPI PUSH1 0x0 DUP1 REVERT JUMPDEST POP PUSH1 0x4 CALLDATASIZE LT PUSH2 0x41 JUMPI PUSH1 0x0 CALLDATALOAD PUSH1 0xE0 SHR DUP1 PUSH4 0x1BEADBE2 EQ PUSH2 0x46 JUMPI DUP1 PUSH4 0x54FC9169 EQ PUSH2 0x50 JUMPI DUP1 PUSH4 0xAC63F3C7 EQ PUSH2 0x80 JUMPI JUMPDEST PUSH1 0x0 DUP1 REVERT JUMPDEST PUSH2 0x4E PUSH2 0x9C JUMP JUMPDEST STOP JUMPDEST PUSH2 0x6A PUSH1 0x4 DUP1 CALLDATASIZE SUB DUP2 ADD SWAP1 PUSH2 0x65 SWAP2 SWAP1 PUSH2 0x394 JUMP JUMPDEST PUSH2 0xA7 JUMP JUMPDEST PUSH1 0x40 MLOAD PUSH2 0x77 SWAP2 SWAP1 PUSH2 0x3D0 JUMP JUMPDEST PUSH1 0x40 MLOAD DUP1 SWAP2 SUB SWAP1 RETURN JUMPDEST PUSH2 0x9A PUSH1 0x4 DUP1 CALLDATASIZE SUB DUP2 ADD SWAP1 PUSH2 0x95 SWAP2 SWAP1 PUSH2 0x394 JUMP JUMPDEST PUSH2 0xC4 JUMP JUMPDEST STOP JUMPDEST PUSH2 0xA5 CALLER PUSH2 0x18E JUMP JUMPDEST JUMP JUMPDEST PUSH1 0x0 PUSH2 0xBD DUP3 PUSH1 0x0 PUSH2 0x1E8 SWAP1 SWAP2 SWAP1 PUSH4 0xFFFFFFFF AND JUMP JUMPDEST SWAP1 POP SWAP2 SWAP1 POP JUMP JUMPDEST PUSH2 0xCD CALLER PUSH2 0xA7 JUMP JUMPDEST PUSH2 0xD6 JUMPI PUSH1 0x0 DUP1 REVERT JUMPDEST PUSH2 0xDF DUP2 PUSH2 0x27A JUMP JUMPDEST POP JUMP JUMPDEST PUSH1 0x0 PUSH20 0xFFFFFFFFFFFFFFFFFFFFFFFFFFFFFFFFFFFFFFFF AND DUP2 PUSH20 0xFFFFFFFFFFFFFFFFFFFFFFFFFFFFFFFFFFFFFFFF AND EQ ISZERO PUSH2 0x11C JUMPI PUSH1 0x0 DUP1 REVERT JUMPDEST PUSH2 0x126 DUP3 DUP3 PUSH2 0x1E8 JUMP JUMPDEST ISZERO PUSH2 0x130 JUMPI PUSH1 0x0 DUP1 REVERT JUMPDEST PUSH1 0x1 DUP3 PUSH1 0x0 ADD PUSH1 0x0 DUP4 PUSH20 0xFFFFFFFFFFFFFFFFFFFFFFFFFFFFFFFFFFFFFFFF AND PUSH20 0xFFFFFFFFFFFFFFFFFFFFFFFFFFFFFFFFFFFFFFFF AND DUP2 MSTORE PUSH1 0x20 ADD SWAP1 DUP2 MSTORE PUSH1 0x20 ADD PUSH1 0x0 KECCAK256 PUSH1 0x0 PUSH2 0x100 EXP DUP2 SLOAD DUP2 PUSH1 0xFF MUL NOT AND SWAP1 DUP4 ISZERO ISZERO MUL OR SWAP1 SSTORE POP POP POP JUMP JUMPDEST PUSH2 0x1A2 DUP2 PUSH1 0x0 PUSH2 0x2D4 SWAP1 SWAP2 SWAP1 PUSH4 0xFFFFFFFF AND JUMP JUMPDEST DUP1 PUSH20 0xFFFFFFFFFFFFFFFFFFFFFFFFFFFFFFFFFFFFFFFF AND PUSH32 0xC8ECC453F78C13CCC7596603B61935F29B99DC15BB91B91647E1CCF2469AD00A PUSH1 0x40 MLOAD PUSH1 0x40 MLOAD DUP1 SWAP2 SUB SWAP1 LOG2 POP JUMP JUMPDEST PUSH1 0x0 DUP1 PUSH20 0xFFFFFFFFFFFFFFFFFFFFFFFFFFFFFFFFFFFFFFFF AND DUP3 PUSH20 0xFFFFFFFFFFFFFFFFFFFFFFFFFFFFFFFFFFFFFFFF AND EQ ISZERO PUSH2 0x223 JUMPI PUSH1 0x0 DUP1 REVERT JUMPDEST DUP3 PUSH1 0x0 ADD PUSH1 0x0 DUP4 PUSH20 0xFFFFFFFFFFFFFFFFFFFFFFFFFFFFFFFFFFFFFFFF AND PUSH20 0xFFFFFFFFFFFFFFFFFFFFFFFFFFFFFFFFFFFFFFFF AND DUP2 MSTORE PUSH1 0x20 ADD SWAP1 DUP2 MSTORE PUSH1 0x20 ADD PUSH1 0x0 KECCAK256 PUSH1 0x0 SWAP1 SLOAD SWAP1 PUSH2 0x100 EXP SWAP1 DIV PUSH1 0xFF AND SWAP1 POP SWAP3 SWAP2 POP POP JUMP JUMPDEST PUSH2 0x28E DUP2 PUSH1 0x0 PUSH2 0xE2 SWAP1 SWAP2 SWAP1 PUSH4 0xFFFFFFFF AND JUMP JUMPDEST DUP1 PUSH20 0xFFFFFFFFFFFFFFFFFFFFFFFFFFFFFFFFFFFFFFFF AND PUSH32 0x2860B5BA44F983F8F363EE6EEB3C24CBCA3096803FBDD5129B9E253F01CAC076 PUSH1 0x40 MLOAD PUSH1 0x40 MLOAD DUP1 SWAP2 SUB SWAP1 LOG2 POP JUMP JUMPDEST PUSH1 0x0 PUSH20 0xFFFFFFFFFFFFFFFFFFFFFFFFFFFFFFFFFFFFFFFF AND DUP2 PUSH20 0xFFFFFFFFFFFFFFFFFFFFFFFFFFFFFFFFFFFFFFFF AND EQ ISZERO PUSH2 0x30E JUMPI PUSH1 0x0 DUP1 REVERT JUMPDEST PUSH2 0x318 DUP3 DUP3 PUSH2 0x1E8 JUMP JUMPDEST PUSH2 0x321 JUMPI PUSH1 0x0 DUP1 REVERT JUMPDEST PUSH1 0x0 DUP3 PUSH1 0x0 ADD PUSH1 0x0 DUP4 PUSH20 0xFFFFFFFFFFFFFFFFFFFFFFFFFFFFFFFFFFFFFFFF AND PUSH20 0xFFFFFFFFFFFFFFFFFFFFFFFFFFFFFFFFFFFFFFFF AND DUP2 MSTORE PUSH1 0x20 ADD SWAP1 DUP2 MSTORE PUSH1 0x20 ADD PUSH1 0x0 KECCAK256 PUSH1 0x0 PUSH2 0x100 EXP DUP2 SLOAD DUP2 PUSH1 0xFF MUL NOT AND SWAP1 DUP4 ISZERO ISZERO MUL OR SWAP1 SSTORE POP POP POP JUMP JUMPDEST PUSH1 0x0 DUP2 CALLDATALOAD SWAP1 POP PUSH2 0x38E DUP2 PUSH2 0x42E JUMP JUMPDEST SWAP3 SWAP2 POP POP JUMP JUMPDEST PUSH1 0x0 PUSH1 0x20 DUP3 DUP5 SUB SLT ISZERO PUSH2 0x3AA JUMPI PUSH2 0x3A9 PUSH2 0x429 JUMP JUMPDEST JUMPDEST PUSH1 0x0 PUSH2 0x3B8 DUP5 DUP3 DUP6 ADD PUSH2 0x37F JUMP JUMPDEST SWAP2 POP POP SWAP3 SWAP2 POP POP JUMP JUMPDEST PUSH2 0x3CA DUP2 PUSH2 0x3FD JUMP JUMPDEST DUP3 MSTORE POP POP JUMP JUMPDEST PUSH1 0x0 PUSH1 0x20 DUP3 ADD SWAP1 POP PUSH2 0x3E5 PUSH1 0x0 DUP4 ADD DUP5 PUSH2 0x3C1 JUMP JUMPDEST SWAP3 SWAP2 POP POP JUMP JUMPDEST PUSH1 0x0 PUSH2 0x3F6 DUP3 PUSH2 0x409 JUMP JUMPDEST SWAP1 POP SWAP2 SWAP1 POP JUMP JUMPDEST PUSH1 0x0 DUP2 ISZERO ISZERO SWAP1 POP SWAP2 SWAP1 POP JUMP JUMPDEST PUSH1 0x0 PUSH20 0xFFFFFFFFFFFFFFFFFFFFFFFFFFFFFFFFFFFFFFFF DUP3 AND SWAP1 POP SWAP2 SWAP1 POP JUMP JUMPDEST PUSH1 0x0 DUP1 REVERT JUMPDEST PUSH2 0x437 DUP2 PUSH2 0x3EB JUMP JUMPDEST DUP2 EQ PUSH2 0x442 JUMPI PUSH1 0x0 DUP1 REVERT JUMPDEST POP JUMP INVALID LOG2 PUSH5 0x6970667358 0x22 SLT KECCAK256 0x4C DUP9 ADDMOD PUSH8 0x34A98C954B785C2B 0x28 0xA6 0xE5 0x24 ADDRESS REVERT 0x28 0xA6 0xEE SAR SWAP11 0xFC 0xFB 0xB3 0x4F PUSH9 0x1153C41864736F6C63 NUMBER STOP ADDMOD SMOD STOP CALLER "
				},
				"gasEstimates": {
					"creation": {
						"codeDepositCost": "229400",
						"executionCost": "infinite",
						"totalCost": "infinite"
					},
					"external": {
						"addRegulator(address)": "infinite",
						"isRegulator(address)": "infinite",
						"renounceRegulator()": "infinite"
					},
					"internal": {
						"_addRegulator(address)": "infinite",
						"_removeRegulator(address)": "infinite"
					}
				},
				"methodIdentifiers": {
					"addRegulator(address)": "ac63f3c7",
					"isRegulator(address)": "54fc9169",
					"renounceRegulator()": "1beadbe2"
				}
			},
			"storageLayout": {
				"storage": [
					{
						"astId": 227,
						"contract": "contracts/RegulatorRole.sol:RegulatorRole",
						"label": "regulators",
						"offset": 0,
						"slot": "0",
						"type": "t_struct(Role)322_storage"
					}
				],
				"types": {
					"t_address": {
						"encoding": "inplace",
						"label": "address",
						"numberOfBytes": "20"
					},
					"t_bool": {
						"encoding": "inplace",
						"label": "bool",
						"numberOfBytes": "1"
					},
					"t_mapping(t_address,t_bool)": {
						"encoding": "mapping",
						"key": "t_address",
						"label": "mapping(address => bool)",
						"numberOfBytes": "32",
						"value": "t_bool"
					},
					"t_struct(Role)322_storage": {
						"encoding": "inplace",
						"label": "struct Roles.Role",
						"members": [
							{
								"astId": 321,
								"contract": "contracts/RegulatorRole.sol:RegulatorRole",
								"label": "bearer",
								"offset": 0,
								"slot": "0",
								"type": "t_mapping(t_address,t_bool)"
							}
						],
						"numberOfBytes": "32"
					}
				}
			},
			"userdoc": {
				"kind": "user",
				"methods": {},
				"version": 1
			}
		}
	}
}