{
  "contractName": "BuyerRole",
  "abi": [
    {
      "inputs": [],
      "stateMutability": "nonpayable",
      "type": "constructor"
    },
    {
      "anonymous": false,
      "inputs": [
        {
          "indexed": true,
          "internalType": "address",
          "name": "account",
          "type": "address"
        }
      ],
      "name": "BuyerAdded",
      "type": "event"
    },
    {
      "anonymous": false,
      "inputs": [
        {
          "indexed": true,
          "internalType": "address",
          "name": "account",
          "type": "address"
        }
      ],
      "name": "BuyerRemoved",
      "type": "event"
    },
    {
      "inputs": [
        {
          "internalType": "address",
          "name": "account",
          "type": "address"
        }
      ],
      "name": "isBuyer",
      "outputs": [
        {
          "internalType": "bool",
          "name": "",
          "type": "bool"
        }
      ],
      "stateMutability": "view",
      "type": "function",
      "constant": true
    },
    {
      "inputs": [
        {
          "internalType": "address",
          "name": "account",
          "type": "address"
        }
      ],
      "name": "addBuyer",
      "outputs": [],
      "stateMutability": "nonpayable",
      "type": "function"
    },
    {
      "inputs": [],
      "name": "renounceBuyer",
      "outputs": [],
      "stateMutability": "nonpayable",
      "type": "function"
    }
  ],
  "bytecode": "0x608060405234801561001057600080fd5b506100203361002560201b60201c565b6101c5565b61003d81600061008360201b6100e21790919060201c565b8073ffffffffffffffffffffffffffffffffffffffff167f6599d9dd7f97ccdc3d99ab507544f9f6ebfca20c63a7e3c018da49eeaefb164a60405160405180910390a250565b600073ffffffffffffffffffffffffffffffffffffffff168173ffffffffffffffffffffffffffffffffffffffff16036100bc57600080fd5b6100cc828261013460201b60201c565b156100d657600080fd5b60018260000160008373ffffffffffffffffffffffffffffffffffffffff1673ffffffffffffffffffffffffffffffffffffffff16815260200190815260200160002060006101000a81548160ff0219169083151502179055505050565b60008073ffffffffffffffffffffffffffffffffffffffff168273ffffffffffffffffffffffffffffffffffffffff160361016e57600080fd5b8260000160008373ffffffffffffffffffffffffffffffffffffffff1673ffffffffffffffffffffffffffffffffffffffff16815260200190815260200160002060009054906101000a900460ff16905092915050565b610478806101d46000396000f3fe608060405234801561001057600080fd5b50600436106100415760003560e01c80632a55feec14610046578063bbf8980314610076578063c204a0cf14610092575b600080fd5b610060600480360381019061005b91906103df565b61009c565b60405161006d9190610427565b60405180910390f35b610090600480360381019061008b91906103df565b6100b9565b005b61009a6100d7565b005b60006100b282600061018d90919063ffffffff16565b9050919050565b6100c23361009c565b6100cb57600080fd5b6100d48161021e565b50565b6100e033610278565b565b600073ffffffffffffffffffffffffffffffffffffffff168173ffffffffffffffffffffffffffffffffffffffff160361011b57600080fd5b610125828261018d565b1561012f57600080fd5b60018260000160008373ffffffffffffffffffffffffffffffffffffffff1673ffffffffffffffffffffffffffffffffffffffff16815260200190815260200160002060006101000a81548160ff0219169083151502179055505050565b60008073ffffffffffffffffffffffffffffffffffffffff168273ffffffffffffffffffffffffffffffffffffffff16036101c757600080fd5b8260000160008373ffffffffffffffffffffffffffffffffffffffff1673ffffffffffffffffffffffffffffffffffffffff16815260200190815260200160002060009054906101000a900460ff16905092915050565b6102328160006100e290919063ffffffff16565b8073ffffffffffffffffffffffffffffffffffffffff167f6599d9dd7f97ccdc3d99ab507544f9f6ebfca20c63a7e3c018da49eeaefb164a60405160405180910390a250565b61028c8160006102d290919063ffffffff16565b8073ffffffffffffffffffffffffffffffffffffffff167f83fd4cbc7bc934bdfbae994ac6e72fcc0e50abd6995c1949520e761ba650d58260405160405180910390a250565b600073ffffffffffffffffffffffffffffffffffffffff168173ffffffffffffffffffffffffffffffffffffffff160361030b57600080fd5b610315828261018d565b61031e57600080fd5b60008260000160008373ffffffffffffffffffffffffffffffffffffffff1673ffffffffffffffffffffffffffffffffffffffff16815260200190815260200160002060006101000a81548160ff0219169083151502179055505050565b600080fd5b600073ffffffffffffffffffffffffffffffffffffffff82169050919050565b60006103ac82610381565b9050919050565b6103bc816103a1565b81146103c757600080fd5b50565b6000813590506103d9816103b3565b92915050565b6000602082840312156103f5576103f461037c565b5b6000610403848285016103ca565b91505092915050565b60008115159050919050565b6104218161040c565b82525050565b600060208201905061043c6000830184610418565b9291505056fea264697066735822122091735ec0ec43f5ef06b1d4b64c60665bb43ef0dd535f69fea9b4be221f2c813b64736f6c63430008110033",
  "immutableReferences": {},
  "source": "pragma solidity >=0.8.7;\n\nimport \"./Roles.sol\";\n\ncontract BuyerRole {\n    using Roles for Roles.Role;\n\n    event BuyerAdded(address indexed account);\n    event BuyerRemoved(address indexed account);\n\n    Roles.Role private buyers;\n\n    constructor() {\n        _addBuyer(msg.sender);\n    }\n\n    // Define a modifier that checks to see if msg.sender has the appropriate role\n    modifier onlyBuyer() {\n        require(isBuyer(msg.sender));\n        _;\n    }\n\n    // Define a function 'isBuyer' to check this role\n    function isBuyer(address account) public view returns (bool) {\n        return buyers.has(account);\n    }\n\n    // Define a function 'addBuyer' that adds this role\n    function addBuyer(address account) public onlyBuyer {\n        _addBuyer(account);\n    }\n\n    // Define a function 'renounceBuyer' to renounce this role\n    function renounceBuyer() public {\n        _removeBuyer(msg.sender);\n    }\n\n    // Define an internal function '_addBuyer' to add this role, called by 'addBuyer'\n    function _addBuyer(address account) internal {\n        buyers.add(account);\n        emit BuyerAdded(account);\n    }\n\n    // Define an internal function '_removeBuyer' to remove this role, called by 'removeBuyer'\n    function _removeBuyer(address account) internal {\n        buyers.remove(account);\n        emit BuyerRemoved(account);\n    }\n}\n",
  "sourcePath": "/Users/israelandrade/Documents/Udacity/blockchain-nanodegree/supply-chain-dapp/supply-chain/contracts/BuyerRole.sol",
  "compiler": {
    "name": "solc",
    "version": "0.8.17+commit.8df45f5f.Emscripten.clang"
  },
  "schemaVersion": "3.4.9",
  "updatedAt": "2022-10-25T19:22:57.488Z",
  "networkType": "ethereum",
  "devdoc": {
    "kind": "dev",
    "methods": {},
    "version": 1
  },
  "userdoc": {
    "kind": "user",
    "methods": {},
    "version": 1
  }
}