{
  "contractName": "Ownable",
  "abi": [
    {
      "inputs": [],
      "stateMutability": "nonpayable",
      "type": "constructor"
    },
    {
      "anonymous": false,
      "inputs": [
        {
          "indexed": false,
          "internalType": "uint256",
          "name": "upc",
          "type": "uint256"
        }
      ],
      "name": "Approved",
      "type": "event"
    },
    {
      "anonymous": false,
      "inputs": [
        {
          "indexed": false,
          "internalType": "uint256",
          "name": "upc",
          "type": "uint256"
        }
      ],
      "name": "Available",
      "type": "event"
    },
    {
      "anonymous": false,
      "inputs": [
        {
          "indexed": false,
          "internalType": "uint256",
          "name": "upc",
          "type": "uint256"
        }
      ],
      "name": "Bought",
      "type": "event"
    },
    {
      "anonymous": false,
      "inputs": [
        {
          "indexed": true,
          "internalType": "address",
          "name": "account",
          "type": "address"
        }
      ],
      "name": "BuyerAdded",
      "type": "event"
    },
    {
      "anonymous": false,
      "inputs": [
        {
          "indexed": true,
          "internalType": "address",
          "name": "account",
          "type": "address"
        }
      ],
      "name": "BuyerRemoved",
      "type": "event"
    },
    {
      "anonymous": false,
      "inputs": [
        {
          "indexed": true,
          "internalType": "address",
          "name": "account",
          "type": "address"
        }
      ],
      "name": "PharmaAdded",
      "type": "event"
    },
    {
      "anonymous": false,
      "inputs": [
        {
          "indexed": true,
          "internalType": "address",
          "name": "account",
          "type": "address"
        }
      ],
      "name": "PharmaRemoved",
      "type": "event"
    },
    {
      "anonymous": false,
      "inputs": [
        {
          "indexed": false,
          "internalType": "uint256",
          "name": "upc",
          "type": "uint256"
        }
      ],
      "name": "Produced",
      "type": "event"
    },
    {
      "anonymous": false,
      "inputs": [
        {
          "indexed": true,
          "internalType": "address",
          "name": "account",
          "type": "address"
        }
      ],
      "name": "RegulatorAdded",
      "type": "event"
    },
    {
      "anonymous": false,
      "inputs": [
        {
          "indexed": true,
          "internalType": "address",
          "name": "account",
          "type": "address"
        }
      ],
      "name": "RegulatorRemoved",
      "type": "event"
    },
    {
      "anonymous": false,
      "inputs": [
        {
          "indexed": false,
          "internalType": "uint256",
          "name": "upc",
          "type": "uint256"
        }
      ],
      "name": "SentToMarket",
      "type": "event"
    },
    {
      "anonymous": false,
      "inputs": [
        {
          "indexed": false,
          "internalType": "uint256",
          "name": "upc",
          "type": "uint256"
        }
      ],
      "name": "SentToVerification",
      "type": "event"
    },
    {
      "anonymous": false,
      "inputs": [
        {
          "indexed": false,
          "internalType": "uint256",
          "name": "upc",
          "type": "uint256"
        }
      ],
      "name": "Tested",
      "type": "event"
    },
    {
      "anonymous": false,
      "inputs": [
        {
          "indexed": true,
          "internalType": "address",
          "name": "oldOwner",
          "type": "address"
        },
        {
          "indexed": true,
          "internalType": "address",
          "name": "newOwner",
          "type": "address"
        }
      ],
      "name": "TransferOwnership",
      "type": "event"
    },
    {
      "inputs": [
        {
          "internalType": "address",
          "name": "account",
          "type": "address"
        }
      ],
      "name": "addBuyer",
      "outputs": [],
      "stateMutability": "nonpayable",
      "type": "function"
    },
    {
      "inputs": [
        {
          "internalType": "address",
          "name": "account",
          "type": "address"
        }
      ],
      "name": "addPharma",
      "outputs": [],
      "stateMutability": "nonpayable",
      "type": "function"
    },
    {
      "inputs": [
        {
          "internalType": "address",
          "name": "account",
          "type": "address"
        }
      ],
      "name": "addRegulator",
      "outputs": [],
      "stateMutability": "nonpayable",
      "type": "function"
    },
    {
      "inputs": [
        {
          "internalType": "uint256",
          "name": "_upc",
          "type": "uint256"
        }
      ],
      "name": "approveMedicine",
      "outputs": [],
      "stateMutability": "nonpayable",
      "type": "function"
    },
    {
      "inputs": [
        {
          "internalType": "uint256",
          "name": "_upc",
          "type": "uint256"
        }
      ],
      "name": "buyMedicine",
      "outputs": [],
      "stateMutability": "payable",
      "type": "function",
      "payable": true
    },
    {
      "inputs": [
        {
          "internalType": "uint256",
          "name": "_upc",
          "type": "uint256"
        }
      ],
      "name": "fetchItem",
      "outputs": [
        {
          "internalType": "uint256",
          "name": "_sku",
          "type": "uint256"
        },
        {
          "internalType": "uint256",
          "name": "upc",
          "type": "uint256"
        },
        {
          "internalType": "address",
          "name": "ownerId",
          "type": "address"
        },
        {
          "internalType": "address",
          "name": "originPharmaId",
          "type": "address"
        },
        {
          "internalType": "string",
          "name": "originPharmaName",
          "type": "string"
        },
        {
          "internalType": "string",
          "name": "originPharmaInformation",
          "type": "string"
        },
        {
          "internalType": "string",
          "name": "originPharmaCountry",
          "type": "string"
        },
        {
          "internalType": "string",
          "name": "productName",
          "type": "string"
        },
        {
          "internalType": "uint256",
          "name": "productPrice",
          "type": "uint256"
        },
        {
          "internalType": "string",
          "name": "itemState",
          "type": "string"
        },
        {
          "internalType": "address",
          "name": "regulatorId",
          "type": "address"
        },
        {
          "internalType": "address",
          "name": "buyerId",
          "type": "address"
        }
      ],
      "stateMutability": "view",
      "type": "function",
      "constant": true
    },
    {
      "inputs": [
        {
          "internalType": "address",
          "name": "account",
          "type": "address"
        }
      ],
      "name": "isBuyer",
      "outputs": [
        {
          "internalType": "bool",
          "name": "",
          "type": "bool"
        }
      ],
      "stateMutability": "view",
      "type": "function",
      "constant": true
    },
    {
      "inputs": [
        {
          "internalType": "address",
          "name": "account",
          "type": "address"
        }
      ],
      "name": "isPharma",
      "outputs": [
        {
          "internalType": "bool",
          "name": "",
          "type": "bool"
        }
      ],
      "stateMutability": "view",
      "type": "function",
      "constant": true
    },
    {
      "inputs": [
        {
          "internalType": "address",
          "name": "account",
          "type": "address"
        }
      ],
      "name": "isRegulator",
      "outputs": [
        {
          "internalType": "bool",
          "name": "",
          "type": "bool"
        }
      ],
      "stateMutability": "view",
      "type": "function",
      "constant": true
    },
    {
      "inputs": [],
      "name": "kill",
      "outputs": [],
      "stateMutability": "nonpayable",
      "type": "function"
    },
    {
      "inputs": [
        {
          "internalType": "uint256",
          "name": "_upc",
          "type": "uint256"
        },
        {
          "internalType": "string",
          "name": "_originPharmaName",
          "type": "string"
        },
        {
          "internalType": "string",
          "name": "_originPharmaInformation",
          "type": "string"
        },
        {
          "internalType": "string",
          "name": "_originPharmaCountry",
          "type": "string"
        },
        {
          "internalType": "string",
          "name": "_productName",
          "type": "string"
        }
      ],
      "name": "produceMedicine",
      "outputs": [],
      "stateMutability": "payable",
      "type": "function",
      "payable": true
    },
    {
      "inputs": [],
      "name": "renounceBuyer",
      "outputs": [],
      "stateMutability": "nonpayable",
      "type": "function"
    },
    {
      "inputs": [],
      "name": "renouncePharma",
      "outputs": [],
      "stateMutability": "nonpayable",
      "type": "function"
    },
    {
      "inputs": [],
      "name": "renounceRegulator",
      "outputs": [],
      "stateMutability": "nonpayable",
      "type": "function"
    },
    {
      "inputs": [
        {
          "internalType": "uint256",
          "name": "_upc",
          "type": "uint256"
        }
      ],
      "name": "replenishHospitals",
      "outputs": [],
      "stateMutability": "nonpayable",
      "type": "function"
    },
    {
      "inputs": [
        {
          "internalType": "uint256",
          "name": "_upc",
          "type": "uint256"
        },
        {
          "internalType": "uint256",
          "name": "_price",
          "type": "uint256"
        }
      ],
      "name": "sendToMarket",
      "outputs": [],
      "stateMutability": "nonpayable",
      "type": "function"
    },
    {
      "inputs": [
        {
          "internalType": "uint256",
          "name": "_upc",
          "type": "uint256"
        },
        {
          "internalType": "address",
          "name": "_regulatorId",
          "type": "address"
        }
      ],
      "name": "sendToRegulation",
      "outputs": [],
      "stateMutability": "nonpayable",
      "type": "function"
    },
    {
      "inputs": [
        {
          "internalType": "uint256",
          "name": "_upc",
          "type": "uint256"
        }
      ],
      "name": "testMedicine",
      "outputs": [],
      "stateMutability": "nonpayable",
      "type": "function"
    },
    {
      "inputs": [],
      "name": "contractOwner",
      "outputs": [
        {
          "internalType": "address",
          "name": "",
          "type": "address"
        }
      ],
      "stateMutability": "view",
      "type": "function",
      "constant": true
    },
    {
      "inputs": [],
      "name": "isOwner",
      "outputs": [
        {
          "internalType": "bool",
          "name": "",
          "type": "bool"
        }
      ],
      "stateMutability": "view",
      "type": "function",
      "constant": true
    },
    {
      "inputs": [],
      "name": "renounceOwnership",
      "outputs": [],
      "stateMutability": "nonpayable",
      "type": "function"
    },
    {
      "inputs": [
        {
          "internalType": "address",
          "name": "newOwner",
          "type": "address"
        }
      ],
      "name": "transferOwnership",
      "outputs": [],
      "stateMutability": "nonpayable",
      "type": "function"
    }
  ],
  "bytecode": "0x60806040523480156200001157600080fd5b5062000023336200015260201b60201c565b6200003433620001b360201b60201c565b62000045336200021460201b60201c565b33600360006101000a81548173ffffffffffffffffffffffffffffffffffffffff021916908373ffffffffffffffffffffffffffffffffffffffff160217905550600160048190555033600760006101000a81548173ffffffffffffffffffffffffffffffffffffffff021916908373ffffffffffffffffffffffffffffffffffffffff160217905550600760009054906101000a900473ffffffffffffffffffffffffffffffffffffffff1673ffffffffffffffffffffffffffffffffffffffff16600073ffffffffffffffffffffffffffffffffffffffff167f5c486528ec3e3f0ea91181cff8116f02bfa350e03b8b6f12e00765adbb5af85c60405160405180910390a3620003bc565b6200016d8160006200027560201b62001bc71790919060201c565b8073ffffffffffffffffffffffffffffffffffffffff167f6599d9dd7f97ccdc3d99ab507544f9f6ebfca20c63a7e3c018da49eeaefb164a60405160405180910390a250565b620001ce8160016200027560201b62001bc71790919060201c565b8073ffffffffffffffffffffffffffffffffffffffff167f2860b5ba44f983f8f363ee6eeb3c24cbca3096803fbdd5129b9e253f01cac07660405160405180910390a250565b6200022f8160026200027560201b62001bc71790919060201c565b8073ffffffffffffffffffffffffffffffffffffffff167f36179de14e9e7cbce2e0a64264f3eb82e80b70aac44ff098d9c6f70b1d7d659560405160405180910390a250565b600073ffffffffffffffffffffffffffffffffffffffff168173ffffffffffffffffffffffffffffffffffffffff1603620002af57600080fd5b620002c182826200032a60201b60201c565b15620002cc57600080fd5b60018260000160008373ffffffffffffffffffffffffffffffffffffffff1673ffffffffffffffffffffffffffffffffffffffff16815260200190815260200160002060006101000a81548160ff0219169083151502179055505050565b60008073ffffffffffffffffffffffffffffffffffffffff168273ffffffffffffffffffffffffffffffffffffffff16036200036557600080fd5b8260000160008373ffffffffffffffffffffffffffffffffffffffff1673ffffffffffffffffffffffffffffffffffffffff16815260200190815260200160002060009054906101000a900460ff16905092915050565b612aa180620003cc6000396000f3fe6080604052600436106101355760003560e01c806381612e4f116100ab578063bbf898031161006f578063bbf89803146103be578063c204a0cf146103e7578063ce606ee0146103fe578063d1e4fd0f14610429578063f2fde38b14610466578063faac9e791461048f57610135565b806381612e4f146102e25780638e2b65d7146102f95780638f32d59b14610322578063ac63f3c71461034d578063ad4b9cfb1461037657610135565b806334e823bd116100fd57806334e823bd146101fc57806341c0e1b51461022557806354fc91691461023c5780635ba4251e14610279578063715018a6146102a25780637fd6a66b146102b957610135565b80630c5484d71461013a5780631b90c4be146101635780631beadbe21461018c5780632a55feec146101a35780633221a13e146101e0575b600080fd5b34801561014657600080fd5b50610161600480360381019061015c919061210c565b6104ab565b005b34801561016f57600080fd5b5061018a60048036038101906101859190612197565b6105ea565b005b34801561019857600080fd5b506101a16105f6565b005b3480156101af57600080fd5b506101ca60048036038101906101c59190612197565b610601565b6040516101d791906121df565b60405180910390f35b6101fa60048036038101906101f59190612340565b61061e565b005b34801561020857600080fd5b50610223600480360381019061021e919061242b565b610921565b005b34801561023157600080fd5b5061023a610a8e565b005b34801561024857600080fd5b50610263600480360381019061025e9190612197565b610b20565b60405161027091906121df565b60405180910390f35b34801561028557600080fd5b506102a0600480360381019061029b919061210c565b610b3d565b005b3480156102ae57600080fd5b506102b7610c8e565b005b3480156102c557600080fd5b506102e060048036038101906102db919061210c565b610da9565b005b3480156102ee57600080fd5b506102f7610f85565b005b34801561030557600080fd5b50610320600480360381019061031b919061246b565b610f90565b005b34801561032e57600080fd5b506103376111d4565b60405161034491906121df565b60405180910390f35b34801561035957600080fd5b50610374600480360381019061036f9190612197565b61122c565b005b34801561038257600080fd5b5061039d6004803603810190610398919061210c565b611238565b6040516103b59c9b9a99989796959493929190612548565b60405180910390f35b3480156103ca57600080fd5b506103e560048036038101906103e09190612197565b61180f565b005b3480156103f357600080fd5b506103fc61181b565b005b34801561040a57600080fd5b50610413611826565b6040516104209190612625565b60405180910390f35b34801561043557600080fd5b50610450600480360381019061044b9190612197565b611850565b60405161045d91906121df565b60405180910390f35b34801561047257600080fd5b5061048d60048036038101906104889190612197565b61186d565b005b6104a960048036038101906104a4919061210c565b6118d3565b005b80600060068111156104c0576104bf612640565b5b6005600083815260200190815260200160002060090160009054906101000a900460ff1660068111156104f6576104f5612640565b5b1461050057600080fd5b816005600082815260200190815260200160002060020160009054906101000a900473ffffffffffffffffffffffffffffffffffffffff1673ffffffffffffffffffffffffffffffffffffffff163373ffffffffffffffffffffffffffffffffffffffff161461056f57600080fd5b60016005600085815260200190815260200160002060090160006101000a81548160ff021916908360068111156105a9576105a8612640565b5b02179055507f06974b56d21c283fee3ed0905f648b2e17cb684cc8dc972ea99704bea957814e836040516105dd919061266f565b60405180910390a1505050565b6105f381611c72565b50565b6105ff33611ccc565b565b6000610617826000611d2690919063ffffffff16565b9050919050565b61062733611850565b61063057600080fd5b60405180610180016040528060045481526020018681526020013373ffffffffffffffffffffffffffffffffffffffff1681526020013373ffffffffffffffffffffffffffffffffffffffff16815260200185815260200184815260200183815260200182815260200160008152602001600060068111156106b5576106b4612640565b5b8152602001600073ffffffffffffffffffffffffffffffffffffffff168152602001600073ffffffffffffffffffffffffffffffffffffffff1681525060056000878152602001908152602001600020600082015181600001556020820151816001015560408201518160020160006101000a81548173ffffffffffffffffffffffffffffffffffffffff021916908373ffffffffffffffffffffffffffffffffffffffff16021790555060608201518160030160006101000a81548173ffffffffffffffffffffffffffffffffffffffff021916908373ffffffffffffffffffffffffffffffffffffffff16021790555060808201518160040190816107bc9190612896565b5060a08201518160050190816107d29190612896565b5060c08201518160060190816107e89190612896565b5060e08201518160070190816107fe9190612896565b5061010082015181600801556101208201518160090160006101000a81548160ff0219169083600681111561083657610835612640565b5b02179055506101408201518160090160016101000a81548173ffffffffffffffffffffffffffffffffffffffff021916908373ffffffffffffffffffffffffffffffffffffffff16021790555061016082015181600a0160006101000a81548173ffffffffffffffffffffffffffffffffffffffff021916908373ffffffffffffffffffffffffffffffffffffffff16021790555090505060016004546108dd9190612997565b6004819055507f9d1715437821cd9a90cba5d1a68995c308d9ad9afc754ed9a1cff429760796e685604051610912919061266f565b60405180910390a15050505050565b816003600681111561093657610935612640565b5b6005600083815260200190815260200160002060090160009054906101000a900460ff16600681111561096c5761096b612640565b5b1461097657600080fd5b61097f33611850565b61098857600080fd5b826005600082815260200190815260200160002060020160009054906101000a900473ffffffffffffffffffffffffffffffffffffffff1673ffffffffffffffffffffffffffffffffffffffff163373ffffffffffffffffffffffffffffffffffffffff16146109f757600080fd5b82600560008681526020019081526020016000206008018190555060046005600086815260200190815260200160002060090160006101000a81548160ff02191690836006811115610a4c57610a4b612640565b5b02179055507fee26ccdb1a6d7eb1f4a368e8d6eed2d6e0bc5758fae5e321cc2ee4ceeba8072c84604051610a80919061266f565b60405180910390a150505050565b600360009054906101000a900473ffffffffffffffffffffffffffffffffffffffff1673ffffffffffffffffffffffffffffffffffffffff163373ffffffffffffffffffffffffffffffffffffffff1603610b1e57600360009054906101000a900473ffffffffffffffffffffffffffffffffffffffff1673ffffffffffffffffffffffffffffffffffffffff16ff5b565b6000610b36826001611d2690919063ffffffff16565b9050919050565b806005600082815260200190815260200160002060020160009054906101000a900473ffffffffffffffffffffffffffffffffffffffff1673ffffffffffffffffffffffffffffffffffffffff163373ffffffffffffffffffffffffffffffffffffffff1614610bac57600080fd5b610bb533610601565b610bbe57600080fd5b8160056006811115610bd357610bd2612640565b5b6005600083815260200190815260200160002060090160009054906101000a900460ff166006811115610c0957610c08612640565b5b14610c1357600080fd5b60066005600085815260200190815260200160002060090160006101000a81548160ff02191690836006811115610c4d57610c4c612640565b5b02179055507f35b677314912c75b758fd6ff715435bd387f759049e9c455bc0a51567cb8d83983604051610c81919061266f565b60405180910390a1505050565b600360009054906101000a900473ffffffffffffffffffffffffffffffffffffffff1673ffffffffffffffffffffffffffffffffffffffff163373ffffffffffffffffffffffffffffffffffffffff1614610ce857600080fd5b600073ffffffffffffffffffffffffffffffffffffffff16600760009054906101000a900473ffffffffffffffffffffffffffffffffffffffff1673ffffffffffffffffffffffffffffffffffffffff167f5c486528ec3e3f0ea91181cff8116f02bfa350e03b8b6f12e00765adbb5af85c60405160405180910390a36000600760006101000a81548173ffffffffffffffffffffffffffffffffffffffff021916908373ffffffffffffffffffffffffffffffffffffffff160217905550565b8060026006811115610dbe57610dbd612640565b5b6005600083815260200190815260200160002060090160009054906101000a900460ff166006811115610df457610df3612640565b5b14610dfe57600080fd5b610e0733610b20565b610e1057600080fd5b816005600082815260200190815260200160002060020160009054906101000a900473ffffffffffffffffffffffffffffffffffffffff1673ffffffffffffffffffffffffffffffffffffffff163373ffffffffffffffffffffffffffffffffffffffff1614610e7f57600080fd5b60036005600085815260200190815260200160002060090160006101000a81548160ff02191690836006811115610eb957610eb8612640565b5b02179055506005600084815260200190815260200160002060030160009054906101000a900473ffffffffffffffffffffffffffffffffffffffff166005600085815260200190815260200160002060020160006101000a81548173ffffffffffffffffffffffffffffffffffffffff021916908373ffffffffffffffffffffffffffffffffffffffff1602179055507f3ad93af63cb7967b23e4fb500b7d7d28b07516325dcf341f88bebf959d82c1cb83604051610f78919061266f565b60405180910390a1505050565b610f8e33611db7565b565b8160016006811115610fa557610fa4612640565b5b6005600083815260200190815260200160002060090160009054906101000a900460ff166006811115610fdb57610fda612640565b5b14610fe557600080fd5b610fee33611850565b610ff757600080fd5b826005600082815260200190815260200160002060020160009054906101000a900473ffffffffffffffffffffffffffffffffffffffff1673ffffffffffffffffffffffffffffffffffffffff163373ffffffffffffffffffffffffffffffffffffffff161461106657600080fd5b61106f83610b20565b6110ae576040517f08c379a00000000000000000000000000000000000000000000000000000000081526004016110a590612a17565b60405180910390fd5b826005600086815260200190815260200160002060090160016101000a81548173ffffffffffffffffffffffffffffffffffffffff021916908373ffffffffffffffffffffffffffffffffffffffff16021790555060026005600086815260200190815260200160002060090160006101000a81548160ff0219169083600681111561113d5761113c612640565b5b0217905550826005600086815260200190815260200160002060020160006101000a81548173ffffffffffffffffffffffffffffffffffffffff021916908373ffffffffffffffffffffffffffffffffffffffff1602179055507ff12328dacf931f6c8c8c904ea8b9791d681613ed5ec258dce2866c311795c9ea846040516111c6919061266f565b60405180910390a150505050565b6000600760009054906101000a900473ffffffffffffffffffffffffffffffffffffffff1673ffffffffffffffffffffffffffffffffffffffff163373ffffffffffffffffffffffffffffffffffffffff1614905090565b61123581611e11565b50565b60008060008060608060608060006060600080600560008e8152602001908152602001600020600001549b50600560008e8152602001908152602001600020600101549a50600560008e815260200190815260200160002060020160009054906101000a900473ffffffffffffffffffffffffffffffffffffffff169950600560008e815260200190815260200160002060030160009054906101000a900473ffffffffffffffffffffffffffffffffffffffff169850600560008e81526020019081526020016000206005018054611310906126b9565b80601f016020809104026020016040519081016040528092919081815260200182805461133c906126b9565b80156113895780601f1061135e57610100808354040283529160200191611389565b820191906000526020600020905b81548152906001019060200180831161136c57829003601f168201915b50505050509650600560008e815260200190815260200160002060060180546113b1906126b9565b80601f01602080910402602001604051908101604052809291908181526020018280546113dd906126b9565b801561142a5780601f106113ff5761010080835404028352916020019161142a565b820191906000526020600020905b81548152906001019060200180831161140d57829003601f168201915b50505050509550600560008e81526020019081526020016000206004018054611452906126b9565b80601f016020809104026020016040519081016040528092919081815260200182805461147e906126b9565b80156114cb5780601f106114a0576101008083540402835291602001916114cb565b820191906000526020600020905b8154815290600101906020018083116114ae57829003601f168201915b50505050509750600560008e815260200190815260200160002060070180546114f3906126b9565b80601f016020809104026020016040519081016040528092919081815260200182805461151f906126b9565b801561156c5780601f106115415761010080835404028352916020019161156c565b820191906000526020600020905b81548152906001019060200180831161154f57829003601f168201915b50505050509450600560008e8152602001908152602001600020600801549350600560008e815260200190815260200160002060090160019054906101000a900473ffffffffffffffffffffffffffffffffffffffff169150600560008e8152602001908152602001600020600a0160009054906101000a900473ffffffffffffffffffffffffffffffffffffffff1690506000600560008e815260200190815260200160002060090160009054906101000a900460ff16600681111561163657611635612640565b5b905060008103611679576040518060400160405280600881526020017f50726f647563656400000000000000000000000000000000000000000000000081525093505b600181036116ba576040518060400160405280600681526020017f546573746564000000000000000000000000000000000000000000000000000081525093505b600281036116fb576040518060400160405280601281526020017f53656e74546f566572696669636174696f6e000000000000000000000000000081525093505b6003810361173c576040518060400160405280600881526020017f417070726f76656400000000000000000000000000000000000000000000000081525093505b6004810361177d576040518060400160405280600c81526020017f53656e74546f4d61726b6574000000000000000000000000000000000000000081525093505b600581036117be576040518060400160405280600681526020017f426f75676874000000000000000000000000000000000000000000000000000081525093505b600681036117ff576040518060400160405280600981526020017f417661696c61626c65000000000000000000000000000000000000000000000081525093505b5091939597999b5091939597999b565b61181881611e6b565b50565b61182433611ec5565b565b6000600760009054906101000a900473ffffffffffffffffffffffffffffffffffffffff16905090565b6000611866826002611d2690919063ffffffff16565b9050919050565b600360009054906101000a900473ffffffffffffffffffffffffffffffffffffffff1673ffffffffffffffffffffffffffffffffffffffff163373ffffffffffffffffffffffffffffffffffffffff16146118c757600080fd5b6118d081611f1f565b50565b6118dc33610601565b6118e557600080fd5b80600460068111156118fa576118f9612640565b5b6005600083815260200190815260200160002060090160009054906101000a900460ff1660068111156119305761192f612640565b5b1461193a57600080fd5b60056000838152602001908152602001600020600801548034101561195e57600080fd5b826000600560008681526020019081526020016000206008015490503360056000878152602001908152602001600020600a0160006101000a81548173ffffffffffffffffffffffffffffffffffffffff021916908373ffffffffffffffffffffffffffffffffffffffff160217905550336005600087815260200190815260200160002060020160006101000a81548173ffffffffffffffffffffffffffffffffffffffff021916908373ffffffffffffffffffffffffffffffffffffffff160217905550600580600087815260200190815260200160002060090160006101000a81548160ff02191690836006811115611a5d57611a5c612640565b5b02179055506005600086815260200190815260200160002060030160009054906101000a900473ffffffffffffffffffffffffffffffffffffffff1673ffffffffffffffffffffffffffffffffffffffff166108fc829081150290604051600060405180830381858888f19350505050158015611ade573d6000803e3d6000fd5b507f4e08ba899977cf7d4c2964bce71c6b9a7ef76ee5166a4c1249a1e08016e33ef185604051611b0e919061266f565b60405180910390a15060006005600083815260200190815260200160002060080154905060008134611b409190612a37565b905060056000848152602001908152602001600020600a0160009054906101000a900473ffffffffffffffffffffffffffffffffffffffff1673ffffffffffffffffffffffffffffffffffffffff166108fc829081150290604051600060405180830381858888f19350505050158015611bbe573d6000803e3d6000fd5b50505050505050565b600073ffffffffffffffffffffffffffffffffffffffff168173ffffffffffffffffffffffffffffffffffffffff1603611c0057600080fd5b611c0a8282611d26565b15611c1457600080fd5b60018260000160008373ffffffffffffffffffffffffffffffffffffffff1673ffffffffffffffffffffffffffffffffffffffff16815260200190815260200160002060006101000a81548160ff0219169083151502179055505050565b611c86816002611bc790919063ffffffff16565b8073ffffffffffffffffffffffffffffffffffffffff167f36179de14e9e7cbce2e0a64264f3eb82e80b70aac44ff098d9c6f70b1d7d659560405160405180910390a250565b611ce081600161201890919063ffffffff16565b8073ffffffffffffffffffffffffffffffffffffffff167fc8ecc453f78c13ccc7596603b61935f29b99dc15bb91b91647e1ccf2469ad00a60405160405180910390a250565b60008073ffffffffffffffffffffffffffffffffffffffff168273ffffffffffffffffffffffffffffffffffffffff1603611d6057600080fd5b8260000160008373ffffffffffffffffffffffffffffffffffffffff1673ffffffffffffffffffffffffffffffffffffffff16815260200190815260200160002060009054906101000a900460ff16905092915050565b611dcb81600261201890919063ffffffff16565b8073ffffffffffffffffffffffffffffffffffffffff167fa9a482e6375ef89327f2177c114191d0b88502ca4a7b961d211cc45786ee510760405160405180910390a250565b611e25816001611bc790919063ffffffff16565b8073ffffffffffffffffffffffffffffffffffffffff167f2860b5ba44f983f8f363ee6eeb3c24cbca3096803fbdd5129b9e253f01cac07660405160405180910390a250565b611e7f816000611bc790919063ffffffff16565b8073ffffffffffffffffffffffffffffffffffffffff167f6599d9dd7f97ccdc3d99ab507544f9f6ebfca20c63a7e3c018da49eeaefb164a60405160405180910390a250565b611ed981600061201890919063ffffffff16565b8073ffffffffffffffffffffffffffffffffffffffff167f83fd4cbc7bc934bdfbae994ac6e72fcc0e50abd6995c1949520e761ba650d58260405160405180910390a250565b600073ffffffffffffffffffffffffffffffffffffffff168173ffffffffffffffffffffffffffffffffffffffff1603611f5857600080fd5b8073ffffffffffffffffffffffffffffffffffffffff16600760009054906101000a900473ffffffffffffffffffffffffffffffffffffffff1673ffffffffffffffffffffffffffffffffffffffff167f5c486528ec3e3f0ea91181cff8116f02bfa350e03b8b6f12e00765adbb5af85c60405160405180910390a380600760006101000a81548173ffffffffffffffffffffffffffffffffffffffff021916908373ffffffffffffffffffffffffffffffffffffffff16021790555050565b600073ffffffffffffffffffffffffffffffffffffffff168173ffffffffffffffffffffffffffffffffffffffff160361205157600080fd5b61205b8282611d26565b61206457600080fd5b60008260000160008373ffffffffffffffffffffffffffffffffffffffff1673ffffffffffffffffffffffffffffffffffffffff16815260200190815260200160002060006101000a81548160ff0219169083151502179055505050565b6000604051905090565b600080fd5b600080fd5b6000819050919050565b6120e9816120d6565b81146120f457600080fd5b50565b600081359050612106816120e0565b92915050565b600060208284031215612122576121216120cc565b5b6000612130848285016120f7565b91505092915050565b600073ffffffffffffffffffffffffffffffffffffffff82169050919050565b600061216482612139565b9050919050565b61217481612159565b811461217f57600080fd5b50565b6000813590506121918161216b565b92915050565b6000602082840312156121ad576121ac6120cc565b5b60006121bb84828501612182565b91505092915050565b60008115159050919050565b6121d9816121c4565b82525050565b60006020820190506121f460008301846121d0565b92915050565b600080fd5b600080fd5b6000601f19601f8301169050919050565b7f4e487b7100000000000000000000000000000000000000000000000000000000600052604160045260246000fd5b61224d82612204565b810181811067ffffffffffffffff8211171561226c5761226b612215565b5b80604052505050565b600061227f6120c2565b905061228b8282612244565b919050565b600067ffffffffffffffff8211156122ab576122aa612215565b5b6122b482612204565b9050602081019050919050565b82818337600083830152505050565b60006122e36122de84612290565b612275565b9050828152602081018484840111156122ff576122fe6121ff565b5b61230a8482856122c1565b509392505050565b600082601f830112612327576123266121fa565b5b81356123378482602086016122d0565b91505092915050565b600080600080600060a0868803121561235c5761235b6120cc565b5b600061236a888289016120f7565b955050602086013567ffffffffffffffff81111561238b5761238a6120d1565b5b61239788828901612312565b945050604086013567ffffffffffffffff8111156123b8576123b76120d1565b5b6123c488828901612312565b935050606086013567ffffffffffffffff8111156123e5576123e46120d1565b5b6123f188828901612312565b925050608086013567ffffffffffffffff811115612412576124116120d1565b5b61241e88828901612312565b9150509295509295909350565b60008060408385031215612442576124416120cc565b5b6000612450858286016120f7565b9250506020612461858286016120f7565b9150509250929050565b60008060408385031215612482576124816120cc565b5b6000612490858286016120f7565b92505060206124a185828601612182565b9150509250929050565b6124b4816120d6565b82525050565b6124c381612159565b82525050565b600081519050919050565b600082825260208201905092915050565b60005b838110156125035780820151818401526020810190506124e8565b60008484015250505050565b600061251a826124c9565b61252481856124d4565b93506125348185602086016124e5565b61253d81612204565b840191505092915050565b60006101808201905061255e600083018f6124ab565b61256b602083018e6124ab565b612578604083018d6124ba565b612585606083018c6124ba565b8181036080830152612597818b61250f565b905081810360a08301526125ab818a61250f565b905081810360c08301526125bf818961250f565b905081810360e08301526125d3818861250f565b90506125e36101008301876124ab565b8181036101208301526125f6818661250f565b90506126066101408301856124ba565b6126146101608301846124ba565b9d9c50505050505050505050505050565b600060208201905061263a60008301846124ba565b92915050565b7f4e487b7100000000000000000000000000000000000000000000000000000000600052602160045260246000fd5b600060208201905061268460008301846124ab565b92915050565b7f4e487b7100000000000000000000000000000000000000000000000000000000600052602260045260246000fd5b600060028204905060018216806126d157607f821691505b6020821081036126e4576126e361268a565b5b50919050565b60008190508160005260206000209050919050565b60006020601f8301049050919050565b600082821b905092915050565b60006008830261274c7fffffffffffffffffffffffffffffffffffffffffffffffffffffffffffffffff8261270f565b612756868361270f565b95508019841693508086168417925050509392505050565b6000819050919050565b600061279361278e612789846120d6565b61276e565b6120d6565b9050919050565b6000819050919050565b6127ad83612778565b6127c16127b98261279a565b84845461271c565b825550505050565b600090565b6127d66127c9565b6127e18184846127a4565b505050565b5b81811015612805576127fa6000826127ce565b6001810190506127e7565b5050565b601f82111561284a5761281b816126ea565b612824846126ff565b81016020851015612833578190505b61284761283f856126ff565b8301826127e6565b50505b505050565b600082821c905092915050565b600061286d6000198460080261284f565b1980831691505092915050565b6000612886838361285c565b9150826002028217905092915050565b61289f826124c9565b67ffffffffffffffff8111156128b8576128b7612215565b5b6128c282546126b9565b6128cd828285612809565b600060209050601f83116001811461290057600084156128ee578287015190505b6128f8858261287a565b865550612960565b601f19841661290e866126ea565b60005b8281101561293657848901518255600182019150602085019450602081019050612911565b86831015612953578489015161294f601f89168261285c565b8355505b6001600288020188555050505b505050505050565b7f4e487b7100000000000000000000000000000000000000000000000000000000600052601160045260246000fd5b60006129a2826120d6565b91506129ad836120d6565b92508282019050808211156129c5576129c4612968565b5b92915050565b7f546869732061646472657373206973206e6f74206120526567756c61746f7200600082015250565b6000612a01601f836124d4565b9150612a0c826129cb565b602082019050919050565b60006020820190508181036000830152612a30816129f4565b9050919050565b6000612a42826120d6565b9150612a4d836120d6565b9250828203905081811115612a6557612a64612968565b5b9291505056fea2646970667358221220055fa52255c6c40a3c0c6bf652e5974d4fc0caf348a01c2e49481d5aab70594864736f6c63430008110033",
  "immutableReferences": {},
  "source": "pragma solidity >=0.8.7;\n\nimport \"./SupplyChain.sol\";\n\n/// Provides basic authorization control\ncontract Ownable is SupplyChain {\n    address private origOwner;\n\n    // Define an Event\n    event TransferOwnership(address indexed oldOwner, address indexed newOwner);\n\n    /// Assign the contract to an owner\n    constructor() {\n        origOwner = msg.sender;\n        emit TransferOwnership(address(0), origOwner);\n    }\n\n    /// Look up the address of the owner\n    function contractOwner() public view returns (address) {\n        return origOwner;\n    }\n\n    /// Define a function modifier 'onlyOwner'\n    modifier onlyContractOwner() {\n        require(isOwner());\n        _;\n    }\n\n    /// Check if the calling address is the owner of the contract\n    function isOwner() public view returns (bool) {\n        return msg.sender == origOwner;\n    }\n\n    /// Define a function to renounce ownerhip\n    function renounceOwnership() public onlyOwner {\n        emit TransferOwnership(origOwner, address(0));\n        origOwner = address(0);\n    }\n\n    /// Define a public function to transfer ownership\n    function transferOwnership(address newOwner) public onlyOwner {\n        _transferOwnership(newOwner);\n    }\n\n    /// Define an internal function to transfer ownership\n    function _transferOwnership(address newOwner) internal {\n        require(newOwner != address(0));\n        emit TransferOwnership(origOwner, newOwner);\n        origOwner = newOwner;\n    }\n}\n",
  "sourcePath": "/Users/israelandrade/Documents/Udacity/blockchain-nanodegree/supply-chain-dapp/supply-chain/contracts/Ownable.sol",
  "compiler": {
    "name": "solc",
    "version": "0.8.17+commit.8df45f5f.Emscripten.clang"
  },
  "schemaVersion": "3.4.9",
  "updatedAt": "2022-10-26T20:29:16.776Z",
  "networkType": "ethereum",
  "devdoc": {
    "kind": "dev",
    "methods": {},
    "version": 1
  },
  "userdoc": {
    "kind": "user",
    "methods": {
      "constructor": {
        "notice": "Assign the contract to an owner"
      },
      "contractOwner()": {
        "notice": "Look up the address of the owner"
      },
      "isOwner()": {
        "notice": "Check if the calling address is the owner of the contract"
      },
      "renounceOwnership()": {
        "notice": "Define a function to renounce ownerhip"
      },
      "transferOwnership(address)": {
        "notice": "Define a public function to transfer ownership"
      }
    },
    "notice": "Provides basic authorization control",
    "version": 1
  }
}