{
  "contractName": "Ownable",
  "abi": [
    {
      "inputs": [],
      "stateMutability": "nonpayable",
      "type": "constructor"
    },
    {
      "anonymous": false,
      "inputs": [
        {
          "indexed": false,
          "internalType": "uint256",
          "name": "upc",
          "type": "uint256"
        }
      ],
      "name": "Approved",
      "type": "event"
    },
    {
      "anonymous": false,
      "inputs": [
        {
          "indexed": false,
          "internalType": "uint256",
          "name": "upc",
          "type": "uint256"
        }
      ],
      "name": "Available",
      "type": "event"
    },
    {
      "anonymous": false,
      "inputs": [
        {
          "indexed": false,
          "internalType": "uint256",
          "name": "upc",
          "type": "uint256"
        }
      ],
      "name": "Bought",
      "type": "event"
    },
    {
      "anonymous": false,
      "inputs": [
        {
          "indexed": true,
          "internalType": "address",
          "name": "account",
          "type": "address"
        }
      ],
      "name": "BuyerAdded",
      "type": "event"
    },
    {
      "anonymous": false,
      "inputs": [
        {
          "indexed": true,
          "internalType": "address",
          "name": "account",
          "type": "address"
        }
      ],
      "name": "BuyerRemoved",
      "type": "event"
    },
    {
      "anonymous": false,
      "inputs": [
        {
          "indexed": true,
          "internalType": "address",
          "name": "account",
          "type": "address"
        }
      ],
      "name": "PharmaAdded",
      "type": "event"
    },
    {
      "anonymous": false,
      "inputs": [
        {
          "indexed": true,
          "internalType": "address",
          "name": "account",
          "type": "address"
        }
      ],
      "name": "PharmaRemoved",
      "type": "event"
    },
    {
      "anonymous": false,
      "inputs": [
        {
          "indexed": false,
          "internalType": "uint256",
          "name": "upc",
          "type": "uint256"
        }
      ],
      "name": "Produced",
      "type": "event"
    },
    {
      "anonymous": false,
      "inputs": [
        {
          "indexed": true,
          "internalType": "address",
          "name": "account",
          "type": "address"
        }
      ],
      "name": "RegulatorAdded",
      "type": "event"
    },
    {
      "anonymous": false,
      "inputs": [
        {
          "indexed": true,
          "internalType": "address",
          "name": "account",
          "type": "address"
        }
      ],
      "name": "RegulatorRemoved",
      "type": "event"
    },
    {
      "anonymous": false,
      "inputs": [
        {
          "indexed": false,
          "internalType": "uint256",
          "name": "upc",
          "type": "uint256"
        }
      ],
      "name": "SentToMarket",
      "type": "event"
    },
    {
      "anonymous": false,
      "inputs": [
        {
          "indexed": false,
          "internalType": "uint256",
          "name": "upc",
          "type": "uint256"
        }
      ],
      "name": "SentToVerification",
      "type": "event"
    },
    {
      "anonymous": false,
      "inputs": [
        {
          "indexed": false,
          "internalType": "uint256",
          "name": "upc",
          "type": "uint256"
        }
      ],
      "name": "Tested",
      "type": "event"
    },
    {
      "anonymous": false,
      "inputs": [
        {
          "indexed": true,
          "internalType": "address",
          "name": "oldOwner",
          "type": "address"
        },
        {
          "indexed": true,
          "internalType": "address",
          "name": "newOwner",
          "type": "address"
        }
      ],
      "name": "TransferOwnership",
      "type": "event"
    },
    {
      "inputs": [
        {
          "internalType": "address",
          "name": "account",
          "type": "address"
        }
      ],
      "name": "addBuyer",
      "outputs": [],
      "stateMutability": "nonpayable",
      "type": "function"
    },
    {
      "inputs": [
        {
          "internalType": "address",
          "name": "account",
          "type": "address"
        }
      ],
      "name": "addPharma",
      "outputs": [],
      "stateMutability": "nonpayable",
      "type": "function"
    },
    {
      "inputs": [
        {
          "internalType": "address",
          "name": "account",
          "type": "address"
        }
      ],
      "name": "addRegulator",
      "outputs": [],
      "stateMutability": "nonpayable",
      "type": "function"
    },
    {
      "inputs": [
        {
          "internalType": "uint256",
          "name": "_upc",
          "type": "uint256"
        }
      ],
      "name": "approveMedicine",
      "outputs": [],
      "stateMutability": "nonpayable",
      "type": "function"
    },
    {
      "inputs": [
        {
          "internalType": "uint256",
          "name": "_upc",
          "type": "uint256"
        }
      ],
      "name": "buyMedicine",
      "outputs": [],
      "stateMutability": "payable",
      "type": "function"
    },
    {
      "inputs": [
        {
          "internalType": "uint256",
          "name": "_upc",
          "type": "uint256"
        }
      ],
      "name": "fetchItem",
      "outputs": [
        {
          "internalType": "uint256",
          "name": "_sku",
          "type": "uint256"
        },
        {
          "internalType": "uint256",
          "name": "upc",
          "type": "uint256"
        },
        {
          "internalType": "address",
          "name": "ownerId",
          "type": "address"
        },
        {
          "internalType": "address",
          "name": "originPharmaId",
          "type": "address"
        },
        {
          "internalType": "string",
          "name": "originPharmaName",
          "type": "string"
        },
        {
          "internalType": "string",
          "name": "originPharmaInformation",
          "type": "string"
        },
        {
          "internalType": "string",
          "name": "originPharmaCountry",
          "type": "string"
        },
        {
          "internalType": "string",
          "name": "productName",
          "type": "string"
        },
        {
          "internalType": "uint256",
          "name": "productPrice",
          "type": "uint256"
        },
        {
          "internalType": "string",
          "name": "itemState",
          "type": "string"
        },
        {
          "internalType": "address",
          "name": "regulatorId",
          "type": "address"
        },
        {
          "internalType": "address",
          "name": "buyerId",
          "type": "address"
        }
      ],
      "stateMutability": "view",
      "type": "function"
    },
    {
      "inputs": [
        {
          "internalType": "address",
          "name": "account",
          "type": "address"
        }
      ],
      "name": "isBuyer",
      "outputs": [
        {
          "internalType": "bool",
          "name": "",
          "type": "bool"
        }
      ],
      "stateMutability": "view",
      "type": "function"
    },
    {
      "inputs": [
        {
          "internalType": "address",
          "name": "account",
          "type": "address"
        }
      ],
      "name": "isPharma",
      "outputs": [
        {
          "internalType": "bool",
          "name": "",
          "type": "bool"
        }
      ],
      "stateMutability": "view",
      "type": "function"
    },
    {
      "inputs": [
        {
          "internalType": "address",
          "name": "account",
          "type": "address"
        }
      ],
      "name": "isRegulator",
      "outputs": [
        {
          "internalType": "bool",
          "name": "",
          "type": "bool"
        }
      ],
      "stateMutability": "view",
      "type": "function"
    },
    {
      "inputs": [],
      "name": "kill",
      "outputs": [],
      "stateMutability": "nonpayable",
      "type": "function"
    },
    {
      "inputs": [
        {
          "internalType": "uint256",
          "name": "_upc",
          "type": "uint256"
        },
        {
          "internalType": "string",
          "name": "_originPharmaName",
          "type": "string"
        },
        {
          "internalType": "string",
          "name": "_originPharmaInformation",
          "type": "string"
        },
        {
          "internalType": "string",
          "name": "_originPharmaCountry",
          "type": "string"
        },
        {
          "internalType": "string",
          "name": "_productName",
          "type": "string"
        }
      ],
      "name": "produceMedicine",
      "outputs": [],
      "stateMutability": "payable",
      "type": "function"
    },
    {
      "inputs": [],
      "name": "renounceBuyer",
      "outputs": [],
      "stateMutability": "nonpayable",
      "type": "function"
    },
    {
      "inputs": [],
      "name": "renouncePharma",
      "outputs": [],
      "stateMutability": "nonpayable",
      "type": "function"
    },
    {
      "inputs": [],
      "name": "renounceRegulator",
      "outputs": [],
      "stateMutability": "nonpayable",
      "type": "function"
    },
    {
      "inputs": [
        {
          "internalType": "uint256",
          "name": "_upc",
          "type": "uint256"
        }
      ],
      "name": "replenishHospitals",
      "outputs": [],
      "stateMutability": "nonpayable",
      "type": "function"
    },
    {
      "inputs": [
        {
          "internalType": "uint256",
          "name": "_upc",
          "type": "uint256"
        },
        {
          "internalType": "uint256",
          "name": "_price",
          "type": "uint256"
        }
      ],
      "name": "sendToMarket",
      "outputs": [],
      "stateMutability": "nonpayable",
      "type": "function"
    },
    {
      "inputs": [
        {
          "internalType": "uint256",
          "name": "_upc",
          "type": "uint256"
        },
        {
          "internalType": "address",
          "name": "_regulatorId",
          "type": "address"
        }
      ],
      "name": "sendToRegulation",
      "outputs": [],
      "stateMutability": "nonpayable",
      "type": "function"
    },
    {
      "inputs": [
        {
          "internalType": "uint256",
          "name": "_upc",
          "type": "uint256"
        }
      ],
      "name": "testMedicine",
      "outputs": [],
      "stateMutability": "nonpayable",
      "type": "function"
    },
    {
      "inputs": [],
      "name": "contractOwner",
      "outputs": [
        {
          "internalType": "address",
          "name": "",
          "type": "address"
        }
      ],
      "stateMutability": "view",
      "type": "function"
    },
    {
      "inputs": [],
      "name": "isOwner",
      "outputs": [
        {
          "internalType": "bool",
          "name": "",
          "type": "bool"
        }
      ],
      "stateMutability": "view",
      "type": "function"
    },
    {
      "inputs": [],
      "name": "renounceOwnership",
      "outputs": [],
      "stateMutability": "nonpayable",
      "type": "function"
    },
    {
      "inputs": [
        {
          "internalType": "address",
          "name": "newOwner",
          "type": "address"
        }
      ],
      "name": "transferOwnership",
      "outputs": [],
      "stateMutability": "nonpayable",
      "type": "function"
    }
  ],
  "bytecode": "0x60806040523480156200001157600080fd5b5062000023336200015260201b60201c565b6200003433620001b360201b60201c565b62000045336200021460201b60201c565b33600360006101000a81548173ffffffffffffffffffffffffffffffffffffffff021916908373ffffffffffffffffffffffffffffffffffffffff160217905550600160048190555033600760006101000a81548173ffffffffffffffffffffffffffffffffffffffff021916908373ffffffffffffffffffffffffffffffffffffffff160217905550600760009054906101000a900473ffffffffffffffffffffffffffffffffffffffff1673ffffffffffffffffffffffffffffffffffffffff16600073ffffffffffffffffffffffffffffffffffffffff167f5c486528ec3e3f0ea91181cff8116f02bfa350e03b8b6f12e00765adbb5af85c60405160405180910390a3620003bc565b6200016d8160006200027560201b62001bfd1790919060201c565b8073ffffffffffffffffffffffffffffffffffffffff167f6599d9dd7f97ccdc3d99ab507544f9f6ebfca20c63a7e3c018da49eeaefb164a60405160405180910390a250565b620001ce8160016200027560201b62001bfd1790919060201c565b8073ffffffffffffffffffffffffffffffffffffffff167f2860b5ba44f983f8f363ee6eeb3c24cbca3096803fbdd5129b9e253f01cac07660405160405180910390a250565b6200022f8160026200027560201b62001bfd1790919060201c565b8073ffffffffffffffffffffffffffffffffffffffff167f36179de14e9e7cbce2e0a64264f3eb82e80b70aac44ff098d9c6f70b1d7d659560405160405180910390a250565b600073ffffffffffffffffffffffffffffffffffffffff168173ffffffffffffffffffffffffffffffffffffffff1603620002af57600080fd5b620002c182826200032a60201b60201c565b15620002cc57600080fd5b60018260000160008373ffffffffffffffffffffffffffffffffffffffff1673ffffffffffffffffffffffffffffffffffffffff16815260200190815260200160002060006101000a81548160ff0219169083151502179055505050565b60008073ffffffffffffffffffffffffffffffffffffffff168273ffffffffffffffffffffffffffffffffffffffff16036200036557600080fd5b8260000160008373ffffffffffffffffffffffffffffffffffffffff1673ffffffffffffffffffffffffffffffffffffffff16815260200190815260200160002060009054906101000a900460ff16905092915050565b612ad780620003cc6000396000f3fe6080604052600436106101355760003560e01c806381612e4f116100ab578063bbf898031161006f578063bbf89803146103be578063c204a0cf146103e7578063ce606ee0146103fe578063d1e4fd0f14610429578063f2fde38b14610466578063faac9e791461048f57610135565b806381612e4f146102e25780638e2b65d7146102f95780638f32d59b14610322578063ac63f3c71461034d578063ad4b9cfb1461037657610135565b806334e823bd116100fd57806334e823bd146101fc57806341c0e1b51461022557806354fc91691461023c5780635ba4251e14610279578063715018a6146102a25780637fd6a66b146102b957610135565b80630c5484d71461013a5780631b90c4be146101635780631beadbe21461018c5780632a55feec146101a35780633221a13e146101e0575b600080fd5b34801561014657600080fd5b50610161600480360381019061015c9190612142565b6104ab565b005b34801561016f57600080fd5b5061018a600480360381019061018591906121cd565b6105ea565b005b34801561019857600080fd5b506101a1610608565b005b3480156101af57600080fd5b506101ca60048036038101906101c591906121cd565b610613565b6040516101d79190612215565b60405180910390f35b6101fa60048036038101906101f59190612376565b610630565b005b34801561020857600080fd5b50610223600480360381019061021e9190612461565b610933565b005b34801561023157600080fd5b5061023a610aa0565b005b34801561024857600080fd5b50610263600480360381019061025e91906121cd565b610b32565b6040516102709190612215565b60405180910390f35b34801561028557600080fd5b506102a0600480360381019061029b9190612142565b610b4f565b005b3480156102ae57600080fd5b506102b7610ca0565b005b3480156102c557600080fd5b506102e060048036038101906102db9190612142565b610dbb565b005b3480156102ee57600080fd5b506102f7610f97565b005b34801561030557600080fd5b50610320600480360381019061031b91906124a1565b610fa2565b005b34801561032e57600080fd5b506103376111e6565b6040516103449190612215565b60405180910390f35b34801561035957600080fd5b50610374600480360381019061036f91906121cd565b61123e565b005b34801561038257600080fd5b5061039d60048036038101906103989190612142565b61125c565b6040516103b59c9b9a9998979695949392919061257e565b60405180910390f35b3480156103ca57600080fd5b506103e560048036038101906103e091906121cd565b611833565b005b3480156103f357600080fd5b506103fc611851565b005b34801561040a57600080fd5b5061041361185c565b604051610420919061265b565b60405180910390f35b34801561043557600080fd5b50610450600480360381019061044b91906121cd565b611886565b60405161045d9190612215565b60405180910390f35b34801561047257600080fd5b5061048d600480360381019061048891906121cd565b6118a3565b005b6104a960048036038101906104a49190612142565b611909565b005b80600060068111156104c0576104bf612676565b5b6005600083815260200190815260200160002060090160009054906101000a900460ff1660068111156104f6576104f5612676565b5b1461050057600080fd5b816005600082815260200190815260200160002060020160009054906101000a900473ffffffffffffffffffffffffffffffffffffffff1673ffffffffffffffffffffffffffffffffffffffff163373ffffffffffffffffffffffffffffffffffffffff161461056f57600080fd5b60016005600085815260200190815260200160002060090160006101000a81548160ff021916908360068111156105a9576105a8612676565b5b02179055507f06974b56d21c283fee3ed0905f648b2e17cb684cc8dc972ea99704bea957814e836040516105dd91906126a5565b60405180910390a1505050565b6105f333611886565b6105fc57600080fd5b61060581611ca8565b50565b61061133611d02565b565b6000610629826000611d5c90919063ffffffff16565b9050919050565b61063933611886565b61064257600080fd5b60405180610180016040528060045481526020018681526020013373ffffffffffffffffffffffffffffffffffffffff1681526020013373ffffffffffffffffffffffffffffffffffffffff16815260200185815260200184815260200183815260200182815260200160008152602001600060068111156106c7576106c6612676565b5b8152602001600073ffffffffffffffffffffffffffffffffffffffff168152602001600073ffffffffffffffffffffffffffffffffffffffff1681525060056000878152602001908152602001600020600082015181600001556020820151816001015560408201518160020160006101000a81548173ffffffffffffffffffffffffffffffffffffffff021916908373ffffffffffffffffffffffffffffffffffffffff16021790555060608201518160030160006101000a81548173ffffffffffffffffffffffffffffffffffffffff021916908373ffffffffffffffffffffffffffffffffffffffff16021790555060808201518160040190816107ce91906128cc565b5060a08201518160050190816107e491906128cc565b5060c08201518160060190816107fa91906128cc565b5060e082015181600701908161081091906128cc565b5061010082015181600801556101208201518160090160006101000a81548160ff0219169083600681111561084857610847612676565b5b02179055506101408201518160090160016101000a81548173ffffffffffffffffffffffffffffffffffffffff021916908373ffffffffffffffffffffffffffffffffffffffff16021790555061016082015181600a0160006101000a81548173ffffffffffffffffffffffffffffffffffffffff021916908373ffffffffffffffffffffffffffffffffffffffff16021790555090505060016004546108ef91906129cd565b6004819055507f9d1715437821cd9a90cba5d1a68995c308d9ad9afc754ed9a1cff429760796e68560405161092491906126a5565b60405180910390a15050505050565b816003600681111561094857610947612676565b5b6005600083815260200190815260200160002060090160009054906101000a900460ff16600681111561097e5761097d612676565b5b1461098857600080fd5b61099133611886565b61099a57600080fd5b826005600082815260200190815260200160002060020160009054906101000a900473ffffffffffffffffffffffffffffffffffffffff1673ffffffffffffffffffffffffffffffffffffffff163373ffffffffffffffffffffffffffffffffffffffff1614610a0957600080fd5b82600560008681526020019081526020016000206008018190555060046005600086815260200190815260200160002060090160006101000a81548160ff02191690836006811115610a5e57610a5d612676565b5b02179055507fee26ccdb1a6d7eb1f4a368e8d6eed2d6e0bc5758fae5e321cc2ee4ceeba8072c84604051610a9291906126a5565b60405180910390a150505050565b600360009054906101000a900473ffffffffffffffffffffffffffffffffffffffff1673ffffffffffffffffffffffffffffffffffffffff163373ffffffffffffffffffffffffffffffffffffffff1603610b3057600360009054906101000a900473ffffffffffffffffffffffffffffffffffffffff1673ffffffffffffffffffffffffffffffffffffffff16ff5b565b6000610b48826001611d5c90919063ffffffff16565b9050919050565b806005600082815260200190815260200160002060020160009054906101000a900473ffffffffffffffffffffffffffffffffffffffff1673ffffffffffffffffffffffffffffffffffffffff163373ffffffffffffffffffffffffffffffffffffffff1614610bbe57600080fd5b610bc733610613565b610bd057600080fd5b8160056006811115610be557610be4612676565b5b6005600083815260200190815260200160002060090160009054906101000a900460ff166006811115610c1b57610c1a612676565b5b14610c2557600080fd5b60066005600085815260200190815260200160002060090160006101000a81548160ff02191690836006811115610c5f57610c5e612676565b5b02179055507f35b677314912c75b758fd6ff715435bd387f759049e9c455bc0a51567cb8d83983604051610c9391906126a5565b60405180910390a1505050565b600360009054906101000a900473ffffffffffffffffffffffffffffffffffffffff1673ffffffffffffffffffffffffffffffffffffffff163373ffffffffffffffffffffffffffffffffffffffff1614610cfa57600080fd5b600073ffffffffffffffffffffffffffffffffffffffff16600760009054906101000a900473ffffffffffffffffffffffffffffffffffffffff1673ffffffffffffffffffffffffffffffffffffffff167f5c486528ec3e3f0ea91181cff8116f02bfa350e03b8b6f12e00765adbb5af85c60405160405180910390a36000600760006101000a81548173ffffffffffffffffffffffffffffffffffffffff021916908373ffffffffffffffffffffffffffffffffffffffff160217905550565b8060026006811115610dd057610dcf612676565b5b6005600083815260200190815260200160002060090160009054906101000a900460ff166006811115610e0657610e05612676565b5b14610e1057600080fd5b610e1933610b32565b610e2257600080fd5b816005600082815260200190815260200160002060020160009054906101000a900473ffffffffffffffffffffffffffffffffffffffff1673ffffffffffffffffffffffffffffffffffffffff163373ffffffffffffffffffffffffffffffffffffffff1614610e9157600080fd5b60036005600085815260200190815260200160002060090160006101000a81548160ff02191690836006811115610ecb57610eca612676565b5b02179055506005600084815260200190815260200160002060030160009054906101000a900473ffffffffffffffffffffffffffffffffffffffff166005600085815260200190815260200160002060020160006101000a81548173ffffffffffffffffffffffffffffffffffffffff021916908373ffffffffffffffffffffffffffffffffffffffff1602179055507f3ad93af63cb7967b23e4fb500b7d7d28b07516325dcf341f88bebf959d82c1cb83604051610f8a91906126a5565b60405180910390a1505050565b610fa033611ded565b565b8160016006811115610fb757610fb6612676565b5b6005600083815260200190815260200160002060090160009054906101000a900460ff166006811115610fed57610fec612676565b5b14610ff757600080fd5b61100033611886565b61100957600080fd5b826005600082815260200190815260200160002060020160009054906101000a900473ffffffffffffffffffffffffffffffffffffffff1673ffffffffffffffffffffffffffffffffffffffff163373ffffffffffffffffffffffffffffffffffffffff161461107857600080fd5b61108183610b32565b6110c0576040517f08c379a00000000000000000000000000000000000000000000000000000000081526004016110b790612a4d565b60405180910390fd5b826005600086815260200190815260200160002060090160016101000a81548173ffffffffffffffffffffffffffffffffffffffff021916908373ffffffffffffffffffffffffffffffffffffffff16021790555060026005600086815260200190815260200160002060090160006101000a81548160ff0219169083600681111561114f5761114e612676565b5b0217905550826005600086815260200190815260200160002060020160006101000a81548173ffffffffffffffffffffffffffffffffffffffff021916908373ffffffffffffffffffffffffffffffffffffffff1602179055507ff12328dacf931f6c8c8c904ea8b9791d681613ed5ec258dce2866c311795c9ea846040516111d891906126a5565b60405180910390a150505050565b6000600760009054906101000a900473ffffffffffffffffffffffffffffffffffffffff1673ffffffffffffffffffffffffffffffffffffffff163373ffffffffffffffffffffffffffffffffffffffff1614905090565b61124733610b32565b61125057600080fd5b61125981611e47565b50565b60008060008060608060608060006060600080600560008e8152602001908152602001600020600001549b50600560008e8152602001908152602001600020600101549a50600560008e815260200190815260200160002060020160009054906101000a900473ffffffffffffffffffffffffffffffffffffffff169950600560008e815260200190815260200160002060030160009054906101000a900473ffffffffffffffffffffffffffffffffffffffff169850600560008e81526020019081526020016000206005018054611334906126ef565b80601f0160208091040260200160405190810160405280929190818152602001828054611360906126ef565b80156113ad5780601f10611382576101008083540402835291602001916113ad565b820191906000526020600020905b81548152906001019060200180831161139057829003601f168201915b50505050509650600560008e815260200190815260200160002060060180546113d5906126ef565b80601f0160208091040260200160405190810160405280929190818152602001828054611401906126ef565b801561144e5780601f106114235761010080835404028352916020019161144e565b820191906000526020600020905b81548152906001019060200180831161143157829003601f168201915b50505050509550600560008e81526020019081526020016000206004018054611476906126ef565b80601f01602080910402602001604051908101604052809291908181526020018280546114a2906126ef565b80156114ef5780601f106114c4576101008083540402835291602001916114ef565b820191906000526020600020905b8154815290600101906020018083116114d257829003601f168201915b50505050509750600560008e81526020019081526020016000206007018054611517906126ef565b80601f0160208091040260200160405190810160405280929190818152602001828054611543906126ef565b80156115905780601f1061156557610100808354040283529160200191611590565b820191906000526020600020905b81548152906001019060200180831161157357829003601f168201915b50505050509450600560008e8152602001908152602001600020600801549350600560008e815260200190815260200160002060090160019054906101000a900473ffffffffffffffffffffffffffffffffffffffff169150600560008e8152602001908152602001600020600a0160009054906101000a900473ffffffffffffffffffffffffffffffffffffffff1690506000600560008e815260200190815260200160002060090160009054906101000a900460ff16600681111561165a57611659612676565b5b90506000810361169d576040518060400160405280600881526020017f50726f647563656400000000000000000000000000000000000000000000000081525093505b600181036116de576040518060400160405280600681526020017f546573746564000000000000000000000000000000000000000000000000000081525093505b6002810361171f576040518060400160405280601281526020017f53656e74546f566572696669636174696f6e000000000000000000000000000081525093505b60038103611760576040518060400160405280600881526020017f417070726f76656400000000000000000000000000000000000000000000000081525093505b600481036117a1576040518060400160405280600c81526020017f53656e74546f4d61726b6574000000000000000000000000000000000000000081525093505b600581036117e2576040518060400160405280600681526020017f426f75676874000000000000000000000000000000000000000000000000000081525093505b60068103611823576040518060400160405280600981526020017f417661696c61626c65000000000000000000000000000000000000000000000081525093505b5091939597999b5091939597999b565b61183c33610613565b61184557600080fd5b61184e81611ea1565b50565b61185a33611efb565b565b6000600760009054906101000a900473ffffffffffffffffffffffffffffffffffffffff16905090565b600061189c826002611d5c90919063ffffffff16565b9050919050565b600360009054906101000a900473ffffffffffffffffffffffffffffffffffffffff1673ffffffffffffffffffffffffffffffffffffffff163373ffffffffffffffffffffffffffffffffffffffff16146118fd57600080fd5b61190681611f55565b50565b61191233610613565b61191b57600080fd5b80600460068111156119305761192f612676565b5b6005600083815260200190815260200160002060090160009054906101000a900460ff16600681111561196657611965612676565b5b1461197057600080fd5b60056000838152602001908152602001600020600801548034101561199457600080fd5b826000600560008681526020019081526020016000206008015490503360056000878152602001908152602001600020600a0160006101000a81548173ffffffffffffffffffffffffffffffffffffffff021916908373ffffffffffffffffffffffffffffffffffffffff160217905550336005600087815260200190815260200160002060020160006101000a81548173ffffffffffffffffffffffffffffffffffffffff021916908373ffffffffffffffffffffffffffffffffffffffff160217905550600580600087815260200190815260200160002060090160006101000a81548160ff02191690836006811115611a9357611a92612676565b5b02179055506005600086815260200190815260200160002060030160009054906101000a900473ffffffffffffffffffffffffffffffffffffffff1673ffffffffffffffffffffffffffffffffffffffff166108fc829081150290604051600060405180830381858888f19350505050158015611b14573d6000803e3d6000fd5b507f4e08ba899977cf7d4c2964bce71c6b9a7ef76ee5166a4c1249a1e08016e33ef185604051611b4491906126a5565b60405180910390a15060006005600083815260200190815260200160002060080154905060008134611b769190612a6d565b905060056000848152602001908152602001600020600a0160009054906101000a900473ffffffffffffffffffffffffffffffffffffffff1673ffffffffffffffffffffffffffffffffffffffff166108fc829081150290604051600060405180830381858888f19350505050158015611bf4573d6000803e3d6000fd5b50505050505050565b600073ffffffffffffffffffffffffffffffffffffffff168173ffffffffffffffffffffffffffffffffffffffff1603611c3657600080fd5b611c408282611d5c565b15611c4a57600080fd5b60018260000160008373ffffffffffffffffffffffffffffffffffffffff1673ffffffffffffffffffffffffffffffffffffffff16815260200190815260200160002060006101000a81548160ff0219169083151502179055505050565b611cbc816002611bfd90919063ffffffff16565b8073ffffffffffffffffffffffffffffffffffffffff167f36179de14e9e7cbce2e0a64264f3eb82e80b70aac44ff098d9c6f70b1d7d659560405160405180910390a250565b611d1681600161204e90919063ffffffff16565b8073ffffffffffffffffffffffffffffffffffffffff167fc8ecc453f78c13ccc7596603b61935f29b99dc15bb91b91647e1ccf2469ad00a60405160405180910390a250565b60008073ffffffffffffffffffffffffffffffffffffffff168273ffffffffffffffffffffffffffffffffffffffff1603611d9657600080fd5b8260000160008373ffffffffffffffffffffffffffffffffffffffff1673ffffffffffffffffffffffffffffffffffffffff16815260200190815260200160002060009054906101000a900460ff16905092915050565b611e0181600261204e90919063ffffffff16565b8073ffffffffffffffffffffffffffffffffffffffff167fa9a482e6375ef89327f2177c114191d0b88502ca4a7b961d211cc45786ee510760405160405180910390a250565b611e5b816001611bfd90919063ffffffff16565b8073ffffffffffffffffffffffffffffffffffffffff167f2860b5ba44f983f8f363ee6eeb3c24cbca3096803fbdd5129b9e253f01cac07660405160405180910390a250565b611eb5816000611bfd90919063ffffffff16565b8073ffffffffffffffffffffffffffffffffffffffff167f6599d9dd7f97ccdc3d99ab507544f9f6ebfca20c63a7e3c018da49eeaefb164a60405160405180910390a250565b611f0f81600061204e90919063ffffffff16565b8073ffffffffffffffffffffffffffffffffffffffff167f83fd4cbc7bc934bdfbae994ac6e72fcc0e50abd6995c1949520e761ba650d58260405160405180910390a250565b600073ffffffffffffffffffffffffffffffffffffffff168173ffffffffffffffffffffffffffffffffffffffff1603611f8e57600080fd5b8073ffffffffffffffffffffffffffffffffffffffff16600760009054906101000a900473ffffffffffffffffffffffffffffffffffffffff1673ffffffffffffffffffffffffffffffffffffffff167f5c486528ec3e3f0ea91181cff8116f02bfa350e03b8b6f12e00765adbb5af85c60405160405180910390a380600760006101000a81548173ffffffffffffffffffffffffffffffffffffffff021916908373ffffffffffffffffffffffffffffffffffffffff16021790555050565b600073ffffffffffffffffffffffffffffffffffffffff168173ffffffffffffffffffffffffffffffffffffffff160361208757600080fd5b6120918282611d5c565b61209a57600080fd5b60008260000160008373ffffffffffffffffffffffffffffffffffffffff1673ffffffffffffffffffffffffffffffffffffffff16815260200190815260200160002060006101000a81548160ff0219169083151502179055505050565b6000604051905090565b600080fd5b600080fd5b6000819050919050565b61211f8161210c565b811461212a57600080fd5b50565b60008135905061213c81612116565b92915050565b60006020828403121561215857612157612102565b5b60006121668482850161212d565b91505092915050565b600073ffffffffffffffffffffffffffffffffffffffff82169050919050565b600061219a8261216f565b9050919050565b6121aa8161218f565b81146121b557600080fd5b50565b6000813590506121c7816121a1565b92915050565b6000602082840312156121e3576121e2612102565b5b60006121f1848285016121b8565b91505092915050565b60008115159050919050565b61220f816121fa565b82525050565b600060208201905061222a6000830184612206565b92915050565b600080fd5b600080fd5b6000601f19601f8301169050919050565b7f4e487b7100000000000000000000000000000000000000000000000000000000600052604160045260246000fd5b6122838261223a565b810181811067ffffffffffffffff821117156122a2576122a161224b565b5b80604052505050565b60006122b56120f8565b90506122c1828261227a565b919050565b600067ffffffffffffffff8211156122e1576122e061224b565b5b6122ea8261223a565b9050602081019050919050565b82818337600083830152505050565b6000612319612314846122c6565b6122ab565b90508281526020810184848401111561233557612334612235565b5b6123408482856122f7565b509392505050565b600082601f83011261235d5761235c612230565b5b813561236d848260208601612306565b91505092915050565b600080600080600060a0868803121561239257612391612102565b5b60006123a08882890161212d565b955050602086013567ffffffffffffffff8111156123c1576123c0612107565b5b6123cd88828901612348565b945050604086013567ffffffffffffffff8111156123ee576123ed612107565b5b6123fa88828901612348565b935050606086013567ffffffffffffffff81111561241b5761241a612107565b5b61242788828901612348565b925050608086013567ffffffffffffffff81111561244857612447612107565b5b61245488828901612348565b9150509295509295909350565b6000806040838503121561247857612477612102565b5b60006124868582860161212d565b92505060206124978582860161212d565b9150509250929050565b600080604083850312156124b8576124b7612102565b5b60006124c68582860161212d565b92505060206124d7858286016121b8565b9150509250929050565b6124ea8161210c565b82525050565b6124f98161218f565b82525050565b600081519050919050565b600082825260208201905092915050565b60005b8381101561253957808201518184015260208101905061251e565b60008484015250505050565b6000612550826124ff565b61255a818561250a565b935061256a81856020860161251b565b6125738161223a565b840191505092915050565b600061018082019050612594600083018f6124e1565b6125a1602083018e6124e1565b6125ae604083018d6124f0565b6125bb606083018c6124f0565b81810360808301526125cd818b612545565b905081810360a08301526125e1818a612545565b905081810360c08301526125f58189612545565b905081810360e08301526126098188612545565b90506126196101008301876124e1565b81810361012083015261262c8186612545565b905061263c6101408301856124f0565b61264a6101608301846124f0565b9d9c50505050505050505050505050565b600060208201905061267060008301846124f0565b92915050565b7f4e487b7100000000000000000000000000000000000000000000000000000000600052602160045260246000fd5b60006020820190506126ba60008301846124e1565b92915050565b7f4e487b7100000000000000000000000000000000000000000000000000000000600052602260045260246000fd5b6000600282049050600182168061270757607f821691505b60208210810361271a576127196126c0565b5b50919050565b60008190508160005260206000209050919050565b60006020601f8301049050919050565b600082821b905092915050565b6000600883026127827fffffffffffffffffffffffffffffffffffffffffffffffffffffffffffffffff82612745565b61278c8683612745565b95508019841693508086168417925050509392505050565b6000819050919050565b60006127c96127c46127bf8461210c565b6127a4565b61210c565b9050919050565b6000819050919050565b6127e3836127ae565b6127f76127ef826127d0565b848454612752565b825550505050565b600090565b61280c6127ff565b6128178184846127da565b505050565b5b8181101561283b57612830600082612804565b60018101905061281d565b5050565b601f8211156128805761285181612720565b61285a84612735565b81016020851015612869578190505b61287d61287585612735565b83018261281c565b50505b505050565b600082821c905092915050565b60006128a360001984600802612885565b1980831691505092915050565b60006128bc8383612892565b9150826002028217905092915050565b6128d5826124ff565b67ffffffffffffffff8111156128ee576128ed61224b565b5b6128f882546126ef565b61290382828561283f565b600060209050601f8311600181146129365760008415612924578287015190505b61292e85826128b0565b865550612996565b601f19841661294486612720565b60005b8281101561296c57848901518255600182019150602085019450602081019050612947565b868310156129895784890151612985601f891682612892565b8355505b6001600288020188555050505b505050505050565b7f4e487b7100000000000000000000000000000000000000000000000000000000600052601160045260246000fd5b60006129d88261210c565b91506129e38361210c565b92508282019050808211156129fb576129fa61299e565b5b92915050565b7f546869732061646472657373206973206e6f74206120526567756c61746f7200600082015250565b6000612a37601f8361250a565b9150612a4282612a01565b602082019050919050565b60006020820190508181036000830152612a6681612a2a565b9050919050565b6000612a788261210c565b9150612a838361210c565b9250828203905081811115612a9b57612a9a61299e565b5b9291505056fea26469706673582212209152e10b3f992c1be061139b297bd62272912f66223f78f1f1645b018b1de66b64736f6c63430008110033",
  "immutableReferences": {},
  "source": "pragma solidity >=0.8.7;\n\nimport \"./SupplyChain.sol\";\n\n/// Provides basic authorization control\ncontract Ownable is SupplyChain {\n    address private origOwner;\n\n    // Define an Event\n    event TransferOwnership(address indexed oldOwner, address indexed newOwner);\n\n    /// Assign the contract to an owner\n    constructor() {\n        origOwner = msg.sender;\n        emit TransferOwnership(address(0), origOwner);\n    }\n\n    /// Look up the address of the owner\n    function contractOwner() public view returns (address) {\n        return origOwner;\n    }\n\n    /// Define a function modifier 'onlyOwner'\n    modifier onlyContractOwner() {\n        require(isOwner());\n        _;\n    }\n\n    /// Check if the calling address is the owner of the contract\n    function isOwner() public view returns (bool) {\n        return msg.sender == origOwner;\n    }\n\n    /// Define a function to renounce ownerhip\n    function renounceOwnership() public onlyOwner {\n        emit TransferOwnership(origOwner, address(0));\n        origOwner = address(0);\n    }\n\n    /// Define a public function to transfer ownership\n    function transferOwnership(address newOwner) public onlyOwner {\n        _transferOwnership(newOwner);\n    }\n\n    /// Define an internal function to transfer ownership\n    function _transferOwnership(address newOwner) internal {\n        require(newOwner != address(0));\n        emit TransferOwnership(origOwner, newOwner);\n        origOwner = newOwner;\n    }\n}\n",
  "sourcePath": "/Users/israelandrade/Documents/Udacity/blockchain-nanodegree/supply-chain-dapp/supply-chain/contracts/Ownable.sol",
  "compiler": {
    "name": "solc",
    "version": "0.8.17+commit.8df45f5f.Emscripten.clang"
  },
  "schemaVersion": "3.4.9",
  "updatedAt": "2022-10-25T17:33:15.431Z",
  "devdoc": {
    "kind": "dev",
    "methods": {},
    "version": 1
  },
  "userdoc": {
    "kind": "user",
    "methods": {
      "constructor": {
        "notice": "Assign the contract to an owner"
      },
      "contractOwner()": {
        "notice": "Look up the address of the owner"
      },
      "isOwner()": {
        "notice": "Check if the calling address is the owner of the contract"
      },
      "renounceOwnership()": {
        "notice": "Define a function to renounce ownerhip"
      },
      "transferOwnership(address)": {
        "notice": "Define a public function to transfer ownership"
      }
    },
    "notice": "Provides basic authorization control",
    "version": 1
  }
}