{
  "contractName": "PharmaRole",
  "abi": [
    {
      "inputs": [],
      "stateMutability": "nonpayable",
      "type": "constructor"
    },
    {
      "anonymous": false,
      "inputs": [
        {
          "indexed": true,
          "internalType": "address",
          "name": "account",
          "type": "address"
        }
      ],
      "name": "PharmaAdded",
      "type": "event"
    },
    {
      "anonymous": false,
      "inputs": [
        {
          "indexed": true,
          "internalType": "address",
          "name": "account",
          "type": "address"
        }
      ],
      "name": "PharmaRemoved",
      "type": "event"
    },
    {
      "inputs": [
        {
          "internalType": "address",
          "name": "account",
          "type": "address"
        }
      ],
      "name": "isPharma",
      "outputs": [
        {
          "internalType": "bool",
          "name": "",
          "type": "bool"
        }
      ],
      "stateMutability": "view",
      "type": "function",
      "constant": true
    },
    {
      "inputs": [
        {
          "internalType": "address",
          "name": "account",
          "type": "address"
        }
      ],
      "name": "addPharma",
      "outputs": [],
      "stateMutability": "nonpayable",
      "type": "function"
    },
    {
      "inputs": [],
      "name": "renouncePharma",
      "outputs": [],
      "stateMutability": "nonpayable",
      "type": "function"
    }
  ],
  "bytecode": "0x608060405234801561001057600080fd5b506100203361002560201b60201c565b6101c5565b61003d81600061008360201b6100d01790919060201c565b8073ffffffffffffffffffffffffffffffffffffffff167f36179de14e9e7cbce2e0a64264f3eb82e80b70aac44ff098d9c6f70b1d7d659560405160405180910390a250565b600073ffffffffffffffffffffffffffffffffffffffff168173ffffffffffffffffffffffffffffffffffffffff16036100bc57600080fd5b6100cc828261013460201b60201c565b156100d657600080fd5b60018260000160008373ffffffffffffffffffffffffffffffffffffffff1673ffffffffffffffffffffffffffffffffffffffff16815260200190815260200160002060006101000a81548160ff0219169083151502179055505050565b60008073ffffffffffffffffffffffffffffffffffffffff168273ffffffffffffffffffffffffffffffffffffffff160361016e57600080fd5b8260000160008373ffffffffffffffffffffffffffffffffffffffff1673ffffffffffffffffffffffffffffffffffffffff16815260200190815260200160002060009054906101000a900460ff16905092915050565b610466806101d46000396000f3fe608060405234801561001057600080fd5b50600436106100415760003560e01c80631b90c4be1461004657806381612e4f14610062578063d1e4fd0f1461006c575b600080fd5b610060600480360381019061005b91906103cd565b61009c565b005b61006a6100a8565b005b610086600480360381019061008191906103cd565b6100b3565b6040516100939190610415565b60405180910390f35b6100a58161017b565b50565b6100b1336101d5565b565b60006100c982600061022f90919063ffffffff16565b9050919050565b600073ffffffffffffffffffffffffffffffffffffffff168173ffffffffffffffffffffffffffffffffffffffff160361010957600080fd5b610113828261022f565b1561011d57600080fd5b60018260000160008373ffffffffffffffffffffffffffffffffffffffff1673ffffffffffffffffffffffffffffffffffffffff16815260200190815260200160002060006101000a81548160ff0219169083151502179055505050565b61018f8160006100d090919063ffffffff16565b8073ffffffffffffffffffffffffffffffffffffffff167f36179de14e9e7cbce2e0a64264f3eb82e80b70aac44ff098d9c6f70b1d7d659560405160405180910390a250565b6101e98160006102c090919063ffffffff16565b8073ffffffffffffffffffffffffffffffffffffffff167fa9a482e6375ef89327f2177c114191d0b88502ca4a7b961d211cc45786ee510760405160405180910390a250565b60008073ffffffffffffffffffffffffffffffffffffffff168273ffffffffffffffffffffffffffffffffffffffff160361026957600080fd5b8260000160008373ffffffffffffffffffffffffffffffffffffffff1673ffffffffffffffffffffffffffffffffffffffff16815260200190815260200160002060009054906101000a900460ff16905092915050565b600073ffffffffffffffffffffffffffffffffffffffff168173ffffffffffffffffffffffffffffffffffffffff16036102f957600080fd5b610303828261022f565b61030c57600080fd5b60008260000160008373ffffffffffffffffffffffffffffffffffffffff1673ffffffffffffffffffffffffffffffffffffffff16815260200190815260200160002060006101000a81548160ff0219169083151502179055505050565b600080fd5b600073ffffffffffffffffffffffffffffffffffffffff82169050919050565b600061039a8261036f565b9050919050565b6103aa8161038f565b81146103b557600080fd5b50565b6000813590506103c7816103a1565b92915050565b6000602082840312156103e3576103e261036a565b5b60006103f1848285016103b8565b91505092915050565b60008115159050919050565b61040f816103fa565b82525050565b600060208201905061042a6000830184610406565b9291505056fea2646970667358221220fe896116ccff6263b25bb8f0e1bba1f3ea4b43b78765340306c9e2e13418d54964736f6c63430008110033",
  "immutableReferences": {},
  "source": "pragma solidity >=0.8.7;\n\nimport \"./Roles.sol\";\n\ncontract PharmaRole {\n    using Roles for Roles.Role;\n\n    event PharmaAdded(address indexed account);\n    event PharmaRemoved(address indexed account);\n\n    Roles.Role private pharmas;\n\n    constructor() {\n        _addPharma(msg.sender);\n    }\n\n    // Define a modifier that checks to see if msg.sender has the appropriate role\n    modifier onlyPharma() {\n        require(isPharma(msg.sender));\n        _;\n    }\n\n    // Define a function 'isPharma' to check this role\n    function isPharma(address account) public view returns (bool) {\n        return pharmas.has(account);\n    }\n\n    // Define a function 'addPharma' that adds this role\n    function addPharma(address account) public {\n        _addPharma(account);\n    }\n\n    // Define a function 'renouncePharma' to renounce this role\n    function renouncePharma() public {\n        _removePharma(msg.sender);\n    }\n\n    // Define an internal function '_addPharma' to add this role, called by 'addPharma'\n    function _addPharma(address account) internal {\n        pharmas.add(account);\n        emit PharmaAdded(account);\n    }\n\n    // Define an internal function '_removePharma' to remove this role, called by 'removePharma'\n    function _removePharma(address account) internal {\n        pharmas.remove(account);\n        emit PharmaRemoved(account);\n    }\n}\n",
  "sourcePath": "/Users/israelandrade/Documents/Udacity/blockchain-nanodegree/supply-chain-dapp/supply-chain/contracts/PharmaRole.sol",
  "compiler": {
    "name": "solc",
    "version": "0.8.17+commit.8df45f5f.Emscripten.clang"
  },
  "schemaVersion": "3.4.9",
  "updatedAt": "2022-10-26T15:18:52.925Z",
  "networkType": "ethereum",
  "devdoc": {
    "kind": "dev",
    "methods": {},
    "version": 1
  },
  "userdoc": {
    "kind": "user",
    "methods": {},
    "version": 1
  }
}