{
  "contractName": "SupplyChain",
  "abi": [
    {
      "inputs": [],
      "stateMutability": "nonpayable",
      "type": "constructor"
    },
    {
      "anonymous": false,
      "inputs": [
        {
          "indexed": false,
          "internalType": "uint256",
          "name": "upc",
          "type": "uint256"
        }
      ],
      "name": "Approved",
      "type": "event"
    },
    {
      "anonymous": false,
      "inputs": [
        {
          "indexed": false,
          "internalType": "uint256",
          "name": "upc",
          "type": "uint256"
        }
      ],
      "name": "Available",
      "type": "event"
    },
    {
      "anonymous": false,
      "inputs": [
        {
          "indexed": false,
          "internalType": "uint256",
          "name": "upc",
          "type": "uint256"
        }
      ],
      "name": "Bought",
      "type": "event"
    },
    {
      "anonymous": false,
      "inputs": [
        {
          "indexed": true,
          "internalType": "address",
          "name": "account",
          "type": "address"
        }
      ],
      "name": "BuyerAdded",
      "type": "event"
    },
    {
      "anonymous": false,
      "inputs": [
        {
          "indexed": true,
          "internalType": "address",
          "name": "account",
          "type": "address"
        }
      ],
      "name": "BuyerRemoved",
      "type": "event"
    },
    {
      "anonymous": false,
      "inputs": [
        {
          "indexed": true,
          "internalType": "address",
          "name": "account",
          "type": "address"
        }
      ],
      "name": "PharmaAdded",
      "type": "event"
    },
    {
      "anonymous": false,
      "inputs": [
        {
          "indexed": true,
          "internalType": "address",
          "name": "account",
          "type": "address"
        }
      ],
      "name": "PharmaRemoved",
      "type": "event"
    },
    {
      "anonymous": false,
      "inputs": [
        {
          "indexed": false,
          "internalType": "uint256",
          "name": "upc",
          "type": "uint256"
        }
      ],
      "name": "Produced",
      "type": "event"
    },
    {
      "anonymous": false,
      "inputs": [
        {
          "indexed": true,
          "internalType": "address",
          "name": "account",
          "type": "address"
        }
      ],
      "name": "RegulatorAdded",
      "type": "event"
    },
    {
      "anonymous": false,
      "inputs": [
        {
          "indexed": true,
          "internalType": "address",
          "name": "account",
          "type": "address"
        }
      ],
      "name": "RegulatorRemoved",
      "type": "event"
    },
    {
      "anonymous": false,
      "inputs": [
        {
          "indexed": false,
          "internalType": "uint256",
          "name": "upc",
          "type": "uint256"
        }
      ],
      "name": "SentToMarket",
      "type": "event"
    },
    {
      "anonymous": false,
      "inputs": [
        {
          "indexed": false,
          "internalType": "uint256",
          "name": "upc",
          "type": "uint256"
        }
      ],
      "name": "SentToVerification",
      "type": "event"
    },
    {
      "anonymous": false,
      "inputs": [
        {
          "indexed": false,
          "internalType": "uint256",
          "name": "upc",
          "type": "uint256"
        }
      ],
      "name": "Tested",
      "type": "event"
    },
    {
      "inputs": [
        {
          "internalType": "address",
          "name": "account",
          "type": "address"
        }
      ],
      "name": "addBuyer",
      "outputs": [],
      "stateMutability": "nonpayable",
      "type": "function"
    },
    {
      "inputs": [
        {
          "internalType": "address",
          "name": "account",
          "type": "address"
        }
      ],
      "name": "addPharma",
      "outputs": [],
      "stateMutability": "nonpayable",
      "type": "function"
    },
    {
      "inputs": [
        {
          "internalType": "address",
          "name": "account",
          "type": "address"
        }
      ],
      "name": "addRegulator",
      "outputs": [],
      "stateMutability": "nonpayable",
      "type": "function"
    },
    {
      "inputs": [
        {
          "internalType": "address",
          "name": "account",
          "type": "address"
        }
      ],
      "name": "isBuyer",
      "outputs": [
        {
          "internalType": "bool",
          "name": "",
          "type": "bool"
        }
      ],
      "stateMutability": "view",
      "type": "function",
      "constant": true
    },
    {
      "inputs": [
        {
          "internalType": "address",
          "name": "account",
          "type": "address"
        }
      ],
      "name": "isPharma",
      "outputs": [
        {
          "internalType": "bool",
          "name": "",
          "type": "bool"
        }
      ],
      "stateMutability": "view",
      "type": "function",
      "constant": true
    },
    {
      "inputs": [
        {
          "internalType": "address",
          "name": "account",
          "type": "address"
        }
      ],
      "name": "isRegulator",
      "outputs": [
        {
          "internalType": "bool",
          "name": "",
          "type": "bool"
        }
      ],
      "stateMutability": "view",
      "type": "function",
      "constant": true
    },
    {
      "inputs": [],
      "name": "renounceBuyer",
      "outputs": [],
      "stateMutability": "nonpayable",
      "type": "function"
    },
    {
      "inputs": [],
      "name": "renouncePharma",
      "outputs": [],
      "stateMutability": "nonpayable",
      "type": "function"
    },
    {
      "inputs": [],
      "name": "renounceRegulator",
      "outputs": [],
      "stateMutability": "nonpayable",
      "type": "function"
    },
    {
      "inputs": [],
      "name": "kill",
      "outputs": [],
      "stateMutability": "nonpayable",
      "type": "function"
    },
    {
      "inputs": [
        {
          "internalType": "uint256",
          "name": "_upc",
          "type": "uint256"
        },
        {
          "internalType": "string",
          "name": "_originPharmaName",
          "type": "string"
        },
        {
          "internalType": "string",
          "name": "_originPharmaInformation",
          "type": "string"
        },
        {
          "internalType": "string",
          "name": "_originPharmaCountry",
          "type": "string"
        },
        {
          "internalType": "string",
          "name": "_productName",
          "type": "string"
        }
      ],
      "name": "produceMedicine",
      "outputs": [],
      "stateMutability": "payable",
      "type": "function",
      "payable": true
    },
    {
      "inputs": [
        {
          "internalType": "uint256",
          "name": "_upc",
          "type": "uint256"
        }
      ],
      "name": "testMedicine",
      "outputs": [],
      "stateMutability": "nonpayable",
      "type": "function"
    },
    {
      "inputs": [
        {
          "internalType": "uint256",
          "name": "_upc",
          "type": "uint256"
        },
        {
          "internalType": "address",
          "name": "_regulatorId",
          "type": "address"
        }
      ],
      "name": "sendToRegulation",
      "outputs": [],
      "stateMutability": "nonpayable",
      "type": "function"
    },
    {
      "inputs": [
        {
          "internalType": "uint256",
          "name": "_upc",
          "type": "uint256"
        }
      ],
      "name": "approveMedicine",
      "outputs": [],
      "stateMutability": "nonpayable",
      "type": "function"
    },
    {
      "inputs": [
        {
          "internalType": "uint256",
          "name": "_upc",
          "type": "uint256"
        },
        {
          "internalType": "uint256",
          "name": "_price",
          "type": "uint256"
        }
      ],
      "name": "sendToMarket",
      "outputs": [],
      "stateMutability": "nonpayable",
      "type": "function"
    },
    {
      "inputs": [
        {
          "internalType": "uint256",
          "name": "_upc",
          "type": "uint256"
        }
      ],
      "name": "buyMedicine",
      "outputs": [],
      "stateMutability": "payable",
      "type": "function",
      "payable": true
    },
    {
      "inputs": [
        {
          "internalType": "uint256",
          "name": "_upc",
          "type": "uint256"
        }
      ],
      "name": "replenishHospitals",
      "outputs": [],
      "stateMutability": "nonpayable",
      "type": "function"
    },
    {
      "inputs": [
        {
          "internalType": "uint256",
          "name": "_upc",
          "type": "uint256"
        }
      ],
      "name": "fetchItem",
      "outputs": [
        {
          "internalType": "uint256",
          "name": "_sku",
          "type": "uint256"
        },
        {
          "internalType": "uint256",
          "name": "upc",
          "type": "uint256"
        },
        {
          "internalType": "address",
          "name": "ownerId",
          "type": "address"
        },
        {
          "internalType": "address",
          "name": "originPharmaId",
          "type": "address"
        },
        {
          "internalType": "string",
          "name": "originPharmaName",
          "type": "string"
        },
        {
          "internalType": "string",
          "name": "originPharmaInformation",
          "type": "string"
        },
        {
          "internalType": "string",
          "name": "originPharmaCountry",
          "type": "string"
        },
        {
          "internalType": "string",
          "name": "productName",
          "type": "string"
        },
        {
          "internalType": "uint256",
          "name": "productPrice",
          "type": "uint256"
        },
        {
          "internalType": "string",
          "name": "itemState",
          "type": "string"
        },
        {
          "internalType": "address",
          "name": "regulatorId",
          "type": "address"
        },
        {
          "internalType": "address",
          "name": "buyerId",
          "type": "address"
        }
      ],
      "stateMutability": "view",
      "type": "function",
      "constant": true
    }
  ],
  "bytecode": "0x60806040523480156200001157600080fd5b5062000023336200009460201b60201c565b6200003433620000f560201b60201c565b62000045336200015660201b60201c565b33600360006101000a81548173ffffffffffffffffffffffffffffffffffffffff021916908373ffffffffffffffffffffffffffffffffffffffff1602179055506001600481905550620002fe565b620000af816000620001b760201b620019021790919060201c565b8073ffffffffffffffffffffffffffffffffffffffff167f6599d9dd7f97ccdc3d99ab507544f9f6ebfca20c63a7e3c018da49eeaefb164a60405160405180910390a250565b62000110816001620001b760201b620019021790919060201c565b8073ffffffffffffffffffffffffffffffffffffffff167f2860b5ba44f983f8f363ee6eeb3c24cbca3096803fbdd5129b9e253f01cac07660405160405180910390a250565b62000171816002620001b760201b620019021790919060201c565b8073ffffffffffffffffffffffffffffffffffffffff167f36179de14e9e7cbce2e0a64264f3eb82e80b70aac44ff098d9c6f70b1d7d659560405160405180910390a250565b600073ffffffffffffffffffffffffffffffffffffffff168173ffffffffffffffffffffffffffffffffffffffff1603620001f157600080fd5b6200020382826200026c60201b60201c565b156200020e57600080fd5b60018260000160008373ffffffffffffffffffffffffffffffffffffffff1673ffffffffffffffffffffffffffffffffffffffff16815260200190815260200160002060006101000a81548160ff0219169083151502179055505050565b60008073ffffffffffffffffffffffffffffffffffffffff168273ffffffffffffffffffffffffffffffffffffffff1603620002a757600080fd5b8260000160008373ffffffffffffffffffffffffffffffffffffffff1673ffffffffffffffffffffffffffffffffffffffff16815260200190815260200160002060009054906101000a900460ff16905092915050565b6126c8806200030e6000396000f3fe6080604052600436106101095760003560e01c80637fd6a66b11610095578063ad4b9cfb11610064578063ad4b9cfb14610308578063bbf8980314610350578063c204a0cf14610379578063d1e4fd0f14610390578063faac9e79146103cd57610109565b80637fd6a66b1461027657806381612e4f1461029f5780638e2b65d7146102b6578063ac63f3c7146102df57610109565b80633221a13e116100dc5780633221a13e146101b457806334e823bd146101d057806341c0e1b5146101f957806354fc9169146102105780635ba4251e1461024d57610109565b80630c5484d71461010e5780631b90c4be146101375780631beadbe2146101605780632a55feec14610177575b600080fd5b34801561011a57600080fd5b5061013560048036038101906101309190611d4e565b6103e9565b005b34801561014357600080fd5b5061015e60048036038101906101599190611dd9565b610528565b005b34801561016c57600080fd5b50610175610534565b005b34801561018357600080fd5b5061019e60048036038101906101999190611dd9565b61053f565b6040516101ab9190611e21565b60405180910390f35b6101ce60048036038101906101c99190611f82565b61055c565b005b3480156101dc57600080fd5b506101f760048036038101906101f2919061206d565b61085f565b005b34801561020557600080fd5b5061020e6109cc565b005b34801561021c57600080fd5b5061023760048036038101906102329190611dd9565b610a5e565b6040516102449190611e21565b60405180910390f35b34801561025957600080fd5b50610274600480360381019061026f9190611d4e565b610a7b565b005b34801561028257600080fd5b5061029d60048036038101906102989190611d4e565b610bcc565b005b3480156102ab57600080fd5b506102b4610da8565b005b3480156102c257600080fd5b506102dd60048036038101906102d891906120ad565b610db3565b005b3480156102eb57600080fd5b5061030660048036038101906103019190611dd9565b610ff7565b005b34801561031457600080fd5b5061032f600480360381019061032a9190611d4e565b611003565b6040516103479c9b9a9998979695949392919061218a565b60405180910390f35b34801561035c57600080fd5b5061037760048036038101906103729190611dd9565b6115da565b005b34801561038557600080fd5b5061038e6115e6565b005b34801561039c57600080fd5b506103b760048036038101906103b29190611dd9565b6115f1565b6040516103c49190611e21565b60405180910390f35b6103e760048036038101906103e29190611d4e565b61160e565b005b80600060068111156103fe576103fd612267565b5b6005600083815260200190815260200160002060090160009054906101000a900460ff16600681111561043457610433612267565b5b1461043e57600080fd5b816005600082815260200190815260200160002060020160009054906101000a900473ffffffffffffffffffffffffffffffffffffffff1673ffffffffffffffffffffffffffffffffffffffff163373ffffffffffffffffffffffffffffffffffffffff16146104ad57600080fd5b60016005600085815260200190815260200160002060090160006101000a81548160ff021916908360068111156104e7576104e6612267565b5b02179055507f06974b56d21c283fee3ed0905f648b2e17cb684cc8dc972ea99704bea957814e8360405161051b9190612296565b60405180910390a1505050565b610531816119ad565b50565b61053d33611a07565b565b6000610555826000611a6190919063ffffffff16565b9050919050565b610565336115f1565b61056e57600080fd5b60405180610180016040528060045481526020018681526020013373ffffffffffffffffffffffffffffffffffffffff1681526020013373ffffffffffffffffffffffffffffffffffffffff16815260200185815260200184815260200183815260200182815260200160008152602001600060068111156105f3576105f2612267565b5b8152602001600073ffffffffffffffffffffffffffffffffffffffff168152602001600073ffffffffffffffffffffffffffffffffffffffff1681525060056000878152602001908152602001600020600082015181600001556020820151816001015560408201518160020160006101000a81548173ffffffffffffffffffffffffffffffffffffffff021916908373ffffffffffffffffffffffffffffffffffffffff16021790555060608201518160030160006101000a81548173ffffffffffffffffffffffffffffffffffffffff021916908373ffffffffffffffffffffffffffffffffffffffff16021790555060808201518160040190816106fa91906124bd565b5060a082015181600501908161071091906124bd565b5060c082015181600601908161072691906124bd565b5060e082015181600701908161073c91906124bd565b5061010082015181600801556101208201518160090160006101000a81548160ff0219169083600681111561077457610773612267565b5b02179055506101408201518160090160016101000a81548173ffffffffffffffffffffffffffffffffffffffff021916908373ffffffffffffffffffffffffffffffffffffffff16021790555061016082015181600a0160006101000a81548173ffffffffffffffffffffffffffffffffffffffff021916908373ffffffffffffffffffffffffffffffffffffffff160217905550905050600160045461081b91906125be565b6004819055507f9d1715437821cd9a90cba5d1a68995c308d9ad9afc754ed9a1cff429760796e6856040516108509190612296565b60405180910390a15050505050565b816003600681111561087457610873612267565b5b6005600083815260200190815260200160002060090160009054906101000a900460ff1660068111156108aa576108a9612267565b5b146108b457600080fd5b6108bd336115f1565b6108c657600080fd5b826005600082815260200190815260200160002060020160009054906101000a900473ffffffffffffffffffffffffffffffffffffffff1673ffffffffffffffffffffffffffffffffffffffff163373ffffffffffffffffffffffffffffffffffffffff161461093557600080fd5b82600560008681526020019081526020016000206008018190555060046005600086815260200190815260200160002060090160006101000a81548160ff0219169083600681111561098a57610989612267565b5b02179055507fee26ccdb1a6d7eb1f4a368e8d6eed2d6e0bc5758fae5e321cc2ee4ceeba8072c846040516109be9190612296565b60405180910390a150505050565b600360009054906101000a900473ffffffffffffffffffffffffffffffffffffffff1673ffffffffffffffffffffffffffffffffffffffff163373ffffffffffffffffffffffffffffffffffffffff1603610a5c57600360009054906101000a900473ffffffffffffffffffffffffffffffffffffffff1673ffffffffffffffffffffffffffffffffffffffff16ff5b565b6000610a74826001611a6190919063ffffffff16565b9050919050565b806005600082815260200190815260200160002060020160009054906101000a900473ffffffffffffffffffffffffffffffffffffffff1673ffffffffffffffffffffffffffffffffffffffff163373ffffffffffffffffffffffffffffffffffffffff1614610aea57600080fd5b610af33361053f565b610afc57600080fd5b8160056006811115610b1157610b10612267565b5b6005600083815260200190815260200160002060090160009054906101000a900460ff166006811115610b4757610b46612267565b5b14610b5157600080fd5b60066005600085815260200190815260200160002060090160006101000a81548160ff02191690836006811115610b8b57610b8a612267565b5b02179055507f35b677314912c75b758fd6ff715435bd387f759049e9c455bc0a51567cb8d83983604051610bbf9190612296565b60405180910390a1505050565b8060026006811115610be157610be0612267565b5b6005600083815260200190815260200160002060090160009054906101000a900460ff166006811115610c1757610c16612267565b5b14610c2157600080fd5b610c2a33610a5e565b610c3357600080fd5b816005600082815260200190815260200160002060020160009054906101000a900473ffffffffffffffffffffffffffffffffffffffff1673ffffffffffffffffffffffffffffffffffffffff163373ffffffffffffffffffffffffffffffffffffffff1614610ca257600080fd5b60036005600085815260200190815260200160002060090160006101000a81548160ff02191690836006811115610cdc57610cdb612267565b5b02179055506005600084815260200190815260200160002060030160009054906101000a900473ffffffffffffffffffffffffffffffffffffffff166005600085815260200190815260200160002060020160006101000a81548173ffffffffffffffffffffffffffffffffffffffff021916908373ffffffffffffffffffffffffffffffffffffffff1602179055507f3ad93af63cb7967b23e4fb500b7d7d28b07516325dcf341f88bebf959d82c1cb83604051610d9b9190612296565b60405180910390a1505050565b610db133611af2565b565b8160016006811115610dc857610dc7612267565b5b6005600083815260200190815260200160002060090160009054906101000a900460ff166006811115610dfe57610dfd612267565b5b14610e0857600080fd5b610e11336115f1565b610e1a57600080fd5b826005600082815260200190815260200160002060020160009054906101000a900473ffffffffffffffffffffffffffffffffffffffff1673ffffffffffffffffffffffffffffffffffffffff163373ffffffffffffffffffffffffffffffffffffffff1614610e8957600080fd5b610e9283610a5e565b610ed1576040517f08c379a0000000000000000000000000000000000000000000000000000000008152600401610ec89061263e565b60405180910390fd5b826005600086815260200190815260200160002060090160016101000a81548173ffffffffffffffffffffffffffffffffffffffff021916908373ffffffffffffffffffffffffffffffffffffffff16021790555060026005600086815260200190815260200160002060090160006101000a81548160ff02191690836006811115610f6057610f5f612267565b5b0217905550826005600086815260200190815260200160002060020160006101000a81548173ffffffffffffffffffffffffffffffffffffffff021916908373ffffffffffffffffffffffffffffffffffffffff1602179055507ff12328dacf931f6c8c8c904ea8b9791d681613ed5ec258dce2866c311795c9ea84604051610fe99190612296565b60405180910390a150505050565b61100081611b4c565b50565b60008060008060608060608060006060600080600560008e8152602001908152602001600020600001549b50600560008e8152602001908152602001600020600101549a50600560008e815260200190815260200160002060020160009054906101000a900473ffffffffffffffffffffffffffffffffffffffff169950600560008e815260200190815260200160002060030160009054906101000a900473ffffffffffffffffffffffffffffffffffffffff169850600560008e815260200190815260200160002060050180546110db906122e0565b80601f0160208091040260200160405190810160405280929190818152602001828054611107906122e0565b80156111545780601f1061112957610100808354040283529160200191611154565b820191906000526020600020905b81548152906001019060200180831161113757829003601f168201915b50505050509650600560008e8152602001908152602001600020600601805461117c906122e0565b80601f01602080910402602001604051908101604052809291908181526020018280546111a8906122e0565b80156111f55780601f106111ca576101008083540402835291602001916111f5565b820191906000526020600020905b8154815290600101906020018083116111d857829003601f168201915b50505050509550600560008e8152602001908152602001600020600401805461121d906122e0565b80601f0160208091040260200160405190810160405280929190818152602001828054611249906122e0565b80156112965780601f1061126b57610100808354040283529160200191611296565b820191906000526020600020905b81548152906001019060200180831161127957829003601f168201915b50505050509750600560008e815260200190815260200160002060070180546112be906122e0565b80601f01602080910402602001604051908101604052809291908181526020018280546112ea906122e0565b80156113375780601f1061130c57610100808354040283529160200191611337565b820191906000526020600020905b81548152906001019060200180831161131a57829003601f168201915b50505050509450600560008e8152602001908152602001600020600801549350600560008e815260200190815260200160002060090160019054906101000a900473ffffffffffffffffffffffffffffffffffffffff169150600560008e8152602001908152602001600020600a0160009054906101000a900473ffffffffffffffffffffffffffffffffffffffff1690506000600560008e815260200190815260200160002060090160009054906101000a900460ff16600681111561140157611400612267565b5b905060008103611444576040518060400160405280600881526020017f50726f647563656400000000000000000000000000000000000000000000000081525093505b60018103611485576040518060400160405280600681526020017f546573746564000000000000000000000000000000000000000000000000000081525093505b600281036114c6576040518060400160405280601281526020017f53656e74546f566572696669636174696f6e000000000000000000000000000081525093505b60038103611507576040518060400160405280600881526020017f417070726f76656400000000000000000000000000000000000000000000000081525093505b60048103611548576040518060400160405280600c81526020017f53656e74546f4d61726b6574000000000000000000000000000000000000000081525093505b60058103611589576040518060400160405280600681526020017f426f75676874000000000000000000000000000000000000000000000000000081525093505b600681036115ca576040518060400160405280600981526020017f417661696c61626c65000000000000000000000000000000000000000000000081525093505b5091939597999b5091939597999b565b6115e381611ba6565b50565b6115ef33611c00565b565b6000611607826002611a6190919063ffffffff16565b9050919050565b6116173361053f565b61162057600080fd5b806004600681111561163557611634612267565b5b6005600083815260200190815260200160002060090160009054906101000a900460ff16600681111561166b5761166a612267565b5b1461167557600080fd5b60056000838152602001908152602001600020600801548034101561169957600080fd5b826000600560008681526020019081526020016000206008015490503360056000878152602001908152602001600020600a0160006101000a81548173ffffffffffffffffffffffffffffffffffffffff021916908373ffffffffffffffffffffffffffffffffffffffff160217905550336005600087815260200190815260200160002060020160006101000a81548173ffffffffffffffffffffffffffffffffffffffff021916908373ffffffffffffffffffffffffffffffffffffffff160217905550600580600087815260200190815260200160002060090160006101000a81548160ff0219169083600681111561179857611797612267565b5b02179055506005600086815260200190815260200160002060030160009054906101000a900473ffffffffffffffffffffffffffffffffffffffff1673ffffffffffffffffffffffffffffffffffffffff166108fc829081150290604051600060405180830381858888f19350505050158015611819573d6000803e3d6000fd5b507f4e08ba899977cf7d4c2964bce71c6b9a7ef76ee5166a4c1249a1e08016e33ef1856040516118499190612296565b60405180910390a1506000600560008381526020019081526020016000206008015490506000813461187b919061265e565b905060056000848152602001908152602001600020600a0160009054906101000a900473ffffffffffffffffffffffffffffffffffffffff1673ffffffffffffffffffffffffffffffffffffffff166108fc829081150290604051600060405180830381858888f193505050501580156118f9573d6000803e3d6000fd5b50505050505050565b600073ffffffffffffffffffffffffffffffffffffffff168173ffffffffffffffffffffffffffffffffffffffff160361193b57600080fd5b6119458282611a61565b1561194f57600080fd5b60018260000160008373ffffffffffffffffffffffffffffffffffffffff1673ffffffffffffffffffffffffffffffffffffffff16815260200190815260200160002060006101000a81548160ff0219169083151502179055505050565b6119c181600261190290919063ffffffff16565b8073ffffffffffffffffffffffffffffffffffffffff167f36179de14e9e7cbce2e0a64264f3eb82e80b70aac44ff098d9c6f70b1d7d659560405160405180910390a250565b611a1b816001611c5a90919063ffffffff16565b8073ffffffffffffffffffffffffffffffffffffffff167fc8ecc453f78c13ccc7596603b61935f29b99dc15bb91b91647e1ccf2469ad00a60405160405180910390a250565b60008073ffffffffffffffffffffffffffffffffffffffff168273ffffffffffffffffffffffffffffffffffffffff1603611a9b57600080fd5b8260000160008373ffffffffffffffffffffffffffffffffffffffff1673ffffffffffffffffffffffffffffffffffffffff16815260200190815260200160002060009054906101000a900460ff16905092915050565b611b06816002611c5a90919063ffffffff16565b8073ffffffffffffffffffffffffffffffffffffffff167fa9a482e6375ef89327f2177c114191d0b88502ca4a7b961d211cc45786ee510760405160405180910390a250565b611b6081600161190290919063ffffffff16565b8073ffffffffffffffffffffffffffffffffffffffff167f2860b5ba44f983f8f363ee6eeb3c24cbca3096803fbdd5129b9e253f01cac07660405160405180910390a250565b611bba81600061190290919063ffffffff16565b8073ffffffffffffffffffffffffffffffffffffffff167f6599d9dd7f97ccdc3d99ab507544f9f6ebfca20c63a7e3c018da49eeaefb164a60405160405180910390a250565b611c14816000611c5a90919063ffffffff16565b8073ffffffffffffffffffffffffffffffffffffffff167f83fd4cbc7bc934bdfbae994ac6e72fcc0e50abd6995c1949520e761ba650d58260405160405180910390a250565b600073ffffffffffffffffffffffffffffffffffffffff168173ffffffffffffffffffffffffffffffffffffffff1603611c9357600080fd5b611c9d8282611a61565b611ca657600080fd5b60008260000160008373ffffffffffffffffffffffffffffffffffffffff1673ffffffffffffffffffffffffffffffffffffffff16815260200190815260200160002060006101000a81548160ff0219169083151502179055505050565b6000604051905090565b600080fd5b600080fd5b6000819050919050565b611d2b81611d18565b8114611d3657600080fd5b50565b600081359050611d4881611d22565b92915050565b600060208284031215611d6457611d63611d0e565b5b6000611d7284828501611d39565b91505092915050565b600073ffffffffffffffffffffffffffffffffffffffff82169050919050565b6000611da682611d7b565b9050919050565b611db681611d9b565b8114611dc157600080fd5b50565b600081359050611dd381611dad565b92915050565b600060208284031215611def57611dee611d0e565b5b6000611dfd84828501611dc4565b91505092915050565b60008115159050919050565b611e1b81611e06565b82525050565b6000602082019050611e366000830184611e12565b92915050565b600080fd5b600080fd5b6000601f19601f8301169050919050565b7f4e487b7100000000000000000000000000000000000000000000000000000000600052604160045260246000fd5b611e8f82611e46565b810181811067ffffffffffffffff82111715611eae57611ead611e57565b5b80604052505050565b6000611ec1611d04565b9050611ecd8282611e86565b919050565b600067ffffffffffffffff821115611eed57611eec611e57565b5b611ef682611e46565b9050602081019050919050565b82818337600083830152505050565b6000611f25611f2084611ed2565b611eb7565b905082815260208101848484011115611f4157611f40611e41565b5b611f4c848285611f03565b509392505050565b600082601f830112611f6957611f68611e3c565b5b8135611f79848260208601611f12565b91505092915050565b600080600080600060a08688031215611f9e57611f9d611d0e565b5b6000611fac88828901611d39565b955050602086013567ffffffffffffffff811115611fcd57611fcc611d13565b5b611fd988828901611f54565b945050604086013567ffffffffffffffff811115611ffa57611ff9611d13565b5b61200688828901611f54565b935050606086013567ffffffffffffffff81111561202757612026611d13565b5b61203388828901611f54565b925050608086013567ffffffffffffffff81111561205457612053611d13565b5b61206088828901611f54565b9150509295509295909350565b6000806040838503121561208457612083611d0e565b5b600061209285828601611d39565b92505060206120a385828601611d39565b9150509250929050565b600080604083850312156120c4576120c3611d0e565b5b60006120d285828601611d39565b92505060206120e385828601611dc4565b9150509250929050565b6120f681611d18565b82525050565b61210581611d9b565b82525050565b600081519050919050565b600082825260208201905092915050565b60005b8381101561214557808201518184015260208101905061212a565b60008484015250505050565b600061215c8261210b565b6121668185612116565b9350612176818560208601612127565b61217f81611e46565b840191505092915050565b6000610180820190506121a0600083018f6120ed565b6121ad602083018e6120ed565b6121ba604083018d6120fc565b6121c7606083018c6120fc565b81810360808301526121d9818b612151565b905081810360a08301526121ed818a612151565b905081810360c08301526122018189612151565b905081810360e08301526122158188612151565b90506122256101008301876120ed565b8181036101208301526122388186612151565b90506122486101408301856120fc565b6122566101608301846120fc565b9d9c50505050505050505050505050565b7f4e487b7100000000000000000000000000000000000000000000000000000000600052602160045260246000fd5b60006020820190506122ab60008301846120ed565b92915050565b7f4e487b7100000000000000000000000000000000000000000000000000000000600052602260045260246000fd5b600060028204905060018216806122f857607f821691505b60208210810361230b5761230a6122b1565b5b50919050565b60008190508160005260206000209050919050565b60006020601f8301049050919050565b600082821b905092915050565b6000600883026123737fffffffffffffffffffffffffffffffffffffffffffffffffffffffffffffffff82612336565b61237d8683612336565b95508019841693508086168417925050509392505050565b6000819050919050565b60006123ba6123b56123b084611d18565b612395565b611d18565b9050919050565b6000819050919050565b6123d48361239f565b6123e86123e0826123c1565b848454612343565b825550505050565b600090565b6123fd6123f0565b6124088184846123cb565b505050565b5b8181101561242c576124216000826123f5565b60018101905061240e565b5050565b601f8211156124715761244281612311565b61244b84612326565b8101602085101561245a578190505b61246e61246685612326565b83018261240d565b50505b505050565b600082821c905092915050565b600061249460001984600802612476565b1980831691505092915050565b60006124ad8383612483565b9150826002028217905092915050565b6124c68261210b565b67ffffffffffffffff8111156124df576124de611e57565b5b6124e982546122e0565b6124f4828285612430565b600060209050601f8311600181146125275760008415612515578287015190505b61251f85826124a1565b865550612587565b601f19841661253586612311565b60005b8281101561255d57848901518255600182019150602085019450602081019050612538565b8683101561257a5784890151612576601f891682612483565b8355505b6001600288020188555050505b505050505050565b7f4e487b7100000000000000000000000000000000000000000000000000000000600052601160045260246000fd5b60006125c982611d18565b91506125d483611d18565b92508282019050808211156125ec576125eb61258f565b5b92915050565b7f546869732061646472657373206973206e6f74206120526567756c61746f7200600082015250565b6000612628601f83612116565b9150612633826125f2565b602082019050919050565b600060208201905081810360008301526126578161261b565b9050919050565b600061266982611d18565b915061267483611d18565b925082820390508181111561268c5761268b61258f565b5b9291505056fea26469706673582212206c77365e7228204092c27c16e4a82db0d9f12a10c0d360e70e84bc20457bec4864736f6c63430008110033",
  "immutableReferences": {},
  "source": "pragma solidity >=0.8.7;\n\nimport \"./BuyerRole.sol\";\nimport \"./RegulatorRole.sol\";\nimport \"./PharmaRole.sol\";\n\ncontract SupplyChain is BuyerRole, RegulatorRole, PharmaRole {\n    address owner;\n    uint sku;\n\n    // Define a public mapping 'items' that maps the UPC to an Item.\n    mapping(uint => Item) items;\n\n    // Define a public mapping 'itemsHistory' that maps the UPC to an array of TxHash,\n    // that track its journey through the supply chain -- to be sent from DApp.\n    mapping(uint => string[]) itemsHistory;\n\n    // Define enum 'State' with the following values:\n    enum State {\n        Produced, // 0\n        Tested, // 1\n        SentToVerification, // 2\n        Approved, // 3\n        SentToMarket, // 4\n        Bought, // 5\n        Available // 6\n    }\n\n    State constant defaultState = State.Produced;\n\n    // Define a struct 'Item' with the following fields:\n    struct Item {\n        uint sku;\n        uint upc;\n        address ownerId;\n        address originPharmaId;\n        string originPharmaName;\n        string originPharmaInformation;\n        string originPharmaCountry;\n        string productName;\n        uint productPrice;\n        State itemState;\n        address regulatorId;\n        address buyerId;\n    }\n\n    event Produced(uint upc);\n    event Tested(uint upc);\n    event SentToVerification(uint upc);\n    event Approved(uint upc);\n    event SentToMarket(uint upc);\n    event Bought(uint upc);\n    event Available(uint upc);\n\n    modifier onlyOwner() {\n        require(msg.sender == owner);\n        _;\n    }\n\n    modifier verifyCaller(address _address) {\n        require(msg.sender == _address);\n        _;\n    }\n\n    modifier onlyOwnerOfMedicine(uint _upc) {\n        require(msg.sender == items[_upc].ownerId);\n        _;\n    }\n\n    modifier paidEnough(uint _price) {\n        require(msg.value >= _price);\n        _;\n    }\n\n    // Define a modifier that checks the price and refunds the remaining balance\n    modifier checkValue(uint _upc) {\n        _;\n        uint _price = items[_upc].productPrice;\n        uint amountToReturn = msg.value - _price;\n        payable(items[_upc].buyerId).transfer(amountToReturn);\n    }\n\n    modifier produced(uint _upc) {\n        require(items[_upc].itemState == State.Produced);\n        _;\n    }\n\n    modifier tested(uint _upc) {\n        require(items[_upc].itemState == State.Tested);\n        _;\n    }\n\n    modifier sentToVerification(uint _upc) {\n        require(items[_upc].itemState == State.SentToVerification);\n        _;\n    }\n\n    modifier approved(uint _upc) {\n        require(items[_upc].itemState == State.Approved);\n        _;\n    }\n\n    modifier sentToMarket(uint _upc) {\n        require(items[_upc].itemState == State.SentToMarket);\n        _;\n    }\n\n    modifier bought(uint _upc) {\n        require(items[_upc].itemState == State.Bought);\n        _;\n    }\n\n    modifier available(uint _upc) {\n        require(items[_upc].itemState == State.Available);\n        _;\n    }\n\n    constructor() {\n        owner = msg.sender;\n        sku = 1;\n    }\n\n    // Define a function 'kill' if required\n    function kill() public {\n        if (msg.sender == owner) {\n            selfdestruct(payable(owner));\n        }\n    }\n\n    // Define a function 'produceMedicine' that allows a pharma to produce a new item in market\n    function produceMedicine(\n        uint _upc,\n        string memory _originPharmaName,\n        string memory _originPharmaInformation,\n        string memory _originPharmaCountry,\n        string memory _productName\n    ) public payable onlyPharma {\n        items[_upc] = Item({\n            sku: sku,\n            upc: _upc,\n            ownerId: msg.sender,\n            originPharmaId: msg.sender,\n            originPharmaName: _originPharmaName,\n            originPharmaInformation: _originPharmaInformation,\n            originPharmaCountry: _originPharmaCountry,\n            productName: _productName,\n            productPrice: 0,\n            itemState: State.Produced,\n            regulatorId: address(0),\n            buyerId: address(0)\n        });\n        sku = sku + 1;\n        emit Produced(_upc);\n    }\n\n    // Define a function 'testMedicine' that allows a Pharma to mark an item 'Tested'\n    function testMedicine(uint _upc)\n        public\n        produced(_upc)\n        onlyOwnerOfMedicine(_upc)\n    {\n        items[_upc].itemState = State.Tested;\n        emit Tested(_upc);\n    }\n\n    // Define a function 'sendToRegulation' that allows a pharma to mark an item 'SentToRegulation' and change its ownership to a regulator\n    function sendToRegulation(uint _upc, address _regulatorId)\n        public\n        tested(_upc)\n        onlyPharma\n        onlyOwnerOfMedicine(_upc)\n    {\n        require(isRegulator(_regulatorId), \"This address is not a Regulator\");\n        items[_upc].regulatorId = _regulatorId;\n        items[_upc].itemState = State.SentToVerification;\n        items[_upc].ownerId = _regulatorId;\n        emit SentToVerification(_upc);\n    }\n\n    function approveMedicine(uint _upc)\n        public\n        sentToVerification(_upc)\n        onlyRegulator\n        onlyOwnerOfMedicine(_upc)\n    {\n        items[_upc].itemState = State.Approved;\n        items[_upc].ownerId = items[_upc].originPharmaId;\n        emit Approved(_upc);\n    }\n\n    function sendToMarket(uint _upc, uint _price)\n        public\n        approved(_upc)\n        onlyPharma\n        onlyOwnerOfMedicine(_upc)\n    {\n        items[_upc].productPrice = _price;\n        items[_upc].itemState = State.SentToMarket;\n        emit SentToMarket(_upc);\n    }\n\n    function buyMedicine(uint _upc)\n        public\n        payable\n        onlyBuyer\n        sentToMarket(_upc)\n        paidEnough(items[_upc].productPrice)\n        checkValue(_upc)\n    {\n        uint price = items[_upc].productPrice;\n        items[_upc].buyerId = msg.sender;\n        items[_upc].ownerId = msg.sender;\n        items[_upc].itemState = State.Bought;\n        payable(items[_upc].originPharmaId).transfer(price);\n        emit Bought(_upc);\n    }\n\n    function replenishHospitals(uint _upc)\n        public\n        onlyOwnerOfMedicine(_upc)\n        onlyBuyer\n        bought(_upc)\n    {\n        items[_upc].itemState = State.Available;\n        emit Available(_upc);\n    }\n\n    function fetchItem(uint _upc)\n        public\n        view\n        returns (\n            uint _sku,\n            uint upc,\n            address ownerId,\n            address originPharmaId,\n            string memory originPharmaName,\n            string memory originPharmaInformation,\n            string memory originPharmaCountry,\n            string memory productName,\n            uint productPrice,\n            string memory itemState,\n            address regulatorId,\n            address buyerId\n        )\n    {\n        _sku = items[_upc].sku;\n        upc = items[_upc].upc;\n        ownerId = items[_upc].ownerId;\n        originPharmaId = items[_upc].originPharmaId;\n        originPharmaInformation = items[_upc].originPharmaInformation;\n        originPharmaCountry = items[_upc].originPharmaCountry;\n        originPharmaName = items[_upc].originPharmaName;\n        productName = items[_upc].productName;\n        productPrice = items[_upc].productPrice;\n        regulatorId = items[_upc].regulatorId;\n        buyerId = items[_upc].buyerId;\n        uint stateIndex = uint(items[_sku].itemState);\n        if (stateIndex == 0) itemState = \"Produced\";\n        if (stateIndex == 1) itemState = \"Tested\";\n        if (stateIndex == 2) itemState = \"SentToVerification\";\n        if (stateIndex == 3) itemState = \"Approved\";\n        if (stateIndex == 4) itemState = \"SentToMarket\";\n        if (stateIndex == 5) itemState = \"Bought\";\n        if (stateIndex == 6) itemState = \"Available\";\n    }\n}\n",
  "sourcePath": "/Users/israelandrade/Documents/Udacity/blockchain-nanodegree/supply-chain-dapp/supply-chain/contracts/SupplyChain.sol",
  "compiler": {
    "name": "solc",
    "version": "0.8.17+commit.8df45f5f.Emscripten.clang"
  },
  "schemaVersion": "3.4.9",
  "updatedAt": "2022-10-26T15:18:52.936Z",
  "networkType": "ethereum",
  "devdoc": {
    "kind": "dev",
    "methods": {},
    "version": 1
  },
  "userdoc": {
    "kind": "user",
    "methods": {},
    "version": 1
  }
}