{
  "contractName": "SupplyChain",
  "abi": [
    {
      "inputs": [],
      "stateMutability": "nonpayable",
      "type": "constructor"
    },
    {
      "anonymous": false,
      "inputs": [
        {
          "indexed": false,
          "internalType": "uint256",
          "name": "upc",
          "type": "uint256"
        }
      ],
      "name": "Approved",
      "type": "event"
    },
    {
      "anonymous": false,
      "inputs": [
        {
          "indexed": false,
          "internalType": "uint256",
          "name": "upc",
          "type": "uint256"
        }
      ],
      "name": "Available",
      "type": "event"
    },
    {
      "anonymous": false,
      "inputs": [
        {
          "indexed": false,
          "internalType": "uint256",
          "name": "upc",
          "type": "uint256"
        }
      ],
      "name": "Bought",
      "type": "event"
    },
    {
      "anonymous": false,
      "inputs": [
        {
          "indexed": true,
          "internalType": "address",
          "name": "account",
          "type": "address"
        }
      ],
      "name": "BuyerAdded",
      "type": "event"
    },
    {
      "anonymous": false,
      "inputs": [
        {
          "indexed": true,
          "internalType": "address",
          "name": "account",
          "type": "address"
        }
      ],
      "name": "BuyerRemoved",
      "type": "event"
    },
    {
      "anonymous": false,
      "inputs": [
        {
          "indexed": true,
          "internalType": "address",
          "name": "account",
          "type": "address"
        }
      ],
      "name": "PharmaAdded",
      "type": "event"
    },
    {
      "anonymous": false,
      "inputs": [
        {
          "indexed": true,
          "internalType": "address",
          "name": "account",
          "type": "address"
        }
      ],
      "name": "PharmaRemoved",
      "type": "event"
    },
    {
      "anonymous": false,
      "inputs": [
        {
          "indexed": false,
          "internalType": "uint256",
          "name": "upc",
          "type": "uint256"
        }
      ],
      "name": "Produced",
      "type": "event"
    },
    {
      "anonymous": false,
      "inputs": [
        {
          "indexed": true,
          "internalType": "address",
          "name": "account",
          "type": "address"
        }
      ],
      "name": "RegulatorAdded",
      "type": "event"
    },
    {
      "anonymous": false,
      "inputs": [
        {
          "indexed": true,
          "internalType": "address",
          "name": "account",
          "type": "address"
        }
      ],
      "name": "RegulatorRemoved",
      "type": "event"
    },
    {
      "anonymous": false,
      "inputs": [
        {
          "indexed": false,
          "internalType": "uint256",
          "name": "upc",
          "type": "uint256"
        }
      ],
      "name": "SentToMarket",
      "type": "event"
    },
    {
      "anonymous": false,
      "inputs": [
        {
          "indexed": false,
          "internalType": "uint256",
          "name": "upc",
          "type": "uint256"
        }
      ],
      "name": "SentToVerification",
      "type": "event"
    },
    {
      "anonymous": false,
      "inputs": [
        {
          "indexed": false,
          "internalType": "uint256",
          "name": "upc",
          "type": "uint256"
        }
      ],
      "name": "Tested",
      "type": "event"
    },
    {
      "inputs": [
        {
          "internalType": "address",
          "name": "account",
          "type": "address"
        }
      ],
      "name": "addBuyer",
      "outputs": [],
      "stateMutability": "nonpayable",
      "type": "function"
    },
    {
      "inputs": [
        {
          "internalType": "address",
          "name": "account",
          "type": "address"
        }
      ],
      "name": "addPharma",
      "outputs": [],
      "stateMutability": "nonpayable",
      "type": "function"
    },
    {
      "inputs": [
        {
          "internalType": "address",
          "name": "account",
          "type": "address"
        }
      ],
      "name": "addRegulator",
      "outputs": [],
      "stateMutability": "nonpayable",
      "type": "function"
    },
    {
      "inputs": [
        {
          "internalType": "address",
          "name": "account",
          "type": "address"
        }
      ],
      "name": "isBuyer",
      "outputs": [
        {
          "internalType": "bool",
          "name": "",
          "type": "bool"
        }
      ],
      "stateMutability": "view",
      "type": "function",
      "constant": true
    },
    {
      "inputs": [
        {
          "internalType": "address",
          "name": "account",
          "type": "address"
        }
      ],
      "name": "isPharma",
      "outputs": [
        {
          "internalType": "bool",
          "name": "",
          "type": "bool"
        }
      ],
      "stateMutability": "view",
      "type": "function",
      "constant": true
    },
    {
      "inputs": [
        {
          "internalType": "address",
          "name": "account",
          "type": "address"
        }
      ],
      "name": "isRegulator",
      "outputs": [
        {
          "internalType": "bool",
          "name": "",
          "type": "bool"
        }
      ],
      "stateMutability": "view",
      "type": "function",
      "constant": true
    },
    {
      "inputs": [],
      "name": "renounceBuyer",
      "outputs": [],
      "stateMutability": "nonpayable",
      "type": "function"
    },
    {
      "inputs": [],
      "name": "renouncePharma",
      "outputs": [],
      "stateMutability": "nonpayable",
      "type": "function"
    },
    {
      "inputs": [],
      "name": "renounceRegulator",
      "outputs": [],
      "stateMutability": "nonpayable",
      "type": "function"
    },
    {
      "inputs": [],
      "name": "kill",
      "outputs": [],
      "stateMutability": "nonpayable",
      "type": "function"
    },
    {
      "inputs": [
        {
          "internalType": "uint256",
          "name": "_upc",
          "type": "uint256"
        },
        {
          "internalType": "string",
          "name": "_originPharmaName",
          "type": "string"
        },
        {
          "internalType": "string",
          "name": "_originPharmaInformation",
          "type": "string"
        },
        {
          "internalType": "string",
          "name": "_originPharmaCountry",
          "type": "string"
        },
        {
          "internalType": "string",
          "name": "_productName",
          "type": "string"
        }
      ],
      "name": "produceMedicine",
      "outputs": [],
      "stateMutability": "payable",
      "type": "function",
      "payable": true
    },
    {
      "inputs": [
        {
          "internalType": "uint256",
          "name": "_upc",
          "type": "uint256"
        }
      ],
      "name": "testMedicine",
      "outputs": [],
      "stateMutability": "nonpayable",
      "type": "function"
    },
    {
      "inputs": [
        {
          "internalType": "uint256",
          "name": "_upc",
          "type": "uint256"
        },
        {
          "internalType": "address",
          "name": "_regulatorId",
          "type": "address"
        }
      ],
      "name": "sendToRegulation",
      "outputs": [],
      "stateMutability": "nonpayable",
      "type": "function"
    },
    {
      "inputs": [
        {
          "internalType": "uint256",
          "name": "_upc",
          "type": "uint256"
        }
      ],
      "name": "approveMedicine",
      "outputs": [],
      "stateMutability": "nonpayable",
      "type": "function"
    },
    {
      "inputs": [
        {
          "internalType": "uint256",
          "name": "_upc",
          "type": "uint256"
        },
        {
          "internalType": "uint256",
          "name": "_price",
          "type": "uint256"
        }
      ],
      "name": "sendToMarket",
      "outputs": [],
      "stateMutability": "nonpayable",
      "type": "function"
    },
    {
      "inputs": [
        {
          "internalType": "uint256",
          "name": "_upc",
          "type": "uint256"
        }
      ],
      "name": "buyMedicine",
      "outputs": [],
      "stateMutability": "payable",
      "type": "function",
      "payable": true
    },
    {
      "inputs": [
        {
          "internalType": "uint256",
          "name": "_upc",
          "type": "uint256"
        }
      ],
      "name": "replenishHospitals",
      "outputs": [],
      "stateMutability": "nonpayable",
      "type": "function"
    },
    {
      "inputs": [
        {
          "internalType": "uint256",
          "name": "_upc",
          "type": "uint256"
        }
      ],
      "name": "fetchItem",
      "outputs": [
        {
          "internalType": "uint256",
          "name": "_sku",
          "type": "uint256"
        },
        {
          "internalType": "uint256",
          "name": "upc",
          "type": "uint256"
        },
        {
          "internalType": "address",
          "name": "ownerId",
          "type": "address"
        },
        {
          "internalType": "address",
          "name": "originPharmaId",
          "type": "address"
        },
        {
          "internalType": "string",
          "name": "originPharmaName",
          "type": "string"
        },
        {
          "internalType": "string",
          "name": "originPharmaInformation",
          "type": "string"
        },
        {
          "internalType": "string",
          "name": "originPharmaCountry",
          "type": "string"
        },
        {
          "internalType": "string",
          "name": "productName",
          "type": "string"
        },
        {
          "internalType": "uint256",
          "name": "productPrice",
          "type": "uint256"
        },
        {
          "internalType": "string",
          "name": "itemState",
          "type": "string"
        },
        {
          "internalType": "address",
          "name": "regulatorId",
          "type": "address"
        },
        {
          "internalType": "address",
          "name": "buyerId",
          "type": "address"
        }
      ],
      "stateMutability": "view",
      "type": "function",
      "constant": true
    }
  ],
  "bytecode": "0x60806040523480156200001157600080fd5b5062000023336200009460201b60201c565b6200003433620000f560201b60201c565b62000045336200015660201b60201c565b33600360006101000a81548173ffffffffffffffffffffffffffffffffffffffff021916908373ffffffffffffffffffffffffffffffffffffffff1602179055506001600481905550620002fe565b620000af816000620001b760201b620019381790919060201c565b8073ffffffffffffffffffffffffffffffffffffffff167f6599d9dd7f97ccdc3d99ab507544f9f6ebfca20c63a7e3c018da49eeaefb164a60405160405180910390a250565b62000110816001620001b760201b620019381790919060201c565b8073ffffffffffffffffffffffffffffffffffffffff167f2860b5ba44f983f8f363ee6eeb3c24cbca3096803fbdd5129b9e253f01cac07660405160405180910390a250565b62000171816002620001b760201b620019381790919060201c565b8073ffffffffffffffffffffffffffffffffffffffff167f36179de14e9e7cbce2e0a64264f3eb82e80b70aac44ff098d9c6f70b1d7d659560405160405180910390a250565b600073ffffffffffffffffffffffffffffffffffffffff168173ffffffffffffffffffffffffffffffffffffffff1603620001f157600080fd5b6200020382826200026c60201b60201c565b156200020e57600080fd5b60018260000160008373ffffffffffffffffffffffffffffffffffffffff1673ffffffffffffffffffffffffffffffffffffffff16815260200190815260200160002060006101000a81548160ff0219169083151502179055505050565b60008073ffffffffffffffffffffffffffffffffffffffff168273ffffffffffffffffffffffffffffffffffffffff1603620002a757600080fd5b8260000160008373ffffffffffffffffffffffffffffffffffffffff1673ffffffffffffffffffffffffffffffffffffffff16815260200190815260200160002060009054906101000a900460ff16905092915050565b6126fe806200030e6000396000f3fe6080604052600436106101095760003560e01c80637fd6a66b11610095578063ad4b9cfb11610064578063ad4b9cfb14610308578063bbf8980314610350578063c204a0cf14610379578063d1e4fd0f14610390578063faac9e79146103cd57610109565b80637fd6a66b1461027657806381612e4f1461029f5780638e2b65d7146102b6578063ac63f3c7146102df57610109565b80633221a13e116100dc5780633221a13e146101b457806334e823bd146101d057806341c0e1b5146101f957806354fc9169146102105780635ba4251e1461024d57610109565b80630c5484d71461010e5780631b90c4be146101375780631beadbe2146101605780632a55feec14610177575b600080fd5b34801561011a57600080fd5b5061013560048036038101906101309190611d84565b6103e9565b005b34801561014357600080fd5b5061015e60048036038101906101599190611e0f565b610528565b005b34801561016c57600080fd5b50610175610546565b005b34801561018357600080fd5b5061019e60048036038101906101999190611e0f565b610551565b6040516101ab9190611e57565b60405180910390f35b6101ce60048036038101906101c99190611fb8565b61056e565b005b3480156101dc57600080fd5b506101f760048036038101906101f291906120a3565b610871565b005b34801561020557600080fd5b5061020e6109de565b005b34801561021c57600080fd5b5061023760048036038101906102329190611e0f565b610a70565b6040516102449190611e57565b60405180910390f35b34801561025957600080fd5b50610274600480360381019061026f9190611d84565b610a8d565b005b34801561028257600080fd5b5061029d60048036038101906102989190611d84565b610bde565b005b3480156102ab57600080fd5b506102b4610dba565b005b3480156102c257600080fd5b506102dd60048036038101906102d891906120e3565b610dc5565b005b3480156102eb57600080fd5b5061030660048036038101906103019190611e0f565b611009565b005b34801561031457600080fd5b5061032f600480360381019061032a9190611d84565b611027565b6040516103479c9b9a999897969594939291906121c0565b60405180910390f35b34801561035c57600080fd5b5061037760048036038101906103729190611e0f565b6115fe565b005b34801561038557600080fd5b5061038e61161c565b005b34801561039c57600080fd5b506103b760048036038101906103b29190611e0f565b611627565b6040516103c49190611e57565b60405180910390f35b6103e760048036038101906103e29190611d84565b611644565b005b80600060068111156103fe576103fd61229d565b5b6005600083815260200190815260200160002060090160009054906101000a900460ff1660068111156104345761043361229d565b5b1461043e57600080fd5b816005600082815260200190815260200160002060020160009054906101000a900473ffffffffffffffffffffffffffffffffffffffff1673ffffffffffffffffffffffffffffffffffffffff163373ffffffffffffffffffffffffffffffffffffffff16146104ad57600080fd5b60016005600085815260200190815260200160002060090160006101000a81548160ff021916908360068111156104e7576104e661229d565b5b02179055507f06974b56d21c283fee3ed0905f648b2e17cb684cc8dc972ea99704bea957814e8360405161051b91906122cc565b60405180910390a1505050565b61053133611627565b61053a57600080fd5b610543816119e3565b50565b61054f33611a3d565b565b6000610567826000611a9790919063ffffffff16565b9050919050565b61057733611627565b61058057600080fd5b60405180610180016040528060045481526020018681526020013373ffffffffffffffffffffffffffffffffffffffff1681526020013373ffffffffffffffffffffffffffffffffffffffff16815260200185815260200184815260200183815260200182815260200160008152602001600060068111156106055761060461229d565b5b8152602001600073ffffffffffffffffffffffffffffffffffffffff168152602001600073ffffffffffffffffffffffffffffffffffffffff1681525060056000878152602001908152602001600020600082015181600001556020820151816001015560408201518160020160006101000a81548173ffffffffffffffffffffffffffffffffffffffff021916908373ffffffffffffffffffffffffffffffffffffffff16021790555060608201518160030160006101000a81548173ffffffffffffffffffffffffffffffffffffffff021916908373ffffffffffffffffffffffffffffffffffffffff160217905550608082015181600401908161070c91906124f3565b5060a082015181600501908161072291906124f3565b5060c082015181600601908161073891906124f3565b5060e082015181600701908161074e91906124f3565b5061010082015181600801556101208201518160090160006101000a81548160ff021916908360068111156107865761078561229d565b5b02179055506101408201518160090160016101000a81548173ffffffffffffffffffffffffffffffffffffffff021916908373ffffffffffffffffffffffffffffffffffffffff16021790555061016082015181600a0160006101000a81548173ffffffffffffffffffffffffffffffffffffffff021916908373ffffffffffffffffffffffffffffffffffffffff160217905550905050600160045461082d91906125f4565b6004819055507f9d1715437821cd9a90cba5d1a68995c308d9ad9afc754ed9a1cff429760796e68560405161086291906122cc565b60405180910390a15050505050565b81600360068111156108865761088561229d565b5b6005600083815260200190815260200160002060090160009054906101000a900460ff1660068111156108bc576108bb61229d565b5b146108c657600080fd5b6108cf33611627565b6108d857600080fd5b826005600082815260200190815260200160002060020160009054906101000a900473ffffffffffffffffffffffffffffffffffffffff1673ffffffffffffffffffffffffffffffffffffffff163373ffffffffffffffffffffffffffffffffffffffff161461094757600080fd5b82600560008681526020019081526020016000206008018190555060046005600086815260200190815260200160002060090160006101000a81548160ff0219169083600681111561099c5761099b61229d565b5b02179055507fee26ccdb1a6d7eb1f4a368e8d6eed2d6e0bc5758fae5e321cc2ee4ceeba8072c846040516109d091906122cc565b60405180910390a150505050565b600360009054906101000a900473ffffffffffffffffffffffffffffffffffffffff1673ffffffffffffffffffffffffffffffffffffffff163373ffffffffffffffffffffffffffffffffffffffff1603610a6e57600360009054906101000a900473ffffffffffffffffffffffffffffffffffffffff1673ffffffffffffffffffffffffffffffffffffffff16ff5b565b6000610a86826001611a9790919063ffffffff16565b9050919050565b806005600082815260200190815260200160002060020160009054906101000a900473ffffffffffffffffffffffffffffffffffffffff1673ffffffffffffffffffffffffffffffffffffffff163373ffffffffffffffffffffffffffffffffffffffff1614610afc57600080fd5b610b0533610551565b610b0e57600080fd5b8160056006811115610b2357610b2261229d565b5b6005600083815260200190815260200160002060090160009054906101000a900460ff166006811115610b5957610b5861229d565b5b14610b6357600080fd5b60066005600085815260200190815260200160002060090160006101000a81548160ff02191690836006811115610b9d57610b9c61229d565b5b02179055507f35b677314912c75b758fd6ff715435bd387f759049e9c455bc0a51567cb8d83983604051610bd191906122cc565b60405180910390a1505050565b8060026006811115610bf357610bf261229d565b5b6005600083815260200190815260200160002060090160009054906101000a900460ff166006811115610c2957610c2861229d565b5b14610c3357600080fd5b610c3c33610a70565b610c4557600080fd5b816005600082815260200190815260200160002060020160009054906101000a900473ffffffffffffffffffffffffffffffffffffffff1673ffffffffffffffffffffffffffffffffffffffff163373ffffffffffffffffffffffffffffffffffffffff1614610cb457600080fd5b60036005600085815260200190815260200160002060090160006101000a81548160ff02191690836006811115610cee57610ced61229d565b5b02179055506005600084815260200190815260200160002060030160009054906101000a900473ffffffffffffffffffffffffffffffffffffffff166005600085815260200190815260200160002060020160006101000a81548173ffffffffffffffffffffffffffffffffffffffff021916908373ffffffffffffffffffffffffffffffffffffffff1602179055507f3ad93af63cb7967b23e4fb500b7d7d28b07516325dcf341f88bebf959d82c1cb83604051610dad91906122cc565b60405180910390a1505050565b610dc333611b28565b565b8160016006811115610dda57610dd961229d565b5b6005600083815260200190815260200160002060090160009054906101000a900460ff166006811115610e1057610e0f61229d565b5b14610e1a57600080fd5b610e2333611627565b610e2c57600080fd5b826005600082815260200190815260200160002060020160009054906101000a900473ffffffffffffffffffffffffffffffffffffffff1673ffffffffffffffffffffffffffffffffffffffff163373ffffffffffffffffffffffffffffffffffffffff1614610e9b57600080fd5b610ea483610a70565b610ee3576040517f08c379a0000000000000000000000000000000000000000000000000000000008152600401610eda90612674565b60405180910390fd5b826005600086815260200190815260200160002060090160016101000a81548173ffffffffffffffffffffffffffffffffffffffff021916908373ffffffffffffffffffffffffffffffffffffffff16021790555060026005600086815260200190815260200160002060090160006101000a81548160ff02191690836006811115610f7257610f7161229d565b5b0217905550826005600086815260200190815260200160002060020160006101000a81548173ffffffffffffffffffffffffffffffffffffffff021916908373ffffffffffffffffffffffffffffffffffffffff1602179055507ff12328dacf931f6c8c8c904ea8b9791d681613ed5ec258dce2866c311795c9ea84604051610ffb91906122cc565b60405180910390a150505050565b61101233610a70565b61101b57600080fd5b61102481611b82565b50565b60008060008060608060608060006060600080600560008e8152602001908152602001600020600001549b50600560008e8152602001908152602001600020600101549a50600560008e815260200190815260200160002060020160009054906101000a900473ffffffffffffffffffffffffffffffffffffffff169950600560008e815260200190815260200160002060030160009054906101000a900473ffffffffffffffffffffffffffffffffffffffff169850600560008e815260200190815260200160002060050180546110ff90612316565b80601f016020809104026020016040519081016040528092919081815260200182805461112b90612316565b80156111785780601f1061114d57610100808354040283529160200191611178565b820191906000526020600020905b81548152906001019060200180831161115b57829003601f168201915b50505050509650600560008e815260200190815260200160002060060180546111a090612316565b80601f01602080910402602001604051908101604052809291908181526020018280546111cc90612316565b80156112195780601f106111ee57610100808354040283529160200191611219565b820191906000526020600020905b8154815290600101906020018083116111fc57829003601f168201915b50505050509550600560008e8152602001908152602001600020600401805461124190612316565b80601f016020809104026020016040519081016040528092919081815260200182805461126d90612316565b80156112ba5780601f1061128f576101008083540402835291602001916112ba565b820191906000526020600020905b81548152906001019060200180831161129d57829003601f168201915b50505050509750600560008e815260200190815260200160002060070180546112e290612316565b80601f016020809104026020016040519081016040528092919081815260200182805461130e90612316565b801561135b5780601f106113305761010080835404028352916020019161135b565b820191906000526020600020905b81548152906001019060200180831161133e57829003601f168201915b50505050509450600560008e8152602001908152602001600020600801549350600560008e815260200190815260200160002060090160019054906101000a900473ffffffffffffffffffffffffffffffffffffffff169150600560008e8152602001908152602001600020600a0160009054906101000a900473ffffffffffffffffffffffffffffffffffffffff1690506000600560008e815260200190815260200160002060090160009054906101000a900460ff1660068111156114255761142461229d565b5b905060008103611468576040518060400160405280600881526020017f50726f647563656400000000000000000000000000000000000000000000000081525093505b600181036114a9576040518060400160405280600681526020017f546573746564000000000000000000000000000000000000000000000000000081525093505b600281036114ea576040518060400160405280601281526020017f53656e74546f566572696669636174696f6e000000000000000000000000000081525093505b6003810361152b576040518060400160405280600881526020017f417070726f76656400000000000000000000000000000000000000000000000081525093505b6004810361156c576040518060400160405280600c81526020017f53656e74546f4d61726b6574000000000000000000000000000000000000000081525093505b600581036115ad576040518060400160405280600681526020017f426f75676874000000000000000000000000000000000000000000000000000081525093505b600681036115ee576040518060400160405280600981526020017f417661696c61626c65000000000000000000000000000000000000000000000081525093505b5091939597999b5091939597999b565b61160733610551565b61161057600080fd5b61161981611bdc565b50565b61162533611c36565b565b600061163d826002611a9790919063ffffffff16565b9050919050565b61164d33610551565b61165657600080fd5b806004600681111561166b5761166a61229d565b5b6005600083815260200190815260200160002060090160009054906101000a900460ff1660068111156116a1576116a061229d565b5b146116ab57600080fd5b6005600083815260200190815260200160002060080154803410156116cf57600080fd5b826000600560008681526020019081526020016000206008015490503360056000878152602001908152602001600020600a0160006101000a81548173ffffffffffffffffffffffffffffffffffffffff021916908373ffffffffffffffffffffffffffffffffffffffff160217905550336005600087815260200190815260200160002060020160006101000a81548173ffffffffffffffffffffffffffffffffffffffff021916908373ffffffffffffffffffffffffffffffffffffffff160217905550600580600087815260200190815260200160002060090160006101000a81548160ff021916908360068111156117ce576117cd61229d565b5b02179055506005600086815260200190815260200160002060030160009054906101000a900473ffffffffffffffffffffffffffffffffffffffff1673ffffffffffffffffffffffffffffffffffffffff166108fc829081150290604051600060405180830381858888f1935050505015801561184f573d6000803e3d6000fd5b507f4e08ba899977cf7d4c2964bce71c6b9a7ef76ee5166a4c1249a1e08016e33ef18560405161187f91906122cc565b60405180910390a150600060056000838152602001908152602001600020600801549050600081346118b19190612694565b905060056000848152602001908152602001600020600a0160009054906101000a900473ffffffffffffffffffffffffffffffffffffffff1673ffffffffffffffffffffffffffffffffffffffff166108fc829081150290604051600060405180830381858888f1935050505015801561192f573d6000803e3d6000fd5b50505050505050565b600073ffffffffffffffffffffffffffffffffffffffff168173ffffffffffffffffffffffffffffffffffffffff160361197157600080fd5b61197b8282611a97565b1561198557600080fd5b60018260000160008373ffffffffffffffffffffffffffffffffffffffff1673ffffffffffffffffffffffffffffffffffffffff16815260200190815260200160002060006101000a81548160ff0219169083151502179055505050565b6119f781600261193890919063ffffffff16565b8073ffffffffffffffffffffffffffffffffffffffff167f36179de14e9e7cbce2e0a64264f3eb82e80b70aac44ff098d9c6f70b1d7d659560405160405180910390a250565b611a51816001611c9090919063ffffffff16565b8073ffffffffffffffffffffffffffffffffffffffff167fc8ecc453f78c13ccc7596603b61935f29b99dc15bb91b91647e1ccf2469ad00a60405160405180910390a250565b60008073ffffffffffffffffffffffffffffffffffffffff168273ffffffffffffffffffffffffffffffffffffffff1603611ad157600080fd5b8260000160008373ffffffffffffffffffffffffffffffffffffffff1673ffffffffffffffffffffffffffffffffffffffff16815260200190815260200160002060009054906101000a900460ff16905092915050565b611b3c816002611c9090919063ffffffff16565b8073ffffffffffffffffffffffffffffffffffffffff167fa9a482e6375ef89327f2177c114191d0b88502ca4a7b961d211cc45786ee510760405160405180910390a250565b611b9681600161193890919063ffffffff16565b8073ffffffffffffffffffffffffffffffffffffffff167f2860b5ba44f983f8f363ee6eeb3c24cbca3096803fbdd5129b9e253f01cac07660405160405180910390a250565b611bf081600061193890919063ffffffff16565b8073ffffffffffffffffffffffffffffffffffffffff167f6599d9dd7f97ccdc3d99ab507544f9f6ebfca20c63a7e3c018da49eeaefb164a60405160405180910390a250565b611c4a816000611c9090919063ffffffff16565b8073ffffffffffffffffffffffffffffffffffffffff167f83fd4cbc7bc934bdfbae994ac6e72fcc0e50abd6995c1949520e761ba650d58260405160405180910390a250565b600073ffffffffffffffffffffffffffffffffffffffff168173ffffffffffffffffffffffffffffffffffffffff1603611cc957600080fd5b611cd38282611a97565b611cdc57600080fd5b60008260000160008373ffffffffffffffffffffffffffffffffffffffff1673ffffffffffffffffffffffffffffffffffffffff16815260200190815260200160002060006101000a81548160ff0219169083151502179055505050565b6000604051905090565b600080fd5b600080fd5b6000819050919050565b611d6181611d4e565b8114611d6c57600080fd5b50565b600081359050611d7e81611d58565b92915050565b600060208284031215611d9a57611d99611d44565b5b6000611da884828501611d6f565b91505092915050565b600073ffffffffffffffffffffffffffffffffffffffff82169050919050565b6000611ddc82611db1565b9050919050565b611dec81611dd1565b8114611df757600080fd5b50565b600081359050611e0981611de3565b92915050565b600060208284031215611e2557611e24611d44565b5b6000611e3384828501611dfa565b91505092915050565b60008115159050919050565b611e5181611e3c565b82525050565b6000602082019050611e6c6000830184611e48565b92915050565b600080fd5b600080fd5b6000601f19601f8301169050919050565b7f4e487b7100000000000000000000000000000000000000000000000000000000600052604160045260246000fd5b611ec582611e7c565b810181811067ffffffffffffffff82111715611ee457611ee3611e8d565b5b80604052505050565b6000611ef7611d3a565b9050611f038282611ebc565b919050565b600067ffffffffffffffff821115611f2357611f22611e8d565b5b611f2c82611e7c565b9050602081019050919050565b82818337600083830152505050565b6000611f5b611f5684611f08565b611eed565b905082815260208101848484011115611f7757611f76611e77565b5b611f82848285611f39565b509392505050565b600082601f830112611f9f57611f9e611e72565b5b8135611faf848260208601611f48565b91505092915050565b600080600080600060a08688031215611fd457611fd3611d44565b5b6000611fe288828901611d6f565b955050602086013567ffffffffffffffff81111561200357612002611d49565b5b61200f88828901611f8a565b945050604086013567ffffffffffffffff8111156120305761202f611d49565b5b61203c88828901611f8a565b935050606086013567ffffffffffffffff81111561205d5761205c611d49565b5b61206988828901611f8a565b925050608086013567ffffffffffffffff81111561208a57612089611d49565b5b61209688828901611f8a565b9150509295509295909350565b600080604083850312156120ba576120b9611d44565b5b60006120c885828601611d6f565b92505060206120d985828601611d6f565b9150509250929050565b600080604083850312156120fa576120f9611d44565b5b600061210885828601611d6f565b925050602061211985828601611dfa565b9150509250929050565b61212c81611d4e565b82525050565b61213b81611dd1565b82525050565b600081519050919050565b600082825260208201905092915050565b60005b8381101561217b578082015181840152602081019050612160565b60008484015250505050565b600061219282612141565b61219c818561214c565b93506121ac81856020860161215d565b6121b581611e7c565b840191505092915050565b6000610180820190506121d6600083018f612123565b6121e3602083018e612123565b6121f0604083018d612132565b6121fd606083018c612132565b818103608083015261220f818b612187565b905081810360a0830152612223818a612187565b905081810360c08301526122378189612187565b905081810360e083015261224b8188612187565b905061225b610100830187612123565b81810361012083015261226e8186612187565b905061227e610140830185612132565b61228c610160830184612132565b9d9c50505050505050505050505050565b7f4e487b7100000000000000000000000000000000000000000000000000000000600052602160045260246000fd5b60006020820190506122e16000830184612123565b92915050565b7f4e487b7100000000000000000000000000000000000000000000000000000000600052602260045260246000fd5b6000600282049050600182168061232e57607f821691505b602082108103612341576123406122e7565b5b50919050565b60008190508160005260206000209050919050565b60006020601f8301049050919050565b600082821b905092915050565b6000600883026123a97fffffffffffffffffffffffffffffffffffffffffffffffffffffffffffffffff8261236c565b6123b3868361236c565b95508019841693508086168417925050509392505050565b6000819050919050565b60006123f06123eb6123e684611d4e565b6123cb565b611d4e565b9050919050565b6000819050919050565b61240a836123d5565b61241e612416826123f7565b848454612379565b825550505050565b600090565b612433612426565b61243e818484612401565b505050565b5b818110156124625761245760008261242b565b600181019050612444565b5050565b601f8211156124a75761247881612347565b6124818461235c565b81016020851015612490578190505b6124a461249c8561235c565b830182612443565b50505b505050565b600082821c905092915050565b60006124ca600019846008026124ac565b1980831691505092915050565b60006124e383836124b9565b9150826002028217905092915050565b6124fc82612141565b67ffffffffffffffff81111561251557612514611e8d565b5b61251f8254612316565b61252a828285612466565b600060209050601f83116001811461255d576000841561254b578287015190505b61255585826124d7565b8655506125bd565b601f19841661256b86612347565b60005b828110156125935784890151825560018201915060208501945060208101905061256e565b868310156125b057848901516125ac601f8916826124b9565b8355505b6001600288020188555050505b505050505050565b7f4e487b7100000000000000000000000000000000000000000000000000000000600052601160045260246000fd5b60006125ff82611d4e565b915061260a83611d4e565b9250828201905080821115612622576126216125c5565b5b92915050565b7f546869732061646472657373206973206e6f74206120526567756c61746f7200600082015250565b600061265e601f8361214c565b915061266982612628565b602082019050919050565b6000602082019050818103600083015261268d81612651565b9050919050565b600061269f82611d4e565b91506126aa83611d4e565b92508282039050818111156126c2576126c16125c5565b5b9291505056fea2646970667358221220d000a06758b4dc338d4d8a64c5062e74f81877e478f16c43850d09eab6cce69164736f6c63430008110033",
  "immutableReferences": {},
  "source": "pragma solidity >=0.8.7;\n\nimport \"./BuyerRole.sol\";\nimport \"./RegulatorRole.sol\";\nimport \"./PharmaRole.sol\";\n\ncontract SupplyChain is BuyerRole, RegulatorRole, PharmaRole {\n    address owner;\n    uint sku;\n\n    // Define a public mapping 'items' that maps the UPC to an Item.\n    mapping(uint => Item) items;\n\n    // Define a public mapping 'itemsHistory' that maps the UPC to an array of TxHash,\n    // that track its journey through the supply chain -- to be sent from DApp.\n    mapping(uint => string[]) itemsHistory;\n\n    // Define enum 'State' with the following values:\n    enum State {\n        Produced, // 0\n        Tested, // 1\n        SentToVerification, // 2\n        Approved, // 3\n        SentToMarket, // 4\n        Bought, // 5\n        Available // 6\n    }\n\n    State constant defaultState = State.Produced;\n\n    // Define a struct 'Item' with the following fields:\n    struct Item {\n        uint sku;\n        uint upc;\n        address ownerId;\n        address originPharmaId;\n        string originPharmaName;\n        string originPharmaInformation;\n        string originPharmaCountry;\n        string productName;\n        uint productPrice;\n        State itemState;\n        address regulatorId;\n        address buyerId;\n    }\n\n    event Produced(uint upc);\n    event Tested(uint upc);\n    event SentToVerification(uint upc);\n    event Approved(uint upc);\n    event SentToMarket(uint upc);\n    event Bought(uint upc);\n    event Available(uint upc);\n\n    modifier onlyOwner() {\n        require(msg.sender == owner);\n        _;\n    }\n\n    modifier verifyCaller(address _address) {\n        require(msg.sender == _address);\n        _;\n    }\n\n    modifier onlyOwnerOfMedicine(uint _upc) {\n        require(msg.sender == items[_upc].ownerId);\n        _;\n    }\n\n    modifier paidEnough(uint _price) {\n        require(msg.value >= _price);\n        _;\n    }\n\n    // Define a modifier that checks the price and refunds the remaining balance\n    modifier checkValue(uint _upc) {\n        _;\n        uint _price = items[_upc].productPrice;\n        uint amountToReturn = msg.value - _price;\n        payable(items[_upc].buyerId).transfer(amountToReturn);\n    }\n\n    modifier produced(uint _upc) {\n        require(items[_upc].itemState == State.Produced);\n        _;\n    }\n\n    modifier tested(uint _upc) {\n        require(items[_upc].itemState == State.Tested);\n        _;\n    }\n\n    modifier sentToVerification(uint _upc) {\n        require(items[_upc].itemState == State.SentToVerification);\n        _;\n    }\n\n    modifier approved(uint _upc) {\n        require(items[_upc].itemState == State.Approved);\n        _;\n    }\n\n    modifier sentToMarket(uint _upc) {\n        require(items[_upc].itemState == State.SentToMarket);\n        _;\n    }\n\n    modifier bought(uint _upc) {\n        require(items[_upc].itemState == State.Bought);\n        _;\n    }\n\n    modifier available(uint _upc) {\n        require(items[_upc].itemState == State.Available);\n        _;\n    }\n\n    constructor() {\n        owner = msg.sender;\n        sku = 1;\n    }\n\n    // Define a function 'kill' if required\n    function kill() public {\n        if (msg.sender == owner) {\n            selfdestruct(payable(owner));\n        }\n    }\n\n    // Define a function 'produceMedicine' that allows a pharma to produce a new item in market\n    function produceMedicine(\n        uint _upc,\n        string memory _originPharmaName,\n        string memory _originPharmaInformation,\n        string memory _originPharmaCountry,\n        string memory _productName\n    ) public payable onlyPharma {\n        items[_upc] = Item({\n            sku: sku,\n            upc: _upc,\n            ownerId: msg.sender,\n            originPharmaId: msg.sender,\n            originPharmaName: _originPharmaName,\n            originPharmaInformation: _originPharmaInformation,\n            originPharmaCountry: _originPharmaCountry,\n            productName: _productName,\n            productPrice: 0,\n            itemState: State.Produced,\n            regulatorId: address(0),\n            buyerId: address(0)\n        });\n        sku = sku + 1;\n        emit Produced(_upc);\n    }\n\n    // Define a function 'testMedicine' that allows a Pharma to mark an item 'Tested'\n    function testMedicine(uint _upc)\n        public\n        produced(_upc)\n        onlyOwnerOfMedicine(_upc)\n    {\n        items[_upc].itemState = State.Tested;\n        emit Tested(_upc);\n    }\n\n    // Define a function 'sendToRegulation' that allows a pharma to mark an item 'SentToRegulation' and change its ownership to a regulator\n    function sendToRegulation(uint _upc, address _regulatorId)\n        public\n        tested(_upc)\n        onlyPharma\n        onlyOwnerOfMedicine(_upc)\n    {\n        require(isRegulator(_regulatorId), \"This address is not a Regulator\");\n        items[_upc].regulatorId = _regulatorId;\n        items[_upc].itemState = State.SentToVerification;\n        items[_upc].ownerId = _regulatorId;\n        emit SentToVerification(_upc);\n    }\n\n    function approveMedicine(uint _upc)\n        public\n        sentToVerification(_upc)\n        onlyRegulator\n        onlyOwnerOfMedicine(_upc)\n    {\n        items[_upc].itemState = State.Approved;\n        items[_upc].ownerId = items[_upc].originPharmaId;\n        emit Approved(_upc);\n    }\n\n    function sendToMarket(uint _upc, uint _price)\n        public\n        approved(_upc)\n        onlyPharma\n        onlyOwnerOfMedicine(_upc)\n    {\n        items[_upc].productPrice = _price;\n        items[_upc].itemState = State.SentToMarket;\n        emit SentToMarket(_upc);\n    }\n\n    function buyMedicine(uint _upc)\n        public\n        payable\n        onlyBuyer\n        sentToMarket(_upc)\n        paidEnough(items[_upc].productPrice)\n        checkValue(_upc)\n    {\n        uint price = items[_upc].productPrice;\n        items[_upc].buyerId = msg.sender;\n        items[_upc].ownerId = msg.sender;\n        items[_upc].itemState = State.Bought;\n        payable(items[_upc].originPharmaId).transfer(price);\n        emit Bought(_upc);\n    }\n\n    function replenishHospitals(uint _upc)\n        public\n        onlyOwnerOfMedicine(_upc)\n        onlyBuyer\n        bought(_upc)\n    {\n        items[_upc].itemState = State.Available;\n        emit Available(_upc);\n    }\n\n    function fetchItem(uint _upc)\n        public\n        view\n        returns (\n            uint _sku,\n            uint upc,\n            address ownerId,\n            address originPharmaId,\n            string memory originPharmaName,\n            string memory originPharmaInformation,\n            string memory originPharmaCountry,\n            string memory productName,\n            uint productPrice,\n            string memory itemState,\n            address regulatorId,\n            address buyerId\n        )\n    {\n        _sku = items[_upc].sku;\n        upc = items[_upc].upc;\n        ownerId = items[_upc].ownerId;\n        originPharmaId = items[_upc].originPharmaId;\n        originPharmaInformation = items[_upc].originPharmaInformation;\n        originPharmaCountry = items[_upc].originPharmaCountry;\n        originPharmaName = items[_upc].originPharmaName;\n        productName = items[_upc].productName;\n        productPrice = items[_upc].productPrice;\n        regulatorId = items[_upc].regulatorId;\n        buyerId = items[_upc].buyerId;\n        uint stateIndex = uint(items[_sku].itemState);\n        if (stateIndex == 0) itemState = \"Produced\";\n        if (stateIndex == 1) itemState = \"Tested\";\n        if (stateIndex == 2) itemState = \"SentToVerification\";\n        if (stateIndex == 3) itemState = \"Approved\";\n        if (stateIndex == 4) itemState = \"SentToMarket\";\n        if (stateIndex == 5) itemState = \"Bought\";\n        if (stateIndex == 6) itemState = \"Available\";\n    }\n}\n",
  "sourcePath": "/Users/israelandrade/Documents/Udacity/blockchain-nanodegree/supply-chain-dapp/supply-chain/contracts/SupplyChain.sol",
  "compiler": {
    "name": "solc",
    "version": "0.8.17+commit.8df45f5f.Emscripten.clang"
  },
  "schemaVersion": "3.4.9",
  "updatedAt": "2022-10-25T19:22:57.516Z",
  "networkType": "ethereum",
  "devdoc": {
    "kind": "dev",
    "methods": {},
    "version": 1
  },
  "userdoc": {
    "kind": "user",
    "methods": {},
    "version": 1
  }
}